{
  "_format": "hh-sol-artifact-1",
  "contractName": "REVVInventory",
  "sourceName": "contracts/solc-0.6/token/ERC1155721/REVVInventory.sol",
  "abi": [
    {
      "anonymous": false,
      "inputs": [
        {
          "indexed": true,
          "internalType": "address",
          "name": "_owner",
          "type": "address"
        },
        {
          "indexed": true,
          "internalType": "address",
          "name": "_approved",
          "type": "address"
        },
        {
          "indexed": true,
          "internalType": "uint256",
          "name": "_tokenId",
          "type": "uint256"
        }
      ],
      "name": "Approval",
      "type": "event"
    },
    {
      "anonymous": false,
      "inputs": [
        {
          "indexed": true,
          "internalType": "address",
          "name": "_owner",
          "type": "address"
        },
        {
          "indexed": true,
          "internalType": "address",
          "name": "_operator",
          "type": "address"
        },
        {
          "indexed": false,
          "internalType": "bool",
          "name": "_approved",
          "type": "bool"
        }
      ],
      "name": "ApprovalForAll",
      "type": "event"
    },
    {
      "anonymous": false,
      "inputs": [
        {
          "indexed": false,
          "internalType": "string",
          "name": "baseMetadataURI",
          "type": "string"
        }
      ],
      "name": "BaseMetadataURISet",
      "type": "event"
    },
    {
      "anonymous": false,
      "inputs": [
        {
          "indexed": true,
          "internalType": "uint256",
          "name": "collectionId",
          "type": "uint256"
        },
        {
          "indexed": true,
          "internalType": "bool",
          "name": "fungible",
          "type": "bool"
        }
      ],
      "name": "CollectionCreated",
      "type": "event"
    },
    {
      "anonymous": false,
      "inputs": [
        {
          "indexed": true,
          "internalType": "address",
          "name": "account",
          "type": "address"
        }
      ],
      "name": "MinterAdded",
      "type": "event"
    },
    {
      "anonymous": false,
      "inputs": [
        {
          "indexed": true,
          "internalType": "address",
          "name": "account",
          "type": "address"
        }
      ],
      "name": "MinterRemoved",
      "type": "event"
    },
    {
      "anonymous": false,
      "inputs": [
        {
          "indexed": true,
          "internalType": "address",
          "name": "previousOwner",
          "type": "address"
        },
        {
          "indexed": true,
          "internalType": "address",
          "name": "newOwner",
          "type": "address"
        }
      ],
      "name": "OwnershipTransferred",
      "type": "event"
    },
    {
      "anonymous": false,
      "inputs": [
        {
          "indexed": false,
          "internalType": "address",
          "name": "account",
          "type": "address"
        }
      ],
      "name": "Paused",
      "type": "event"
    },
    {
      "anonymous": false,
      "inputs": [
        {
          "indexed": true,
          "internalType": "bytes32",
          "name": "role",
          "type": "bytes32"
        },
        {
          "indexed": true,
          "internalType": "bytes32",
          "name": "previousAdminRole",
          "type": "bytes32"
        },
        {
          "indexed": true,
          "internalType": "bytes32",
          "name": "newAdminRole",
          "type": "bytes32"
        }
      ],
      "name": "RoleAdminChanged",
      "type": "event"
    },
    {
      "anonymous": false,
      "inputs": [
        {
          "indexed": true,
          "internalType": "bytes32",
          "name": "role",
          "type": "bytes32"
        },
        {
          "indexed": true,
          "internalType": "address",
          "name": "account",
          "type": "address"
        },
        {
          "indexed": true,
          "internalType": "address",
          "name": "sender",
          "type": "address"
        }
      ],
      "name": "RoleGranted",
      "type": "event"
    },
    {
      "anonymous": false,
      "inputs": [
        {
          "indexed": true,
          "internalType": "bytes32",
          "name": "role",
          "type": "bytes32"
        },
        {
          "indexed": true,
          "internalType": "address",
          "name": "account",
          "type": "address"
        },
        {
          "indexed": true,
          "internalType": "address",
          "name": "sender",
          "type": "address"
        }
      ],
      "name": "RoleRevoked",
      "type": "event"
    },
    {
      "anonymous": false,
      "inputs": [
        {
          "indexed": true,
          "internalType": "address",
          "name": "_from",
          "type": "address"
        },
        {
          "indexed": true,
          "internalType": "address",
          "name": "_to",
          "type": "address"
        },
        {
          "indexed": true,
          "internalType": "uint256",
          "name": "_tokenId",
          "type": "uint256"
        }
      ],
      "name": "Transfer",
      "type": "event"
    },
    {
      "anonymous": false,
      "inputs": [
        {
          "indexed": true,
          "internalType": "address",
          "name": "_operator",
          "type": "address"
        },
        {
          "indexed": true,
          "internalType": "address",
          "name": "_from",
          "type": "address"
        },
        {
          "indexed": true,
          "internalType": "address",
          "name": "_to",
          "type": "address"
        },
        {
          "indexed": false,
          "internalType": "uint256[]",
          "name": "_ids",
          "type": "uint256[]"
        },
        {
          "indexed": false,
          "internalType": "uint256[]",
          "name": "_values",
          "type": "uint256[]"
        }
      ],
      "name": "TransferBatch",
      "type": "event"
    },
    {
      "anonymous": false,
      "inputs": [
        {
          "indexed": true,
          "internalType": "address",
          "name": "_operator",
          "type": "address"
        },
        {
          "indexed": true,
          "internalType": "address",
          "name": "_from",
          "type": "address"
        },
        {
          "indexed": true,
          "internalType": "address",
          "name": "_to",
          "type": "address"
        },
        {
          "indexed": false,
          "internalType": "uint256",
          "name": "_id",
          "type": "uint256"
        },
        {
          "indexed": false,
          "internalType": "uint256",
          "name": "_value",
          "type": "uint256"
        }
      ],
      "name": "TransferSingle",
      "type": "event"
    },
    {
      "anonymous": false,
      "inputs": [
        {
          "indexed": false,
          "internalType": "string",
          "name": "_value",
          "type": "string"
        },
        {
          "indexed": true,
          "internalType": "uint256",
          "name": "_id",
          "type": "uint256"
        }
      ],
      "name": "URI",
      "type": "event"
    },
    {
      "anonymous": false,
      "inputs": [
        {
          "indexed": false,
          "internalType": "address",
          "name": "account",
          "type": "address"
        }
      ],
      "name": "Unpaused",
      "type": "event"
    },
    {
      "inputs": [],
      "name": "DEFAULT_ADMIN_ROLE",
      "outputs": [
        {
          "internalType": "bytes32",
          "name": "",
          "type": "bytes32"
        }
      ],
      "stateMutability": "view",
      "type": "function"
    },
    {
      "inputs": [
        {
          "internalType": "address",
          "name": "account",
          "type": "address"
        }
      ],
      "name": "addMinter",
      "outputs": [],
      "stateMutability": "nonpayable",
      "type": "function"
    },
    {
      "inputs": [
        {
          "internalType": "address",
          "name": "to",
          "type": "address"
        },
        {
          "internalType": "uint256",
          "name": "nftId",
          "type": "uint256"
        }
      ],
      "name": "approve",
      "outputs": [],
      "stateMutability": "nonpayable",
      "type": "function"
    },
    {
      "inputs": [
        {
          "internalType": "address",
          "name": "owner",
          "type": "address"
        },
        {
          "internalType": "uint256",
          "name": "id",
          "type": "uint256"
        }
      ],
      "name": "balanceOf",
      "outputs": [
        {
          "internalType": "uint256",
          "name": "",
          "type": "uint256"
        }
      ],
      "stateMutability": "view",
      "type": "function"
    },
    {
      "inputs": [
        {
          "internalType": "address",
          "name": "tokenOwner",
          "type": "address"
        }
      ],
      "name": "balanceOf",
      "outputs": [
        {
          "internalType": "uint256",
          "name": "",
          "type": "uint256"
        }
      ],
      "stateMutability": "view",
      "type": "function"
    },
    {
      "inputs": [
        {
          "internalType": "address[]",
          "name": "owners",
          "type": "address[]"
        },
        {
          "internalType": "uint256[]",
          "name": "ids",
          "type": "uint256[]"
        }
      ],
      "name": "balanceOfBatch",
      "outputs": [
        {
          "internalType": "uint256[]",
          "name": "",
          "type": "uint256[]"
        }
      ],
      "stateMutability": "view",
      "type": "function"
    },
    {
      "inputs": [],
      "name": "baseMetadataURI",
      "outputs": [
        {
          "internalType": "string",
          "name": "",
          "type": "string"
        }
      ],
      "stateMutability": "view",
      "type": "function"
    },
    {
      "inputs": [
        {
          "internalType": "address",
          "name": "from",
          "type": "address"
        },
        {
          "internalType": "uint256[]",
          "name": "ids",
          "type": "uint256[]"
        },
        {
          "internalType": "uint256[]",
          "name": "values",
          "type": "uint256[]"
        }
      ],
      "name": "batchBurnFrom",
      "outputs": [],
      "stateMutability": "nonpayable",
      "type": "function"
    },
    {
      "inputs": [
        {
          "internalType": "address",
          "name": "from",
          "type": "address"
        },
        {
          "internalType": "uint256[]",
          "name": "nftIds",
          "type": "uint256[]"
        }
      ],
      "name": "batchBurnFrom",
      "outputs": [],
      "stateMutability": "nonpayable",
      "type": "function"
    },
    {
      "inputs": [
        {
          "internalType": "address",
          "name": "to",
          "type": "address"
        },
        {
          "internalType": "uint256[]",
          "name": "nftIds",
          "type": "uint256[]"
        }
      ],
      "name": "batchMint",
      "outputs": [],
      "stateMutability": "nonpayable",
      "type": "function"
    },
    {
      "inputs": [
        {
          "internalType": "address",
          "name": "from",
          "type": "address"
        },
        {
          "internalType": "address",
          "name": "to",
          "type": "address"
        },
        {
          "internalType": "uint256[]",
          "name": "nftIds",
          "type": "uint256[]"
        }
      ],
      "name": "batchTransferFrom",
      "outputs": [],
      "stateMutability": "nonpayable",
      "type": "function"
    },
    {
      "inputs": [
        {
          "internalType": "address",
          "name": "from",
          "type": "address"
        },
        {
          "internalType": "uint256",
          "name": "id",
          "type": "uint256"
        },
        {
          "internalType": "uint256",
          "name": "value",
          "type": "uint256"
        }
      ],
      "name": "burnFrom",
      "outputs": [],
      "stateMutability": "nonpayable",
      "type": "function"
    },
    {
      "inputs": [
        {
          "internalType": "uint256",
          "name": "nftId",
          "type": "uint256"
        }
      ],
      "name": "collectionOf",
      "outputs": [
        {
          "internalType": "uint256",
          "name": "",
          "type": "uint256"
        }
      ],
      "stateMutability": "pure",
      "type": "function"
    },
    {
      "inputs": [
        {
          "internalType": "uint256",
          "name": "collectionId",
          "type": "uint256"
        }
      ],
      "name": "createCollection",
      "outputs": [],
      "stateMutability": "nonpayable",
      "type": "function"
    },
    {
      "inputs": [
        {
          "internalType": "uint256",
          "name": "collectionId",
          "type": "uint256"
        }
      ],
      "name": "creator",
      "outputs": [
        {
          "internalType": "address",
          "name": "",
          "type": "address"
        }
      ],
      "stateMutability": "view",
      "type": "function"
    },
    {
      "inputs": [
        {
          "internalType": "uint256",
          "name": "nftId",
          "type": "uint256"
        }
      ],
      "name": "getApproved",
      "outputs": [
        {
          "internalType": "address",
          "name": "",
          "type": "address"
        }
      ],
      "stateMutability": "view",
      "type": "function"
    },
    {
      "inputs": [
        {
          "internalType": "bytes32",
          "name": "role",
          "type": "bytes32"
        }
      ],
      "name": "getRoleAdmin",
      "outputs": [
        {
          "internalType": "bytes32",
          "name": "",
          "type": "bytes32"
        }
      ],
      "stateMutability": "view",
      "type": "function"
    },
    {
      "inputs": [
        {
          "internalType": "bytes32",
          "name": "role",
          "type": "bytes32"
        },
        {
          "internalType": "uint256",
          "name": "index",
          "type": "uint256"
        }
      ],
      "name": "getRoleMember",
      "outputs": [
        {
          "internalType": "address",
          "name": "",
          "type": "address"
        }
      ],
      "stateMutability": "view",
      "type": "function"
    },
    {
      "inputs": [
        {
          "internalType": "bytes32",
          "name": "role",
          "type": "bytes32"
        }
      ],
      "name": "getRoleMemberCount",
      "outputs": [
        {
          "internalType": "uint256",
          "name": "",
          "type": "uint256"
        }
      ],
      "stateMutability": "view",
      "type": "function"
    },
    {
      "inputs": [
        {
          "internalType": "bytes32",
          "name": "role",
          "type": "bytes32"
        },
        {
          "internalType": "address",
          "name": "account",
          "type": "address"
        }
      ],
      "name": "grantRole",
      "outputs": [],
      "stateMutability": "nonpayable",
      "type": "function"
    },
    {
      "inputs": [
        {
          "internalType": "bytes32",
          "name": "role",
          "type": "bytes32"
        },
        {
          "internalType": "address",
          "name": "account",
          "type": "address"
        }
      ],
      "name": "hasRole",
      "outputs": [
        {
          "internalType": "bool",
          "name": "",
          "type": "bool"
        }
      ],
      "stateMutability": "view",
      "type": "function"
    },
    {
      "inputs": [
        {
          "internalType": "address",
          "name": "tokenOwner",
          "type": "address"
        },
        {
          "internalType": "address",
          "name": "operator",
          "type": "address"
        }
      ],
      "name": "isApprovedForAll",
      "outputs": [
        {
          "internalType": "bool",
          "name": "",
          "type": "bool"
        }
      ],
      "stateMutability": "view",
      "type": "function"
    },
    {
      "inputs": [
        {
          "internalType": "uint256",
          "name": "id",
          "type": "uint256"
        }
      ],
      "name": "isFungible",
      "outputs": [
        {
          "internalType": "bool",
          "name": "",
          "type": "bool"
        }
      ],
      "stateMutability": "pure",
      "type": "function"
    },
    {
      "inputs": [
        {
          "internalType": "address",
          "name": "account",
          "type": "address"
        }
      ],
      "name": "isMinter",
      "outputs": [
        {
          "internalType": "bool",
          "name": "",
          "type": "bool"
        }
      ],
      "stateMutability": "view",
      "type": "function"
    },
    {
      "inputs": [
        {
          "internalType": "address",
          "name": "to",
          "type": "address"
        },
        {
          "internalType": "uint256",
          "name": "nftId",
          "type": "uint256"
        }
      ],
      "name": "mint",
      "outputs": [],
      "stateMutability": "nonpayable",
      "type": "function"
    },
    {
      "inputs": [],
      "name": "name",
      "outputs": [
        {
          "internalType": "string",
          "name": "",
          "type": "string"
        }
      ],
      "stateMutability": "view",
      "type": "function"
    },
    {
      "inputs": [],
      "name": "owner",
      "outputs": [
        {
          "internalType": "address",
          "name": "",
          "type": "address"
        }
      ],
      "stateMutability": "view",
      "type": "function"
    },
    {
      "inputs": [
        {
          "internalType": "uint256",
          "name": "nftId",
          "type": "uint256"
        }
      ],
      "name": "ownerOf",
      "outputs": [
        {
          "internalType": "address",
          "name": "",
          "type": "address"
        }
      ],
      "stateMutability": "view",
      "type": "function"
    },
    {
      "inputs": [],
      "name": "pause",
      "outputs": [],
      "stateMutability": "nonpayable",
      "type": "function"
    },
    {
      "inputs": [],
      "name": "paused",
      "outputs": [
        {
          "internalType": "bool",
          "name": "",
          "type": "bool"
        }
      ],
      "stateMutability": "view",
      "type": "function"
    },
    {
      "inputs": [],
      "name": "renounceMinter",
      "outputs": [],
      "stateMutability": "nonpayable",
      "type": "function"
    },
    {
      "inputs": [],
      "name": "renounceOwnership",
      "outputs": [],
      "stateMutability": "nonpayable",
      "type": "function"
    },
    {
      "inputs": [
        {
          "internalType": "bytes32",
          "name": "role",
          "type": "bytes32"
        },
        {
          "internalType": "address",
          "name": "account",
          "type": "address"
        }
      ],
      "name": "renounceRole",
      "outputs": [],
      "stateMutability": "nonpayable",
      "type": "function"
    },
    {
      "inputs": [
        {
          "internalType": "bytes32",
          "name": "role",
          "type": "bytes32"
        },
        {
          "internalType": "address",
          "name": "account",
          "type": "address"
        }
      ],
      "name": "revokeRole",
      "outputs": [],
      "stateMutability": "nonpayable",
      "type": "function"
    },
    {
      "inputs": [
        {
          "internalType": "address",
          "name": "to",
          "type": "address"
        },
        {
          "internalType": "uint256[]",
          "name": "ids",
          "type": "uint256[]"
        },
        {
          "internalType": "uint256[]",
          "name": "values",
          "type": "uint256[]"
        },
        {
          "internalType": "bytes",
          "name": "data",
          "type": "bytes"
        }
      ],
      "name": "safeBatchMint",
      "outputs": [],
      "stateMutability": "nonpayable",
      "type": "function"
    },
    {
      "inputs": [
        {
          "internalType": "address",
          "name": "from",
          "type": "address"
        },
        {
          "internalType": "address",
          "name": "to",
          "type": "address"
        },
        {
          "internalType": "uint256[]",
          "name": "ids",
          "type": "uint256[]"
        },
        {
          "internalType": "uint256[]",
          "name": "values",
          "type": "uint256[]"
        },
        {
          "internalType": "bytes",
          "name": "data",
          "type": "bytes"
        }
      ],
      "name": "safeBatchTransferFrom",
      "outputs": [],
      "stateMutability": "nonpayable",
      "type": "function"
    },
    {
      "inputs": [
        {
          "internalType": "address",
          "name": "to",
          "type": "address"
        },
        {
          "internalType": "uint256",
          "name": "id",
          "type": "uint256"
        },
        {
          "internalType": "uint256",
          "name": "value",
          "type": "uint256"
        },
        {
          "internalType": "bytes",
          "name": "data",
          "type": "bytes"
        }
      ],
      "name": "safeMint",
      "outputs": [],
      "stateMutability": "nonpayable",
      "type": "function"
    },
    {
      "inputs": [
        {
          "internalType": "address",
          "name": "to",
          "type": "address"
        },
        {
          "internalType": "uint256",
          "name": "nftId",
          "type": "uint256"
        },
        {
          "internalType": "bytes",
          "name": "data",
          "type": "bytes"
        }
      ],
      "name": "safeMint",
      "outputs": [],
      "stateMutability": "nonpayable",
      "type": "function"
    },
    {
      "inputs": [
        {
          "internalType": "address",
          "name": "from",
          "type": "address"
        },
        {
          "internalType": "address",
          "name": "to",
          "type": "address"
        },
        {
          "internalType": "uint256",
          "name": "nftId",
          "type": "uint256"
        }
      ],
      "name": "safeTransferFrom",
      "outputs": [],
      "stateMutability": "nonpayable",
      "type": "function"
    },
    {
      "inputs": [
        {
          "internalType": "address",
          "name": "from",
          "type": "address"
        },
        {
          "internalType": "address",
          "name": "to",
          "type": "address"
        },
        {
          "internalType": "uint256",
          "name": "nftId",
          "type": "uint256"
        },
        {
          "internalType": "bytes",
          "name": "data",
          "type": "bytes"
        }
      ],
      "name": "safeTransferFrom",
      "outputs": [],
      "stateMutability": "nonpayable",
      "type": "function"
    },
    {
      "inputs": [
        {
          "internalType": "address",
          "name": "from",
          "type": "address"
        },
        {
          "internalType": "address",
          "name": "to",
          "type": "address"
        },
        {
          "internalType": "uint256",
          "name": "id",
          "type": "uint256"
        },
        {
          "internalType": "uint256",
          "name": "value",
          "type": "uint256"
        },
        {
          "internalType": "bytes",
          "name": "data",
          "type": "bytes"
        }
      ],
      "name": "safeTransferFrom",
      "outputs": [],
      "stateMutability": "nonpayable",
      "type": "function"
    },
    {
      "inputs": [
        {
          "internalType": "address",
          "name": "operator",
          "type": "address"
        },
        {
          "internalType": "bool",
          "name": "approved",
          "type": "bool"
        }
      ],
      "name": "setApprovalForAll",
      "outputs": [],
      "stateMutability": "nonpayable",
      "type": "function"
    },
    {
      "inputs": [
        {
          "internalType": "string",
          "name": "baseMetadataURI_",
          "type": "string"
        }
      ],
      "name": "setBaseMetadataURI",
      "outputs": [],
      "stateMutability": "nonpayable",
      "type": "function"
    },
    {
      "inputs": [
        {
          "internalType": "bytes4",
          "name": "interfaceId",
          "type": "bytes4"
        }
      ],
      "name": "supportsInterface",
      "outputs": [
        {
          "internalType": "bool",
          "name": "",
          "type": "bool"
        }
      ],
      "stateMutability": "view",
      "type": "function"
    },
    {
      "inputs": [],
      "name": "symbol",
      "outputs": [
        {
          "internalType": "string",
          "name": "",
          "type": "string"
        }
      ],
      "stateMutability": "view",
      "type": "function"
    },
    {
      "inputs": [
        {
          "internalType": "uint256",
          "name": "nftId",
          "type": "uint256"
        }
      ],
      "name": "tokenURI",
      "outputs": [
        {
          "internalType": "string",
          "name": "",
          "type": "string"
        }
      ],
      "stateMutability": "view",
      "type": "function"
    },
    {
      "inputs": [
        {
          "internalType": "uint256",
          "name": "id",
          "type": "uint256"
        }
      ],
      "name": "totalSupply",
      "outputs": [
        {
          "internalType": "uint256",
          "name": "",
          "type": "uint256"
        }
      ],
      "stateMutability": "view",
      "type": "function"
    },
    {
      "inputs": [
        {
          "internalType": "address",
          "name": "from",
          "type": "address"
        },
        {
          "internalType": "address",
          "name": "to",
          "type": "address"
        },
        {
          "internalType": "uint256",
          "name": "nftId",
          "type": "uint256"
        }
      ],
      "name": "transferFrom",
      "outputs": [],
      "stateMutability": "nonpayable",
      "type": "function"
    },
    {
      "inputs": [
        {
          "internalType": "address",
          "name": "newOwner",
          "type": "address"
        }
      ],
      "name": "transferOwnership",
      "outputs": [],
      "stateMutability": "nonpayable",
      "type": "function"
    },
    {
      "inputs": [],
      "name": "unpause",
      "outputs": [],
      "stateMutability": "nonpayable",
      "type": "function"
    },
    {
      "inputs": [
        {
          "internalType": "uint256",
          "name": "id",
          "type": "uint256"
        }
      ],
      "name": "uri",
      "outputs": [
        {
          "internalType": "string",
          "name": "",
          "type": "string"
        }
      ],
      "stateMutability": "view",
      "type": "function"
    }
  ],
  "bytecode": "0x60806040523480156200001157600080fd5b506000620000276001600160e01b03620000f316565b600080546001600160a01b0319166001600160a01b0383169081178255604051929350917f8be0079c531659141344cd1fd0a4f28419497f9722a3daafe3b4186f6b6457e0908290a3506000805460ff60a01b19168155620000a590620000966001600160e01b03620000f316565b6001600160e01b03620000f716565b620000b86001600160e01b03620000f316565b6001600160a01b03167f6ae172837ea30b801fbfcdd4108aa1d5bf8ff775444fd70256b44e6bf3dfc3f660405160405180910390a26200022d565b3390565b6200010c82826001600160e01b036200011016565b5050565b6000828152600960209081526040909120620001379183906200285662000194821b17901c565b156200010c57620001506001600160e01b03620000f316565b6001600160a01b0316816001600160a01b0316837f2f8788117e7eff1d82e926ec794901d17c78024a50270940304540a733656f0d60405160405180910390a45050565b6000620001b4836001600160a01b0384166001600160e01b03620001bd16565b90505b92915050565b6000620001d483836001600160e01b036200021516565b6200020c57508154600181810184556000848152602080822090930184905584548482528286019093526040902091909155620001b7565b506000620001b7565b60009081526001919091016020526040902054151590565b615ce7806200023d6000396000f3fe608060405234801561001057600080fd5b50600436106103405760003560e01c80637e518ec8116101bd578063adebf6f2116100f9578063d0011d9d116100a2578063f242432a1161007c578063f242432a146111ab578063f247296514611276578063f2fde38b14611329578063f3993d111461134f57610340565b8063d0011d9d14611134578063d547741f14611151578063e985e9c51461117d57610340565b8063c7778baa116100d3578063c7778baa146110dd578063c87b56dd146110fa578063ca15c8731461111757610340565b8063adebf6f214610fdd578063b88d4fde14610ffa578063bd85b039146110c057610340565b806391d148541161016657806398650275116101405780639865027514610f79578063a217fddf14610f81578063a22cb46514610f89578063aa271e1a14610fb757610340565b806391d1485414610f1f57806395d89b4114610f4b578063983b2d5614610f5357610340565b80638832e6e3116101975780638832e6e314610e395780638da5cb5b14610ef45780639010d07c14610efc57610340565b80637e518ec814610c8a5780638053493414610cfa5780638456cb5914610e3157610340565b806336568abe1161028c578063510b5158116102355780635cfa92971161020f5780635cfa929714610b7d5780636352211e14610c3f57806370a0823114610c5c578063715018a614610c8257610340565b8063510b515814610b505780635b2bd79e14610b6d5780635c975abb14610b7557610340565b806342842e0e1161026657806342842e0e146109555780634684d7e91461098b5780634e1273f414610a3e57610340565b806336568abe146108f55780633f4ba83a1461092157806340c10f191461092957610340565b80630e89341c116102ee578063248a9ca3116102c8578063248a9ca3146106e55780632eb2c2d6146107025780632f2ff15d146108c957610340565b80630e89341c14610660578063124d91e51461067d57806323b872dd146106af57610340565b8063081812fc1161031f578063081812fc1461043b578063095ea7b3146104745780630d6a5bbb146104a257610340565b8062fdd58e1461034557806301ffc9a71461038357806306fdde03146103be575b600080fd5b6103716004803603604081101561035b57600080fd5b506001600160a01b03813516906020013561140b565b60408051918252519081900360200190f35b6103aa6004803603602081101561039957600080fd5b50356001600160e01b0319166114d6565b604080519115158252519081900360200190f35b6103c6611551565b6040805160208082528351818301528351919283929083019185019080838360005b838110156104005781810151838201526020016103e8565b50505050905090810190601f16801561042d5780820380516001836020036101000a031916815260200191505b509250505060405180910390f35b6104586004803603602081101561045157600080fd5b503561158a565b604080516001600160a01b039092168252519081900360200190f35b6104a06004803603604081101561048a57600080fd5b506001600160a01b038135169060200135611629565b005b6104a0600480360360808110156104b857600080fd5b6001600160a01b0382351691908101906040810160208201356401000000008111156104e357600080fd5b8201836020820111156104f557600080fd5b8035906020019184602083028401116401000000008311171561051757600080fd5b919080806020026020016040519081016040528093929190818152602001838360200280828437600092019190915250929594936020810193503591505064010000000081111561056757600080fd5b82018360208201111561057957600080fd5b8035906020019184602083028401116401000000008311171561059b57600080fd5b91908080602002602001604051908101604052809392919081815260200183836020028082843760009201919091525092959493602081019350359150506401000000008111156105eb57600080fd5b8201836020820111156105fd57600080fd5b8035906020019184600183028401116401000000008311171561061f57600080fd5b91908080601f0160208091040260200160405190810160405280939291908181526020018383808284376000920191909152509295506117bc945050505050565b6103c66004803603602081101561067657600080fd5b503561182f565b6104a06004803603606081101561069357600080fd5b506001600160a01b03813516906020810135906040013561183a565b6104a0600480360360608110156106c557600080fd5b506001600160a01b03813581169160208101359091169060400135611898565b610371600480360360208110156106fb57600080fd5b50356118f1565b6104a0600480360360a081101561071857600080fd5b6001600160a01b03823581169260208101359091169181019060608101604082013564010000000081111561074c57600080fd5b82018360208201111561075e57600080fd5b8035906020019184602083028401116401000000008311171561078057600080fd5b91908080602002602001604051908101604052809392919081815260200183836020028082843760009201919091525092959493602081019350359150506401000000008111156107d057600080fd5b8201836020820111156107e257600080fd5b8035906020019184602083028401116401000000008311171561080457600080fd5b919080806020026020016040519081016040528093929190818152602001838360200280828437600092019190915250929594936020810193503591505064010000000081111561085457600080fd5b82018360208201111561086657600080fd5b8035906020019184600183028401116401000000008311171561088857600080fd5b91908080601f016020809104026020016040519081016040528093929190818152602001838380828437600092019190915250929550611906945050505050565b6104a0600480360360408110156108df57600080fd5b50803590602001356001600160a01b0316611968565b6104a06004803603604081101561090b57600080fd5b50803590602001356001600160a01b03166119d4565b6104a0611a35565b6104a06004803603604081101561093f57600080fd5b506001600160a01b038135169060200135611ab3565b6104a06004803603606081101561096b57600080fd5b506001600160a01b03813581169160208101359091169060400135611b2b565b6104a0600480360360408110156109a157600080fd5b6001600160a01b0382351691908101906040810160208201356401000000008111156109cc57600080fd5b8201836020820111156109de57600080fd5b80359060200191846020830284011164010000000083111715610a0057600080fd5b919080806020026020016040519081016040528093929190818152602001838360200280828437600092019190915250929550611b84945050505050565b610b0060048036036040811015610a5457600080fd5b810190602081018135640100000000811115610a6f57600080fd5b820183602082011115610a8157600080fd5b80359060200191846020830284011164010000000083111715610aa357600080fd5b919390929091602081019035640100000000811115610ac157600080fd5b820183602082011115610ad357600080fd5b80359060200191846020830284011164010000000083111715610af557600080fd5b509092509050611bea565b60408051602080825283518183015283519192839290830191858101910280838360005b83811015610b3c578181015183820152602001610b24565b505050509050019250505060405180910390f35b61045860048036036020811015610b6657600080fd5b5035611cf0565b6103c6611cfb565b6103aa611d89565b6104a060048036036080811015610b9357600080fd5b6001600160a01b038235169160208101359160408201359190810190608081016060820135640100000000811115610bca57600080fd5b820183602082011115610bdc57600080fd5b80359060200191846001830284011164010000000083111715610bfe57600080fd5b91908080601f016020809104026020016040519081016040528093929190818152602001838380828437600092019190915250929550611d9a945050505050565b61045860048036036020811015610c5557600080fd5b5035611e02565b61037160048036036020811015610c7257600080fd5b50356001600160a01b0316611e0d565b6104a0611e86565b6104a060048036036020811015610ca057600080fd5b810190602081018135640100000000811115610cbb57600080fd5b820183602082011115610ccd57600080fd5b80359060200191846001830284011164010000000083111715610cef57600080fd5b509092509050611f47565b6104a060048036036060811015610d1057600080fd5b6001600160a01b038235169190810190604081016020820135640100000000811115610d3b57600080fd5b820183602082011115610d4d57600080fd5b80359060200191846020830284011164010000000083111715610d6f57600080fd5b9190808060200260200160405190810160405280939291908181526020018383602002808284376000920191909152509295949360208101935035915050640100000000811115610dbf57600080fd5b820183602082011115610dd157600080fd5b80359060200191846020830284011164010000000083111715610df357600080fd5b919080806020026020016040519081016040528093929190818152602001838360200280828437600092019190915250929550612022945050505050565b6104a061207b565b6104a060048036036060811015610e4f57600080fd5b6001600160a01b0382351691602081013591810190606081016040820135640100000000811115610e7f57600080fd5b820183602082011115610e9157600080fd5b80359060200191846001830284011164010000000083111715610eb357600080fd5b91908080601f0160208091040260200160405190810160405280939291908181526020018383808284376000920191909152509295506120f7945050505050565b610458612160565b61045860048036036040811015610f1257600080fd5b508035906020013561216f565b6103aa60048036036040811015610f3557600080fd5b50803590602001356001600160a01b0316612194565b6103c66121b2565b6104a060048036036020811015610f6957600080fd5b50356001600160a01b03166121eb565b6104a06122e4565b610371612391565b6104a060048036036040811015610f9f57600080fd5b506001600160a01b0381351690602001351515612396565b6103aa60048036036020811015610fcd57600080fd5b50356001600160a01b03166123a0565b6103aa60048036036020811015610ff357600080fd5b50356123ac565b6104a06004803603608081101561101057600080fd5b6001600160a01b0382358116926020810135909116916040820135919081019060808101606082013564010000000081111561104b57600080fd5b82018360208201111561105d57600080fd5b8035906020019184600183028401116401000000008311171561107f57600080fd5b91908080601f0160208091040260200160405190810160405280939291908181526020018383808284376000920191909152509295506123b7945050505050565b610371600480360360208110156110d657600080fd5b5035612411565b610371600480360360208110156110f357600080fd5b5035612467565b6103c66004803603602081101561111057600080fd5b50356124cc565b6103716004803603602081101561112d57600080fd5b5035612541565b6104a06004803603602081101561114a57600080fd5b5035612558565b6104a06004803603604081101561116757600080fd5b50803590602001356001600160a01b03166125ce565b6103aa6004803603604081101561119357600080fd5b506001600160a01b0381358116916020013516612627565b6104a0600480360360a08110156111c157600080fd5b6001600160a01b03823581169260208101359091169160408201359160608101359181019060a08101608082013564010000000081111561120157600080fd5b82018360208201111561121357600080fd5b8035906020019184600183028401116401000000008311171561123557600080fd5b91908080601f016020809104026020016040519081016040528093929190818152602001838380828437600092019190915250929550612633945050505050565b6104a06004803603604081101561128c57600080fd5b6001600160a01b0382351691908101906040810160208201356401000000008111156112b757600080fd5b8201836020820111156112c957600080fd5b803590602001918460208302840111640100000000831117156112eb57600080fd5b91908080602002602001604051908101604052809392919081815260200183836020028082843760009201919091525092955061268e945050505050565b6104a06004803603602081101561133f57600080fd5b50356001600160a01b03166126e6565b6104a06004803603606081101561136557600080fd5b6001600160a01b03823581169260208101359091169181019060608101604082013564010000000081111561139957600080fd5b8201836020820111156113ab57600080fd5b803590602001918460208302840111640100000000831117156113cd57600080fd5b9190808060200260200160405190810160405280939291908181526020018383602002808284376000920191909152509295506127fd945050505050565b60006001600160a01b038316611468576040805162461bcd60e51b815260206004820152601760248201527f496e76656e746f72793a207a65726f2061646472657373000000000000000000604482015290519081900360640190fd5b6114718261286b565b156114ab576000828152600460205260409020546001600160a01b0384811691161461149e5760006114a1565b60015b60ff1690506114d0565b5060008181526002602090815260408083206001600160a01b03861684529091529020545b92915050565b60006114e1826128bd565b8061151557506001600160e01b031982167f80ac58cd00000000000000000000000000000000000000000000000000000000145b8061154957506001600160e01b031982167f5b5e139f00000000000000000000000000000000000000000000000000000000145b90505b919050565b6040518060400160405280600e81526020017f5245565620496e76656e746f727900000000000000000000000000000000000081525081565b6000818152600460205260408120546001600160a01b0381166115f4576040805162461bcd60e51b815260206004820152601b60248201527f496e76656e746f72793a206e6f6e2d6578697374696e67204e46540000000000604482015290519081900360640190fd5b600160a01b81161561161f5750506000818152600760205260409020546001600160a01b031661154c565b600091505061154c565b600061163482611e02565b9050806001600160a01b0316836001600160a01b0316141561169d576040805162461bcd60e51b815260206004820152601860248201527f496e76656e746f72793a2073656c662d617070726f76616c0000000000000000604482015290519081900360640190fd5b60006116a761298a565b9050816001600160a01b0316816001600160a01b031614806116ee57506001600160a01b0380831660009081526001602090815260408083209385168352929052205460ff165b61173f576040805162461bcd60e51b815260206004820152601e60248201527f496e76656e746f72793a206e6f6e2d617070726f7665642073656e6465720000604482015290519081900360640190fd5b60008381526004602090815260408083206001600160a01b03808716600160a01b81179092556007909352818420805493891673ffffffffffffffffffffffffffffffffffffffff1990941684179055905186937f8c5be1e5ebec7d5bd14f71427d1e84f3dd0314c0f7b2291e5b200ac8c7c3b92591a450505050565b6117cc6117c761298a565b6123a0565b61181d576040805162461bcd60e51b815260206004820152601760248201527f496e76656e746f72793a206e6f742061206d696e746572000000000000000000604482015290519081900360640190fd5b6118298484848461298e565b50505050565b606061154982612d4a565b611842611d89565b15611888576040805162461bcd60e51b8152602060048201526011602482015270125b9d995b9d1bdc9e4e881c185d5cd959607a1b604482015290519081900360640190fd5b611893838383612e1d565b505050565b6118a0611d89565b156118e6576040805162461bcd60e51b8152602060048201526011602482015270125b9d995b9d1bdc9e4e881c185d5cd959607a1b604482015290519081900360640190fd5b611893838383612f10565b60009081526009602052604090206002015490565b61190e611d89565b15611954576040805162461bcd60e51b8152602060048201526011602482015270125b9d995b9d1bdc9e4e881c185d5cd959607a1b604482015290519081900360640190fd5b6119618585858585612f2d565b5050505050565b60008281526009602052604090206002015461198b9061198661298a565b612194565b6119c65760405162461bcd60e51b815260040180806020018281038252602f815260200180615bfe602f913960400191505060405180910390fd5b6119d08282612f3a565b5050565b6119dc61298a565b6001600160a01b0316816001600160a01b031614611a2b5760405162461bcd60e51b815260040180806020018281038252602f815260200180615c83602f913960400191505060405180910390fd5b6119d08282612fa9565b611a3d61298a565b6001600160a01b0316611a4e612160565b6001600160a01b031614611aa9576040805162461bcd60e51b815260206004820152601860248201527f496e76656e746f72793a206e6f7420746865206f776e65720000000000000000604482015290519081900360640190fd5b611ab1613018565b565b611abe6117c761298a565b611b0f576040805162461bcd60e51b815260206004820152601760248201527f496e76656e746f72793a206e6f742061206d696e746572000000000000000000604482015290519081900360640190fd5b6119d082826040518060200160405280600081525060006130e4565b611b33611d89565b15611b79576040805162461bcd60e51b8152602060048201526011602482015270125b9d995b9d1bdc9e4e881c185d5cd959607a1b604482015290519081900360640190fd5b611893838383613288565b611b8f6117c761298a565b611be0576040805162461bcd60e51b815260206004820152601760248201527f496e76656e746f72793a206e6f742061206d696e746572000000000000000000604482015290519081900360640190fd5b6119d082826132a5565b6060838214611c40576040805162461bcd60e51b815260206004820152601e60248201527f496e76656e746f72793a20696e636f6e73697374656e74206172726179730000604482015290519081900360640190fd5b60608467ffffffffffffffff81118015611c5957600080fd5b50604051908082528060200260200182016040528015611c83578160200160208202803683370190505b50905060005b808614611ce657611cc7878783818110611c9f57fe5b905060200201356001600160a01b0316868684818110611cbb57fe5b9050602002013561140b565b828281518110611cd357fe5b6020908102919091010152600101611c89565b5095945050505050565b600061154982613604565b6008805460408051602060026001851615610100026000190190941693909304601f81018490048402820184019092528181529291830182828015611d815780601f10611d5657610100808354040283529160200191611d81565b820191906000526020600020905b815481529060010190602001808311611d6457829003601f168201915b505050505081565b600054600160a01b900460ff165b90565b611da56117c761298a565b611df6576040805162461bcd60e51b815260206004820152601760248201527f496e76656e746f72793a206e6f742061206d696e746572000000000000000000604482015290519081900360640190fd5b6118298484848461367d565b6000611549826137c8565b60006001600160a01b038216611e6a576040805162461bcd60e51b815260206004820152601760248201527f496e76656e746f72793a207a65726f2061646472657373000000000000000000604482015290519081900360640190fd5b506001600160a01b031660009081526006602052604090205490565b611e8e61298a565b6000546001600160a01b03908116911614611ef0576040805162461bcd60e51b815260206004820181905260248201527f4f776e61626c653a2063616c6c6572206973206e6f7420746865206f776e6572604482015290519081900360640190fd5b600080546040516001600160a01b03909116907f8be0079c531659141344cd1fd0a4f28419497f9722a3daafe3b4186f6b6457e0908390a36000805473ffffffffffffffffffffffffffffffffffffffff19169055565b611f4f61298a565b6000546001600160a01b03908116911614611fb1576040805162461bcd60e51b815260206004820181905260248201527f4f776e61626c653a2063616c6c6572206973206e6f7420746865206f776e6572604482015290519081900360640190fd5b611fbd60088383615b43565b507f04b1dc5c136a3ce9fded8db0ce3d3366c58764ec3a8e4c2b9e52e4ddfe5ebbf7828260405180806020018281038252848482818152602001925080828437600083820152604051601f909101601f19169092018290039550909350505050a15050565b61202a611d89565b15612070576040805162461bcd60e51b8152602060048201526011602482015270125b9d995b9d1bdc9e4e881c185d5cd959607a1b604482015290519081900360640190fd5b611893838383613832565b61208361298a565b6001600160a01b0316612094612160565b6001600160a01b0316146120ef576040805162461bcd60e51b815260206004820152601860248201527f496e76656e746f72793a206e6f7420746865206f776e65720000000000000000604482015290519081900360640190fd5b611ab1613acf565b6121026117c761298a565b612153576040805162461bcd60e51b815260206004820152601760248201527f496e76656e746f72793a206e6f742061206d696e746572000000000000000000604482015290519081900360640190fd5b61189383838360016130e4565b6000546001600160a01b031690565b600082815260096020526040812061218d908363ffffffff613b8516565b9392505050565b600082815260096020526040812061218d908363ffffffff613b9116565b6040518060400160405280600681526020017f524556562d49000000000000000000000000000000000000000000000000000081525081565b6121f66117c761298a565b612247576040805162461bcd60e51b815260206004820152601860248201527f4d696e746572526f6c653a206e6f742061204d696e7465720000000000000000604482015290519081900360640190fd5b612250816123a0565b156122a2576040805162461bcd60e51b815260206004820152601a60248201527f4d696e746572526f6c653a20616c7265616479204d696e746572000000000000604482015290519081900360640190fd5b6122ad600082611968565b6040516001600160a01b038216907f6ae172837ea30b801fbfcdd4108aa1d5bf8ff775444fd70256b44e6bf3dfc3f690600090a250565b6122ef6117c761298a565b612340576040805162461bcd60e51b815260206004820152601860248201527f4d696e746572526f6c653a206e6f742061204d696e7465720000000000000000604482015290519081900360640190fd5b612352600061234d61298a565b6119d4565b61235a61298a565b6001600160a01b03167fe94479a9f7e1952cc78f2d6baab678adc1b772d936c6583def489e524cb6669260405160405180910390a2565b600081565b6119d08282613ba6565b60006115498183612194565b600061154982613c87565b6123bf611d89565b15612405576040805162461bcd60e51b8152602060048201526011602482015270125b9d995b9d1bdc9e4e881c185d5cd959607a1b604482015290519081900360640190fd5b61182984848484613cad565b600061241c8261286b565b15612452576000828152600460205260409020546001600160a01b031615612445576001612448565b60005b60ff16905061154c565b5060008181526003602052604090205461154c565b60006124728261286b565b6124c3576040805162461bcd60e51b815260206004820152601560248201527f496e76656e746f72793a206e6f7420616e204e46540000000000000000000000604482015290519081900360640190fd5b61154982613cbb565b6000818152600460205260409020546060906001600160a01b0316612538576040805162461bcd60e51b815260206004820152601b60248201527f496e76656e746f72793a206e6f6e2d6578697374696e67204e46540000000000604482015290519081900360640190fd5b6115498261182f565b600081815260096020526040812061154990613cc8565b61256061298a565b6000546001600160a01b039081169116146125c2576040805162461bcd60e51b815260206004820181905260248201527f4f776e61626c653a2063616c6c6572206973206e6f7420746865206f776e6572604482015290519081900360640190fd5b6125cb81613cd3565b50565b6000828152600960205260409020600201546125ec9061198661298a565b611a2b5760405162461bcd60e51b8152600401808060200182810382526030815260200180615c536030913960400191505060405180910390fd5b600061218d8383613e14565b61263b611d89565b15612681576040805162461bcd60e51b8152602060048201526011602482015270125b9d995b9d1bdc9e4e881c185d5cd959607a1b604482015290519081900360640190fd5b6119618585858585613e42565b612696611d89565b156126dc576040805162461bcd60e51b8152602060048201526011602482015270125b9d995b9d1bdc9e4e881c185d5cd959607a1b604482015290519081900360640190fd5b6119d08282613fc0565b6126ee61298a565b6000546001600160a01b03908116911614612750576040805162461bcd60e51b815260206004820181905260248201527f4f776e61626c653a2063616c6c6572206973206e6f7420746865206f776e6572604482015290519081900360640190fd5b6001600160a01b0381166127955760405162461bcd60e51b8152600401808060200182810382526026815260200180615c2d6026913960400191505060405180910390fd5b600080546040516001600160a01b03808516939216917f8be0079c531659141344cd1fd0a4f28419497f9722a3daafe3b4186f6b6457e091a36000805473ffffffffffffffffffffffffffffffffffffffff19166001600160a01b0392909216919091179055565b612805611d89565b1561284b576040805162461bcd60e51b8152602060048201526011602482015270125b9d995b9d1bdc9e4e881c185d5cd959607a1b604482015290519081900360640190fd5b61189383838361421e565b600061218d836001600160a01b038416614506565b60007f80000000000000000000000000000000000000000000000000000000000000008216158015906115495750507bffffffffffffffffffffffffffffffffffffffffffffffffffffffff16151590565b60006001600160e01b031982167f01ffc9a700000000000000000000000000000000000000000000000000000000148061292057506001600160e01b031982167fd9b67a2600000000000000000000000000000000000000000000000000000000145b8061295457506001600160e01b031982167f0e89341c00000000000000000000000000000000000000000000000000000000145b806115495750506001600160e01b0319167fb44bec7f000000000000000000000000000000000000000000000000000000001490565b3390565b6001600160a01b0384166129e9576040805162461bcd60e51b815260206004820152601b60248201527f496e76656e746f72793a207472616e7366657220746f207a65726f0000000000604482015290519081900360640190fd5b825182518114612a40576040805162461bcd60e51b815260206004820152601e60248201527f496e76656e746f72793a20696e636f6e73697374656e74206172726179730000604482015290519081900360640190fd5b6000806000805b848114612bee576000888281518110612a5c57fe5b602002602001015190506000888381518110612a7457fe5b60200260200101519050612a8782613c87565b15612a9c57612a978b8383614550565b612be4565b612aa58261286b565b15612b9757612ab78b83836001614642565b60405182906001600160a01b038d16906000907fddf252ad1be2c89b69c2b068fc378daa952ba7f163c4a11628f55a4df523b3ef908290a46000612afa83613cbb565b905086612b0d5780965060019550612b91565b868114612b8a57856002600089815260200190815260200160002060008e6001600160a01b03166001600160a01b0316815260200190815260200160002060008282540192505081905550856003600089815260200190815260200160002060008282540192505081905550809650858501945060019550612b91565b8560010195505b50612be4565b6040805162461bcd60e51b815260206004820152601960248201527f496e76656e746f72793a206e6f74206120746f6b656e20696400000000000000604482015290519081900360640190fd5b5050600101612a47565b508215612c435760008381526002602090815260408083206001600160a01b038c1680855290835281842080548701905586845260038352818420805487019055835260069091529020805491830191820190555b6001600160a01b0388166000612c5761298a565b6001600160a01b03167f4a39dc06d4c0dbc64b70af90fd698a233a518aa5d07e595d983b8c0526c8f7fb8a8a604051808060200180602001838103835285818151815260200191508051906020019060200280838360005b83811015612cc7578181015183820152602001612caf565b50505050905001838103825284818151815260200191508051906020019060200280838360005b83811015612d06578181015183820152602001612cee565b5050505090500194505050505060405180910390a4612d2d886001600160a01b0316614771565b15612d4057612d40600089898989614777565b5050505050505050565b60606008612d578361498f565b6040516020018083805460018160011615610100020316600290048015612db55780601f10612d93576101008083540402835291820191612db5565b820191906000526020600020905b815481529060010190602001808311612da1575b5050825160208401908083835b60208310612de15780518252601f199092019160209182019101612dc2565b6001836020036101000a038019825116818451168082178552505050505050905001925050506040516020818303038152906040529050919050565b6000612e2761298a565b90506000612e358583614a9e565b9050612e4084613c87565b15612e5657612e5185858584614aea565b612eab565b612e5f8461286b565b15612b9757612e72858585846000614c46565b60405184906000906001600160a01b038816907fddf252ad1be2c89b69c2b068fc378daa952ba7f163c4a11628f55a4df523b3ef908390a45b60006001600160a01b0316856001600160a01b0316836001600160a01b03167fc3d58168c5ae7397731d063d5bbf3d657854427343f4c083240f7aacaa2d0f628787604051808381526020018281526020019250505060405180910390a45050505050565b611893838383604051806020016040528060008152506000614e0d565b6119618585858585614f7b565b6000828152600960205260409020612f58908263ffffffff61285616565b156119d057612f6561298a565b6001600160a01b0316816001600160a01b0316837f2f8788117e7eff1d82e926ec794901d17c78024a50270940304540a733656f0d60405160405180910390a45050565b6000828152600960205260409020612fc7908263ffffffff61529516565b156119d057612fd461298a565b6001600160a01b0316816001600160a01b0316837ff6391f5c32d9c69d2a47ea670b442974b53935d1edc7fd64eb21e047a839171b60405160405180910390a45050565b600054600160a01b900460ff16613076576040805162461bcd60e51b815260206004820152601460248201527f5061757361626c653a206e6f7420706175736564000000000000000000000000604482015290519081900360640190fd5b600080547fffffffffffffffffffffff00ffffffffffffffffffffffffffffffffffffffff1690557f5db9ee0a495bf2e6ff9c91a7834c1ba4fdd244a5e8aa4e537bd38aeae4b073aa6130c761298a565b604080516001600160a01b039092168252519081900360200190a1565b6001600160a01b03841661313f576040805162461bcd60e51b815260206004820152601b60248201527f496e76656e746f72793a207472616e7366657220746f207a65726f0000000000604482015290519081900360640190fd5b6131488361286b565b613199576040805162461bcd60e51b815260206004820152601560248201527f496e76656e746f72793a206e6f7420616e204e46540000000000000000000000604482015290519081900360640190fd5b6131a7848460016000614642565b60405183906001600160a01b038616906000907fddf252ad1be2c89b69c2b068fc378daa952ba7f163c4a11628f55a4df523b3ef908290a46001600160a01b03841660006131f361298a565b6001600160a01b03167fc3d58168c5ae7397731d063d5bbf3d657854427343f4c083240f7aacaa2d0f62866001604051808381526020018281526020019250505060405180910390a461324e846001600160a01b0316614771565b156118295761325c846152aa565b156132755761327060008585600186615372565b611829565b8015611829576118296000858585615486565b611893838383604051806020016040528060008152506001614e0d565b6001600160a01b038216613300576040805162461bcd60e51b815260206004820152601b60248201527f496e76656e746f72793a207472616e7366657220746f207a65726f0000000000604482015290519081900360640190fd5b805160608167ffffffffffffffff8111801561331b57600080fd5b50604051908082528060200260200182016040528015613345578160200160208202803683370190505b50905060008060005b8481146134a057600086828151811061336357fe5b602002602001015190506133768161286b565b6133c7576040805162461bcd60e51b815260206004820152601560248201527f496e76656e746f72793a206e6f7420616e204e46540000000000000000000000604482015290519081900360640190fd5b60018583815181106133d557fe5b6020026020010181815250506133ee8882600180614642565b60405181906001600160a01b038a16906000907fddf252ad1be2c89b69c2b068fc378daa952ba7f163c4a11628f55a4df523b3ef908290a4600061343182613cbb565b9050846134445780945060019350613496565b84811461348f5760008581526002602090815260408083206001600160a01b038d16845282528083208054880190559682526003905294909420805490930190925560019183613496565b8360010193505b505060010161334e565b5060008281526002602090815260408083206001600160a01b038a168085529083528184208054860190558584526003835281842080548601905580845260069092528220805487019055906134f461298a565b6001600160a01b03167f4a39dc06d4c0dbc64b70af90fd698a233a518aa5d07e595d983b8c0526c8f7fb8887604051808060200180602001838103835285818151815260200191508051906020019060200280838360005b8381101561356457818101518382015260200161354c565b50505050905001838103825284818151815260200191508051906020019060200280838360005b838110156135a357818101518382015260200161358b565b5050505090500194505050505060405180910390a46135ca866001600160a01b0316614771565b80156135da57506135da866152aa565b156135fc576135fc600087878660405180602001604052806000815250614777565b505050505050565b600061360f8261286b565b15613661576040805162461bcd60e51b815260206004820152601b60248201527f496e76656e746f72793a206e6f74206120636f6c6c656374696f6e0000000000604482015290519081900360640190fd5b506000908152600560205260409020546001600160a01b031690565b6001600160a01b0384166136d8576040805162461bcd60e51b815260206004820152601b60248201527f496e76656e746f72793a207472616e7366657220746f207a65726f0000000000604482015290519081900360640190fd5b60006136e261298a565b90506136ed84613c87565b15613702576136fd858585614550565b613756565b61370b8461286b565b15612b975761371d8585856000614642565b60405184906001600160a01b038716906000907fddf252ad1be2c89b69c2b068fc378daa952ba7f163c4a11628f55a4df523b3ef908290a45b604080518581526020810185905281516001600160a01b0380891693600093918616927fc3d58168c5ae7397731d063d5bbf3d657854427343f4c083240f7aacaa2d0f629281900390910190a46137b5856001600160a01b0316614771565b1561196157611961600086868686615372565b6000818152600460205260408120546001600160a01b038116611549576040805162461bcd60e51b815260206004820152601b60248201527f496e76656e746f72793a206e6f6e2d6578697374696e67204e46540000000000604482015290519081900360640190fd5b815181518114613889576040805162461bcd60e51b815260206004820152601e60248201527f496e76656e746f72793a20696e636f6e73697374656e74206172726179730000604482015290519081900360640190fd5b600061389361298a565b905060006138a18683614a9e565b90506000806000805b8681146139b45760008982815181106138bf57fe5b602002602001015190506138d281613c87565b156138fb576138f68b828b85815181106138e857fe5b602002602001015189614aea565b6139ab565b6139048161286b565b15612b975761392a8b828b858151811061391a57fe5b6020026020010151896001614c46565b60405181906000906001600160a01b038e16907fddf252ad1be2c89b69c2b068fc378daa952ba7f163c4a11628f55a4df523b3ef908390a4600061396d82613cbb565b90508561398057809550600194506139a9565b8581146139a2576139928c878761561a565b94506001939290920191846139a9565b8460010194505b505b506001016138aa565b5082156139ea576139c689848461561a565b6001600160a01b038916600090815260066020526040902080549183019182900390555b60006001600160a01b0316896001600160a01b0316866001600160a01b03167f4a39dc06d4c0dbc64b70af90fd698a233a518aa5d07e595d983b8c0526c8f7fb8b8b604051808060200180602001838103835285818151815260200191508051906020019060200280838360005b83811015613a70578181015183820152602001613a58565b50505050905001838103825284818151815260200191508051906020019060200280838360005b83811015613aaf578181015183820152602001613a97565b5050505090500194505050505060405180910390a4505050505050505050565b600054600160a01b900460ff1615613b2e576040805162461bcd60e51b815260206004820152601060248201527f5061757361626c653a2070617573656400000000000000000000000000000000604482015290519081900360640190fd5b600080547fffffffffffffffffffffff00ffffffffffffffffffffffffffffffffffffffff16600160a01b1790557f62e78cea01bee320cd4e420270b5ea74000d11b0c9f74754ebdbfc544b05a2586130c761298a565b600061218d838361565a565b600061218d836001600160a01b0384166156be565b6000613bb061298a565b9050806001600160a01b0316836001600160a01b03161415613c19576040805162461bcd60e51b815260206004820152601860248201527f496e76656e746f72793a2073656c662d617070726f76616c0000000000000000604482015290519081900360640190fd5b6001600160a01b03818116600081815260016020908152604080832094881680845294825291829020805460ff1916871515908117909155825190815291517f17307eab39ab6107e8899845ad3d59bd9653f200f220920489ca2b5937696c319281900390910190a3505050565b7f8000000000000000000000000000000000000000000000000000000000000000161590565b611829848484846001614e0d565b6001600160e01b03191690565b6000611549826156d6565b613cdc8161286b565b15613d2e576040805162461bcd60e51b815260206004820152601b60248201527f496e76656e746f72793a206e6f74206120636f6c6c656374696f6e0000000000604482015290519081900360640190fd5b6000818152600560205260409020546001600160a01b031615613d98576040805162461bcd60e51b815260206004820152601e60248201527f496e76656e746f72793a206578697374696e6720636f6c6c656374696f6e0000604482015290519081900360640190fd5b613da061298a565b6000828152600560205260409020805473ffffffffffffffffffffffffffffffffffffffff19166001600160a01b0392909216919091179055613de281613c87565b1515817f4ebf8ad0df535ba5e487bc9cb27fe44120ca81c3a95d3eba79c0bd1df2ab2d5d60405160405180910390a350565b6001600160a01b03918216600090815260016020908152604080832093909416825291909152205460ff1690565b6000613e4c61298a565b90506001600160a01b038516613ea9576040805162461bcd60e51b815260206004820152601b60248201527f496e76656e746f72793a207472616e7366657220746f207a65726f0000000000604482015290519081900360640190fd5b6000613eb58783614a9e565b9050613ec085613c87565b15613ed757613ed287878787856156da565b613f36565b613ee08561286b565b15612b9757613ef48787878785600061584d565b84866001600160a01b0316886001600160a01b03167fddf252ad1be2c89b69c2b068fc378daa952ba7f163c4a11628f55a4df523b3ef60405160405180910390a45b856001600160a01b0316876001600160a01b0316836001600160a01b03167fc3d58168c5ae7397731d063d5bbf3d657854427343f4c083240f7aacaa2d0f628888604051808381526020018281526020019250505060405180910390a4613fa5866001600160a01b0316614771565b15613fb757613fb78787878787615372565b50505050505050565b6000613fca61298a565b90506000613fd88483614a9e565b835190915060608167ffffffffffffffff81118015613ff657600080fd5b50604051908082528060200260200182016040528015614020578160200160208202803683370190505b50905060008060005b84811461410857600088828151811061403e57fe5b60200260200101519050600185838151811061405657fe5b6020026020010181815250506140838a8287858151811061407357fe5b60200260200101518a6001614c46565b60405181906000906001600160a01b038d16907fddf252ad1be2c89b69c2b068fc378daa952ba7f163c4a11628f55a4df523b3ef908390a460006140c682613cbb565b9050846140d957809450600193506140fe565b8481146140f7576140eb8b868661561a565b809450600193506140fe565b8360010193505b5050600101614029565b50811561413a5761411a88838361561a565b6001600160a01b0388166000908152600660205260409020805485900390555b60006001600160a01b0316886001600160a01b0316876001600160a01b03167f4a39dc06d4c0dbc64b70af90fd698a233a518aa5d07e595d983b8c0526c8f7fb8a87604051808060200180602001838103835285818151815260200191508051906020019060200280838360005b838110156141c05781810151838201526020016141a8565b50505050905001838103825284818151815260200191508051906020019060200280838360005b838110156141ff5781810151838201526020016141e7565b5050505090500194505050505060405180910390a45050505050505050565b6001600160a01b038216614279576040805162461bcd60e51b815260206004820152601b60248201527f496e76656e746f72793a207472616e7366657220746f207a65726f0000000000604482015290519081900360640190fd5b600061428361298a565b905060006142918583614a9e565b835190915060608167ffffffffffffffff811180156142af57600080fd5b506040519080825280602002602001820160405280156142d9578160200160208202803683370190505b50905060008060005b8481146143ba5760008882815181106142f757fe5b60200260200101519050600185838151811061430f57fe5b60200260200101818152505061432b8b8b8360018b600161584d565b808a6001600160a01b03168c6001600160a01b03167fddf252ad1be2c89b69c2b068fc378daa952ba7f163c4a11628f55a4df523b3ef60405160405180910390a4600061437782613cbb565b90508461438a57809450600193506143b0565b8481146143a95761439d8c8c87876159de565b809450600193506143b0565b8360010193505b50506001016142e2565b5081156143d8576143cd898984846159de565b6143d8898986615a32565b876001600160a01b0316896001600160a01b03166143f461298a565b6001600160a01b03167f4a39dc06d4c0dbc64b70af90fd698a233a518aa5d07e595d983b8c0526c8f7fb8a87604051808060200180602001838103835285818151815260200191508051906020019060200280838360005b8381101561446457818101518382015260200161444c565b50505050905001838103825284818151815260200191508051906020019060200280838360005b838110156144a357818101518382015260200161448b565b5050505090500194505050505060405180910390a46144ca886001600160a01b0316614771565b80156144da57506144da886152aa565b156144fb576144fb8989898660405180602001604052806000815250614777565b505050505050505050565b600061451283836156be565b614548575081546001818101845560008481526020808220909301849055845484825282860190935260409020919091556114d0565b5060006114d0565b806145a2576040805162461bcd60e51b815260206004820152601560248201527f496e76656e746f72793a207a65726f2076616c75650000000000000000000000604482015290519081900360640190fd5b600082815260036020526040902054818101818111614608576040805162461bcd60e51b815260206004820152601a60248201527f496e76656e746f72793a20737570706c79206f766572666c6f77000000000000604482015290519081900360640190fd5b600093845260036020908152604080862092909255600281528185206001600160a01b039096168552949094525091902080549091019055565b81600114614697576040805162461bcd60e51b815260206004820152601a60248201527f496e76656e746f72793a2077726f6e67204e46542076616c7565000000000000604482015290519081900360640190fd5b600083815260046020526040902054156146f8576040805162461bcd60e51b815260206004820152601d60248201527f496e76656e746f72793a206578697374696e672f6275726e74204e4654000000604482015290519081900360640190fd5b60008381526004602052604090206001600160a01b03851690558061182957600061472284613cbb565b600090815260036020908152604080832080546001908101909155600283528184206001600160a01b038a16855283528184208054820190556006909252909120805490910190555050505050565b3b151590565b7fbc197c81000000000000000000000000000000000000000000000000000000006001600160a01b03851663bc197c816147af61298a565b888787876040518663ffffffff1660e01b815260040180866001600160a01b03166001600160a01b03168152602001856001600160a01b03166001600160a01b03168152602001806020018060200180602001848103845287818151815260200191508051906020019060200280838360005b8381101561483a578181015183820152602001614822565b50505050905001848103835286818151815260200191508051906020019060200280838360005b83811015614879578181015183820152602001614861565b50505050905001848103825285818151815260200191508051906020019080838360005b838110156148b557818101518382015260200161489d565b50505050905090810190601f1680156148e25780820380516001836020036101000a031916815260200191505b5098505050505050505050602060405180830381600087803b15801561490757600080fd5b505af115801561491b573d6000803e3d6000fd5b505050506040513d602081101561493157600080fd5b50516001600160e01b03191614611961576040805162461bcd60e51b815260206004820152601b60248201527f496e76656e746f72793a207472616e7366657220726566757365640000000000604482015290519081900360640190fd5b6060816149d0575060408051808201909152600181527f3000000000000000000000000000000000000000000000000000000000000000602082015261154c565b8160005b81156149e857600101600a820491506149d4565b60608167ffffffffffffffff81118015614a0157600080fd5b506040519080825280601f01601f191660200182016040528015614a2c576020820181803683370190505b50859350905060001982015b8315614a9557600a840660300160f81b82828060019003935081518110614a5b57fe5b60200101907effffffffffffffffffffffffffffffffffffffffffffffffffffffffffffff1916908160001a905350600a84049350614a38565b50949350505050565b6000816001600160a01b0316836001600160a01b0316148061218d5750506001600160a01b03918216600090815260016020908152604080832093909416825291909152205460ff1690565b81614b3c576040805162461bcd60e51b815260206004820152601560248201527f496e76656e746f72793a207a65726f2076616c75650000000000000000000000604482015290519081900360640190fd5b80614b8e576040805162461bcd60e51b815260206004820152601e60248201527f496e76656e746f72793a206e6f6e2d617070726f7665642073656e6465720000604482015290519081900360640190fd5b60008381526002602090815260408083206001600160a01b038816845290915290205482811015614c06576040805162461bcd60e51b815260206004820152601d60248201527f496e76656e746f72793a206e6f7420656e6f7567682062616c616e6365000000604482015290519081900360640190fd5b60008481526002602090815260408083206001600160a01b0390981683529681528682209285900390925593845260039052509190208054919091039055565b82600114614c9b576040805162461bcd60e51b815260206004820152601a60248201527f496e76656e746f72793a2077726f6e67204e46542076616c7565000000000000604482015290519081900360640190fd5b6000848152600460205260409020546001600160a01b0386811690821614614d0a576040805162461bcd60e51b815260206004820152601860248201527f496e76656e746f72793a206e6f6e2d6f776e6564204e46540000000000000000604482015290519081900360640190fd5b82614d9b57600160a01b811615801590614d4a57506000858152600760205260409020546001600160a01b0316614d3f61298a565b6001600160a01b0316145b614d9b576040805162461bcd60e51b815260206004820152601e60248201527f496e76656e746f72793a206e6f6e2d617070726f7665642073656e6465720000604482015290519081900360640190fd5b60008581526004602052604090207fdead0000000000000000000000000000000000000000000000000000000000009055816135fc57614de586614dde87613cbb565b600161561a565b6001600160a01b03861660009081526006602052604090208054600019019055505050505050565b6001600160a01b038416614e68576040805162461bcd60e51b815260206004820152601b60248201527f496e76656e746f72793a207472616e7366657220746f207a65726f0000000000604482015290519081900360640190fd5b6000614e7261298a565b90506000614e808783614a9e565b9050614e92878787600185600061584d565b84866001600160a01b0316886001600160a01b03167fddf252ad1be2c89b69c2b068fc378daa952ba7f163c4a11628f55a4df523b3ef60405160405180910390a4856001600160a01b0316876001600160a01b0316836001600160a01b03167fc3d58168c5ae7397731d063d5bbf3d657854427343f4c083240f7aacaa2d0f62886001604051808381526020018281526020019250505060405180910390a4614f43866001600160a01b0316614771565b15613fb757614f51866152aa565b15614f6957614f64878787600188615372565b613fb7565b8215613fb757613fb787878787615486565b6001600160a01b038416614fd6576040805162461bcd60e51b815260206004820152601b60248201527f496e76656e746f72793a207472616e7366657220746f207a65726f0000000000604482015290519081900360640190fd5b82518251811461502d576040805162461bcd60e51b815260206004820152601e60248201527f496e76656e746f72793a20696e636f6e73697374656e74206172726179730000604482015290519081900360640190fd5b600061503761298a565b905060006150458883614a9e565b90506000806000805b8681146151645760008a828151811061506357fe5b6020026020010151905061507681613c87565b156150a05761509b8d8d838d868151811061508d57fe5b60200260200101518a6156da565b61515b565b6150a98161286b565b15612b97576150d08d8d838d86815181106150c057fe5b60200260200101518a600161584d565b808c6001600160a01b03168e6001600160a01b03167fddf252ad1be2c89b69c2b068fc378daa952ba7f163c4a11628f55a4df523b3ef60405160405180910390a4600061511c82613cbb565b90508561512f5780955060019450615159565b858114615152576151428e8e88886159de565b9450600193929092019184615159565b8460010194505b505b5060010161504e565b508215615184576151778b8b85856159de565b81016151848b8b83615a32565b896001600160a01b03168b6001600160a01b03166151a061298a565b6001600160a01b03167f4a39dc06d4c0dbc64b70af90fd698a233a518aa5d07e595d983b8c0526c8f7fb8c8c604051808060200180602001838103835285818151815260200191508051906020019060200280838360005b838110156152105781810151838201526020016151f8565b50505050905001838103825284818151815260200191508051906020019060200280838360005b8381101561524f578181015183820152602001615237565b5050505090500194505050505060405180910390a46152768a6001600160a01b0316614771565b15615288576152888b8b8b8b8b614777565b5050505050505050505050565b600061218d836001600160a01b038416615a7d565b604080517f4e2312e0000000000000000000000000000000000000000000000000000000006024808301919091528251808303909101815260449091018252602081810180517bffffffffffffffffffffffffffffffffffffffffffffffffffffffff167f01ffc9a7000000000000000000000000000000000000000000000000000000001781528251935160008082529485948594909392908183858b612710fa955080519450505050609e5a1161535f57fe5b8280156153695750815b95945050505050565b7ff23a6e61000000000000000000000000000000000000000000000000000000006001600160a01b03851663f23a6e616153aa61298a565b888787876040518663ffffffff1660e01b815260040180866001600160a01b03166001600160a01b03168152602001856001600160a01b03166001600160a01b0316815260200184815260200183815260200180602001828103825283818151815260200191508051906020019080838360005b8381101561543657818101518382015260200161541e565b50505050905090810190601f1680156154635780820380516001836020036101000a031916815260200191505b509650505050505050602060405180830381600087803b15801561490757600080fd5b7f150b7a02000000000000000000000000000000000000000000000000000000006001600160a01b03841663150b7a026154be61298a565b8786866040518563ffffffff1660e01b815260040180856001600160a01b03166001600160a01b03168152602001846001600160a01b03166001600160a01b0316815260200183815260200180602001828103825283818151815260200191508051906020019080838360005b8381101561554357818101518382015260200161552b565b50505050905090810190601f1680156155705780820380516001836020036101000a031916815260200191505b5095505050505050602060405180830381600087803b15801561559257600080fd5b505af11580156155a6573d6000803e3d6000fd5b505050506040513d60208110156155bc57600080fd5b50516001600160e01b03191614611829576040805162461bcd60e51b815260206004820152601b60248201527f496e76656e746f72793a207472616e7366657220726566757365640000000000604482015290519081900360640190fd5b60008281526002602090815260408083206001600160a01b0390961683529481528482208054849003905592815260039092529190208054919091039055565b8154600090821061569c5760405162461bcd60e51b8152600401808060200182810382526022815260200180615bdc6022913960400191505060405180910390fd5b8260000182815481106156ab57fe5b9060005260206000200154905092915050565b60009081526001919091016020526040902054151590565b5490565b8061572c576040805162461bcd60e51b815260206004820152601e60248201527f496e76656e746f72793a206e6f6e2d617070726f7665642073656e6465720000604482015290519081900360640190fd5b8161577e576040805162461bcd60e51b815260206004820152601560248201527f496e76656e746f72793a207a65726f2076616c75650000000000000000000000604482015290519081900360640190fd5b60008381526002602090815260408083206001600160a01b0389168452909152902054828110156157f6576040805162461bcd60e51b815260206004820152601d60248201527f496e76656e746f72793a206e6f7420656e6f7567682062616c616e6365000000604482015290519081900360640190fd5b846001600160a01b0316866001600160a01b0316146135fc5760009384526002602090815260408086206001600160a01b039889168752909152808520918490039091559390941682529190208054909101905550565b826001146158a2576040805162461bcd60e51b815260206004820152601a60248201527f496e76656e746f72793a2077726f6e67204e46542076616c7565000000000000604482015290519081900360640190fd5b6000848152600460205260409020546001600160a01b0387811690821614615911576040805162461bcd60e51b815260206004820152601860248201527f496e76656e746f72793a206e6f6e2d6f776e6564204e46540000000000000000604482015290519081900360640190fd5b826159a257600160a01b81161580159061595157506000858152600760205260409020546001600160a01b031661594661298a565b6001600160a01b0316145b6159a2576040805162461bcd60e51b815260206004820152601e60248201527f496e76656e746f72793a206e6f6e2d617070726f7665642073656e6465720000604482015290519081900360640190fd5b60008581526004602052604090206001600160a01b038716905581613fb7576159cd87876001615a32565b613fb787876159db88613cbb565b60015b826001600160a01b0316846001600160a01b0316146118295760009182526002602090815260408084206001600160a01b039687168552909152808320805483900390559290931681522080549091019055565b816001600160a01b0316836001600160a01b031614611893576001600160a01b0380841660009081526006602052604080822080548590039055918416815220805482019055505050565b60008181526001830160205260408120548015615b395783546000198083019190810190600090879083908110615ab057fe5b9060005260206000200154905080876000018481548110615acd57fe5b600091825260208083209091019290925582815260018981019092526040902090840190558654879080615afd57fe5b600190038181906000526020600020016000905590558660010160008781526020019081526020016000206000905560019450505050506114d0565b60009150506114d0565b828054600181600116156101000203166002900490600052602060002090601f016020900481019282601f10615b845782800160ff19823516178555615bb1565b82800160010185558215615bb1579182015b82811115615bb1578235825591602001919060010190615b96565b50615bbd929150615bc1565b5090565b611d9791905b80821115615bbd5760008155600101615bc756fe456e756d657261626c655365743a20696e646578206f7574206f6620626f756e6473416363657373436f6e74726f6c3a2073656e646572206d75737420626520616e2061646d696e20746f206772616e744f776e61626c653a206e6577206f776e657220697320746865207a65726f2061646472657373416363657373436f6e74726f6c3a2073656e646572206d75737420626520616e2061646d696e20746f207265766f6b65416363657373436f6e74726f6c3a2063616e206f6e6c792072656e6f756e636520726f6c657320666f722073656c66a264697066735822122065d28990bf517d6b5d28861c076587c137ad8dd1605d7c2302562f2d70b3d16664736f6c63430006080033",
  "linkReferences": {},
  "deployedLinkReferences": {}
}