{
  "_format": "hh-sol-artifact-1",
  "contractName": "REVVInventory",
  "sourceName": "contracts/solc-0.6/token/ERC1155721/REVVInventory.sol",
  "abi": [
    {
      "anonymous": false,
      "inputs": [
        {
          "indexed": true,
          "internalType": "address",
          "name": "_owner",
          "type": "address"
        },
        {
          "indexed": true,
          "internalType": "address",
          "name": "_approved",
          "type": "address"
        },
        {
          "indexed": true,
          "internalType": "uint256",
          "name": "_tokenId",
          "type": "uint256"
        }
      ],
      "name": "Approval",
      "type": "event"
    },
    {
      "anonymous": false,
      "inputs": [
        {
          "indexed": true,
          "internalType": "address",
          "name": "_owner",
          "type": "address"
        },
        {
          "indexed": true,
          "internalType": "address",
          "name": "_operator",
          "type": "address"
        },
        {
          "indexed": false,
          "internalType": "bool",
          "name": "_approved",
          "type": "bool"
        }
      ],
      "name": "ApprovalForAll",
      "type": "event"
    },
    {
      "anonymous": false,
      "inputs": [
        {
          "indexed": false,
          "internalType": "string",
          "name": "baseMetadataURI",
          "type": "string"
        }
      ],
      "name": "BaseMetadataURISet",
      "type": "event"
    },
    {
      "anonymous": false,
      "inputs": [
        {
          "indexed": true,
          "internalType": "uint256",
          "name": "collectionId",
          "type": "uint256"
        },
        {
          "indexed": true,
          "internalType": "bool",
          "name": "fungible",
          "type": "bool"
        }
      ],
      "name": "CollectionCreated",
      "type": "event"
    },
    {
      "anonymous": false,
      "inputs": [
        {
          "indexed": true,
          "internalType": "address",
          "name": "account",
          "type": "address"
        }
      ],
      "name": "MinterAdded",
      "type": "event"
    },
    {
      "anonymous": false,
      "inputs": [
        {
          "indexed": true,
          "internalType": "address",
          "name": "account",
          "type": "address"
        }
      ],
      "name": "MinterRemoved",
      "type": "event"
    },
    {
      "anonymous": false,
      "inputs": [
        {
          "indexed": true,
          "internalType": "address",
          "name": "previousOwner",
          "type": "address"
        },
        {
          "indexed": true,
          "internalType": "address",
          "name": "newOwner",
          "type": "address"
        }
      ],
      "name": "OwnershipTransferred",
      "type": "event"
    },
    {
      "anonymous": false,
      "inputs": [
        {
          "indexed": true,
          "internalType": "bytes32",
          "name": "role",
          "type": "bytes32"
        },
        {
          "indexed": true,
          "internalType": "bytes32",
          "name": "previousAdminRole",
          "type": "bytes32"
        },
        {
          "indexed": true,
          "internalType": "bytes32",
          "name": "newAdminRole",
          "type": "bytes32"
        }
      ],
      "name": "RoleAdminChanged",
      "type": "event"
    },
    {
      "anonymous": false,
      "inputs": [
        {
          "indexed": true,
          "internalType": "bytes32",
          "name": "role",
          "type": "bytes32"
        },
        {
          "indexed": true,
          "internalType": "address",
          "name": "account",
          "type": "address"
        },
        {
          "indexed": true,
          "internalType": "address",
          "name": "sender",
          "type": "address"
        }
      ],
      "name": "RoleGranted",
      "type": "event"
    },
    {
      "anonymous": false,
      "inputs": [
        {
          "indexed": true,
          "internalType": "bytes32",
          "name": "role",
          "type": "bytes32"
        },
        {
          "indexed": true,
          "internalType": "address",
          "name": "account",
          "type": "address"
        },
        {
          "indexed": true,
          "internalType": "address",
          "name": "sender",
          "type": "address"
        }
      ],
      "name": "RoleRevoked",
      "type": "event"
    },
    {
      "anonymous": false,
      "inputs": [
        {
          "indexed": true,
          "internalType": "address",
          "name": "_from",
          "type": "address"
        },
        {
          "indexed": true,
          "internalType": "address",
          "name": "_to",
          "type": "address"
        },
        {
          "indexed": true,
          "internalType": "uint256",
          "name": "_tokenId",
          "type": "uint256"
        }
      ],
      "name": "Transfer",
      "type": "event"
    },
    {
      "anonymous": false,
      "inputs": [
        {
          "indexed": true,
          "internalType": "address",
          "name": "_operator",
          "type": "address"
        },
        {
          "indexed": true,
          "internalType": "address",
          "name": "_from",
          "type": "address"
        },
        {
          "indexed": true,
          "internalType": "address",
          "name": "_to",
          "type": "address"
        },
        {
          "indexed": false,
          "internalType": "uint256[]",
          "name": "_ids",
          "type": "uint256[]"
        },
        {
          "indexed": false,
          "internalType": "uint256[]",
          "name": "_values",
          "type": "uint256[]"
        }
      ],
      "name": "TransferBatch",
      "type": "event"
    },
    {
      "anonymous": false,
      "inputs": [
        {
          "indexed": true,
          "internalType": "address",
          "name": "_operator",
          "type": "address"
        },
        {
          "indexed": true,
          "internalType": "address",
          "name": "_from",
          "type": "address"
        },
        {
          "indexed": true,
          "internalType": "address",
          "name": "_to",
          "type": "address"
        },
        {
          "indexed": false,
          "internalType": "uint256",
          "name": "_id",
          "type": "uint256"
        },
        {
          "indexed": false,
          "internalType": "uint256",
          "name": "_value",
          "type": "uint256"
        }
      ],
      "name": "TransferSingle",
      "type": "event"
    },
    {
      "anonymous": false,
      "inputs": [
        {
          "indexed": false,
          "internalType": "string",
          "name": "_value",
          "type": "string"
        },
        {
          "indexed": true,
          "internalType": "uint256",
          "name": "_id",
          "type": "uint256"
        }
      ],
      "name": "URI",
      "type": "event"
    },
    {
      "inputs": [],
      "name": "DEFAULT_ADMIN_ROLE",
      "outputs": [
        {
          "internalType": "bytes32",
          "name": "",
          "type": "bytes32"
        }
      ],
      "stateMutability": "view",
      "type": "function"
    },
    {
      "inputs": [
        {
          "internalType": "address",
          "name": "account",
          "type": "address"
        }
      ],
      "name": "addMinter",
      "outputs": [],
      "stateMutability": "nonpayable",
      "type": "function"
    },
    {
      "inputs": [
        {
          "internalType": "address",
          "name": "to",
          "type": "address"
        },
        {
          "internalType": "uint256",
          "name": "nftId",
          "type": "uint256"
        }
      ],
      "name": "approve",
      "outputs": [],
      "stateMutability": "nonpayable",
      "type": "function"
    },
    {
      "inputs": [
        {
          "internalType": "address",
          "name": "owner",
          "type": "address"
        },
        {
          "internalType": "uint256",
          "name": "id",
          "type": "uint256"
        }
      ],
      "name": "balanceOf",
      "outputs": [
        {
          "internalType": "uint256",
          "name": "",
          "type": "uint256"
        }
      ],
      "stateMutability": "view",
      "type": "function"
    },
    {
      "inputs": [
        {
          "internalType": "address",
          "name": "tokenOwner",
          "type": "address"
        }
      ],
      "name": "balanceOf",
      "outputs": [
        {
          "internalType": "uint256",
          "name": "",
          "type": "uint256"
        }
      ],
      "stateMutability": "view",
      "type": "function"
    },
    {
      "inputs": [
        {
          "internalType": "address[]",
          "name": "owners",
          "type": "address[]"
        },
        {
          "internalType": "uint256[]",
          "name": "ids",
          "type": "uint256[]"
        }
      ],
      "name": "balanceOfBatch",
      "outputs": [
        {
          "internalType": "uint256[]",
          "name": "",
          "type": "uint256[]"
        }
      ],
      "stateMutability": "view",
      "type": "function"
    },
    {
      "inputs": [],
      "name": "baseMetadataURI",
      "outputs": [
        {
          "internalType": "string",
          "name": "",
          "type": "string"
        }
      ],
      "stateMutability": "view",
      "type": "function"
    },
    {
      "inputs": [
        {
          "internalType": "address",
          "name": "from",
          "type": "address"
        },
        {
          "internalType": "uint256[]",
          "name": "ids",
          "type": "uint256[]"
        },
        {
          "internalType": "uint256[]",
          "name": "values",
          "type": "uint256[]"
        }
      ],
      "name": "batchBurnFrom",
      "outputs": [],
      "stateMutability": "nonpayable",
      "type": "function"
    },
    {
      "inputs": [
        {
          "internalType": "address",
          "name": "to",
          "type": "address"
        },
        {
          "internalType": "uint256[]",
          "name": "nftIds",
          "type": "uint256[]"
        }
      ],
      "name": "batchMint",
      "outputs": [],
      "stateMutability": "nonpayable",
      "type": "function"
    },
    {
      "inputs": [
        {
          "internalType": "address",
          "name": "from",
          "type": "address"
        },
        {
          "internalType": "address",
          "name": "to",
          "type": "address"
        },
        {
          "internalType": "uint256[]",
          "name": "nftIds",
          "type": "uint256[]"
        }
      ],
      "name": "batchTransferFrom",
      "outputs": [],
      "stateMutability": "nonpayable",
      "type": "function"
    },
    {
      "inputs": [
        {
          "internalType": "address",
          "name": "from",
          "type": "address"
        },
        {
          "internalType": "uint256",
          "name": "id",
          "type": "uint256"
        },
        {
          "internalType": "uint256",
          "name": "value",
          "type": "uint256"
        }
      ],
      "name": "burnFrom",
      "outputs": [],
      "stateMutability": "nonpayable",
      "type": "function"
    },
    {
      "inputs": [
        {
          "internalType": "uint256",
          "name": "nftId",
          "type": "uint256"
        }
      ],
      "name": "collectionOf",
      "outputs": [
        {
          "internalType": "uint256",
          "name": "",
          "type": "uint256"
        }
      ],
      "stateMutability": "pure",
      "type": "function"
    },
    {
      "inputs": [
        {
          "internalType": "uint256",
          "name": "collectionId",
          "type": "uint256"
        }
      ],
      "name": "createCollection",
      "outputs": [],
      "stateMutability": "nonpayable",
      "type": "function"
    },
    {
      "inputs": [
        {
          "internalType": "uint256",
          "name": "collectionId",
          "type": "uint256"
        }
      ],
      "name": "creator",
      "outputs": [
        {
          "internalType": "address",
          "name": "",
          "type": "address"
        }
      ],
      "stateMutability": "view",
      "type": "function"
    },
    {
      "inputs": [
        {
          "internalType": "uint256",
          "name": "nftId",
          "type": "uint256"
        }
      ],
      "name": "getApproved",
      "outputs": [
        {
          "internalType": "address",
          "name": "",
          "type": "address"
        }
      ],
      "stateMutability": "view",
      "type": "function"
    },
    {
      "inputs": [
        {
          "internalType": "bytes32",
          "name": "role",
          "type": "bytes32"
        }
      ],
      "name": "getRoleAdmin",
      "outputs": [
        {
          "internalType": "bytes32",
          "name": "",
          "type": "bytes32"
        }
      ],
      "stateMutability": "view",
      "type": "function"
    },
    {
      "inputs": [
        {
          "internalType": "bytes32",
          "name": "role",
          "type": "bytes32"
        },
        {
          "internalType": "uint256",
          "name": "index",
          "type": "uint256"
        }
      ],
      "name": "getRoleMember",
      "outputs": [
        {
          "internalType": "address",
          "name": "",
          "type": "address"
        }
      ],
      "stateMutability": "view",
      "type": "function"
    },
    {
      "inputs": [
        {
          "internalType": "bytes32",
          "name": "role",
          "type": "bytes32"
        }
      ],
      "name": "getRoleMemberCount",
      "outputs": [
        {
          "internalType": "uint256",
          "name": "",
          "type": "uint256"
        }
      ],
      "stateMutability": "view",
      "type": "function"
    },
    {
      "inputs": [
        {
          "internalType": "bytes32",
          "name": "role",
          "type": "bytes32"
        },
        {
          "internalType": "address",
          "name": "account",
          "type": "address"
        }
      ],
      "name": "grantRole",
      "outputs": [],
      "stateMutability": "nonpayable",
      "type": "function"
    },
    {
      "inputs": [
        {
          "internalType": "bytes32",
          "name": "role",
          "type": "bytes32"
        },
        {
          "internalType": "address",
          "name": "account",
          "type": "address"
        }
      ],
      "name": "hasRole",
      "outputs": [
        {
          "internalType": "bool",
          "name": "",
          "type": "bool"
        }
      ],
      "stateMutability": "view",
      "type": "function"
    },
    {
      "inputs": [
        {
          "internalType": "address",
          "name": "tokenOwner",
          "type": "address"
        },
        {
          "internalType": "address",
          "name": "operator",
          "type": "address"
        }
      ],
      "name": "isApprovedForAll",
      "outputs": [
        {
          "internalType": "bool",
          "name": "",
          "type": "bool"
        }
      ],
      "stateMutability": "view",
      "type": "function"
    },
    {
      "inputs": [
        {
          "internalType": "uint256",
          "name": "id",
          "type": "uint256"
        }
      ],
      "name": "isFungible",
      "outputs": [
        {
          "internalType": "bool",
          "name": "",
          "type": "bool"
        }
      ],
      "stateMutability": "pure",
      "type": "function"
    },
    {
      "inputs": [
        {
          "internalType": "address",
          "name": "account",
          "type": "address"
        }
      ],
      "name": "isMinter",
      "outputs": [
        {
          "internalType": "bool",
          "name": "",
          "type": "bool"
        }
      ],
      "stateMutability": "view",
      "type": "function"
    },
    {
      "inputs": [
        {
          "internalType": "uint256",
          "name": "id",
          "type": "uint256"
        }
      ],
      "name": "isNFT",
      "outputs": [
        {
          "internalType": "bool",
          "name": "",
          "type": "bool"
        }
      ],
      "stateMutability": "pure",
      "type": "function"
    },
    {
      "inputs": [
        {
          "internalType": "address",
          "name": "to",
          "type": "address"
        },
        {
          "internalType": "uint256",
          "name": "nftId",
          "type": "uint256"
        }
      ],
      "name": "mint",
      "outputs": [],
      "stateMutability": "nonpayable",
      "type": "function"
    },
    {
      "inputs": [],
      "name": "name",
      "outputs": [
        {
          "internalType": "string",
          "name": "",
          "type": "string"
        }
      ],
      "stateMutability": "view",
      "type": "function"
    },
    {
      "inputs": [],
      "name": "owner",
      "outputs": [
        {
          "internalType": "address",
          "name": "",
          "type": "address"
        }
      ],
      "stateMutability": "view",
      "type": "function"
    },
    {
      "inputs": [
        {
          "internalType": "uint256",
          "name": "nftId",
          "type": "uint256"
        }
      ],
      "name": "ownerOf",
      "outputs": [
        {
          "internalType": "address",
          "name": "",
          "type": "address"
        }
      ],
      "stateMutability": "view",
      "type": "function"
    },
    {
      "inputs": [],
      "name": "renounceMinter",
      "outputs": [],
      "stateMutability": "nonpayable",
      "type": "function"
    },
    {
      "inputs": [],
      "name": "renounceOwnership",
      "outputs": [],
      "stateMutability": "nonpayable",
      "type": "function"
    },
    {
      "inputs": [
        {
          "internalType": "bytes32",
          "name": "role",
          "type": "bytes32"
        },
        {
          "internalType": "address",
          "name": "account",
          "type": "address"
        }
      ],
      "name": "renounceRole",
      "outputs": [],
      "stateMutability": "nonpayable",
      "type": "function"
    },
    {
      "inputs": [
        {
          "internalType": "bytes32",
          "name": "role",
          "type": "bytes32"
        },
        {
          "internalType": "address",
          "name": "account",
          "type": "address"
        }
      ],
      "name": "revokeRole",
      "outputs": [],
      "stateMutability": "nonpayable",
      "type": "function"
    },
    {
      "inputs": [
        {
          "internalType": "address",
          "name": "to",
          "type": "address"
        },
        {
          "internalType": "uint256[]",
          "name": "ids",
          "type": "uint256[]"
        },
        {
          "internalType": "uint256[]",
          "name": "values",
          "type": "uint256[]"
        },
        {
          "internalType": "bytes",
          "name": "data",
          "type": "bytes"
        }
      ],
      "name": "safeBatchMint",
      "outputs": [],
      "stateMutability": "nonpayable",
      "type": "function"
    },
    {
      "inputs": [
        {
          "internalType": "address",
          "name": "from",
          "type": "address"
        },
        {
          "internalType": "address",
          "name": "to",
          "type": "address"
        },
        {
          "internalType": "uint256[]",
          "name": "ids",
          "type": "uint256[]"
        },
        {
          "internalType": "uint256[]",
          "name": "values",
          "type": "uint256[]"
        },
        {
          "internalType": "bytes",
          "name": "data",
          "type": "bytes"
        }
      ],
      "name": "safeBatchTransferFrom",
      "outputs": [],
      "stateMutability": "nonpayable",
      "type": "function"
    },
    {
      "inputs": [
        {
          "internalType": "address",
          "name": "to",
          "type": "address"
        },
        {
          "internalType": "uint256",
          "name": "id",
          "type": "uint256"
        },
        {
          "internalType": "uint256",
          "name": "value",
          "type": "uint256"
        },
        {
          "internalType": "bytes",
          "name": "data",
          "type": "bytes"
        }
      ],
      "name": "safeMint",
      "outputs": [],
      "stateMutability": "nonpayable",
      "type": "function"
    },
    {
      "inputs": [
        {
          "internalType": "address",
          "name": "to",
          "type": "address"
        },
        {
          "internalType": "uint256",
          "name": "nftId",
          "type": "uint256"
        },
        {
          "internalType": "bytes",
          "name": "data",
          "type": "bytes"
        }
      ],
      "name": "safeMint",
      "outputs": [],
      "stateMutability": "nonpayable",
      "type": "function"
    },
    {
      "inputs": [
        {
          "internalType": "address",
          "name": "from",
          "type": "address"
        },
        {
          "internalType": "address",
          "name": "to",
          "type": "address"
        },
        {
          "internalType": "uint256",
          "name": "nftId",
          "type": "uint256"
        }
      ],
      "name": "safeTransferFrom",
      "outputs": [],
      "stateMutability": "nonpayable",
      "type": "function"
    },
    {
      "inputs": [
        {
          "internalType": "address",
          "name": "from",
          "type": "address"
        },
        {
          "internalType": "address",
          "name": "to",
          "type": "address"
        },
        {
          "internalType": "uint256",
          "name": "nftId",
          "type": "uint256"
        },
        {
          "internalType": "bytes",
          "name": "data",
          "type": "bytes"
        }
      ],
      "name": "safeTransferFrom",
      "outputs": [],
      "stateMutability": "nonpayable",
      "type": "function"
    },
    {
      "inputs": [
        {
          "internalType": "address",
          "name": "from",
          "type": "address"
        },
        {
          "internalType": "address",
          "name": "to",
          "type": "address"
        },
        {
          "internalType": "uint256",
          "name": "id",
          "type": "uint256"
        },
        {
          "internalType": "uint256",
          "name": "value",
          "type": "uint256"
        },
        {
          "internalType": "bytes",
          "name": "data",
          "type": "bytes"
        }
      ],
      "name": "safeTransferFrom",
      "outputs": [],
      "stateMutability": "nonpayable",
      "type": "function"
    },
    {
      "inputs": [
        {
          "internalType": "address",
          "name": "operator",
          "type": "address"
        },
        {
          "internalType": "bool",
          "name": "approved",
          "type": "bool"
        }
      ],
      "name": "setApprovalForAll",
      "outputs": [],
      "stateMutability": "nonpayable",
      "type": "function"
    },
    {
      "inputs": [
        {
          "internalType": "string",
          "name": "baseMetadataURI_",
          "type": "string"
        }
      ],
      "name": "setBaseMetadataURI",
      "outputs": [],
      "stateMutability": "nonpayable",
      "type": "function"
    },
    {
      "inputs": [
        {
          "internalType": "bytes4",
          "name": "interfaceId",
          "type": "bytes4"
        }
      ],
      "name": "supportsInterface",
      "outputs": [
        {
          "internalType": "bool",
          "name": "",
          "type": "bool"
        }
      ],
      "stateMutability": "view",
      "type": "function"
    },
    {
      "inputs": [],
      "name": "symbol",
      "outputs": [
        {
          "internalType": "string",
          "name": "",
          "type": "string"
        }
      ],
      "stateMutability": "view",
      "type": "function"
    },
    {
      "inputs": [
        {
          "internalType": "uint256",
          "name": "nftId",
          "type": "uint256"
        }
      ],
      "name": "tokenURI",
      "outputs": [
        {
          "internalType": "string",
          "name": "",
          "type": "string"
        }
      ],
      "stateMutability": "view",
      "type": "function"
    },
    {
      "inputs": [
        {
          "internalType": "uint256",
          "name": "id",
          "type": "uint256"
        }
      ],
      "name": "totalSupply",
      "outputs": [
        {
          "internalType": "uint256",
          "name": "",
          "type": "uint256"
        }
      ],
      "stateMutability": "view",
      "type": "function"
    },
    {
      "inputs": [
        {
          "internalType": "address",
          "name": "from",
          "type": "address"
        },
        {
          "internalType": "address",
          "name": "to",
          "type": "address"
        },
        {
          "internalType": "uint256",
          "name": "nftId",
          "type": "uint256"
        }
      ],
      "name": "transferFrom",
      "outputs": [],
      "stateMutability": "nonpayable",
      "type": "function"
    },
    {
      "inputs": [
        {
          "internalType": "address",
          "name": "newOwner",
          "type": "address"
        }
      ],
      "name": "transferOwnership",
      "outputs": [],
      "stateMutability": "nonpayable",
      "type": "function"
    },
    {
      "inputs": [
        {
          "internalType": "uint256",
          "name": "id",
          "type": "uint256"
        }
      ],
      "name": "uri",
      "outputs": [
        {
          "internalType": "string",
          "name": "",
          "type": "string"
        }
      ],
      "stateMutability": "view",
      "type": "function"
    }
  ],
  "bytecode": "0x60806040523480156200001157600080fd5b506200002d6301ffc9a760e01b6001600160e01b036200018d16565b62000048636cdb3d1360e11b6001600160e01b036200018d16565b620000636303a24d0760e21b6001600160e01b036200018d16565b6200007e63b44bec7f60e01b6001600160e01b036200018d16565b620000996380ac58cd60e01b6001600160e01b036200018d16565b620000b4635b5e139f60e01b6001600160e01b036200018d16565b6000620000c96001600160e01b036200021216565b600880546001600160a01b0319166001600160a01b038316908117909155604051919250906000907f8be0079c531659141344cd1fd0a4f28419497f9722a3daafe3b4186f6b6457e0908290a3506200013f6000620001306001600160e01b036200021216565b6001600160e01b036200021616565b620001526001600160e01b036200021216565b6001600160a01b03167f6ae172837ea30b801fbfcdd4108aa1d5bf8ff775444fd70256b44e6bf3dfc3f660405160405180910390a26200034c565b6001600160e01b03198082161415620001ed576040805162461bcd60e51b815260206004820152601c60248201527f4552433136353a20696e76616c696420696e7465726661636520696400000000604482015290519081900360640190fd5b6001600160e01b0319166000908152602081905260409020805460ff19166001179055565b3390565b6200022b82826001600160e01b036200022f16565b5050565b6000828152600a602090815260409091206200025691839062002446620002b3821b17901c565b156200022b576200026f6001600160e01b036200021216565b6001600160a01b0316816001600160a01b0316837f2f8788117e7eff1d82e926ec794901d17c78024a50270940304540a733656f0d60405160405180910390a45050565b6000620002d3836001600160a01b0384166001600160e01b03620002dc16565b90505b92915050565b6000620002f383836001600160e01b036200033416565b6200032b57508154600181810184556000848152602080822090930184905584548482528286019093526040902091909155620002d6565b506000620002d6565b60009081526001919091016020526040902054151590565b61540c806200035c6000396000f3fe608060405234801561001057600080fd5b506004361061031f5760003560e01c806380534934116101a7578063adebf6f2116100ee578063d0011d9d11610097578063f242432a11610071578063f242432a14611056578063f2fde38b14611121578063f3993d11146111475761031f565b8063d0011d9d14610fdf578063d547741f14610ffc578063e985e9c5146110285761031f565b8063c7778baa116100c8578063c7778baa14610f88578063c87b56dd14610fa5578063ca15c87314610fc25761031f565b8063adebf6f214610e88578063b88d4fde14610ea5578063bd85b03914610f6b5761031f565b806397634f9f11610150578063a217fddf1161012a578063a217fddf14610e2c578063a22cb46514610e34578063aa271e1a14610e625761031f565b806397634f9f14610de1578063983b2d5614610dfe5780639865027514610e245761031f565b80639010d07c116101815780639010d07c14610d8a57806391d1485414610dad57806395d89b4114610dd95761031f565b80638053493414610c2b5780638832e6e314610cfd5780638da5cb5b14610d825761031f565b806336568abe1161026b5780635b2bd79e1161021457806370a08231116101ee57806370a0823114610b8d578063715018a614610bb35780637e518ec814610bbb5761031f565b80635b2bd79e14610adc5780635cfa929714610ae45780636352211e14610b705761031f565b80634684d7e9116102455780634684d7e9146108c85780634e1273f414610948578063510b515814610abf5761031f565b806336568abe1461083a57806340c10f191461086657806342842e0e146108925761031f565b80630e89341c116102cd578063248a9ca3116102a7578063248a9ca31461062a5780632eb2c2d6146106475780632f2ff15d1461080e5761031f565b80630e89341c146105a5578063124d91e5146105c257806323b872dd146105f45761031f565b8063081812fc116102fe578063081812fc1461041a578063095ea7b3146104535780630d6a5bbb146104815761031f565b8062fdd58e1461032457806301ffc9a71461036257806306fdde031461039d575b600080fd5b6103506004803603604081101561033a57600080fd5b506001600160a01b0381351690602001356111d0565b60408051918252519081900360200190f35b6103896004803603602081101561037857600080fd5b50356001600160e01b031916611298565b604080519115158252519081900360200190f35b6103a56112bb565b6040805160208082528351818301528351919283929083019185019080838360005b838110156103df5781810151838201526020016103c7565b50505050905090810190601f16801561040c5780820380516001836020036101000a031916815260200191505b509250505060405180910390f35b6104376004803603602081101561043057600080fd5b50356112f4565b604080516001600160a01b039092168252519081900360200190f35b61047f6004803603604081101561046957600080fd5b506001600160a01b038135169060200135611393565b005b61047f6004803603608081101561049757600080fd5b6001600160a01b0382351691908101906040810160208201356401000000008111156104c257600080fd5b8201836020820111156104d457600080fd5b803590602001918460208302840111640100000000831117156104f657600080fd5b91939092909160208101903564010000000081111561051457600080fd5b82018360208201111561052657600080fd5b8035906020019184602083028401116401000000008311171561054857600080fd5b91939092909160208101903564010000000081111561056657600080fd5b82018360208201111561057857600080fd5b8035906020019184600183028401116401000000008311171561059a57600080fd5b509092509050611526565b6103a5600480360360208110156105bb57600080fd5b503561161c565b61047f600480360360608110156105d857600080fd5b506001600160a01b038135169060208101359060400135611627565b61047f6004803603606081101561060a57600080fd5b506001600160a01b03813581169160208101359091169060400135611637565b6103506004803603602081101561064057600080fd5b5035611654565b61047f600480360360a081101561065d57600080fd5b6001600160a01b03823581169260208101359091169181019060608101604082013564010000000081111561069157600080fd5b8201836020820111156106a357600080fd5b803590602001918460208302840111640100000000831117156106c557600080fd5b919080806020026020016040519081016040528093929190818152602001838360200280828437600092019190915250929594936020810193503591505064010000000081111561071557600080fd5b82018360208201111561072757600080fd5b8035906020019184602083028401116401000000008311171561074957600080fd5b919080806020026020016040519081016040528093929190818152602001838360200280828437600092019190915250929594936020810193503591505064010000000081111561079957600080fd5b8201836020820111156107ab57600080fd5b803590602001918460018302840111640100000000831117156107cd57600080fd5b91908080601f016020809104026020016040519081016040528093929190818152602001838380828437600092019190915250929550611669945050505050565b61047f6004803603604081101561082457600080fd5b50803590602001356001600160a01b031661167d565b61047f6004803603604081101561085057600080fd5b50803590602001356001600160a01b03166116e9565b61047f6004803603604081101561087c57600080fd5b506001600160a01b03813516906020013561174a565b61047f600480360360608110156108a857600080fd5b506001600160a01b038135811691602081013590911690604001356117ac565b61047f600480360360408110156108de57600080fd5b6001600160a01b03823516919081019060408101602082013564010000000081111561090957600080fd5b82018360208201111561091b57600080fd5b8035906020019184602083028401116401000000008311171561093d57600080fd5b5090925090506117c9565b610a6f6004803603604081101561095e57600080fd5b81019060208101813564010000000081111561097957600080fd5b82018360208201111561098b57600080fd5b803590602001918460208302840111640100000000831117156109ad57600080fd5b91908080602002602001604051908101604052809392919081815260200183836020028082843760009201919091525092959493602081019350359150506401000000008111156109fd57600080fd5b820183602082011115610a0f57600080fd5b80359060200191846020830284011164010000000083111715610a3157600080fd5b91908080602002602001604051908101604052809392919081815260200183836020028082843760009201919091525092955061184c945050505050565b60408051602080825283518183015283519192839290830191858101910280838360005b83811015610aab578181015183820152602001610a93565b505050509050019250505060405180910390f35b61043760048036036020811015610ad557600080fd5b503561194d565b6103a56119c6565b61047f60048036036080811015610afa57600080fd5b6001600160a01b038235169160208101359160408201359190810190608081016060820135640100000000811115610b3157600080fd5b820183602082011115610b4357600080fd5b80359060200191846001830284011164010000000083111715610b6557600080fd5b509092509050611a54565b61043760048036036020811015610b8657600080fd5b5035611adc565b61035060048036036020811015610ba357600080fd5b50356001600160a01b0316611ae7565b61047f611b60565b61047f60048036036020811015610bd157600080fd5b810190602081018135640100000000811115610bec57600080fd5b820183602082011115610bfe57600080fd5b80359060200191846001830284011164010000000083111715610c2057600080fd5b509092509050611c21565b61047f60048036036060811015610c4157600080fd5b6001600160a01b038235169190810190604081016020820135640100000000811115610c6c57600080fd5b820183602082011115610c7e57600080fd5b80359060200191846020830284011164010000000083111715610ca057600080fd5b919390929091602081019035640100000000811115610cbe57600080fd5b820183602082011115610cd057600080fd5b80359060200191846020830284011164010000000083111715610cf257600080fd5b509092509050611cfc565b61047f60048036036060811015610d1357600080fd5b6001600160a01b0382351691602081013591810190606081016040820135640100000000811115610d4357600080fd5b820183602082011115610d5557600080fd5b80359060200191846001830284011164010000000083111715610d7757600080fd5b509092509050611d6a565b610437611dfa565b61043760048036036040811015610da057600080fd5b5080359060200135611e0a565b61038960048036036040811015610dc357600080fd5b50803590602001356001600160a01b0316611e2f565b6103a5611e4d565b61038960048036036020811015610df757600080fd5b5035611e86565b61047f60048036036020811015610e1457600080fd5b50356001600160a01b0316611ec3565b61047f611f90565b610350612027565b61047f60048036036040811015610e4a57600080fd5b506001600160a01b038135169060200135151561202c565b61038960048036036020811015610e7857600080fd5b50356001600160a01b0316612036565b61038960048036036020811015610e9e57600080fd5b5035612088565b61047f60048036036080811015610ebb57600080fd5b6001600160a01b03823581169260208101359091169160408201359190810190608081016060820135640100000000811115610ef657600080fd5b820183602082011115610f0857600080fd5b80359060200191846001830284011164010000000083111715610f2a57600080fd5b91908080601f0160208091040260200160405190810160405280939291908181526020018383808284376000920191909152509295506120ae945050505050565b61035060048036036020811015610f8157600080fd5b50356120bc565b61035060048036036020811015610f9e57600080fd5b5035612112565b6103a560048036036020811015610fbb57600080fd5b503561217c565b61035060048036036020811015610fd857600080fd5b50356121f1565b61047f60048036036020811015610ff557600080fd5b5035612208565b61047f6004803603604081101561101257600080fd5b50803590602001356001600160a01b031661227e565b6103896004803603604081101561103e57600080fd5b506001600160a01b03813581169160200135166122d7565b61047f600480360360a081101561106c57600080fd5b6001600160a01b03823581169260208101359091169160408201359160608101359181019060a0810160808201356401000000008111156110ac57600080fd5b8201836020820111156110be57600080fd5b803590602001918460018302840111640100000000831117156110e057600080fd5b91908080601f0160208091040260200160405190810160405280939291908181526020018383808284376000920191909152509295506122e3945050505050565b61047f6004803603602081101561113757600080fd5b50356001600160a01b03166122f0565b61047f6004803603606081101561115d57600080fd5b6001600160a01b03823581169260208101359091169181019060608101604082013564010000000081111561119157600080fd5b8201836020820111156111a357600080fd5b803590602001918460208302840111640100000000831117156111c557600080fd5b509092509050612408565b60006001600160a01b03831661122d576040805162461bcd60e51b815260206004820152601760248201527f496e76656e746f72793a207a65726f2061646472657373000000000000000000604482015290519081900360640190fd5b61123682611e86565b1561126d576000828152600460205260409020546001600160a01b03841614611260576000611263565b60015b60ff169050611292565b5060008181526002602090815260408083206001600160a01b03861684529091529020545b92915050565b6001600160e01b0319811660009081526020819052604090205460ff165b919050565b6040518060400160405280600e81526020017f5245565620496e76656e746f727900000000000000000000000000000000000081525081565b6000818152600460205260408120546001600160a01b03811661135e576040805162461bcd60e51b815260206004820152601b60248201527f496e76656e746f72793a206e6f6e2d6578697374696e67204e46540000000000604482015290519081900360640190fd5b600160a01b8116156113895750506000818152600760205260409020546001600160a01b03166112b6565b60009150506112b6565b600061139e82611adc565b9050806001600160a01b0316836001600160a01b03161415611407576040805162461bcd60e51b815260206004820152601860248201527f496e76656e746f72793a2073656c662d617070726f76616c0000000000000000604482015290519081900360640190fd5b600061141161245b565b9050816001600160a01b0316816001600160a01b0316148061145857506001600160a01b0380831660009081526001602090815260408083209385168352929052205460ff165b6114a9576040805162461bcd60e51b815260206004820152601e60248201527f496e76656e746f72793a206e6f6e2d617070726f7665642073656e6465720000604482015290519081900360640190fd5b60008381526004602090815260408083206001600160a01b03808716600160a01b81179092556007909352818420805493891673ffffffffffffffffffffffffffffffffffffffff1990941684179055905186937f8c5be1e5ebec7d5bd14f71427d1e84f3dd0314c0f7b2291e5b200ac8c7c3b92591a450505050565b61153661153161245b565b612036565b6115715760405162461bcd60e51b815260040180806020018281038252603081526020018061534f6030913960400191505060405180910390fd5b6116138787878080602002602001604051908101604052809392919081815260200183836020028082843760009201919091525050604080516020808b0282810182019093528a82529093508a92508991829185019084908082843760009201919091525050604080516020601f8a01819004810282018101909252888152925088915087908190840183828082843760009201919091525061245f92505050565b50505050505050565b60606112928261281a565b611632838383612825565b505050565b611632838383604051806020016040528060008152506000612919565b6000908152600a602052604090206002015490565b6116768585858585612ae1565b5050505050565b6000828152600a60205260409020600201546116a09061169b61245b565b611e2f565b6116db5760405162461bcd60e51b815260040180806020018281038252602f8152602001806152a1602f913960400191505060405180910390fd5b6116e58282612dfa565b5050565b6116f161245b565b6001600160a01b0316816001600160a01b0316146117405760405162461bcd60e51b815260040180806020018281038252602f8152602001806153a8602f913960400191505060405180910390fd5b6116e58282612e69565b61175561153161245b565b6117905760405162461bcd60e51b815260040180806020018281038252603081526020018061534f6030913960400191505060405180910390fd5b6116e58282604051806020016040528060008152506000612ed8565b611632838383604051806020016040528060008152506001612919565b6117d461153161245b565b61180f5760405162461bcd60e51b815260040180806020018281038252603081526020018061534f6030913960400191505060405180910390fd5b6116328383838080602002602001604051908101604052809392919081815260200183836020028082843760009201919091525061307c92505050565b606081518351146118a4576040805162461bcd60e51b815260206004820152601e60248201527f496e76656e746f72793a20696e636f6e73697374656e74206172726179730000604482015290519081900360640190fd5b6060835167ffffffffffffffff811180156118be57600080fd5b506040519080825280602002602001820160405280156118e8578160200160208202803683370190505b50905060005b845181146119455761192685828151811061190557fe5b602002602001015185838151811061191957fe5b60200260200101516111d0565b82828151811061193257fe5b60209081029190910101526001016118ee565b509392505050565b600061195882611e86565b156119aa576040805162461bcd60e51b815260206004820152601b60248201527f496e76656e746f72793a206e6f74206120636f6c6c656374696f6e0000000000604482015290519081900360640190fd5b506000908152600560205260409020546001600160a01b031690565b6009805460408051602060026001851615610100026000190190941693909304601f81018490048402820184019092528181529291830182828015611a4c5780601f10611a2157610100808354040283529160200191611a4c565b820191906000526020600020905b815481529060010190602001808311611a2f57829003601f168201915b505050505081565b611a5f61153161245b565b611a9a5760405162461bcd60e51b815260040180806020018281038252603081526020018061534f6030913960400191505060405180910390fd5b61167685858585858080601f0160208091040260200160405190810160405280939291908181526020018383808284376000920191909152506133d992505050565b600061129282613525565b60006001600160a01b038216611b44576040805162461bcd60e51b815260206004820152601760248201527f496e76656e746f72793a207a65726f2061646472657373000000000000000000604482015290519081900360640190fd5b506001600160a01b031660009081526006602052604090205490565b611b6861245b565b6008546001600160a01b03908116911614611bca576040805162461bcd60e51b815260206004820181905260248201527f4f776e61626c653a2063616c6c6572206973206e6f7420746865206f776e6572604482015290519081900360640190fd5b6008546040516000916001600160a01b0316907f8be0079c531659141344cd1fd0a4f28419497f9722a3daafe3b4186f6b6457e0908390a36008805473ffffffffffffffffffffffffffffffffffffffff19169055565b611c2961245b565b6008546001600160a01b03908116911614611c8b576040805162461bcd60e51b815260206004820181905260248201527f4f776e61626c653a2063616c6c6572206973206e6f7420746865206f776e6572604482015290519081900360640190fd5b611c97600983836151e6565b507f04b1dc5c136a3ce9fded8db0ce3d3366c58764ec3a8e4c2b9e52e4ddfe5ebbf7828260405180806020018281038252848482818152602001925080828437600083820152604051601f909101601f19169092018290039550909350505050a15050565b611676858585808060200260200160405190810160405280939291908181526020018383602002808284376000920191909152505060408051602080890282810182019093528882529093508892508791829185019084908082843760009201919091525061358f92505050565b611d7561153161245b565b611db05760405162461bcd60e51b815260040180806020018281038252603081526020018061534f6030913960400191505060405180910390fd5b611df4848484848080601f01602080910402602001604051908101604052809392919081815260200183838082843760009201919091525060019250612ed8915050565b50505050565b6008546001600160a01b03165b90565b6000828152600a60205260408120611e28908363ffffffff6138a816565b9392505050565b6000828152600a60205260408120611e28908363ffffffff6138b416565b6040518060400160405280600681526020017f524556562d49000000000000000000000000000000000000000000000000000081525081565b60007f80000000000000000000000000000000000000000000000000000000000000008216158015906112925750506001600160e01b0316151590565b611ece61153161245b565b611f095760405162461bcd60e51b815260040180806020018281038252603081526020018061534f6030913960400191505060405180910390fd5b611f1281612036565b15611f4e5760405162461bcd60e51b815260040180806020018281038252602981526020018061537f6029913960400191505060405180910390fd5b611f5960008261167d565b6040516001600160a01b038216907f6ae172837ea30b801fbfcdd4108aa1d5bf8ff775444fd70256b44e6bf3dfc3f690600090a250565b611f9b61153161245b565b611fd65760405162461bcd60e51b815260040180806020018281038252603081526020018061534f6030913960400191505060405180910390fd5b611fe86000611fe361245b565b6116e9565b611ff061245b565b6001600160a01b03167fe94479a9f7e1952cc78f2d6baab678adc1b772d936c6583def489e524cb6669260405160405180910390a2565b600081565b6116e582826138c9565b60006001600160a01b03821661207d5760405162461bcd60e51b81526004018080602001828103825260298152602001806152f66029913960400191505060405180910390fd5b611292600083611e2f565b7f8000000000000000000000000000000000000000000000000000000000000000161590565b611df4848484846001612919565b60006120c782611e86565b156120fd576000828152600460205260409020546001600160a01b0316156120f05760016120f3565b60005b60ff1690506112b6565b506000818152600360205260409020546112b6565b600061211d82611e86565b61216e576040805162461bcd60e51b815260206004820152601560248201527f496e76656e746f72793a206e6f7420616e204e46540000000000000000000000604482015290519081900360640190fd5b506001600160e01b03191690565b6000818152600460205260409020546060906001600160a01b03166121e8576040805162461bcd60e51b815260206004820152601b60248201527f496e76656e746f72793a206e6f6e2d6578697374696e67204e46540000000000604482015290519081900360640190fd5b6112928261281a565b6000818152600a60205260408120611292906139aa565b61221061245b565b6008546001600160a01b03908116911614612272576040805162461bcd60e51b815260206004820181905260248201527f4f776e61626c653a2063616c6c6572206973206e6f7420746865206f776e6572604482015290519081900360640190fd5b61227b816139b5565b50565b6000828152600a602052604090206002015461229c9061169b61245b565b6117405760405162461bcd60e51b815260040180806020018281038252603081526020018061531f6030913960400191505060405180910390fd5b6000611e288383613af6565b6116768585858585613b24565b6122f861245b565b6008546001600160a01b0390811691161461235a576040805162461bcd60e51b815260206004820181905260248201527f4f776e61626c653a2063616c6c6572206973206e6f7420746865206f776e6572604482015290519081900360640190fd5b6001600160a01b03811661239f5760405162461bcd60e51b81526004018080602001828103825260268152602001806152d06026913960400191505060405180910390fd5b6008546040516001600160a01b038084169216907f8be0079c531659141344cd1fd0a4f28419497f9722a3daafe3b4186f6b6457e090600090a36008805473ffffffffffffffffffffffffffffffffffffffff19166001600160a01b0392909216919091179055565b611df48484848480806020026020016040519081016040528093929190818152602001838360200280828437600092019190915250613c9a92505050565b6000611e28836001600160a01b038416613fd4565b3390565b6001600160a01b0384166124ba576040805162461bcd60e51b815260206004820152601b60248201527f496e76656e746f72793a207472616e7366657220746f207a65726f0000000000604482015290519081900360640190fd5b825182518114612511576040805162461bcd60e51b815260206004820152601e60248201527f496e76656e746f72793a20696e636f6e73697374656e74206172726179730000604482015290519081900360640190fd5b6000806000805b8481146126be57600088828151811061252d57fe5b60200260200101519050600088838151811061254557fe5b6020026020010151905061255882612088565b1561256d576125688b838361401e565b6126b4565b6001600160e01b03821615612667576125898b83836001614110565b60405182906001600160a01b038d16906000907fddf252ad1be2c89b69c2b068fc378daa952ba7f163c4a11628f55a4df523b3ef908290a46001600160e01b03198216866125dd5780965060019550612661565b86811461265a57856002600089815260200190815260200160002060008e6001600160a01b03166001600160a01b0316815260200190815260200160002060008282540192505081905550856003600089815260200190815260200160002060008282540192505081905550809650858501945060019550612661565b8560010195505b506126b4565b6040805162461bcd60e51b815260206004820152601960248201527f496e76656e746f72793a206e6f74206120746f6b656e20696400000000000000604482015290519081900360640190fd5b5050600101612518565b5082156127135760008381526002602090815260408083206001600160a01b038c1680855290835281842080548701905586845260038352818420805487019055835260069091529020805491830191820190555b6001600160a01b038816600061272761245b565b6001600160a01b03167f4a39dc06d4c0dbc64b70af90fd698a233a518aa5d07e595d983b8c0526c8f7fb8a8a604051808060200180602001838103835285818151815260200191508051906020019060200280838360005b8381101561279757818101518382015260200161277f565b50505050905001838103825284818151815260200191508051906020019060200280838360005b838110156127d65781810151838201526020016127be565b5050505090500194505050505060405180910390a46127fd886001600160a01b031661423d565b1561281057612810600089898989614243565b5050505050505050565b60606112928261445b565b600061282f61245b565b9050600061283d858361452e565b905061284884612088565b1561285e576128598585858461457a565b6128b4565b6001600160e01b038416156126675761287b8585858460006146d6565b60405184906000906001600160a01b038816907fddf252ad1be2c89b69c2b068fc378daa952ba7f163c4a11628f55a4df523b3ef908390a45b60006001600160a01b0316856001600160a01b0316836001600160a01b03167fc3d58168c5ae7397731d063d5bbf3d657854427343f4c083240f7aacaa2d0f628787604051808381526020018281526020019250505060405180910390a45050505050565b6001600160a01b038416612974576040805162461bcd60e51b815260206004820152601b60248201527f496e76656e746f72793a207472616e7366657220746f207a65726f0000000000604482015290519081900360640190fd5b61297d83611e86565b6129ce576040805162461bcd60e51b815260206004820152601560248201527f496e76656e746f72793a206e6f7420616e204e46540000000000000000000000604482015290519081900360640190fd5b60006129d861245b565b905060006129e6878361452e565b90506129f887878760018560006148c3565b84866001600160a01b0316886001600160a01b03167fddf252ad1be2c89b69c2b068fc378daa952ba7f163c4a11628f55a4df523b3ef60405160405180910390a4856001600160a01b0316876001600160a01b0316836001600160a01b03167fc3d58168c5ae7397731d063d5bbf3d657854427343f4c083240f7aacaa2d0f62886001604051808381526020018281526020019250505060405180910390a4612aa9866001600160a01b031661423d565b1561161357612ab786614a5a565b15612acf57612aca878787600188614b0d565b611613565b82156116135761161387878787614c21565b6001600160a01b038416612b3c576040805162461bcd60e51b815260206004820152601b60248201527f496e76656e746f72793a207472616e7366657220746f207a65726f0000000000604482015290519081900360640190fd5b825182518114612b93576040805162461bcd60e51b815260206004820152601e60248201527f496e76656e746f72793a20696e636f6e73697374656e74206172726179730000604482015290519081900360640190fd5b6000612b9d61245b565b90506000612bab888361452e565b90506000806000805b868114612cc95760008a8281518110612bc957fe5b60200260200101519050612bdc81612088565b15612c0657612c018d8d838d8681518110612bf357fe5b60200260200101518a614db5565b612cc0565b6001600160e01b0381161561266757612c378d8d838d8681518110612c2757fe5b60200260200101518a60016148c3565b808c6001600160a01b03168e6001600160a01b03167fddf252ad1be2c89b69c2b068fc378daa952ba7f163c4a11628f55a4df523b3ef60405160405180910390a46001600160e01b0319811685612c945780955060019450612cbe565b858114612cb757612ca78e8e8888614f0f565b9450600193929092019184612cbe565b8460010194505b505b50600101612bb4565b508215612ce957612cdc8b8b8585614f0f565b8101612ce98b8b83614f4a565b896001600160a01b03168b6001600160a01b0316612d0561245b565b6001600160a01b03167f4a39dc06d4c0dbc64b70af90fd698a233a518aa5d07e595d983b8c0526c8f7fb8c8c604051808060200180602001838103835285818151815260200191508051906020019060200280838360005b83811015612d75578181015183820152602001612d5d565b50505050905001838103825284818151815260200191508051906020019060200280838360005b83811015612db4578181015183820152602001612d9c565b5050505090500194505050505060405180910390a4612ddb8a6001600160a01b031661423d565b15612ded57612ded8b8b8b8b8b614243565b5050505050505050505050565b6000828152600a60205260409020612e18908263ffffffff61244616565b156116e557612e2561245b565b6001600160a01b0316816001600160a01b0316837f2f8788117e7eff1d82e926ec794901d17c78024a50270940304540a733656f0d60405160405180910390a45050565b6000828152600a60205260409020612e87908263ffffffff614f7c16565b156116e557612e9461245b565b6001600160a01b0316816001600160a01b0316837ff6391f5c32d9c69d2a47ea670b442974b53935d1edc7fd64eb21e047a839171b60405160405180910390a45050565b6001600160a01b038416612f33576040805162461bcd60e51b815260206004820152601b60248201527f496e76656e746f72793a207472616e7366657220746f207a65726f0000000000604482015290519081900360640190fd5b612f3c83611e86565b612f8d576040805162461bcd60e51b815260206004820152601560248201527f496e76656e746f72793a206e6f7420616e204e46540000000000000000000000604482015290519081900360640190fd5b612f9b848460016000614110565b60405183906001600160a01b038616906000907fddf252ad1be2c89b69c2b068fc378daa952ba7f163c4a11628f55a4df523b3ef908290a46001600160a01b0384166000612fe761245b565b6001600160a01b03167fc3d58168c5ae7397731d063d5bbf3d657854427343f4c083240f7aacaa2d0f62866001604051808381526020018281526020019250505060405180910390a4613042846001600160a01b031661423d565b15611df45761305084614a5a565b156130695761306460008585600186614b0d565b611df4565b8015611df457611df46000858585614c21565b6001600160a01b0382166130d7576040805162461bcd60e51b815260206004820152601b60248201527f496e76656e746f72793a207472616e7366657220746f207a65726f0000000000604482015290519081900360640190fd5b805160608167ffffffffffffffff811180156130f257600080fd5b5060405190808252806020026020018201604052801561311c578160200160208202803683370190505b50905060008060005b84811461327557600086828151811061313a57fe5b6020026020010151905061314d81611e86565b61319e576040805162461bcd60e51b815260206004820152601560248201527f496e76656e746f72793a206e6f7420616e204e46540000000000000000000000604482015290519081900360640190fd5b60018583815181106131ac57fe5b6020026020010181815250506131c58882600180614110565b60405181906001600160a01b038a16906000907fddf252ad1be2c89b69c2b068fc378daa952ba7f163c4a11628f55a4df523b3ef908290a46001600160e01b0319811684613219578094506001935061326b565b8481146132645760008581526002602090815260408083206001600160a01b038d1684528252808320805488019055968252600390529490942080549093019092556001918361326b565b8360010193505b5050600101613125565b5060008281526002602090815260408083206001600160a01b038a168085529083528184208054860190558584526003835281842080548601905580845260069092528220805487019055906132c961245b565b6001600160a01b03167f4a39dc06d4c0dbc64b70af90fd698a233a518aa5d07e595d983b8c0526c8f7fb8887604051808060200180602001838103835285818151815260200191508051906020019060200280838360005b83811015613339578181015183820152602001613321565b50505050905001838103825284818151815260200191508051906020019060200280838360005b83811015613378578181015183820152602001613360565b5050505090500194505050505060405180910390a461339f866001600160a01b031661423d565b80156133af57506133af86614a5a565b156133d1576133d1600087878660405180602001604052806000815250614243565b505050505050565b6001600160a01b038416613434576040805162461bcd60e51b815260206004820152601b60248201527f496e76656e746f72793a207472616e7366657220746f207a65726f0000000000604482015290519081900360640190fd5b600061343e61245b565b905061344984612088565b1561345e5761345985858561401e565b6134b3565b6001600160e01b038416156126675761347a8585856000614110565b60405184906001600160a01b038716906000907fddf252ad1be2c89b69c2b068fc378daa952ba7f163c4a11628f55a4df523b3ef908290a45b604080518581526020810185905281516001600160a01b0380891693600093918616927fc3d58168c5ae7397731d063d5bbf3d657854427343f4c083240f7aacaa2d0f629281900390910190a4613512856001600160a01b031661423d565b1561167657611676600086868686614b0d565b6000818152600460205260408120546001600160a01b038116611292576040805162461bcd60e51b815260206004820152601b60248201527f496e76656e746f72793a206e6f6e2d6578697374696e67204e46540000000000604482015290519081900360640190fd5b8151815181146135e6576040805162461bcd60e51b815260206004820152601e60248201527f496e76656e746f72793a20696e636f6e73697374656e74206172726179730000604482015290519081900360640190fd5b60006135f061245b565b905060006135fe868361452e565b90506000806000805b86811461376b57600089828151811061361c57fe5b6020026020010151905061362f81612088565b15613658576136538b828b858151811061364557fe5b60200260200101518961457a565b613762565b6001600160e01b03811615612667576136888b828b858151811061367857fe5b60200260200101518960016146d6565b60405181906000906001600160a01b038e16907fddf252ad1be2c89b69c2b068fc378daa952ba7f163c4a11628f55a4df523b3ef908390a46001600160e01b03198116856136dc5780955060019450613760565b85811461375957846002600088815260200190815260200160002060008e6001600160a01b03166001600160a01b0316815260200190815260200160002060008282540392505081905550846003600088815260200190815260200160002060008282540392505081905550809550848401935060019450613760565b8460010194505b505b50600101613607565b5082156137c35760008381526002602090815260408083206001600160a01b038d1680855290835281842080548790039055868452600383528184208054879003905583526006909152902080549183019182900390555b60006001600160a01b0316896001600160a01b0316866001600160a01b03167f4a39dc06d4c0dbc64b70af90fd698a233a518aa5d07e595d983b8c0526c8f7fb8b8b604051808060200180602001838103835285818151815260200191508051906020019060200280838360005b83811015613849578181015183820152602001613831565b50505050905001838103825284818151815260200191508051906020019060200280838360005b83811015613888578181015183820152602001613870565b5050505090500194505050505060405180910390a4505050505050505050565b6000611e288383614f91565b6000611e28836001600160a01b038416614ff5565b60006138d361245b565b9050806001600160a01b0316836001600160a01b0316141561393c576040805162461bcd60e51b815260206004820152601860248201527f496e76656e746f72793a2073656c662d617070726f76616c0000000000000000604482015290519081900360640190fd5b6001600160a01b03818116600081815260016020908152604080832094881680845294825291829020805460ff1916871515908117909155825190815291517f17307eab39ab6107e8899845ad3d59bd9653f200f220920489ca2b5937696c319281900390910190a3505050565b60006112928261500d565b6139be81611e86565b15613a10576040805162461bcd60e51b815260206004820152601b60248201527f496e76656e746f72793a206e6f74206120636f6c6c656374696f6e0000000000604482015290519081900360640190fd5b6000818152600560205260409020546001600160a01b031615613a7a576040805162461bcd60e51b815260206004820152601e60248201527f496e76656e746f72793a206578697374696e6720636f6c6c656374696f6e0000604482015290519081900360640190fd5b613a8261245b565b6000828152600560205260409020805473ffffffffffffffffffffffffffffffffffffffff19166001600160a01b0392909216919091179055613ac481612088565b1515817f4ebf8ad0df535ba5e487bc9cb27fe44120ca81c3a95d3eba79c0bd1df2ab2d5d60405160405180910390a350565b6001600160a01b03918216600090815260016020908152604080832093909416825291909152205460ff1690565b6000613b2e61245b565b90506001600160a01b038516613b8b576040805162461bcd60e51b815260206004820152601b60248201527f496e76656e746f72793a207472616e7366657220746f207a65726f0000000000604482015290519081900360640190fd5b6000613b97878361452e565b9050613ba285612088565b15613bb957613bb48787878785614db5565b613c19565b6001600160e01b0385161561266757613bd7878787878560006148c3565b84866001600160a01b0316886001600160a01b03167fddf252ad1be2c89b69c2b068fc378daa952ba7f163c4a11628f55a4df523b3ef60405160405180910390a45b856001600160a01b0316876001600160a01b0316836001600160a01b03167fc3d58168c5ae7397731d063d5bbf3d657854427343f4c083240f7aacaa2d0f628888604051808381526020018281526020019250505060405180910390a4613c88866001600160a01b031661423d565b15611613576116138787878787614b0d565b6001600160a01b038216613cf5576040805162461bcd60e51b815260206004820152601b60248201527f496e76656e746f72793a207472616e7366657220746f207a65726f0000000000604482015290519081900360640190fd5b6000613cff61245b565b90506000613d0d858361452e565b835190915060608167ffffffffffffffff81118015613d2b57600080fd5b50604051908082528060200260200182016040528015613d55578160200160208202803683370190505b50905060008060005b848114613e8e576000888281518110613d7357fe5b60200260200101519050613d8681611e86565b613dd7576040805162461bcd60e51b815260206004820152601560248201527f496e76656e746f72793a206e6f7420616e204e46540000000000000000000000604482015290519081900360640190fd5b6001858381518110613de557fe5b602002602001018181525050613e018b8b8360018b60016148c3565b808a6001600160a01b03168c6001600160a01b03167fddf252ad1be2c89b69c2b068fc378daa952ba7f163c4a11628f55a4df523b3ef60405160405180910390a46001600160e01b0319811684613e5e5780945060019350613e84565b848114613e7d57613e718c8c8387614f0f565b80945060019350613e84565b8360010193505b5050600101613d5e565b50613e9b89898484614f0f565b613ea6898986614f4a565b876001600160a01b0316896001600160a01b0316613ec261245b565b6001600160a01b03167f4a39dc06d4c0dbc64b70af90fd698a233a518aa5d07e595d983b8c0526c8f7fb8a87604051808060200180602001838103835285818151815260200191508051906020019060200280838360005b83811015613f32578181015183820152602001613f1a565b50505050905001838103825284818151815260200191508051906020019060200280838360005b83811015613f71578181015183820152602001613f59565b5050505090500194505050505060405180910390a4613f98886001600160a01b031661423d565b8015613fa85750613fa888614a5a565b15613fc957613fc98989898660405180602001604052806000815250614243565b505050505050505050565b6000613fe08383614ff5565b61401657508154600181810184556000848152602080822090930184905584548482528286019093526040902091909155611292565b506000611292565b80614070576040805162461bcd60e51b815260206004820152601560248201527f496e76656e746f72793a207a65726f2076616c75650000000000000000000000604482015290519081900360640190fd5b6000828152600360205260409020548181018181116140d6576040805162461bcd60e51b815260206004820152601a60248201527f496e76656e746f72793a20737570706c79206f766572666c6f77000000000000604482015290519081900360640190fd5b600093845260036020908152604080862092909255600281528185206001600160a01b039096168552949094525091902080549091019055565b81600114614165576040805162461bcd60e51b815260206004820152601a60248201527f496e76656e746f72793a2077726f6e67204e46542076616c7565000000000000604482015290519081900360640190fd5b600083815260046020526040902054156141c6576040805162461bcd60e51b815260206004820152601d60248201527f496e76656e746f72793a206578697374696e672f6275726e74204e4654000000604482015290519081900360640190fd5b60008381526004602052604090206001600160a01b038516905580611df45750506001600160e01b031916600090815260036020908152604080832080546001908101909155600283528184206001600160a01b039590951684529382528083208054850190556006909152902080549091019055565b3b151590565b7fbc197c81000000000000000000000000000000000000000000000000000000006001600160a01b03851663bc197c8161427b61245b565b888787876040518663ffffffff1660e01b815260040180866001600160a01b03166001600160a01b03168152602001856001600160a01b03166001600160a01b03168152602001806020018060200180602001848103845287818151815260200191508051906020019060200280838360005b838110156143065781810151838201526020016142ee565b50505050905001848103835286818151815260200191508051906020019060200280838360005b8381101561434557818101518382015260200161432d565b50505050905001848103825285818151815260200191508051906020019080838360005b83811015614381578181015183820152602001614369565b50505050905090810190601f1680156143ae5780820380516001836020036101000a031916815260200191505b5098505050505050505050602060405180830381600087803b1580156143d357600080fd5b505af11580156143e7573d6000803e3d6000fd5b505050506040513d60208110156143fd57600080fd5b50516001600160e01b03191614611676576040805162461bcd60e51b815260206004820152601b60248201527f496e76656e746f72793a207472616e7366657220726566757365640000000000604482015290519081900360640190fd5b6060600961446883615011565b60405160200180838054600181600116156101000203166002900480156144c65780601f106144a45761010080835404028352918201916144c6565b820191906000526020600020905b8154815290600101906020018083116144b2575b5050825160208401908083835b602083106144f25780518252601f1990920191602091820191016144d3565b6001836020036101000a038019825116818451168082178552505050505050905001925050506040516020818303038152906040529050919050565b6000816001600160a01b0316836001600160a01b03161480611e285750506001600160a01b03918216600090815260016020908152604080832093909416825291909152205460ff1690565b816145cc576040805162461bcd60e51b815260206004820152601560248201527f496e76656e746f72793a207a65726f2076616c75650000000000000000000000604482015290519081900360640190fd5b8061461e576040805162461bcd60e51b815260206004820152601e60248201527f496e76656e746f72793a206e6f6e2d617070726f7665642073656e6465720000604482015290519081900360640190fd5b60008381526002602090815260408083206001600160a01b038816845290915290205482811015614696576040805162461bcd60e51b815260206004820152601d60248201527f496e76656e746f72793a206e6f7420656e6f7567682062616c616e6365000000604482015290519081900360640190fd5b60008481526002602090815260408083206001600160a01b0390981683529681528682209285900390925593845260039052509190208054919091039055565b8260011461472b576040805162461bcd60e51b815260206004820152601a60248201527f496e76656e746f72793a2077726f6e67204e46542076616c7565000000000000604482015290519081900360640190fd5b6000848152600460205260409020546001600160a01b038681169082161461479a576040805162461bcd60e51b815260206004820152601860248201527f496e76656e746f72793a206e6f6e2d6f776e6564204e46540000000000000000604482015290519081900360640190fd5b8261482b57600160a01b8116158015906147da57506000858152600760205260409020546001600160a01b03166147cf61245b565b6001600160a01b0316145b61482b576040805162461bcd60e51b815260206004820152601e60248201527f496e76656e746f72793a206e6f6e2d617070726f7665642073656e6465720000604482015290519081900360640190fd5b60008581526004602052604090207fdead0000000000000000000000000000000000000000000000000000000000009055816133d1576001600160e01b0319851660008181526002602090815260408083206001600160a01b038b1680855290835281842080546000199081019091559484526003835281842080548601905583526006909152902080549091019055505050505050565b82600114614918576040805162461bcd60e51b815260206004820152601a60248201527f496e76656e746f72793a2077726f6e67204e46542076616c7565000000000000604482015290519081900360640190fd5b6000848152600460205260409020546001600160a01b0387811690821614614987576040805162461bcd60e51b815260206004820152601860248201527f496e76656e746f72793a206e6f6e2d6f776e6564204e46540000000000000000604482015290519081900360640190fd5b82614a1857600160a01b8116158015906149c757506000858152600760205260409020546001600160a01b03166149bc61245b565b6001600160a01b0316145b614a18576040805162461bcd60e51b815260206004820152601e60248201527f496e76656e746f72793a206e6f6e2d617070726f7665642073656e6465720000604482015290519081900360640190fd5b60008581526004602052604090206001600160a01b03871690558161161357614a4387876001614f4a565b61161387876001600160e01b031988166001614f0f565b604080517f4e2312e0000000000000000000000000000000000000000000000000000000006024808301919091528251808303909101815260449091018252602081810180516001600160e01b03167f01ffc9a7000000000000000000000000000000000000000000000000000000001781528251935160008082529485948594909392908183858b612710fa955080519450505050609e5a11614afa57fe5b828015614b045750815b95945050505050565b7ff23a6e61000000000000000000000000000000000000000000000000000000006001600160a01b03851663f23a6e61614b4561245b565b888787876040518663ffffffff1660e01b815260040180866001600160a01b03166001600160a01b03168152602001856001600160a01b03166001600160a01b0316815260200184815260200183815260200180602001828103825283818151815260200191508051906020019080838360005b83811015614bd1578181015183820152602001614bb9565b50505050905090810190601f168015614bfe5780820380516001836020036101000a031916815260200191505b509650505050505050602060405180830381600087803b1580156143d357600080fd5b7f150b7a02000000000000000000000000000000000000000000000000000000006001600160a01b03841663150b7a02614c5961245b565b8786866040518563ffffffff1660e01b815260040180856001600160a01b03166001600160a01b03168152602001846001600160a01b03166001600160a01b0316815260200183815260200180602001828103825283818151815260200191508051906020019080838360005b83811015614cde578181015183820152602001614cc6565b50505050905090810190601f168015614d0b5780820380516001836020036101000a031916815260200191505b5095505050505050602060405180830381600087803b158015614d2d57600080fd5b505af1158015614d41573d6000803e3d6000fd5b505050506040513d6020811015614d5757600080fd5b50516001600160e01b03191614611df4576040805162461bcd60e51b815260206004820152601b60248201527f496e76656e746f72793a207472616e7366657220726566757365640000000000604482015290519081900360640190fd5b80614e07576040805162461bcd60e51b815260206004820152601e60248201527f496e76656e746f72793a206e6f6e2d617070726f7665642073656e6465720000604482015290519081900360640190fd5b81614e59576040805162461bcd60e51b815260206004820152601560248201527f496e76656e746f72793a207a65726f2076616c75650000000000000000000000604482015290519081900360640190fd5b60008381526002602090815260408083206001600160a01b038916845290915290205482811015614ed1576040805162461bcd60e51b815260206004820152601d60248201527f496e76656e746f72793a206e6f7420656e6f7567682062616c616e6365000000604482015290519081900360640190fd5b60009384526002602090815260408086206001600160a01b039889168752909152808520918490039091559390941682529190208054909101905550565b60009182526002602090815260408084206001600160a01b039687168552909152808320805483900390559290931681522080549091019055565b6001600160a01b0392831660009081526006602052604080822080548490039055929093168352912080549091019055565b6000611e28836001600160a01b038416615120565b81546000908210614fd35760405162461bcd60e51b815260040180806020018281038252602281526020018061527f6022913960400191505060405180910390fd5b826000018281548110614fe257fe5b9060005260206000200154905092915050565b60009081526001919091016020526040902054151590565b5490565b606081615052575060408051808201909152600181527f300000000000000000000000000000000000000000000000000000000000000060208201526112b6565b8160005b811561506a57600101600a82049150615056565b60608167ffffffffffffffff8111801561508357600080fd5b506040519080825280601f01601f1916602001820160405280156150ae576020820181803683370190505b50859350905060001982015b831561511757600a840660300160f81b828280600190039350815181106150dd57fe5b60200101907effffffffffffffffffffffffffffffffffffffffffffffffffffffffffffff1916908160001a905350600a840493506150ba565b50949350505050565b600081815260018301602052604081205480156151dc578354600019808301919081019060009087908390811061515357fe5b906000526020600020015490508087600001848154811061517057fe5b6000918252602080832090910192909255828152600189810190925260409020908401905586548790806151a057fe5b60019003818190600052602060002001600090559055866001016000878152602001908152602001600020600090556001945050505050611292565b6000915050611292565b828054600181600116156101000203166002900490600052602060002090601f016020900481019282601f106152275782800160ff19823516178555615254565b82800160010185558215615254579182015b82811115615254578235825591602001919060010190615239565b50615260929150615264565b5090565b611e0791905b80821115615260576000815560010161526a56fe456e756d657261626c655365743a20696e646578206f7574206f6620626f756e6473416363657373436f6e74726f6c3a2073656e646572206d75737420626520616e2061646d696e20746f206772616e744f776e61626c653a206e6577206f776e657220697320746865207a65726f20616464726573734d696e746572526f6c653a2061646472657373207a65726f2063616e6e6f74206265206d696e746572416363657373436f6e74726f6c3a2073656e646572206d75737420626520616e2061646d696e20746f207265766f6b654d696e746572526f6c653a2063616c6c657220646f6573206e6f74206861766520746865204d696e74657220726f6c654d696e746572526f6c653a2061646420616e206163636f756e7420616c7265616479206d696e746572416363657373436f6e74726f6c3a2063616e206f6e6c792072656e6f756e636520726f6c657320666f722073656c66a26469706673582212202ab0559a87ab8d27128458a1d6ee7b84f98ed1c16ffa854307c46acf7c123de164736f6c63430006080033",
  "linkReferences": {},
  "deployedLinkReferences": {}
}