{
  "_format": "hh-sol-artifact-1",
  "contractName": "RewardToken",
  "sourceName": "contracts/solc-0.6/token/ERC20/RewardToken.sol",
  "abi": [
    {
      "inputs": [
        {
          "internalType": "address[]",
          "name": "holders",
          "type": "address[]"
        },
        {
          "internalType": "uint256[]",
          "name": "amounts",
          "type": "uint256[]"
        }
      ],
      "stateMutability": "nonpayable",
      "type": "constructor"
    },
    {
      "anonymous": false,
      "inputs": [
        {
          "indexed": true,
          "internalType": "address",
          "name": "_owner",
          "type": "address"
        },
        {
          "indexed": true,
          "internalType": "address",
          "name": "_spender",
          "type": "address"
        },
        {
          "indexed": false,
          "internalType": "uint256",
          "name": "_value",
          "type": "uint256"
        }
      ],
      "name": "Approval",
      "type": "event"
    },
    {
      "anonymous": false,
      "inputs": [
        {
          "indexed": true,
          "internalType": "address",
          "name": "account",
          "type": "address"
        }
      ],
      "name": "MinterAdded",
      "type": "event"
    },
    {
      "anonymous": false,
      "inputs": [
        {
          "indexed": true,
          "internalType": "address",
          "name": "account",
          "type": "address"
        }
      ],
      "name": "MinterRemoved",
      "type": "event"
    },
    {
      "anonymous": false,
      "inputs": [
        {
          "indexed": true,
          "internalType": "address",
          "name": "previousOwner",
          "type": "address"
        },
        {
          "indexed": true,
          "internalType": "address",
          "name": "newOwner",
          "type": "address"
        }
      ],
      "name": "OwnershipTransferred",
      "type": "event"
    },
    {
      "anonymous": false,
      "inputs": [
        {
          "indexed": true,
          "internalType": "bytes32",
          "name": "role",
          "type": "bytes32"
        },
        {
          "indexed": true,
          "internalType": "bytes32",
          "name": "previousAdminRole",
          "type": "bytes32"
        },
        {
          "indexed": true,
          "internalType": "bytes32",
          "name": "newAdminRole",
          "type": "bytes32"
        }
      ],
      "name": "RoleAdminChanged",
      "type": "event"
    },
    {
      "anonymous": false,
      "inputs": [
        {
          "indexed": true,
          "internalType": "bytes32",
          "name": "role",
          "type": "bytes32"
        },
        {
          "indexed": true,
          "internalType": "address",
          "name": "account",
          "type": "address"
        },
        {
          "indexed": true,
          "internalType": "address",
          "name": "sender",
          "type": "address"
        }
      ],
      "name": "RoleGranted",
      "type": "event"
    },
    {
      "anonymous": false,
      "inputs": [
        {
          "indexed": true,
          "internalType": "bytes32",
          "name": "role",
          "type": "bytes32"
        },
        {
          "indexed": true,
          "internalType": "address",
          "name": "account",
          "type": "address"
        },
        {
          "indexed": true,
          "internalType": "address",
          "name": "sender",
          "type": "address"
        }
      ],
      "name": "RoleRevoked",
      "type": "event"
    },
    {
      "anonymous": false,
      "inputs": [
        {
          "indexed": true,
          "internalType": "address",
          "name": "_from",
          "type": "address"
        },
        {
          "indexed": true,
          "internalType": "address",
          "name": "_to",
          "type": "address"
        },
        {
          "indexed": false,
          "internalType": "uint256",
          "name": "_value",
          "type": "uint256"
        }
      ],
      "name": "Transfer",
      "type": "event"
    },
    {
      "anonymous": false,
      "inputs": [
        {
          "indexed": false,
          "internalType": "address",
          "name": "operator",
          "type": "address"
        },
        {
          "indexed": false,
          "internalType": "bool",
          "name": "enabled",
          "type": "bool"
        }
      ],
      "name": "WhitelistedOperator",
      "type": "event"
    },
    {
      "inputs": [],
      "name": "DEFAULT_ADMIN_ROLE",
      "outputs": [
        {
          "internalType": "bytes32",
          "name": "",
          "type": "bytes32"
        }
      ],
      "stateMutability": "view",
      "type": "function"
    },
    {
      "inputs": [
        {
          "internalType": "address",
          "name": "account",
          "type": "address"
        }
      ],
      "name": "addMinter",
      "outputs": [],
      "stateMutability": "nonpayable",
      "type": "function"
    },
    {
      "inputs": [
        {
          "internalType": "address",
          "name": "owner",
          "type": "address"
        },
        {
          "internalType": "address",
          "name": "spender",
          "type": "address"
        }
      ],
      "name": "allowance",
      "outputs": [
        {
          "internalType": "uint256",
          "name": "",
          "type": "uint256"
        }
      ],
      "stateMutability": "view",
      "type": "function"
    },
    {
      "inputs": [
        {
          "internalType": "address",
          "name": "spender",
          "type": "address"
        },
        {
          "internalType": "uint256",
          "name": "amount",
          "type": "uint256"
        }
      ],
      "name": "approve",
      "outputs": [
        {
          "internalType": "bool",
          "name": "",
          "type": "bool"
        }
      ],
      "stateMutability": "nonpayable",
      "type": "function"
    },
    {
      "inputs": [
        {
          "internalType": "address",
          "name": "account",
          "type": "address"
        }
      ],
      "name": "balanceOf",
      "outputs": [
        {
          "internalType": "uint256",
          "name": "",
          "type": "uint256"
        }
      ],
      "stateMutability": "view",
      "type": "function"
    },
    {
      "inputs": [
        {
          "internalType": "address[]",
          "name": "holders",
          "type": "address[]"
        },
        {
          "internalType": "uint256[]",
          "name": "amounts",
          "type": "uint256[]"
        }
      ],
      "name": "batchMint",
      "outputs": [],
      "stateMutability": "nonpayable",
      "type": "function"
    },
    {
      "inputs": [
        {
          "internalType": "uint256",
          "name": "amount",
          "type": "uint256"
        }
      ],
      "name": "burn",
      "outputs": [],
      "stateMutability": "nonpayable",
      "type": "function"
    },
    {
      "inputs": [
        {
          "internalType": "address",
          "name": "account",
          "type": "address"
        },
        {
          "internalType": "uint256",
          "name": "amount",
          "type": "uint256"
        }
      ],
      "name": "burnFrom",
      "outputs": [],
      "stateMutability": "nonpayable",
      "type": "function"
    },
    {
      "inputs": [],
      "name": "decimals",
      "outputs": [
        {
          "internalType": "uint8",
          "name": "",
          "type": "uint8"
        }
      ],
      "stateMutability": "view",
      "type": "function"
    },
    {
      "inputs": [
        {
          "internalType": "address",
          "name": "spender",
          "type": "address"
        },
        {
          "internalType": "uint256",
          "name": "subtractedValue",
          "type": "uint256"
        }
      ],
      "name": "decreaseAllowance",
      "outputs": [
        {
          "internalType": "bool",
          "name": "",
          "type": "bool"
        }
      ],
      "stateMutability": "nonpayable",
      "type": "function"
    },
    {
      "inputs": [
        {
          "internalType": "bytes32",
          "name": "role",
          "type": "bytes32"
        }
      ],
      "name": "getRoleAdmin",
      "outputs": [
        {
          "internalType": "bytes32",
          "name": "",
          "type": "bytes32"
        }
      ],
      "stateMutability": "view",
      "type": "function"
    },
    {
      "inputs": [
        {
          "internalType": "bytes32",
          "name": "role",
          "type": "bytes32"
        },
        {
          "internalType": "uint256",
          "name": "index",
          "type": "uint256"
        }
      ],
      "name": "getRoleMember",
      "outputs": [
        {
          "internalType": "address",
          "name": "",
          "type": "address"
        }
      ],
      "stateMutability": "view",
      "type": "function"
    },
    {
      "inputs": [
        {
          "internalType": "bytes32",
          "name": "role",
          "type": "bytes32"
        }
      ],
      "name": "getRoleMemberCount",
      "outputs": [
        {
          "internalType": "uint256",
          "name": "",
          "type": "uint256"
        }
      ],
      "stateMutability": "view",
      "type": "function"
    },
    {
      "inputs": [
        {
          "internalType": "bytes32",
          "name": "role",
          "type": "bytes32"
        },
        {
          "internalType": "address",
          "name": "account",
          "type": "address"
        }
      ],
      "name": "grantRole",
      "outputs": [],
      "stateMutability": "nonpayable",
      "type": "function"
    },
    {
      "inputs": [
        {
          "internalType": "bytes32",
          "name": "role",
          "type": "bytes32"
        },
        {
          "internalType": "address",
          "name": "account",
          "type": "address"
        }
      ],
      "name": "hasRole",
      "outputs": [
        {
          "internalType": "bool",
          "name": "",
          "type": "bool"
        }
      ],
      "stateMutability": "view",
      "type": "function"
    },
    {
      "inputs": [
        {
          "internalType": "address",
          "name": "spender",
          "type": "address"
        },
        {
          "internalType": "uint256",
          "name": "addedValue",
          "type": "uint256"
        }
      ],
      "name": "increaseAllowance",
      "outputs": [
        {
          "internalType": "bool",
          "name": "",
          "type": "bool"
        }
      ],
      "stateMutability": "nonpayable",
      "type": "function"
    },
    {
      "inputs": [
        {
          "internalType": "address",
          "name": "account",
          "type": "address"
        }
      ],
      "name": "isMinter",
      "outputs": [
        {
          "internalType": "bool",
          "name": "",
          "type": "bool"
        }
      ],
      "stateMutability": "view",
      "type": "function"
    },
    {
      "inputs": [
        {
          "internalType": "address",
          "name": "who",
          "type": "address"
        }
      ],
      "name": "isOperator",
      "outputs": [
        {
          "internalType": "bool",
          "name": "",
          "type": "bool"
        }
      ],
      "stateMutability": "view",
      "type": "function"
    },
    {
      "inputs": [
        {
          "internalType": "address",
          "name": "holder",
          "type": "address"
        },
        {
          "internalType": "uint256",
          "name": "amount",
          "type": "uint256"
        }
      ],
      "name": "mint",
      "outputs": [],
      "stateMutability": "nonpayable",
      "type": "function"
    },
    {
      "inputs": [],
      "name": "name",
      "outputs": [
        {
          "internalType": "string",
          "name": "",
          "type": "string"
        }
      ],
      "stateMutability": "view",
      "type": "function"
    },
    {
      "inputs": [],
      "name": "owner",
      "outputs": [
        {
          "internalType": "address",
          "name": "",
          "type": "address"
        }
      ],
      "stateMutability": "view",
      "type": "function"
    },
    {
      "inputs": [],
      "name": "renounceMinter",
      "outputs": [],
      "stateMutability": "nonpayable",
      "type": "function"
    },
    {
      "inputs": [],
      "name": "renounceOwnership",
      "outputs": [],
      "stateMutability": "nonpayable",
      "type": "function"
    },
    {
      "inputs": [
        {
          "internalType": "bytes32",
          "name": "role",
          "type": "bytes32"
        },
        {
          "internalType": "address",
          "name": "account",
          "type": "address"
        }
      ],
      "name": "renounceRole",
      "outputs": [],
      "stateMutability": "nonpayable",
      "type": "function"
    },
    {
      "inputs": [
        {
          "internalType": "bytes32",
          "name": "role",
          "type": "bytes32"
        },
        {
          "internalType": "address",
          "name": "account",
          "type": "address"
        }
      ],
      "name": "revokeRole",
      "outputs": [],
      "stateMutability": "nonpayable",
      "type": "function"
    },
    {
      "inputs": [
        {
          "internalType": "bytes4",
          "name": "interfaceId",
          "type": "bytes4"
        }
      ],
      "name": "supportsInterface",
      "outputs": [
        {
          "internalType": "bool",
          "name": "",
          "type": "bool"
        }
      ],
      "stateMutability": "view",
      "type": "function"
    },
    {
      "inputs": [],
      "name": "symbol",
      "outputs": [
        {
          "internalType": "string",
          "name": "",
          "type": "string"
        }
      ],
      "stateMutability": "view",
      "type": "function"
    },
    {
      "inputs": [],
      "name": "totalSupply",
      "outputs": [
        {
          "internalType": "uint256",
          "name": "",
          "type": "uint256"
        }
      ],
      "stateMutability": "view",
      "type": "function"
    },
    {
      "inputs": [
        {
          "internalType": "address",
          "name": "recipient",
          "type": "address"
        },
        {
          "internalType": "uint256",
          "name": "amount",
          "type": "uint256"
        }
      ],
      "name": "transfer",
      "outputs": [
        {
          "internalType": "bool",
          "name": "",
          "type": "bool"
        }
      ],
      "stateMutability": "nonpayable",
      "type": "function"
    },
    {
      "inputs": [
        {
          "internalType": "address",
          "name": "sender",
          "type": "address"
        },
        {
          "internalType": "address",
          "name": "recipient",
          "type": "address"
        },
        {
          "internalType": "uint256",
          "name": "amount",
          "type": "uint256"
        }
      ],
      "name": "transferFrom",
      "outputs": [
        {
          "internalType": "bool",
          "name": "",
          "type": "bool"
        }
      ],
      "stateMutability": "nonpayable",
      "type": "function"
    },
    {
      "inputs": [
        {
          "internalType": "address",
          "name": "newOwner",
          "type": "address"
        }
      ],
      "name": "transferOwnership",
      "outputs": [],
      "stateMutability": "nonpayable",
      "type": "function"
    },
    {
      "inputs": [
        {
          "internalType": "address",
          "name": "operator",
          "type": "address"
        },
        {
          "internalType": "bool",
          "name": "enabled",
          "type": "bool"
        }
      ],
      "name": "whitelistOperator",
      "outputs": [],
      "stateMutability": "nonpayable",
      "type": "function"
    }
  ],
  "bytecode": "0x60806040523480156200001157600080fd5b50604051620024bc380380620024bc833981810160405260408110156200003757600080fd5b81019080805160405193929190846401000000008211156200005857600080fd5b9083019060208201858111156200006e57600080fd5b82518660208202830111640100000000821117156200008c57600080fd5b82525081516020918201928201910280838360005b83811015620000bb578181015183820152602001620000a1565b5050505090500160405260200180516040519392919084640100000000821115620000e557600080fd5b908301906020820185811115620000fb57600080fd5b82518660208202830111640100000000821117156200011957600080fd5b82525081516020918201928201910280838360005b83811015620001485781810151838201526020016200012e565b505050509050016040525050506200016d6301ffc9a760e01b6200039260201b60201c565b620001886336372b0760e01b6001600160e01b036200039216565b620001a363a219a02560e01b6001600160e01b036200039216565b620001be634e83a8c360e11b6001600160e01b036200039216565b620001d96306fdde0360e01b6001600160e01b036200039216565b620001f46395d89b4160e01b6001600160e01b036200039216565b6200020f63313ce56760e01b6001600160e01b036200039216565b6000620002246001600160e01b036200041716565b600480546001600160a01b0319166001600160a01b038316908117909155604051919250906000907f8be0079c531659141344cd1fd0a4f28419497f9722a3daafe3b4186f6b6457e0908290a3506200029a60006200028b6001600160e01b036200041716565b6001600160e01b036200041b16565b620002ad6001600160e01b036200041716565b6001600160a01b03167f6ae172837ea30b801fbfcdd4108aa1d5bf8ff775444fd70256b44e6bf3dfc3f660405160405180910390a2805182511462000339576040805162461bcd60e51b815260206004820152601560248201527f524556563a2077726f6e6720617267756d656e74730000000000000000000000604482015290519081900360640190fd5b60005b82518110156200038957620003808382815181106200035757fe5b60200260200101518383815181106200036c57fe5b60200260200101516200043460201b60201c565b6001016200033c565b505050620006cd565b6001600160e01b03198082161415620003f2576040805162461bcd60e51b815260206004820152601c60248201527f4552433136353a20696e76616c696420696e7465726661636520696400000000604482015290519081900360640190fd5b6001600160e01b0319166000908152602081905260409020805460ff19166001179055565b3390565b6200043082826001600160e01b036200055016565b5050565b6001600160a01b03821662000490576040805162461bcd60e51b815260206004820152601f60248201527f45524332303a206d696e7420746f20746865207a65726f206164647265737300604482015290519081900360640190fd5b620004a7600083836001600160e01b03620005d416565b620004c381600354620005d960201b620011b01790919060201c565b6003556001600160a01b038216600090815260016020908152604090912054620004f8918390620011b0620005d9821b17901c565b6001600160a01b03831660008181526001602090815260408083209490945583518581529351929391927fddf252ad1be2c89b69c2b068fc378daa952ba7f163c4a11628f55a4df523b3ef9281900390910190a35050565b6000828152600660209081526040909120620005779183906200120a6200063d821b17901c565b156200043057620005906001600160e01b036200041716565b6001600160a01b0316816001600160a01b0316837f2f8788117e7eff1d82e926ec794901d17c78024a50270940304540a733656f0d60405160405180910390a45050565b505050565b60008282018381101562000634576040805162461bcd60e51b815260206004820152601b60248201527f536166654d6174683a206164646974696f6e206f766572666c6f770000000000604482015290519081900360640190fd5b90505b92915050565b600062000634836001600160a01b0384166001600160e01b036200065d16565b60006200067483836001600160e01b03620006b516565b620006ac5750815460018181018455600084815260208082209093018490558454848252828601909352604090209190915562000637565b50600062000637565b60009081526001919091016020526040902054151590565b611ddf80620006dd6000396000f3fe608060405234801561001057600080fd5b50600436106101f05760003560e01c8063715018a61161010f578063a217fddf116100a2578063ca15c87311610071578063ca15c8731461074f578063d547741f1461076c578063dd62ed3e14610798578063f2fde38b146107c6576101f0565b8063a217fddf146106c9578063a457c2d7146106d1578063a9059cbb146106fd578063aa271e1a14610729576101f0565b806391d14854116100de57806391d148541461066757806395d89b4114610693578063983b2d561461069b57806398650275146106c1576101f0565b8063715018a6146105ec57806379cc6790146105f45780638da5cb5b146106205780639010d07c14610644576101f0565b8063313ce5671161018757806342966c681161015657806342966c681461045c57806368573107146104795780636d70f7ae146105a057806370a08231146105c6576101f0565b8063313ce567146103ba57806336568abe146103d8578063395093511461040457806340c10f1914610430576101f0565b806318ea4513116101c357806318ea45131461030b57806323b872dd1461033b578063248a9ca3146103715780632f2ff15d1461038e576101f0565b806301ffc9a7146101f557806306fdde0314610248578063095ea7b3146102c557806318160ddd146102f1575b600080fd5b6102346004803603602081101561020b57600080fd5b50357fffffffff00000000000000000000000000000000000000000000000000000000166107ec565b604080519115158252519081900360200190f35b610250610823565b6040805160208082528351818301528351919283929083019185019080838360005b8381101561028a578181015183820152602001610272565b50505050905090810190601f1680156102b75780820380516001836020036101000a031916815260200191505b509250505060405180910390f35b610234600480360360408110156102db57600080fd5b506001600160a01b03813516906020013561085c565b6102f961087a565b60408051918252519081900360200190f35b6103396004803603604081101561032157600080fd5b506001600160a01b0381351690602001351515610880565b005b6102346004803603606081101561035157600080fd5b506001600160a01b0381358116916020810135909116906040013561096c565b6102f96004803603602081101561038757600080fd5b50356109c0565b610339600480360360408110156103a457600080fd5b50803590602001356001600160a01b03166109d5565b6103c2610a41565b6040805160ff9092168252519081900360200190f35b610339600480360360408110156103ee57600080fd5b50803590602001356001600160a01b0316610a46565b6102346004803603604081101561041a57600080fd5b506001600160a01b038135169060200135610aa7565b6103396004803603604081101561044657600080fd5b506001600160a01b038135169060200135610ad0565b6103396004803603602081101561047257600080fd5b5035610b25565b6103396004803603604081101561048f57600080fd5b8101906020810181356401000000008111156104aa57600080fd5b8201836020820111156104bc57600080fd5b803590602001918460208302840111640100000000831117156104de57600080fd5b919080806020026020016040519081016040528093929190818152602001838360200280828437600092019190915250929594936020810193503591505064010000000081111561052e57600080fd5b82018360208201111561054057600080fd5b8035906020019184602083028401116401000000008311171561056257600080fd5b919080806020026020016040519081016040528093929190818152602001838360200280828437600092019190915250929550610b39945050505050565b610234600480360360208110156105b657600080fd5b50356001600160a01b0316610c1e565b6102f9600480360360208110156105dc57600080fd5b50356001600160a01b0316610c3c565b610339610c57565b6103396004803603604081101561060a57600080fd5b506001600160a01b038135169060200135610d23565b610628610d7e565b604080516001600160a01b039092168252519081900360200190f35b6106286004803603604081101561065a57600080fd5b5080359060200135610d8d565b6102346004803603604081101561067d57600080fd5b50803590602001356001600160a01b0316610db2565b610250610dd0565b610339600480360360208110156106b157600080fd5b50356001600160a01b0316610e09565b610339610ed6565b6102f9610f6d565b610234600480360360408110156106e757600080fd5b506001600160a01b038135169060200135610f72565b6102346004803603604081101561071357600080fd5b506001600160a01b038135169060200135610f94565b6102346004803603602081101561073f57600080fd5b50356001600160a01b0316610fa8565b6102f96004803603602081101561076557600080fd5b5035610ffa565b6103396004803603604081101561078257600080fd5b50803590602001356001600160a01b0316611011565b6102f9600480360360408110156107ae57600080fd5b506001600160a01b038135811691602001351661106a565b610339600480360360208110156107dc57600080fd5b50356001600160a01b031661108d565b7fffffffff000000000000000000000000000000000000000000000000000000001660009081526020819052604090205460ff1690565b6040518060400160405280600b81526020017f526577617264546f6b656e00000000000000000000000000000000000000000081525081565b600061087061086961121f565b8484611223565b5060015b92915050565b60035490565b61088861121f565b6004546001600160a01b039081169116146108ea576040805162461bcd60e51b815260206004820181905260248201527f4f776e61626c653a2063616c6c6572206973206e6f7420746865206f776e6572604482015290519081900360640190fd5b6001600160a01b03821660008181526005602090815260409182902080547fffffffffffffffffffffffffffffffffffffffffffffffffffffffffffffff001685151590811790915582519384529083015280517f68d3992ad51e852ec24f4f7d106d7886d715a58e71176bc329cea3d11e7f08e49281900390910190a15050565b60008061097761121f565b905061098281610c1e565b6109aa576109aa85826109a5866109998a8761106a565b9063ffffffff61124116565b611223565b6109b5858585611283565b506001949350505050565b60009081526006602052604090206002015490565b6000828152600660205260409020600201546109f8906109f361121f565b610db2565b610a335760405162461bcd60e51b815260040180806020018281038252602f815260200180611b57602f913960400191505060405180910390fd5b610a3d82826113ec565b5050565b601281565b610a4e61121f565b6001600160a01b0316816001600160a01b031614610a9d5760405162461bcd60e51b815260040180806020018281038252602f815260200180611d7b602f913960400191505060405180910390fd5b610a3d828261145b565b6000610ab283610c1e565b15610abf57506001610874565b610ac983836114ca565b9050610874565b610ae0610adb61121f565b610fa8565b610b1b5760405162461bcd60e51b8152600401808060200182810382526030815260200180611c6f6030913960400191505060405180910390fd5b610a3d828261151e565b610b36610b3061121f565b8261161c565b50565b610b44610adb61121f565b610b7f5760405162461bcd60e51b8152600401808060200182810382526030815260200180611c6f6030913960400191505060405180910390fd5b8051825114610bd5576040805162461bcd60e51b815260206004820152601560248201527f524556563a2077726f6e6720617267756d656e74730000000000000000000000604482015290519081900360640190fd5b60005b8251811015610c1957610c11838281518110610bf057fe5b6020026020010151838381518110610c0457fe5b602002602001015161151e565b600101610bd8565b505050565b6001600160a01b031660009081526005602052604090205460ff1690565b6001600160a01b031660009081526001602052604090205490565b610c5f61121f565b6004546001600160a01b03908116911614610cc1576040805162461bcd60e51b815260206004820181905260248201527f4f776e61626c653a2063616c6c6572206973206e6f7420746865206f776e6572604482015290519081900360640190fd5b6004546040516000916001600160a01b0316907f8be0079c531659141344cd1fd0a4f28419497f9722a3daafe3b4186f6b6457e0908390a3600480547fffffffffffffffffffffffff0000000000000000000000000000000000000000169055565b6000610d6082604051806060016040528060248152602001611c9f60249139610d5386610d4e61121f565b61106a565b919063ffffffff61172416565b9050610d7483610d6e61121f565b83611223565b610c19838361161c565b6004546001600160a01b031690565b6000828152600660205260408120610dab908363ffffffff6117bb16565b9392505050565b6000828152600660205260408120610dab908363ffffffff6117c716565b6040518060400160405280600281526020017f525400000000000000000000000000000000000000000000000000000000000081525081565b610e14610adb61121f565b610e4f5760405162461bcd60e51b8152600401808060200182810382526030815260200180611c6f6030913960400191505060405180910390fd5b610e5881610fa8565b15610e945760405162461bcd60e51b8152600401808060200182810382526029815260200180611cc36029913960400191505060405180910390fd5b610e9f6000826109d5565b6040516001600160a01b038216907f6ae172837ea30b801fbfcdd4108aa1d5bf8ff775444fd70256b44e6bf3dfc3f690600090a250565b610ee1610adb61121f565b610f1c5760405162461bcd60e51b8152600401808060200182810382526030815260200180611c6f6030913960400191505060405180910390fd5b610f2e6000610f2961121f565b610a46565b610f3661121f565b6001600160a01b03167fe94479a9f7e1952cc78f2d6baab678adc1b772d936c6583def489e524cb6669260405160405180910390a2565b600081565b6000610f7d83610c1e565b15610f8a57506001610874565b610ac983836117dc565b6000610870610fa161121f565b8484611283565b60006001600160a01b038216610fef5760405162461bcd60e51b8152600401808060200182810382526029815260200180611c166029913960400191505060405180910390fd5b610874600083610db2565b60008181526006602052604081206108749061184a565b60008281526006602052604090206002015461102f906109f361121f565b610a9d5760405162461bcd60e51b8152600401808060200182810382526030815260200180611c3f6030913960400191505060405180910390fd5b600061107582610c1e565b156110835750600019610874565b610ac98383611855565b61109561121f565b6004546001600160a01b039081169116146110f7576040805162461bcd60e51b815260206004820181905260248201527f4f776e61626c653a2063616c6c6572206973206e6f7420746865206f776e6572604482015290519081900360640190fd5b6001600160a01b03811661113c5760405162461bcd60e51b8152600401808060200182810382526026815260200180611ba86026913960400191505060405180910390fd5b6004546040516001600160a01b038084169216907f8be0079c531659141344cd1fd0a4f28419497f9722a3daafe3b4186f6b6457e090600090a3600480547fffffffffffffffffffffffff0000000000000000000000000000000000000000166001600160a01b0392909216919091179055565b600082820183811015610dab576040805162461bcd60e51b815260206004820152601b60248201527f536166654d6174683a206164646974696f6e206f766572666c6f770000000000604482015290519081900360640190fd5b6000610dab836001600160a01b038416611880565b3390565b61122c82610c1e565b1561123657610c19565b610c198383836118ca565b6000610dab83836040518060400160405280601e81526020017f536166654d6174683a207375627472616374696f6e206f766572666c6f770000815250611724565b6001600160a01b0383166112c85760405162461bcd60e51b8152600401808060200182810382526025815260200180611d0d6025913960400191505060405180910390fd5b6001600160a01b03821661130d5760405162461bcd60e51b8152600401808060200182810382526023815260200180611b346023913960400191505060405180910390fd5b611318838383610c19565b61135b81604051806060016040528060268152602001611bf0602691396001600160a01b038616600090815260016020526040902054919063ffffffff61172416565b6001600160a01b038085166000908152600160205260408082209390935590841681522054611390908263ffffffff6111b016565b6001600160a01b0380841660008181526001602090815260409182902094909455805185815290519193928716927fddf252ad1be2c89b69c2b068fc378daa952ba7f163c4a11628f55a4df523b3ef92918290030190a3505050565b600082815260066020526040902061140a908263ffffffff61120a16565b15610a3d5761141761121f565b6001600160a01b0316816001600160a01b0316837f2f8788117e7eff1d82e926ec794901d17c78024a50270940304540a733656f0d60405160405180910390a45050565b6000828152600660205260409020611479908263ffffffff6119b616565b15610a3d5761148661121f565b6001600160a01b0316816001600160a01b0316837ff6391f5c32d9c69d2a47ea670b442974b53935d1edc7fd64eb21e047a839171b60405160405180910390a45050565b60006108706114d761121f565b846109a585600260006114e861121f565b6001600160a01b03908116825260208083019390935260409182016000908120918c16815292529020549063ffffffff6111b016565b6001600160a01b038216611579576040805162461bcd60e51b815260206004820152601f60248201527f45524332303a206d696e7420746f20746865207a65726f206164647265737300604482015290519081900360640190fd5b61158560008383610c19565b600354611598908263ffffffff6111b016565b6003556001600160a01b0382166000908152600160205260409020546115c4908263ffffffff6111b016565b6001600160a01b03831660008181526001602090815260408083209490945583518581529351929391927fddf252ad1be2c89b69c2b068fc378daa952ba7f163c4a11628f55a4df523b3ef9281900390910190a35050565b6001600160a01b0382166116615760405162461bcd60e51b8152600401808060200182810382526021815260200180611cec6021913960400191505060405180910390fd5b61166d82600083610c19565b6116b081604051806060016040528060228152602001611b86602291396001600160a01b038516600090815260016020526040902054919063ffffffff61172416565b6001600160a01b0383166000908152600160205260409020556003546116dc908263ffffffff61124116565b6003556040805182815290516000916001600160a01b038516917fddf252ad1be2c89b69c2b068fc378daa952ba7f163c4a11628f55a4df523b3ef9181900360200190a35050565b600081848411156117b35760405162461bcd60e51b81526004018080602001828103825283818151815260200191508051906020019080838360005b83811015611778578181015183820152602001611760565b50505050905090810190601f1680156117a55780820380516001836020036101000a031916815260200191505b509250505060405180910390fd5b505050900390565b6000610dab83836119cb565b6000610dab836001600160a01b038416611a2f565b60006108706117e961121f565b846109a585604051806060016040528060258152602001611d56602591396002600061181361121f565b6001600160a01b03908116825260208083019390935260409182016000908120918d1681529252902054919063ffffffff61172416565b600061087482611a47565b6001600160a01b03918216600090815260026020908152604080832093909416825291909152205490565b600061188c8383611a2f565b6118c257508154600181810184556000848152602080822090930184905584548482528286019093526040902091909155610874565b506000610874565b6001600160a01b03831661190f5760405162461bcd60e51b8152600401808060200182810382526024815260200180611d326024913960400191505060405180910390fd5b6001600160a01b0382166119545760405162461bcd60e51b8152600401808060200182810382526022815260200180611bce6022913960400191505060405180910390fd5b6001600160a01b03808416600081815260026020908152604080832094871680845294825291829020859055815185815291517f8c5be1e5ebec7d5bd14f71427d1e84f3dd0314c0f7b2291e5b200ac8c7c3b9259281900390910190a3505050565b6000610dab836001600160a01b038416611a4b565b81546000908210611a0d5760405162461bcd60e51b8152600401808060200182810382526022815260200180611b126022913960400191505060405180910390fd5b826000018281548110611a1c57fe5b9060005260206000200154905092915050565b60009081526001919091016020526040902054151590565b5490565b60008181526001830160205260408120548015611b075783546000198083019190810190600090879083908110611a7e57fe5b9060005260206000200154905080876000018481548110611a9b57fe5b600091825260208083209091019290925582815260018981019092526040902090840190558654879080611acb57fe5b60019003818190600052602060002001600090559055866001016000878152602001908152602001600020600090556001945050505050610874565b600091505061087456fe456e756d657261626c655365743a20696e646578206f7574206f6620626f756e647345524332303a207472616e7366657220746f20746865207a65726f2061646472657373416363657373436f6e74726f6c3a2073656e646572206d75737420626520616e2061646d696e20746f206772616e7445524332303a206275726e20616d6f756e7420657863656564732062616c616e63654f776e61626c653a206e6577206f776e657220697320746865207a65726f206164647265737345524332303a20617070726f766520746f20746865207a65726f206164647265737345524332303a207472616e7366657220616d6f756e7420657863656564732062616c616e63654d696e746572526f6c653a2061646472657373207a65726f2063616e6e6f74206265206d696e746572416363657373436f6e74726f6c3a2073656e646572206d75737420626520616e2061646d696e20746f207265766f6b654d696e746572526f6c653a2063616c6c657220646f6573206e6f74206861766520746865204d696e74657220726f6c6545524332303a206275726e20616d6f756e74206578636565647320616c6c6f77616e63654d696e746572526f6c653a2061646420616e206163636f756e7420616c7265616479206d696e74657245524332303a206275726e2066726f6d20746865207a65726f206164647265737345524332303a207472616e736665722066726f6d20746865207a65726f206164647265737345524332303a20617070726f76652066726f6d20746865207a65726f206164647265737345524332303a2064656372656173656420616c6c6f77616e63652062656c6f77207a65726f416363657373436f6e74726f6c3a2063616e206f6e6c792072656e6f756e636520726f6c657320666f722073656c66a2646970667358221220b97c5ea4c3e62a2539cfe83fac0d0be3339774863280d2976ed94fc48ced893e64736f6c63430006080033",
  "linkReferences": {},
  "deployedLinkReferences": {}
}