{
  "_format": "hh-sol-artifact-1",
  "contractName": "REVVTrophies",
  "sourceName": "contracts/solc-0.6/token/ERC1155721/REVVTrophies.sol",
  "abi": [
    {
      "inputs": [
        {
          "internalType": "address",
          "name": "gasTokenAddress",
          "type": "address"
        },
        {
          "internalType": "address",
          "name": "payoutWallet",
          "type": "address"
        }
      ],
      "stateMutability": "nonpayable",
      "type": "constructor"
    },
    {
      "anonymous": false,
      "inputs": [
        {
          "indexed": true,
          "internalType": "address",
          "name": "_owner",
          "type": "address"
        },
        {
          "indexed": true,
          "internalType": "address",
          "name": "_approved",
          "type": "address"
        },
        {
          "indexed": true,
          "internalType": "uint256",
          "name": "_tokenId",
          "type": "uint256"
        }
      ],
      "name": "Approval",
      "type": "event"
    },
    {
      "anonymous": false,
      "inputs": [
        {
          "indexed": true,
          "internalType": "address",
          "name": "_owner",
          "type": "address"
        },
        {
          "indexed": true,
          "internalType": "address",
          "name": "_operator",
          "type": "address"
        },
        {
          "indexed": false,
          "internalType": "bool",
          "name": "_approved",
          "type": "bool"
        }
      ],
      "name": "ApprovalForAll",
      "type": "event"
    },
    {
      "anonymous": false,
      "inputs": [
        {
          "indexed": true,
          "internalType": "address",
          "name": "account",
          "type": "address"
        }
      ],
      "name": "MinterAdded",
      "type": "event"
    },
    {
      "anonymous": false,
      "inputs": [
        {
          "indexed": true,
          "internalType": "address",
          "name": "account",
          "type": "address"
        }
      ],
      "name": "MinterRemoved",
      "type": "event"
    },
    {
      "anonymous": false,
      "inputs": [
        {
          "indexed": true,
          "internalType": "address",
          "name": "previousOwner",
          "type": "address"
        },
        {
          "indexed": true,
          "internalType": "address",
          "name": "newOwner",
          "type": "address"
        }
      ],
      "name": "OwnershipTransferred",
      "type": "event"
    },
    {
      "anonymous": false,
      "inputs": [
        {
          "indexed": false,
          "internalType": "address",
          "name": "payoutWallet_",
          "type": "address"
        }
      ],
      "name": "PayoutWalletSet",
      "type": "event"
    },
    {
      "anonymous": false,
      "inputs": [
        {
          "indexed": true,
          "internalType": "address",
          "name": "oldRelayHub",
          "type": "address"
        },
        {
          "indexed": true,
          "internalType": "address",
          "name": "newRelayHub",
          "type": "address"
        }
      ],
      "name": "RelayHubChanged",
      "type": "event"
    },
    {
      "anonymous": false,
      "inputs": [
        {
          "indexed": true,
          "internalType": "bytes32",
          "name": "role",
          "type": "bytes32"
        },
        {
          "indexed": true,
          "internalType": "bytes32",
          "name": "previousAdminRole",
          "type": "bytes32"
        },
        {
          "indexed": true,
          "internalType": "bytes32",
          "name": "newAdminRole",
          "type": "bytes32"
        }
      ],
      "name": "RoleAdminChanged",
      "type": "event"
    },
    {
      "anonymous": false,
      "inputs": [
        {
          "indexed": true,
          "internalType": "bytes32",
          "name": "role",
          "type": "bytes32"
        },
        {
          "indexed": true,
          "internalType": "address",
          "name": "account",
          "type": "address"
        },
        {
          "indexed": true,
          "internalType": "address",
          "name": "sender",
          "type": "address"
        }
      ],
      "name": "RoleGranted",
      "type": "event"
    },
    {
      "anonymous": false,
      "inputs": [
        {
          "indexed": true,
          "internalType": "bytes32",
          "name": "role",
          "type": "bytes32"
        },
        {
          "indexed": true,
          "internalType": "address",
          "name": "account",
          "type": "address"
        },
        {
          "indexed": true,
          "internalType": "address",
          "name": "sender",
          "type": "address"
        }
      ],
      "name": "RoleRevoked",
      "type": "event"
    },
    {
      "anonymous": false,
      "inputs": [
        {
          "indexed": true,
          "internalType": "address",
          "name": "_from",
          "type": "address"
        },
        {
          "indexed": true,
          "internalType": "address",
          "name": "_to",
          "type": "address"
        },
        {
          "indexed": true,
          "internalType": "uint256",
          "name": "_tokenId",
          "type": "uint256"
        }
      ],
      "name": "Transfer",
      "type": "event"
    },
    {
      "anonymous": false,
      "inputs": [
        {
          "indexed": true,
          "internalType": "address",
          "name": "_operator",
          "type": "address"
        },
        {
          "indexed": true,
          "internalType": "address",
          "name": "_from",
          "type": "address"
        },
        {
          "indexed": true,
          "internalType": "address",
          "name": "_to",
          "type": "address"
        },
        {
          "indexed": false,
          "internalType": "uint256[]",
          "name": "_ids",
          "type": "uint256[]"
        },
        {
          "indexed": false,
          "internalType": "uint256[]",
          "name": "_values",
          "type": "uint256[]"
        }
      ],
      "name": "TransferBatch",
      "type": "event"
    },
    {
      "anonymous": false,
      "inputs": [
        {
          "indexed": true,
          "internalType": "address",
          "name": "_operator",
          "type": "address"
        },
        {
          "indexed": true,
          "internalType": "address",
          "name": "_from",
          "type": "address"
        },
        {
          "indexed": true,
          "internalType": "address",
          "name": "_to",
          "type": "address"
        },
        {
          "indexed": false,
          "internalType": "uint256",
          "name": "_id",
          "type": "uint256"
        },
        {
          "indexed": false,
          "internalType": "uint256",
          "name": "_value",
          "type": "uint256"
        }
      ],
      "name": "TransferSingle",
      "type": "event"
    },
    {
      "anonymous": false,
      "inputs": [
        {
          "indexed": false,
          "internalType": "string",
          "name": "_value",
          "type": "string"
        },
        {
          "indexed": true,
          "internalType": "uint256",
          "name": "_id",
          "type": "uint256"
        }
      ],
      "name": "URI",
      "type": "event"
    },
    {
      "inputs": [],
      "name": "DEFAULT_ADMIN_ROLE",
      "outputs": [
        {
          "internalType": "bytes32",
          "name": "",
          "type": "bytes32"
        }
      ],
      "stateMutability": "view",
      "type": "function"
    },
    {
      "inputs": [
        {
          "internalType": "address",
          "name": "",
          "type": "address"
        },
        {
          "internalType": "address",
          "name": "from",
          "type": "address"
        },
        {
          "internalType": "bytes",
          "name": "",
          "type": "bytes"
        },
        {
          "internalType": "uint256",
          "name": "transactionFee",
          "type": "uint256"
        },
        {
          "internalType": "uint256",
          "name": "gasPrice",
          "type": "uint256"
        },
        {
          "internalType": "uint256",
          "name": "",
          "type": "uint256"
        },
        {
          "internalType": "uint256",
          "name": "",
          "type": "uint256"
        },
        {
          "internalType": "bytes",
          "name": "",
          "type": "bytes"
        },
        {
          "internalType": "uint256",
          "name": "maxPossibleCharge",
          "type": "uint256"
        }
      ],
      "name": "acceptRelayedCall",
      "outputs": [
        {
          "internalType": "uint256",
          "name": "",
          "type": "uint256"
        },
        {
          "internalType": "bytes",
          "name": "",
          "type": "bytes"
        }
      ],
      "stateMutability": "view",
      "type": "function"
    },
    {
      "inputs": [
        {
          "internalType": "address",
          "name": "account",
          "type": "address"
        }
      ],
      "name": "addMinter",
      "outputs": [],
      "stateMutability": "nonpayable",
      "type": "function"
    },
    {
      "inputs": [
        {
          "internalType": "address",
          "name": "to",
          "type": "address"
        },
        {
          "internalType": "uint256",
          "name": "nftId",
          "type": "uint256"
        }
      ],
      "name": "approve",
      "outputs": [],
      "stateMutability": "nonpayable",
      "type": "function"
    },
    {
      "inputs": [
        {
          "internalType": "address",
          "name": "tokenOwner",
          "type": "address"
        },
        {
          "internalType": "uint256",
          "name": "id",
          "type": "uint256"
        }
      ],
      "name": "balanceOf",
      "outputs": [
        {
          "internalType": "uint256",
          "name": "",
          "type": "uint256"
        }
      ],
      "stateMutability": "view",
      "type": "function"
    },
    {
      "inputs": [
        {
          "internalType": "address",
          "name": "tokenOwner",
          "type": "address"
        }
      ],
      "name": "balanceOf",
      "outputs": [
        {
          "internalType": "uint256",
          "name": "",
          "type": "uint256"
        }
      ],
      "stateMutability": "view",
      "type": "function"
    },
    {
      "inputs": [
        {
          "internalType": "address[]",
          "name": "tokenOwners",
          "type": "address[]"
        },
        {
          "internalType": "uint256[]",
          "name": "ids",
          "type": "uint256[]"
        }
      ],
      "name": "balanceOfBatch",
      "outputs": [
        {
          "internalType": "uint256[]",
          "name": "",
          "type": "uint256[]"
        }
      ],
      "stateMutability": "view",
      "type": "function"
    },
    {
      "inputs": [
        {
          "internalType": "address",
          "name": "to",
          "type": "address"
        },
        {
          "internalType": "uint256[]",
          "name": "ids",
          "type": "uint256[]"
        },
        {
          "internalType": "uint256[]",
          "name": "values",
          "type": "uint256[]"
        },
        {
          "internalType": "bool",
          "name": "safe",
          "type": "bool"
        }
      ],
      "name": "batchMint",
      "outputs": [],
      "stateMutability": "nonpayable",
      "type": "function"
    },
    {
      "inputs": [
        {
          "internalType": "uint256",
          "name": "nftId",
          "type": "uint256"
        }
      ],
      "name": "collectionOf",
      "outputs": [
        {
          "internalType": "uint256",
          "name": "",
          "type": "uint256"
        }
      ],
      "stateMutability": "view",
      "type": "function"
    },
    {
      "inputs": [],
      "name": "coreMetadataImplementer",
      "outputs": [
        {
          "internalType": "address",
          "name": "",
          "type": "address"
        }
      ],
      "stateMutability": "view",
      "type": "function"
    },
    {
      "inputs": [
        {
          "internalType": "uint256",
          "name": "collectionId",
          "type": "uint256"
        },
        {
          "internalType": "bytes32[]",
          "name": "names",
          "type": "bytes32[]"
        },
        {
          "internalType": "uint256[]",
          "name": "lengths",
          "type": "uint256[]"
        },
        {
          "internalType": "uint256[]",
          "name": "indices",
          "type": "uint256[]"
        }
      ],
      "name": "createCollection",
      "outputs": [],
      "stateMutability": "nonpayable",
      "type": "function"
    },
    {
      "inputs": [
        {
          "internalType": "uint256",
          "name": "nftId",
          "type": "uint256"
        }
      ],
      "name": "exists",
      "outputs": [
        {
          "internalType": "bool",
          "name": "",
          "type": "bool"
        }
      ],
      "stateMutability": "view",
      "type": "function"
    },
    {
      "inputs": [],
      "name": "gasPriceScaling",
      "outputs": [
        {
          "internalType": "uint256",
          "name": "",
          "type": "uint256"
        }
      ],
      "stateMutability": "view",
      "type": "function"
    },
    {
      "inputs": [],
      "name": "gasToken",
      "outputs": [
        {
          "internalType": "contract IERC20",
          "name": "",
          "type": "address"
        }
      ],
      "stateMutability": "view",
      "type": "function"
    },
    {
      "inputs": [
        {
          "internalType": "uint256",
          "name": "nftId",
          "type": "uint256"
        }
      ],
      "name": "getApproved",
      "outputs": [
        {
          "internalType": "address",
          "name": "",
          "type": "address"
        }
      ],
      "stateMutability": "view",
      "type": "function"
    },
    {
      "inputs": [],
      "name": "getHubAddr",
      "outputs": [
        {
          "internalType": "address",
          "name": "",
          "type": "address"
        }
      ],
      "stateMutability": "view",
      "type": "function"
    },
    {
      "inputs": [
        {
          "internalType": "bytes32",
          "name": "role",
          "type": "bytes32"
        }
      ],
      "name": "getRoleAdmin",
      "outputs": [
        {
          "internalType": "bytes32",
          "name": "",
          "type": "bytes32"
        }
      ],
      "stateMutability": "view",
      "type": "function"
    },
    {
      "inputs": [
        {
          "internalType": "bytes32",
          "name": "role",
          "type": "bytes32"
        },
        {
          "internalType": "uint256",
          "name": "index",
          "type": "uint256"
        }
      ],
      "name": "getRoleMember",
      "outputs": [
        {
          "internalType": "address",
          "name": "",
          "type": "address"
        }
      ],
      "stateMutability": "view",
      "type": "function"
    },
    {
      "inputs": [
        {
          "internalType": "bytes32",
          "name": "role",
          "type": "bytes32"
        }
      ],
      "name": "getRoleMemberCount",
      "outputs": [
        {
          "internalType": "uint256",
          "name": "",
          "type": "uint256"
        }
      ],
      "stateMutability": "view",
      "type": "function"
    },
    {
      "inputs": [
        {
          "internalType": "bytes32",
          "name": "role",
          "type": "bytes32"
        },
        {
          "internalType": "address",
          "name": "account",
          "type": "address"
        }
      ],
      "name": "grantRole",
      "outputs": [],
      "stateMutability": "nonpayable",
      "type": "function"
    },
    {
      "inputs": [
        {
          "internalType": "bytes32",
          "name": "role",
          "type": "bytes32"
        },
        {
          "internalType": "address",
          "name": "account",
          "type": "address"
        }
      ],
      "name": "hasRole",
      "outputs": [
        {
          "internalType": "bool",
          "name": "",
          "type": "bool"
        }
      ],
      "stateMutability": "view",
      "type": "function"
    },
    {
      "inputs": [
        {
          "internalType": "address",
          "name": "tokenOwner",
          "type": "address"
        },
        {
          "internalType": "address",
          "name": "operator",
          "type": "address"
        }
      ],
      "name": "isApprovedForAll",
      "outputs": [
        {
          "internalType": "bool",
          "name": "",
          "type": "bool"
        }
      ],
      "stateMutability": "view",
      "type": "function"
    },
    {
      "inputs": [
        {
          "internalType": "uint256",
          "name": "id",
          "type": "uint256"
        }
      ],
      "name": "isFungible",
      "outputs": [
        {
          "internalType": "bool",
          "name": "",
          "type": "bool"
        }
      ],
      "stateMutability": "view",
      "type": "function"
    },
    {
      "inputs": [
        {
          "internalType": "address",
          "name": "account",
          "type": "address"
        }
      ],
      "name": "isMinter",
      "outputs": [
        {
          "internalType": "bool",
          "name": "",
          "type": "bool"
        }
      ],
      "stateMutability": "view",
      "type": "function"
    },
    {
      "inputs": [],
      "name": "name",
      "outputs": [
        {
          "internalType": "string",
          "name": "",
          "type": "string"
        }
      ],
      "stateMutability": "view",
      "type": "function"
    },
    {
      "inputs": [],
      "name": "owner",
      "outputs": [
        {
          "internalType": "address",
          "name": "",
          "type": "address"
        }
      ],
      "stateMutability": "view",
      "type": "function"
    },
    {
      "inputs": [
        {
          "internalType": "uint256",
          "name": "nftId",
          "type": "uint256"
        }
      ],
      "name": "ownerOf",
      "outputs": [
        {
          "internalType": "address",
          "name": "",
          "type": "address"
        }
      ],
      "stateMutability": "view",
      "type": "function"
    },
    {
      "inputs": [],
      "name": "payoutWallet",
      "outputs": [
        {
          "internalType": "address payable",
          "name": "",
          "type": "address"
        }
      ],
      "stateMutability": "view",
      "type": "function"
    },
    {
      "inputs": [
        {
          "internalType": "bytes",
          "name": "context",
          "type": "bytes"
        },
        {
          "internalType": "bool",
          "name": "success",
          "type": "bool"
        },
        {
          "internalType": "uint256",
          "name": "actualCharge",
          "type": "uint256"
        },
        {
          "internalType": "bytes32",
          "name": "preRetVal",
          "type": "bytes32"
        }
      ],
      "name": "postRelayedCall",
      "outputs": [],
      "stateMutability": "nonpayable",
      "type": "function"
    },
    {
      "inputs": [
        {
          "internalType": "bytes",
          "name": "context",
          "type": "bytes"
        }
      ],
      "name": "preRelayedCall",
      "outputs": [
        {
          "internalType": "bytes32",
          "name": "",
          "type": "bytes32"
        }
      ],
      "stateMutability": "nonpayable",
      "type": "function"
    },
    {
      "inputs": [],
      "name": "relayHubVersion",
      "outputs": [
        {
          "internalType": "string",
          "name": "",
          "type": "string"
        }
      ],
      "stateMutability": "view",
      "type": "function"
    },
    {
      "inputs": [],
      "name": "renounceMinter",
      "outputs": [],
      "stateMutability": "nonpayable",
      "type": "function"
    },
    {
      "inputs": [],
      "name": "renounceOwnership",
      "outputs": [],
      "stateMutability": "nonpayable",
      "type": "function"
    },
    {
      "inputs": [
        {
          "internalType": "bytes32",
          "name": "role",
          "type": "bytes32"
        },
        {
          "internalType": "address",
          "name": "account",
          "type": "address"
        }
      ],
      "name": "renounceRole",
      "outputs": [],
      "stateMutability": "nonpayable",
      "type": "function"
    },
    {
      "inputs": [
        {
          "internalType": "bytes32",
          "name": "role",
          "type": "bytes32"
        },
        {
          "internalType": "address",
          "name": "account",
          "type": "address"
        }
      ],
      "name": "revokeRole",
      "outputs": [],
      "stateMutability": "nonpayable",
      "type": "function"
    },
    {
      "inputs": [
        {
          "internalType": "address",
          "name": "from",
          "type": "address"
        },
        {
          "internalType": "address",
          "name": "to",
          "type": "address"
        },
        {
          "internalType": "uint256[]",
          "name": "ids",
          "type": "uint256[]"
        },
        {
          "internalType": "uint256[]",
          "name": "values",
          "type": "uint256[]"
        },
        {
          "internalType": "bytes",
          "name": "data",
          "type": "bytes"
        }
      ],
      "name": "safeBatchTransferFrom",
      "outputs": [],
      "stateMutability": "nonpayable",
      "type": "function"
    },
    {
      "inputs": [
        {
          "internalType": "address",
          "name": "from",
          "type": "address"
        },
        {
          "internalType": "address",
          "name": "to",
          "type": "address"
        },
        {
          "internalType": "uint256",
          "name": "nftId",
          "type": "uint256"
        }
      ],
      "name": "safeTransferFrom",
      "outputs": [],
      "stateMutability": "nonpayable",
      "type": "function"
    },
    {
      "inputs": [
        {
          "internalType": "address",
          "name": "from",
          "type": "address"
        },
        {
          "internalType": "address",
          "name": "to",
          "type": "address"
        },
        {
          "internalType": "uint256",
          "name": "nftId",
          "type": "uint256"
        },
        {
          "internalType": "bytes",
          "name": "data",
          "type": "bytes"
        }
      ],
      "name": "safeTransferFrom",
      "outputs": [],
      "stateMutability": "nonpayable",
      "type": "function"
    },
    {
      "inputs": [
        {
          "internalType": "address",
          "name": "from",
          "type": "address"
        },
        {
          "internalType": "address",
          "name": "to",
          "type": "address"
        },
        {
          "internalType": "uint256",
          "name": "id",
          "type": "uint256"
        },
        {
          "internalType": "uint256",
          "name": "value",
          "type": "uint256"
        },
        {
          "internalType": "bytes",
          "name": "data",
          "type": "bytes"
        }
      ],
      "name": "safeTransferFrom",
      "outputs": [],
      "stateMutability": "nonpayable",
      "type": "function"
    },
    {
      "inputs": [
        {
          "internalType": "address",
          "name": "operator",
          "type": "address"
        },
        {
          "internalType": "bool",
          "name": "approved",
          "type": "bool"
        }
      ],
      "name": "setApprovalForAll",
      "outputs": [],
      "stateMutability": "nonpayable",
      "type": "function"
    },
    {
      "inputs": [
        {
          "internalType": "uint256",
          "name": "gasPriceScaling_",
          "type": "uint256"
        }
      ],
      "name": "setGasPrice",
      "outputs": [],
      "stateMutability": "nonpayable",
      "type": "function"
    },
    {
      "inputs": [
        {
          "internalType": "address",
          "name": "gasTokenAddress",
          "type": "address"
        }
      ],
      "name": "setGasToken",
      "outputs": [],
      "stateMutability": "nonpayable",
      "type": "function"
    },
    {
      "inputs": [
        {
          "internalType": "address",
          "name": "implementer",
          "type": "address"
        }
      ],
      "name": "setInventoryMetadataImplementer",
      "outputs": [],
      "stateMutability": "nonpayable",
      "type": "function"
    },
    {
      "inputs": [
        {
          "internalType": "address",
          "name": "payoutWallet_",
          "type": "address"
        }
      ],
      "name": "setPayoutWallet",
      "outputs": [],
      "stateMutability": "nonpayable",
      "type": "function"
    },
    {
      "inputs": [
        {
          "internalType": "string",
          "name": "uriPrefix",
          "type": "string"
        }
      ],
      "name": "setUriPrefix",
      "outputs": [],
      "stateMutability": "nonpayable",
      "type": "function"
    },
    {
      "inputs": [
        {
          "internalType": "bytes4",
          "name": "interfaceId",
          "type": "bytes4"
        }
      ],
      "name": "supportsInterface",
      "outputs": [
        {
          "internalType": "bool",
          "name": "",
          "type": "bool"
        }
      ],
      "stateMutability": "view",
      "type": "function"
    },
    {
      "inputs": [],
      "name": "symbol",
      "outputs": [
        {
          "internalType": "string",
          "name": "",
          "type": "string"
        }
      ],
      "stateMutability": "view",
      "type": "function"
    },
    {
      "inputs": [
        {
          "internalType": "uint256",
          "name": "nftId",
          "type": "uint256"
        }
      ],
      "name": "tokenURI",
      "outputs": [
        {
          "internalType": "string",
          "name": "",
          "type": "string"
        }
      ],
      "stateMutability": "view",
      "type": "function"
    },
    {
      "inputs": [
        {
          "internalType": "address",
          "name": "from",
          "type": "address"
        },
        {
          "internalType": "address",
          "name": "to",
          "type": "address"
        },
        {
          "internalType": "uint256",
          "name": "nftId",
          "type": "uint256"
        }
      ],
      "name": "transferFrom",
      "outputs": [],
      "stateMutability": "nonpayable",
      "type": "function"
    },
    {
      "inputs": [
        {
          "internalType": "address",
          "name": "newOwner",
          "type": "address"
        }
      ],
      "name": "transferOwnership",
      "outputs": [],
      "stateMutability": "nonpayable",
      "type": "function"
    },
    {
      "inputs": [
        {
          "internalType": "uint256",
          "name": "id",
          "type": "uint256"
        }
      ],
      "name": "uri",
      "outputs": [
        {
          "internalType": "string",
          "name": "",
          "type": "string"
        }
      ],
      "stateMutability": "view",
      "type": "function"
    },
    {
      "inputs": [
        {
          "internalType": "uint256",
          "name": "amount",
          "type": "uint256"
        },
        {
          "internalType": "address payable",
          "name": "payee",
          "type": "address"
        }
      ],
      "name": "withdrawDeposits",
      "outputs": [],
      "stateMutability": "nonpayable",
      "type": "function"
    }
  ],
  "bytecode": "0x600780546001600160a01b03191673d216153c06e857cd7f72665e0af1d7d82172f4941790556103e8600b5560e0604052602960808181529062005a0860a03980516200005591600e9160209091019062000773565b503480156200006357600080fd5b5060405162005acc38038062005acc833981810160405260408110156200008957600080fd5b508051602091820151909182908290819080620000b66301ffc9a760e01b6001600160e01b03620002d816565b600081118015620000c8575061010081105b620001055760405162461bcd60e51b815260040180806020018281038252602a81526020018062005aa2602a913960400191505060405180910390fd5b600180821b600019016101008390031b908190556200012b636cdb3d1360e11b620002d8565b620001466303a24d0760e21b6001600160e01b03620002d816565b6200016163469bd23f60e01b6001600160e01b03620002d816565b6200017c634f558e7960e01b6001600160e01b03620002d816565b506200019a90506380ac58cd60e01b6001600160e01b03620002d816565b620001b5635b5e139f60e01b6001600160e01b03620002d816565b506000620001cb6001600160e01b036200035d16565b600880546001600160a01b0319166001600160a01b038316908117909155604051919250906000907f8be0079c531659141344cd1fd0a4f28419497f9722a3daafe3b4186f6b6457e0908290a3506200022d816001600160e01b036200037a16565b5062000242826001600160e01b036200051916565b50620002609050634c9acddf60e11b6001600160e01b03620002d816565b620002886000620002796001600160e01b036200035d16565b6001600160e01b03620005a016565b6200029b6001600160e01b036200035d16565b6001600160a01b03167f6ae172837ea30b801fbfcdd4108aa1d5bf8ff775444fd70256b44e6bf3dfc3f660405160405180910390a2505062000815565b6001600160e01b0319808216141562000338576040805162461bcd60e51b815260206004820152601c60248201527f4552433136353a20696e76616c696420696e7465726661636520696400000000604482015290519081900360640190fd5b6001600160e01b0319166000908152602081905260409020805460ff19166001179055565b600062000374620005b960201b62002a1a1760201c565b90505b90565b6200038d6001600160e01b036200035d16565b6008546001600160a01b03908116911614620003df576040805162461bcd60e51b8152602060048201819052602482015260008051602062005a82833981519152604482015290519081900360640190fd5b6001600160a01b038116620004265760405162461bcd60e51b815260040180806020018281038252602e81526020018062005a54602e913960400191505060405180910390fd5b6001600160a01b038116301415620004705760405162461bcd60e51b8152600401808060200182810382526031815260200180620059d76031913960400191505060405180910390fd5b6009546001600160a01b0382811691161415620004bf5760405162461bcd60e51b815260040180806020018281038252602381526020018062005a316023913960400191505060405180910390fd5b600980546001600160a01b0319166001600160a01b03838116919091179182905560408051929091168252517fdd880d24a789958a6398c99c2e54ce31bc10a638cbc42f7dd34285479ae0f855916020908290030190a150565b6200052c6001600160e01b036200035d16565b6008546001600160a01b039081169116146200057e576040805162461bcd60e51b8152602060048201819052602482015260008051602062005a82833981519152604482015290519081900360640190fd5b600a80546001600160a01b0319166001600160a01b0392909216919091179055565b620005b582826001600160e01b03620005d016565b5050565b6000620003746200065460201b62002a291760201c565b6000828152600d60209081526040909120620005f791839062002a546200068d821b17901c565b15620005b557620006106001600160e01b036200035d16565b6001600160a01b0316816001600160a01b0316837f2f8788117e7eff1d82e926ec794901d17c78024a50270940304540a733656f0d60405160405180910390a45050565b6007546000906001600160a01b031633146200067257503362000377565b620006856001600160e01b03620006b616565b905062000377565b6000620006ad836001600160a01b0384166001600160e01b036200070316565b90505b92915050565b600060606000368080601f0160208091040260200160405190810160405280939291908181526020018383808284376000920191909152505050503601516001600160a01b031692915050565b60006200071a83836001600160e01b036200075b16565b6200075257508154600181810184556000848152602080822090930184905584548482528286019093526040902091909155620006b0565b506000620006b0565b60009081526001919091016020526040902054151590565b828054600181600116156101000203166002900490600052602060002090601f016020900481019282601f10620007b657805160ff1916838001178555620007e6565b82800160010185558215620007e6579182015b82811115620007e6578251825591602001919060010190620007c9565b50620007f4929150620007f8565b5090565b6200037791905b80821115620007f45760008155600101620007ff565b6151b280620008256000396000f3fe608060405234801561001057600080fd5b506004361061030b5760003560e01c80638da5cb5b1161019d578063b88d4fde116100e9578063ca15c873116100a2578063e06e0e221161007c578063e06e0e2214611112578063e985e9c5146111c3578063f242432a146111f1578063f2fde38b146112ba5761030b565b8063ca15c873146110a3578063d547741f146110c0578063defc9e8c146110ec5761030b565b8063b88d4fde14610f54578063bf1fe42014611018578063c2db1abe14611035578063c7778baa14611061578063c87b56dd1461107e578063c91d59fe1461109b5761030b565b806399359bbe11610156578063a33dbcc011610130578063a33dbcc014610f01578063aa271e1a14610f09578063ad61ccd514610f2f578063adebf6f214610f375761030b565b806399359bbe14610ec3578063a217fddf14610ecb578063a22cb46514610ed35761030b565b80638da5cb5b14610e365780639010d07c14610e3e57806391d1485414610e6157806395d89b4114610e8d578063983b2d5614610e955780639865027514610ebb5761030b565b806342842e0e1161025c57806370a08231116102155780637ec4a659116101ef5780637ec4a65914610b4057806380274db714610bae57806383947ea014610c525780638488bb4e14610e2e5761030b565b806370a0823114610b0a578063715018a614610b3057806374e861d614610b385761030b565b806342842e0e14610831578063457e825e146108675780634e1273f4146109375780634f558e7914610aaa5780636352211e14610ac75780636b8f9c4314610ae45761030b565b80630e89341c116102c9578063248a9ca3116102a3578063248a9ca3146105fb5780632eb2c2d6146106185780632f2ff15d146107d957806336568abe146108055761030b565b80630e89341c146105825780631e9f8aad1461059f57806323b872dd146105c55761030b565b8062fdd58e1461031057806301ffc9a71461034e57806306fdde0314610389578063081812fc14610406578063095ea7b31461043f5780630e21961c1461046d575b600080fd5b61033c6004803603604081101561032657600080fd5b506001600160a01b0381351690602001356112e0565b60408051918252519081900360200190f35b6103756004803603602081101561036457600080fd5b50356001600160e01b031916611395565b604080519115158252519081900360200190f35b6103916113b8565b6040805160208082528351818301528351919283929083019185019080838360005b838110156103cb5781810151838201526020016103b3565b50505050905090810190601f1680156103f85780820380516001836020036101000a031916815260200191505b509250505060405180910390f35b6104236004803603602081101561041c57600080fd5b50356113e1565b604080516001600160a01b039092168252519081900360200190f35b61046b6004803603604081101561045557600080fd5b506001600160a01b038135169060200135611453565b005b61046b6004803603608081101561048357600080fd5b81359190810190604081016020820135600160201b8111156104a457600080fd5b8201836020820111156104b657600080fd5b803590602001918460208302840111600160201b831117156104d757600080fd5b919390929091602081019035600160201b8111156104f457600080fd5b82018360208201111561050657600080fd5b803590602001918460208302840111600160201b8311171561052757600080fd5b919390929091602081019035600160201b81111561054457600080fd5b82018360208201111561055657600080fd5b803590602001918460208302840111600160201b8311171561057757600080fd5b50909250905061159a565b6103916004803603602081101561059857600080fd5b50356116f9565b61046b600480360360208110156105b557600080fd5b50356001600160a01b0316611704565b61046b600480360360608110156105db57600080fd5b506001600160a01b0381358116916020810135909116906040013561177e565b61033c6004803603602081101561061157600080fd5b50356117a0565b61046b600480360360a081101561062e57600080fd5b6001600160a01b038235811692602081013590911691810190606081016040820135600160201b81111561066157600080fd5b82018360208201111561067357600080fd5b803590602001918460208302840111600160201b8311171561069457600080fd5b9190808060200260200160405190810160405280939291908181526020018383602002808284376000920191909152509295949360208101935035915050600160201b8111156106e357600080fd5b8201836020820111156106f557600080fd5b803590602001918460208302840111600160201b8311171561071657600080fd5b9190808060200260200160405190810160405280939291908181526020018383602002808284376000920191909152509295949360208101935035915050600160201b81111561076557600080fd5b82018360208201111561077757600080fd5b803590602001918460018302840111600160201b8311171561079857600080fd5b91908080601f0160208091040260200160405190810160405280939291908181526020018383808284376000920191909152509295506117b5945050505050565b61046b600480360360408110156107ef57600080fd5b50803590602001356001600160a01b0316611a4c565b61046b6004803603604081101561081b57600080fd5b50803590602001356001600160a01b0316611ab8565b61046b6004803603606081101561084757600080fd5b506001600160a01b03813581169160208101359091169060400135611b19565b61046b6004803603608081101561087d57600080fd5b6001600160a01b038235169190810190604081016020820135600160201b8111156108a757600080fd5b8201836020820111156108b957600080fd5b803590602001918460208302840111600160201b831117156108da57600080fd5b919390929091602081019035600160201b8111156108f757600080fd5b82018360208201111561090957600080fd5b803590602001918460208302840111600160201b8311171561092a57600080fd5b9193509150351515611b36565b610a5a6004803603604081101561094d57600080fd5b810190602081018135600160201b81111561096757600080fd5b82018360208201111561097957600080fd5b803590602001918460208302840111600160201b8311171561099a57600080fd5b9190808060200260200160405190810160405280939291908181526020018383602002808284376000920191909152509295949360208101935035915050600160201b8111156109e957600080fd5b8201836020820111156109fb57600080fd5b803590602001918460208302840111600160201b83111715610a1c57600080fd5b919080806020026020016040519081016040528093929190818152602001838360200280828437600092019190915250929550611c02945050505050565b60408051602080825283518183015283519192839290830191858101910280838360005b83811015610a96578181015183820152602001610a7e565b505050509050019250505060405180910390f35b61037560048036036020811015610ac057600080fd5b5035611dfa565b61042360048036036020811015610add57600080fd5b5035611e17565b61046b60048036036020811015610afa57600080fd5b50356001600160a01b0316611e22565b61033c60048036036020811015610b2057600080fd5b50356001600160a01b0316611fae565b61046b612011565b6104236120b3565b61046b60048036036020811015610b5657600080fd5b810190602081018135600160201b811115610b7057600080fd5b820183602082011115610b8257600080fd5b803590602001918460018302840111600160201b83111715610ba357600080fd5b5090925090506120c3565b61033c60048036036020811015610bc457600080fd5b810190602081018135600160201b811115610bde57600080fd5b820183602082011115610bf057600080fd5b803590602001918460018302840111600160201b83111715610c1157600080fd5b91908080601f016020809104026020016040519081016040528093929190818152602001838380828437600092019190915250929550612127945050505050565b610daf6004803603610120811015610c6957600080fd5b6001600160a01b038235811692602081013590911691810190606081016040820135600160201b811115610c9c57600080fd5b820183602082011115610cae57600080fd5b803590602001918460018302840111600160201b83111715610ccf57600080fd5b91908080601f016020809104026020016040519081016040528093929190818152602001838380828437600092019190915250929584359560208601359560408101359550606081013594509192509060a081019060800135600160201b811115610d3957600080fd5b820183602082011115610d4b57600080fd5b803590602001918460018302840111600160201b83111715610d6c57600080fd5b91908080601f0160208091040260200160405190810160405280939291908181526020018383808284376000920191909152509295505091359250612189915050565b6040518083815260200180602001828103825283818151815260200191508051906020019080838360005b83811015610df2578181015183820152602001610dda565b50505050905090810190601f168015610e1f5780820380516001836020036101000a031916815260200191505b50935050505060405180910390f35b61042361228e565b61042361229d565b61042360048036036040811015610e5457600080fd5b50803590602001356122ac565b61037560048036036040811015610e7757600080fd5b50803590602001356001600160a01b03166122d1565b6103916122ef565b61046b60048036036020811015610eab57600080fd5b50356001600160a01b0316612311565b61046b6123de565b610423612475565b61033c612484565b61046b60048036036040811015610ee957600080fd5b506001600160a01b0381351690602001351515612489565b61033c612493565b61037560048036036020811015610f1f57600080fd5b50356001600160a01b0316612499565b6103916124eb565b61037560048036036020811015610f4d57600080fd5b503561250a565b61046b60048036036080811015610f6a57600080fd5b6001600160a01b03823581169260208101359091169160408201359190810190608081016060820135600160201b811115610fa457600080fd5b820183602082011115610fb657600080fd5b803590602001918460018302840111600160201b83111715610fd757600080fd5b91908080601f016020809104026020016040519081016040528093929190818152602001838380828437600092019190915250929550612514945050505050565b61046b6004803603602081101561102e57600080fd5b5035612528565b61046b6004803603604081101561104b57600080fd5b50803590602001356001600160a01b0316612585565b61033c6004803603602081101561107757600080fd5b50356125e7565b6103916004803603602081101561109457600080fd5b5035612635565b610423612684565b61033c600480360360208110156110b957600080fd5b5035612693565b61046b600480360360408110156110d657600080fd5b50803590602001356001600160a01b03166126aa565b61046b6004803603602081101561110257600080fd5b50356001600160a01b0316612703565b61046b6004803603608081101561112857600080fd5b810190602081018135600160201b81111561114257600080fd5b82018360208201111561115457600080fd5b803590602001918460018302840111600160201b8311171561117557600080fd5b91908080601f01602080910402602001604051908101604052809392919081815260200183838082843760009201919091525092955050505080351515915060208101359060400135612767565b610375600480360360408110156111d957600080fd5b506001600160a01b03813581169160200135166127ca565b61046b600480360360a081101561120757600080fd5b6001600160a01b03823581169260208101359091169160408201359160608101359181019060a081016080820135600160201b81111561124657600080fd5b82018360208201111561125857600080fd5b803590602001918460018302840111600160201b8311171561127957600080fd5b91908080601f0160208091040260200160405190810160405280939291908181526020018383808284376000920191909152509295506127d6945050505050565b61046b600480360360208110156112d057600080fd5b50356001600160a01b0316612921565b60006001600160a01b0383166113275760405162461bcd60e51b8152600401808060200182810382526024815260200180614f096024913960400191505060405180910390fd5b61133082612a69565b1561136a576000828152600360205260409020546001600160a01b0384811691161461135d576000611360565b60015b60ff16905061138f565b5060008181526002602090815260408083206001600160a01b03861684529091529020545b92915050565b6001600160e01b0319811660009081526020819052604090205460ff165b919050565b6040518060400160405280600d81526020016c524556562054726f706869657360981b81525081565b60006113ec82612a69565b80156113fc57506113fc82611dfa565b6114375760405162461bcd60e51b8152600401808060200182810382526045815260200180614fca6045913960600191505060405180910390fd5b506000908152600560205260409020546001600160a01b031690565b600061145e82611e17565b9050806001600160a01b0316836001600160a01b031614156114b15760405162461bcd60e51b81526004018080602001828103825260298152602001806150ad6029913960400191505060405180910390fd5b60006114bb612a86565b9050816001600160a01b0316816001600160a01b0316148061150257506001600160a01b0380831660009081526004602090815260408083209385168352929052205460ff165b61153d5760405162461bcd60e51b815260040180806020018281038252602d815260200180615038602d913960400191505060405180910390fd5b60008381526005602052604080822080546001600160a01b0319166001600160a01b0388811691821790925591518693918616917f8c5be1e5ebec7d5bd14f71427d1e84f3dd0314c0f7b2291e5b200ac8c7c3b92591a450505050565b6115aa6115a5612a86565b612499565b6115e55760405162461bcd60e51b8152600401808060200182810382526030815260200180614e916030913960400191505060405180910390fd5b600c546040516320dc9daf60e01b815260048101898152608060248301908152608483018990526001600160a01b03909316926320dc9daf928b928b928b928b928b928b928b9291906044810190606481019060a4018a60208b0280828437600083820152601f01601f19169091018581038452888152602090810191508990890280828437600083820152601f01601f19169091018581038352868152602090810191508790870280828437600081840152601f19601f8201169050808301925050509a5050505050505050505050600060405180830381600087803b1580156116cf57600080fd5b505af11580156116e3573d6000803e3d6000fd5b505050506116f087612a90565b50505050505050565b606061138f82612b77565b61170c612a86565b6008546001600160a01b0390811691161461175c576040805162461bcd60e51b81526020600482018190526024820152600080516020614faa833981519152604482015290519081900360640190fd5b600a80546001600160a01b0319166001600160a01b0392909216919091179055565b61179b838383604051806020016040528060008152506000612cb0565b505050565b6000908152600d602052604090206002015490565b81518351146117f55760405162461bcd60e51b8152600401808060200182810382526023815260200180614c9f6023913960400191505060405180910390fd5b60006117ff612a86565b90506000816001600160a01b0316876001600160a01b0316148061184857506001600160a01b0380881660009081526004602090815260408083209386168352929052205460ff165b90506118578787878787612d6c565b60005b855181101561196557600086828151811061187157fe5b60200260200101519050600086838151811061188957fe5b6020026020010151905061189c8261250a565b80156118a85750600081115b156118fc57836118e95760405162461bcd60e51b8152600401808060200182810382526032815260200180614dcb6032913960400191505060405180910390fd5b6118f78a8a84846000612d73565b61195b565b61190582612a69565b80156119115750806001145b15611924576118f78a8a84876000612ec1565b60405162461bcd60e51b8152600401808060200182810382526026815260200180614c536026913960400191505060405180910390fd5b505060010161185a565b50856001600160a01b0316876001600160a01b0316836001600160a01b03167f4a39dc06d4c0dbc64b70af90fd698a233a518aa5d07e595d983b8c0526c8f7fb8888604051808060200180602001838103835285818151815260200191508051906020019060200280838360005b838110156119eb5781810151838201526020016119d3565b50505050905001838103825284818151815260200191508051906020019060200280838360005b83811015611a2a578181015183820152602001611a12565b5050505090500194505050505060405180910390a46116f0878787878761301e565b6000828152600d6020526040902060020154611a6f90611a6a612a86565b6122d1565b611aaa5760405162461bcd60e51b815260040180806020018281038252602f815260200180614b1b602f913960400191505060405180910390fd5b611ab48282613227565b5050565b611ac0612a86565b6001600160a01b0316816001600160a01b031614611b0f5760405162461bcd60e51b815260040180806020018281038252602f81526020018061514e602f913960400191505060405180910390fd5b611ab48282613296565b61179b838383604051806020016040528060008152506001612cb0565b611b416115a5612a86565b611b7c5760405162461bcd60e51b8152600401808060200182810382526030815260200180614e916030913960400191505060405180910390fd5b611bfa8686868080602002602001604051908101604052809392919081815260200183836020028082843760009201919091525050604080516020808a028281018201909352898252909350899250889182918501908490808284376000920182905250604080516020810190915290815292508791506133059050565b505050505050565b60608151835114611c445760405162461bcd60e51b8152600401808060200182810382526023815260200180614c9f6023913960400191505060405180910390fd5b6060835167ffffffffffffffff81118015611c5e57600080fd5b50604051908082528060200260200182016040528015611c88578160200160208202803683370190505b50905060005b8451811015611df25760006001600160a01b0316858281518110611cae57fe5b60200260200101516001600160a01b03161415611cfc5760405162461bcd60e51b8152600401808060200182810382526024815260200180614f096024913960400191505060405180910390fd5b6000848281518110611d0a57fe5b60200260200101519050611d1d81612a69565b15611d8657858281518110611d2e57fe5b602090810291909101810151600083815260039092526040909120546001600160a01b03908116911614611d63576000611d66565b60015b60ff16838381518110611d7557fe5b602002602001018181525050611de9565b600260008281526020019081526020016000206000878481518110611da757fe5b60200260200101516001600160a01b03166001600160a01b0316815260200190815260200160002054838381518110611ddc57fe5b6020026020010181815250505b50600101611c8e565b509392505050565b6000908152600360205260409020546001600160a01b0316151590565b600061138f8261359d565b611e2a612a86565b6008546001600160a01b03908116911614611e7a576040805162461bcd60e51b81526020600482018190526024820152600080516020614faa833981519152604482015290519081900360640190fd5b6001600160a01b038116611ebf5760405162461bcd60e51b815260040180806020018281038252602e815260200180614f7c602e913960400191505060405180910390fd5b6001600160a01b038116301415611f075760405162461bcd60e51b8152600401808060200182810382526031815260200180614bf86031913960400191505060405180910390fd5b6009546001600160a01b0382811691161415611f545760405162461bcd60e51b8152600401808060200182810382526023815260200180614ee66023913960400191505060405180910390fd5b600980546001600160a01b0319166001600160a01b03838116919091179182905560408051929091168252517fdd880d24a789958a6398c99c2e54ce31bc10a638cbc42f7dd34285479ae0f855916020908290030190a150565b60006001600160a01b038216611ff55760405162461bcd60e51b815260040180806020018281038252602c815260200180614e40602c913960400191505060405180910390fd5b506001600160a01b031660009081526006602052604090205490565b612019612a86565b6008546001600160a01b03908116911614612069576040805162461bcd60e51b81526020600482018190526024820152600080516020614faa833981519152604482015290519081900360640190fd5b6008546040516000916001600160a01b0316907f8be0079c531659141344cd1fd0a4f28419497f9722a3daafe3b4186f6b6457e0908390a3600880546001600160a01b0319169055565b6007546001600160a01b03165b90565b6120cb612a86565b6008546001600160a01b0390811691161461211b576040805162461bcd60e51b81526020600482018190526024820152600080516020614faa833981519152604482015290519081900360640190fd5b61179b600e8383614a3e565b60006121316120b3565b6001600160a01b0316336001600160a01b0316146121805760405162461bcd60e51b81526004018080602001828103825260248152602001806150656024913960400191505060405180910390fd5b61138f82613637565b600060606103e861219c84600b54613782565b816121a357fe5b600a54604080516370a0823160e01b81526001600160a01b038f81166004830152915194909304939116916370a08231916024808301926020929190829003018186803b1580156121f357600080fd5b505afa158015612207573d6000803e3d6000fd5b505050506040513d602081101561221d57600080fd5b505110156122385761222f60006137db565b91509150612280565b604080516001600160a01b038c166020820152808201859052606081018a905260808082018a90528251808303909101815260a090910190915261227b906137f3565b915091505b995099975050505050505050565b6009546001600160a01b031681565b6008546001600160a01b031690565b6000828152600d602052604081206122ca908363ffffffff6137f816565b9392505050565b6000828152600d602052604081206122ca908363ffffffff61380416565b60405180604001604052806006815260200165149155958b5560d21b81525081565b61231c6115a5612a86565b6123575760405162461bcd60e51b8152600401808060200182810382526030815260200180614e916030913960400191505060405180910390fd5b61236081612499565b1561239c5760405162461bcd60e51b815260040180806020018281038252602981526020018061500f6029913960400191505060405180910390fd5b6123a7600082611a4c565b6040516001600160a01b038216907f6ae172837ea30b801fbfcdd4108aa1d5bf8ff775444fd70256b44e6bf3dfc3f690600090a250565b6123e96115a5612a86565b6124245760405162461bcd60e51b8152600401808060200182810382526030815260200180614e916030913960400191505060405180910390fd5b6124366000612431612a86565b611ab8565b61243e612a86565b6001600160a01b03167fe94479a9f7e1952cc78f2d6baab678adc1b772d936c6583def489e524cb6669260405160405180910390a2565b600c546001600160a01b031681565b600081565b611ab48282613819565b600b5481565b60006001600160a01b0382166124e05760405162461bcd60e51b8152600401808060200182810382526029815260200180614cf16029913960400191505060405180910390fd5b61138f6000836122d1565b6040805180820190915260058152640312e302e360dc1b602082015290565b600160ff1b161590565b612522848484846001612cb0565b50505050565b612530612a86565b6008546001600160a01b03908116911614612580576040805162461bcd60e51b81526020600482018190526024820152600080516020614faa833981519152604482015290519081900360640190fd5b600b55565b61258d612a86565b6008546001600160a01b039081169116146125dd576040805162461bcd60e51b81526020600482018190526024820152600080516020614faa833981519152604482015290519081900360640190fd5b611ab482826138e4565b60006125f282612a69565b61262d5760405162461bcd60e51b8152600401808060200182810382526027815260200180614d746027913960400191505060405180910390fd5b506001541690565b606061264082611dfa565b61267b5760405162461bcd60e51b815260040180806020018281038252602e815260200180614f4e602e913960400191505060405180910390fd5b61138f82612b77565b600a546001600160a01b031681565b6000818152600d6020526040812061138f9061394b565b6000828152600d60205260409020600201546126c890611a6a612a86565b611b0f5760405162461bcd60e51b8152600401808060200182810382526030815260200180614d9b6030913960400191505060405180910390fd5b61270b612a86565b6008546001600160a01b0390811691161461275b576040805162461bcd60e51b81526020600482018190526024820152600080516020614faa833981519152604482015290519081900360640190fd5b61276481613956565b50565b61276f6120b3565b6001600160a01b0316336001600160a01b0316146127be5760405162461bcd60e51b81526004018080602001828103825260248152602001806150656024913960400191505060405180910390fd5b61252284848484613a2c565b60006122ca8383613ba2565b60006127e0612a86565b90506000816001600160a01b0316876001600160a01b0316148061282957506001600160a01b0380881660009081526004602090815260408083209386168352929052205460ff165b90506128388787878787612d6c565b6128418561250a565b801561284d5750600084115b156128a1578061288e5760405162461bcd60e51b815260040180806020018281038252602a815260200180614c29602a913960400191505060405180910390fd5b61289c878787876000612d73565b6128c9565b6128aa85612a69565b80156128b65750836001145b156119245761289c878787846000612ec1565b856001600160a01b0316876001600160a01b0316836001600160a01b0316600080516020614b4a8339815191528888604051808381526020018281526020019250505060405180910390a46116f08787878787613bd0565b612929612a86565b6008546001600160a01b03908116911614612979576040805162461bcd60e51b81526020600482018190526024820152600080516020614faa833981519152604482015290519081900360640190fd5b6001600160a01b0381166129be5760405162461bcd60e51b8152600401808060200182810382526026815260200180614c796026913960400191505060405180910390fd5b6008546040516001600160a01b038084169216907f8be0079c531659141344cd1fd0a4f28419497f9722a3daafe3b4186f6b6457e090600090a3600880546001600160a01b0319166001600160a01b0392909216919091179055565b6000612a24612a29565b905090565b6007546000906001600160a01b03163314612a455750336120c0565b612a4d613d5d565b90506120c0565b60006122ca836001600160a01b038416613daa565b6000600160ff1b82161580159061138f5750506001541916151590565b6000612a24612a1a565b612a9981612a69565b15612ad55760405162461bcd60e51b8152600401808060200182810382526028815260200180614d1a6028913960400191505060405180910390fd5b807f6bb7ff708619ba0610cba295a58592e0451dee2622938c8755667688daf3529b612b0083612b77565b6040805160208082528351818301528351919283929083019185019080838360005b83811015612b3a578181015183820152602001612b22565b50505050905090810190601f168015612b675780820380516001836020036101000a031916815260200191505b509250505060405180910390a250565b6060600e612b8483613df4565b6040516020018083805460018160011615610100020316600290048015612be25780601f10612bc0576101008083540402835291820191612be2565b820191906000526020600020905b815481529060010190602001808311612bce575b5050825160208401908083835b60208310612c0e5780518252601f199092019160209182019101612bef565b6001836020036101000a038019825116818451168082178552505050505050905001925050506040516020818303038152906040526040516020018082805190602001908083835b60208310612c755780518252601f199092019160209182019101612c56565b6001836020036101000a0380198251168184511680821785525050505050509050019150506040516020818303038152906040529050919050565b6000612cba612a86565b90506000816001600160a01b0316876001600160a01b03161480612d0357506001600160a01b0380881660009081526004602090815260408083209386168352929052205460ff165b9050612d13878787846000612ec1565b856001600160a01b0316876001600160a01b0316836001600160a01b0316600080516020614b4a833981519152886001604051808381526020018281526020019250505060405180910390a46116f08787878787613ecf565b5050505050565b8015612dc4576001600160a01b03841615612dbf5760405162461bcd60e51b8152600401808060200182810382526023815260200180614b6a6023913960400191505060405180910390fd5b612e09565b6001600160a01b038416612e095760405162461bcd60e51b8152600401808060200182810382526025815260200180614e6c6025913960400191505060405180910390fd5b60008381526002602090815260408083206001600160a01b0389168452909152902054612e3c908363ffffffff61407b16565b60008481526002602090815260408083206001600160a01b038a16845290915290205580612d6c5760008381526002602090815260408083206001600160a01b0388168452909152902054612e97908363ffffffff6140bd16565b60008481526002602090815260408083206001600160a01b03891684529091529020555050505050565b8180612eee5750612ed0612a86565b6000848152600560205260409020546001600160a01b039081169116145b612f295760405162461bcd60e51b8152600401808060200182810382526024815260200180614bb16024913960400191505060405180910390fd5b600083815260056020908152604080832080546001600160a01b03191690556001600160a01b03881683526006909152902054612f6d90600163ffffffff61407b16565b6001600160a01b03861660009081526006602052604090205580612fcf576001600160a01b038416600090815260066020526040902054612fb590600163ffffffff6140bd16565b6001600160a01b0385166000908152600660205260409020555b82846001600160a01b0316866001600160a01b03167fddf252ad1be2c89b69c2b068fc378daa952ba7f163c4a11628f55a4df523b3ef60405160405180910390a4612d6c858585600185614117565b613030846001600160a01b031661432e565b61303957612d6c565b6000846001600160a01b031663bc197c81613052612a86565b888787876040518663ffffffff1660e01b815260040180866001600160a01b03166001600160a01b03168152602001856001600160a01b03166001600160a01b03168152602001806020018060200180602001848103845287818151815260200191508051906020019060200280838360005b838110156130dd5781810151838201526020016130c5565b50505050905001848103835286818151815260200191508051906020019060200280838360005b8381101561311c578181015183820152602001613104565b50505050905001848103825285818151815260200191508051906020019080838360005b83811015613158578181015183820152602001613140565b50505050905090810190601f1680156131855780820380516001836020036101000a031916815260200191505b5098505050505050505050602060405180830381600087803b1580156131aa57600080fd5b505af11580156131be573d6000803e3d6000fd5b505050506040513d60208110156131d457600080fd5b505190506001600160e01b0319811663bc197c8160e01b14611bfa5760405162461bcd60e51b815260040180806020018281038252602f815260200180614cc2602f913960400191505060405180910390fd5b6000828152600d60205260409020613245908263ffffffff612a5416565b15611ab457613252612a86565b6001600160a01b0316816001600160a01b0316837f2f8788117e7eff1d82e926ec794901d17c78024a50270940304540a733656f0d60405160405180910390a45050565b6000828152600d602052604090206132b4908263ffffffff61433416565b15611ab4576132c1612a86565b6001600160a01b0316816001600160a01b0316837ff6391f5c32d9c69d2a47ea670b442974b53935d1edc7fd64eb21e047a839171b60405160405180910390a45050565b82518451146133455760405162461bcd60e51b8152600401808060200182810382526023815260200180614c9f6023913960400191505060405180910390fd5b6001600160a01b03851661338a5760405162461bcd60e51b8152600401808060200182810382526024815260200180614b8d6024913960400191505060405180910390fd5b600160005b85518110156134b0576133b48682815181106133a757fe5b6020026020010151612a69565b80156133d357508481815181106133c757fe5b60200260200101516001145b156133fd576133f8878783815181106133e857fe5b6020026020010151868686614349565b6134a8565b61341986828151811061340c57fe5b602002602001015161250a565b80156134385750600085828151811061342e57fe5b6020026020010151115b15613471576133f88787838151811061344d57fe5b602002602001015187848151811061346157fe5b60200260200101518787876143c7565b60405162461bcd60e51b8152600401808060200182810382526025815260200180614ec16025913960400191505060405180910390fd5b60010161338f565b506001600160a01b03861660006134c5612a86565b6001600160a01b03167f4a39dc06d4c0dbc64b70af90fd698a233a518aa5d07e595d983b8c0526c8f7fb8888604051808060200180602001838103835285818151815260200191508051906020019060200280838360005b8381101561353557818101518382015260200161351d565b50505050905001838103825284818151815260200191508051906020019060200280838360005b8381101561357457818101518382015260200161355c565b5050505090500194505050505060405180910390a48115611bfa57611bfa60008787878761301e565b60006135a882612a69565b6135e35760405162461bcd60e51b815260040180806020018281038252602281526020018061510a6022913960400191505060405180910390fd5b6000828152600360205260409020546001600160a01b03168061138f5760405162461bcd60e51b815260040180806020018281038252602281526020018061512c6022913960400191505060405180910390fd5b600080600083806020019051604081101561365157600080fd5b508051602090910151600a54600954600b549395509193506001600160a01b03908116926323b872dd92869216906103e89061368e908790613782565b8161369557fe5b046040518463ffffffff1660e01b815260040180846001600160a01b03166001600160a01b03168152602001836001600160a01b03166001600160a01b031681526020018281526020019350505050602060405180830381600087803b1580156136fe57600080fd5b505af1158015613712573d6000803e3d6000fd5b505050506040513d602081101561372857600080fd5b505161377b576040805162461bcd60e51b815260206004820152601c60248201527f4552433230466565733a207072652d636861726765206661696c656400000000604482015290519081900360640190fd5b5050919050565b6000826137915750600061138f565b8282028284828161379e57fe5b04146122ca5760405162461bcd60e51b8152600401808060200182810382526021815260200180614f2d6021913960400191505060405180910390fd5b604080516020810190915260008152600b9190910191565b600091565b60006122ca838361457c565b60006122ca836001600160a01b0384166145e0565b6000613823612a86565b9050806001600160a01b0316836001600160a01b031614156138765760405162461bcd60e51b8152600401808060200182810382526023815260200180614bd56023913960400191505060405180910390fd5b6001600160a01b03818116600081815260046020908152604080832094881680845294825291829020805460ff1916871515908117909155825190815291517f17307eab39ab6107e8899845ad3d59bd9653f200f220920489ca2b5937696c319281900390910190a3505050565b60075460408051627b8a6760e11b8152600481018590526001600160a01b0384811660248301529151919092169162f714ce91604480830192600092919082900301818387803b15801561393757600080fd5b505af1158015611bfa573d6000803e3d6000fd5b600061138f826145f8565b604080516301ffc9a760e01b81526347711ad760e11b600482015290516001600160a01b038316916301ffc9a7916024808301926020929190829003018186803b1580156139a357600080fd5b505afa1580156139b7573d6000803e3d6000fd5b505050506040513d60208110156139cd57600080fd5b5051613a0a5760405162461bcd60e51b8152600401808060200182810382526043815260200180614dfd6043913960600191505060405180910390fd5b600c80546001600160a01b0319166001600160a01b0392909216919091179055565b600080600080878060200190516080811015613a4757600080fd5b50805160208201516040830151606090930151919650945090925090506000613a7f613a78620186a061271061407b565b83856145fc565b9050613a8b878261407b565b600a546009549198506001600160a01b03908116916323b872dd9116876103e8613ac0613ab88a8e61407b565b600b54613782565b81613ac757fe5b046040518463ffffffff1660e01b815260040180846001600160a01b03166001600160a01b03168152602001836001600160a01b03166001600160a01b031681526020018281526020019350505050602060405180830381600087803b158015613b3057600080fd5b505af1158015613b44573d6000803e3d6000fd5b505050506040513d6020811015613b5a57600080fd5b5051613b975760405162461bcd60e51b8152600401808060200182810382526022815260200180614ad76022913960400191505060405180910390fd5b505050505050505050565b6001600160a01b03918216600090815260046020908152604080832093909416825291909152205460ff1690565b613be2846001600160a01b031661432e565b613beb57612d6c565b6000846001600160a01b031663f23a6e61613c04612a86565b888787876040518663ffffffff1660e01b815260040180866001600160a01b03166001600160a01b03168152602001856001600160a01b03166001600160a01b0316815260200184815260200183815260200180602001828103825283818151815260200191508051906020019080838360005b83811015613c90578181015183820152602001613c78565b50505050905090810190601f168015613cbd5780820380516001836020036101000a031916815260200191505b509650505050505050602060405180830381600087803b158015613ce057600080fd5b505af1158015613cf4573d6000803e3d6000fd5b505050506040513d6020811015613d0a57600080fd5b505190506001600160e01b0319811663f23a6e6160e01b14611bfa5760405162461bcd60e51b815260040180806020018281038252602f815260200180614cc2602f913960400191505060405180910390fd5b600060606000368080601f0160208091040260200160405190810160405280939291908181526020018383808284376000920191909152505050503601516001600160a01b031692915050565b6000613db683836145e0565b613dec5750815460018181018455600084815260208082209093018490558454848252828601909352604090209190915561138f565b50600061138f565b606081613e1957506040805180820190915260018152600360fc1b60208201526113b3565b8160005b8115613e3157600101600a82049150613e1d565b60608167ffffffffffffffff81118015613e4a57600080fd5b506040519080825280601f01601f191660200182016040528015613e75576020820181803683370190505b50859350905060001982015b8315613ec657600a840660300160f81b82828060019003935081518110613ea457fe5b60200101906001600160f81b031916908160001a905350600a84049350613e81565b50949350505050565b613ee1846001600160a01b031661432e565b613eea57612d6c565b613ef38461460a565b15613f0b57613f06858585600186613bd0565b612d6c565b8015612d6c576000846001600160a01b031663150b7a02613f2a612a86565b8887876040518563ffffffff1660e01b815260040180856001600160a01b03166001600160a01b03168152602001846001600160a01b03166001600160a01b0316815260200183815260200180602001828103825283818151815260200191508051906020019080838360005b83811015613faf578181015183820152602001613f97565b50505050905090810190601f168015613fdc5780820380516001836020036101000a031916815260200191505b5095505050505050602060405180830381600087803b158015613ffe57600080fd5b505af1158015614012573d6000803e3d6000fd5b505050506040513d602081101561402857600080fd5b505190506001600160e01b03198116630a85bd0160e11b14611bfa5760405162461bcd60e51b8152600401808060200182810382526032815260200180614d426032913960400191505060405180910390fd5b60006122ca83836040518060400160405280601e81526020017f536166654d6174683a207375627472616374696f6e206f766572666c6f770000815250614663565b6000828201838110156122ca576040805162461bcd60e51b815260206004820152601b60248201527f536166654d6174683a206164646974696f6e206f766572666c6f770000000000604482015290519081900360640190fd5b8015614168576001600160a01b038416156141635760405162461bcd60e51b8152600401808060200182810382526023815260200180614b6a6023913960400191505060405180910390fd5b6141ad565b6001600160a01b0384166141ad5760405162461bcd60e51b8152600401808060200182810382526025815260200180614e6c6025913960400191505060405180910390fd5b6000838152600360205260409020546001600160a01b038681169116146142055760405162461bcd60e51b8152600401808060200182810382526024815260200180614bb16024913960400191505060405180910390fd5b816142415760405162461bcd60e51b815260040180806020018281038252602a815260200180614c29602a913960400191505060405180910390fd5b60018054841660008181526002602090815260408083206001600160a01b038b168452909152902054909161427c919063ffffffff61407b16565b60008281526002602090815260408083206001600160a01b038b168452909152902055816142fc5760008181526002602090815260408083206001600160a01b03891684529091529020546142d890600163ffffffff6140bd16565b60008281526002602090815260408083206001600160a01b038a1684529091529020555b505050600090815260036020526040902080546001600160a01b0319166001600160a01b039290921691909117905550565b3b151590565b60006122ca836001600160a01b0384166146fa565b6001600160a01b03851660009081526006602052604090205461437390600163ffffffff6140bd16565b6001600160a01b0386166000818152600660205260408082209390935591518692907fddf252ad1be2c89b69c2b068fc378daa952ba7f163c4a11628f55a4df523b3ef908290a4612d6c85858585856147c0565b806144b8576001600160a01b0386166144115760405162461bcd60e51b8152600401808060200182810382526024815260200180614b8d6024913960400191505060405180910390fd5b60008411614466576040805162461bcd60e51b815260206004820152601b60248201527f455243313135353a206d696e74696e67207a65726f2076616c75650000000000604482015290519081900360640190fd5b61446f8561250a565b6144aa5760405162461bcd60e51b81526004018080602001828103825260348152602001806150d66034913960400191505060405180910390fd5b6144b8600087878787612d6c565b60008581526002602090815260408083206001600160a01b038a1684529091529020546144eb908563ffffffff6140bd16565b60008681526002602090815260408083206001600160a01b038b1684529091529020558061455e576001600160a01b0386166000614527612a86565b6001600160a01b0316600080516020614b4a8339815191528888604051808381526020018281526020019250505060405180910390a45b818015614569575080155b15611bfa57611bfa600087878787613bd0565b815460009082106145be5760405162461bcd60e51b8152600401808060200182810382526022815260200180614af96022913960400191505060405180910390fd5b8260000182815481106145cd57fe5b9060005260206000200154905092915050565b60009081526001919091016020526040902054151590565b5490565b606490810191909202020490565b6040516301ffc9a760e01b808252630271189760e51b600483018190526000928392839290916020816024818a612710fa94508051935050609e5a1161464c57fe5b8380156146595750826001145b9695505050505050565b600081848411156146f25760405162461bcd60e51b81526004018080602001828103825283818151815260200191508051906020019080838360005b838110156146b757818101518382015260200161469f565b50505050905090810190601f1680156146e45780820380516001836020036101000a031916815260200191505b509250505060405180910390fd5b505050900390565b600081815260018301602052604081205480156147b6578354600019808301919081019060009087908390811061472d57fe5b906000526020600020015490508087600001848154811061474a57fe5b60009182526020808320909101929092558281526001898101909252604090209084019055865487908061477a57fe5b6001900381819060005260206000200160009055905586600101600087815260200190815260200160002060009055600194505050505061138f565b600091505061138f565b6147c984611dfa565b1561481b576040805162461bcd60e51b815260206004820152601f60248201527f455243313135353a206d696e74696e6720616e206578697374696e6720696400604482015290519081900360640190fd5b806148b8576001600160a01b0385166148655760405162461bcd60e51b8152600401808060200182810382526024815260200180614b8d6024913960400191505060405180910390fd5b61486e84612a69565b6148a95760405162461bcd60e51b81526004018080602001828103825260248152602001806150896024913960400191505060405180910390fd5b6148b860008686600187612d6c565b60018054600086815260036020908152604080832080546001600160a01b0319166001600160a01b038c169081179091559389168084526002835281842094845293909152902054909161490c91906140bd565b60008281526002602090815260408083206001600160a01b038b16845290915290205581614980576001600160a01b0386166000614948612a86565b6001600160a01b0316600080516020614b4a833981519152886001604051808381526020018281526020019250505060405180910390a45b847f6bb7ff708619ba0610cba295a58592e0451dee2622938c8755667688daf3529b6149ab87612b77565b6040805160208082528351818301528351919283929083019185019080838360005b838110156149e55781810151838201526020016149cd565b50505050905090810190601f168015614a125780820380516001836020036101000a031916815260200191505b509250505060405180910390a2828015614a2a575081155b15611bfa57611bfa60008787600188613bd0565b828054600181600116156101000203166002900490600052602060002090601f016020900481019282601f10614a7f5782800160ff19823516178555614aac565b82800160010185558215614aac579182015b82811115614aac578235825591602001919060010190614a91565b50614ab8929150614abc565b5090565b6120c091905b80821115614ab85760008155600101614ac256fe4552433230466565733a2073656e64206261636b206368616e6765206661696c6564456e756d657261626c655365743a20696e646578206f7574206f6620626f756e6473416363657373436f6e74726f6c3a2073656e646572206d75737420626520616e2061646d696e20746f206772616e74c3d58168c5ae7397731d063d5bbf3d657854427343f4c083240f7aacaa2d0f62455243313135353a206275726e20746f2061206e6f6e2d7a65726f2061646472657373455243313135353a206d696e74696e6720746f20746865207a65726f2061646472657373455243313135353a207472616e73666572206f662061206e6f6e2d6f776e6564204e4654455243313135353a2073657474696e6720617070726f76616c20746f2063616c6c6572546865207061796f75742077616c6c6574206d757374206e6f742062652074686520636f6e747261637420697473656c66455243313135353a207472616e736665722062792061206e6f6e2d617070726f7665642073656e646572455243313135353a20696e636f7272656374207472616e7366657220706172616d65746572734f776e61626c653a206e6577206f776e657220697320746865207a65726f2061646472657373455243313135353a20696e636f6e73697374656e74206172726179206c656e67746873455243313135353a20726563656976657220636f6e7472616374207265667573656420746865207472616e736665724d696e746572526f6c653a2061646472657373207a65726f2063616e6e6f74206265206d696e746572455243313135353a2063726561746520636f6c6c656374696f6e20776974682077726f6e67206964417373657473496e76656e746f72793a2077726f6e672045524337323152656365697665722072657475726e2076616c7565455243313135353a20636f6c6c656374696f6e206f6620696e636f7272656374204e4654206964416363657373436f6e74726f6c3a2073656e646572206d75737420626520616e2061646d696e20746f207265766f6b65417373657473496e76656e746f72793a207472616e736665722062792061206e6f6e2d617070726f7665642073656e646572436f72654d6574616461746144656c656761746f723a20696d706c656d656e74657220646f6573206e6f7420696d706c656d656e742049436f72654d65746164617461417373657473496e76656e746f72793a2062616c616e6365206f6620746865207a65726f2061646472657373455243313135353a207472616e7366657220746f20746865207a65726f20616464726573734d696e746572526f6c653a2063616c6c657220646f6573206e6f74206861766520746865204d696e74657220726f6c65455243313135353a20696e636f7272656374206d696e74696e6720706172616d6574657273546865207061796f75742077616c6c6574206d75737420626520646966666572656e74455243313135353a2062616c616e6365206f6620746865207a65726f2061646472657373536166654d6174683a206d756c7469706c69636174696f6e206f766572666c6f77417373657473496e76656e746f72793a20746f6b656e20555249206f66206e6f6e2d6578697374696e67204e4654546865207061796f75742077616c6c6574206d757374206e6f7420626520746865207a65726f20616464726573734f776e61626c653a2063616c6c6572206973206e6f7420746865206f776e6572417373657473496e76656e746f72793a2067657474696e6720617070726f76616c206f6620616e20696e636f7272656374206f72206e6f6e2d6578697374696e67204e46544d696e746572526f6c653a2061646420616e206163636f756e7420616c7265616479206d696e746572417373657473496e76656e746f72793a20617070726f7665206279206e6f6e2d6f70657261746f72207573657247534e526563697069656e743a2063616c6c6572206973206e6f742052656c6179487562455243313135353a206d696e74696e6720616e20696e636f7272656374204e4654206964417373657473496e76656e746f72793a20617070726f766520746f20617070726f7665642075736572455243313135353a206d696e74696e6720616e20696e636f72726563742066756e6769626c6520636f6c6c656374696f6e206964455243313135353a206f776e6572206f6620696e636f7272656374204e4654206964455243313135353a206f776e6572206f66206e6f6e2d6578697374696e67204e4654416363657373436f6e74726f6c3a2063616e206f6e6c792072656e6f756e636520726f6c657320666f722073656c66a2646970667358221220f741ce805b013d1a13a814ca448ff6dcb4f211d0e2bca1e15841c1eac6cd2c1064736f6c63430006080033546865207061796f75742077616c6c6574206d757374206e6f742062652074686520636f6e747261637420697473656c6668747470733a2f2f726576766d6f746f7273706f72742e636f6d2f74726f70686965732f6a736f6e2f546865207061796f75742077616c6c6574206d75737420626520646966666572656e74546865207061796f75742077616c6c6574206d757374206e6f7420626520746865207a65726f20616464726573734f776e61626c653a2063616c6c6572206973206e6f7420746865206f776e6572455243313135353a20696e636f7272656374206e6f6e2d66756769626c65206d61736b206c656e677468",
  "linkReferences": {},
  "deployedLinkReferences": {}
}