{
  "_format": "hh-sol-artifact-1",
  "contractName": "ERC20MintableMock",
  "sourceName": "contracts/solc-0.6/token/ERC20/ERC20Mock.sol",
  "abi": [
    {
      "inputs": [
        {
          "internalType": "address[]",
          "name": "tos",
          "type": "address[]"
        },
        {
          "internalType": "uint256[]",
          "name": "amounts",
          "type": "uint256[]"
        }
      ],
      "stateMutability": "nonpayable",
      "type": "constructor"
    },
    {
      "anonymous": false,
      "inputs": [
        {
          "indexed": true,
          "internalType": "address",
          "name": "_owner",
          "type": "address"
        },
        {
          "indexed": true,
          "internalType": "address",
          "name": "_spender",
          "type": "address"
        },
        {
          "indexed": false,
          "internalType": "uint256",
          "name": "_value",
          "type": "uint256"
        }
      ],
      "name": "Approval",
      "type": "event"
    },
    {
      "anonymous": false,
      "inputs": [
        {
          "indexed": true,
          "internalType": "address",
          "name": "previousOwner",
          "type": "address"
        },
        {
          "indexed": true,
          "internalType": "address",
          "name": "newOwner",
          "type": "address"
        }
      ],
      "name": "OwnershipTransferred",
      "type": "event"
    },
    {
      "anonymous": false,
      "inputs": [
        {
          "indexed": true,
          "internalType": "address",
          "name": "_from",
          "type": "address"
        },
        {
          "indexed": true,
          "internalType": "address",
          "name": "_to",
          "type": "address"
        },
        {
          "indexed": false,
          "internalType": "uint256",
          "name": "_value",
          "type": "uint256"
        }
      ],
      "name": "Transfer",
      "type": "event"
    },
    {
      "inputs": [
        {
          "internalType": "address",
          "name": "owner",
          "type": "address"
        },
        {
          "internalType": "address",
          "name": "spender",
          "type": "address"
        }
      ],
      "name": "allowance",
      "outputs": [
        {
          "internalType": "uint256",
          "name": "",
          "type": "uint256"
        }
      ],
      "stateMutability": "view",
      "type": "function"
    },
    {
      "inputs": [
        {
          "internalType": "address",
          "name": "spender",
          "type": "address"
        },
        {
          "internalType": "uint256",
          "name": "amount",
          "type": "uint256"
        }
      ],
      "name": "approve",
      "outputs": [
        {
          "internalType": "bool",
          "name": "",
          "type": "bool"
        }
      ],
      "stateMutability": "nonpayable",
      "type": "function"
    },
    {
      "inputs": [
        {
          "internalType": "address",
          "name": "account",
          "type": "address"
        }
      ],
      "name": "balanceOf",
      "outputs": [
        {
          "internalType": "uint256",
          "name": "",
          "type": "uint256"
        }
      ],
      "stateMutability": "view",
      "type": "function"
    },
    {
      "inputs": [
        {
          "internalType": "address[]",
          "name": "tos",
          "type": "address[]"
        },
        {
          "internalType": "uint256[]",
          "name": "amounts",
          "type": "uint256[]"
        }
      ],
      "name": "batchMint",
      "outputs": [],
      "stateMutability": "nonpayable",
      "type": "function"
    },
    {
      "inputs": [],
      "name": "decimals",
      "outputs": [
        {
          "internalType": "uint8",
          "name": "",
          "type": "uint8"
        }
      ],
      "stateMutability": "view",
      "type": "function"
    },
    {
      "inputs": [
        {
          "internalType": "address",
          "name": "spender",
          "type": "address"
        },
        {
          "internalType": "uint256",
          "name": "subtractedValue",
          "type": "uint256"
        }
      ],
      "name": "decreaseAllowance",
      "outputs": [
        {
          "internalType": "bool",
          "name": "",
          "type": "bool"
        }
      ],
      "stateMutability": "nonpayable",
      "type": "function"
    },
    {
      "inputs": [
        {
          "internalType": "address",
          "name": "spender",
          "type": "address"
        },
        {
          "internalType": "uint256",
          "name": "addedValue",
          "type": "uint256"
        }
      ],
      "name": "increaseAllowance",
      "outputs": [
        {
          "internalType": "bool",
          "name": "",
          "type": "bool"
        }
      ],
      "stateMutability": "nonpayable",
      "type": "function"
    },
    {
      "inputs": [],
      "name": "name",
      "outputs": [
        {
          "internalType": "string",
          "name": "",
          "type": "string"
        }
      ],
      "stateMutability": "view",
      "type": "function"
    },
    {
      "inputs": [],
      "name": "owner",
      "outputs": [
        {
          "internalType": "address",
          "name": "",
          "type": "address"
        }
      ],
      "stateMutability": "view",
      "type": "function"
    },
    {
      "inputs": [],
      "name": "renounceOwnership",
      "outputs": [],
      "stateMutability": "nonpayable",
      "type": "function"
    },
    {
      "inputs": [
        {
          "internalType": "bytes4",
          "name": "interfaceId",
          "type": "bytes4"
        }
      ],
      "name": "supportsInterface",
      "outputs": [
        {
          "internalType": "bool",
          "name": "",
          "type": "bool"
        }
      ],
      "stateMutability": "view",
      "type": "function"
    },
    {
      "inputs": [],
      "name": "symbol",
      "outputs": [
        {
          "internalType": "string",
          "name": "",
          "type": "string"
        }
      ],
      "stateMutability": "view",
      "type": "function"
    },
    {
      "inputs": [],
      "name": "totalSupply",
      "outputs": [
        {
          "internalType": "uint256",
          "name": "",
          "type": "uint256"
        }
      ],
      "stateMutability": "view",
      "type": "function"
    },
    {
      "inputs": [
        {
          "internalType": "address",
          "name": "recipient",
          "type": "address"
        },
        {
          "internalType": "uint256",
          "name": "amount",
          "type": "uint256"
        }
      ],
      "name": "transfer",
      "outputs": [
        {
          "internalType": "bool",
          "name": "",
          "type": "bool"
        }
      ],
      "stateMutability": "nonpayable",
      "type": "function"
    },
    {
      "inputs": [
        {
          "internalType": "address",
          "name": "sender",
          "type": "address"
        },
        {
          "internalType": "address",
          "name": "recipient",
          "type": "address"
        },
        {
          "internalType": "uint256",
          "name": "amount",
          "type": "uint256"
        }
      ],
      "name": "transferFrom",
      "outputs": [
        {
          "internalType": "bool",
          "name": "",
          "type": "bool"
        }
      ],
      "stateMutability": "nonpayable",
      "type": "function"
    },
    {
      "inputs": [
        {
          "internalType": "address",
          "name": "newOwner",
          "type": "address"
        }
      ],
      "name": "transferOwnership",
      "outputs": [],
      "stateMutability": "nonpayable",
      "type": "function"
    }
  ],
  "bytecode": "0x60806040523480156200001157600080fd5b50604051620015cb380380620015cb833981810160405260408110156200003757600080fd5b81019080805160405193929190846401000000008211156200005857600080fd5b9083019060208201858111156200006e57600080fd5b82518660208202830111640100000000821117156200008c57600080fd5b82525081516020918201928201910280838360005b83811015620000bb578181015183820152602001620000a1565b5050505090500160405260200180516040519392919084640100000000821115620000e557600080fd5b908301906020820185811115620000fb57600080fd5b82518660208202830111640100000000821117156200011957600080fd5b82525081516020918201928201910280838360005b83811015620001485781810151838201526020016200012e565b505050509050016040525050506200016d6301ffc9a760e01b6200028f60201b60201c565b620001886336372b0760e01b6001600160e01b036200028f16565b620001a363a219a02560e01b6001600160e01b036200028f16565b620001be634e83a8c360e11b6001600160e01b036200028f16565b620001d96306fdde0360e01b6001600160e01b036200028f16565b620001f46395d89b4160e01b6001600160e01b036200028f16565b6200020f63313ce56760e01b6001600160e01b036200028f16565b6000620002246001600160e01b036200031416565b600480546001600160a01b0319166001600160a01b038316908117909155604051919250906000907f8be0079c531659141344cd1fd0a4f28419497f9722a3daafe3b4186f6b6457e0908290a3506200028782826001600160e01b036200031816565b5050620005be565b6001600160e01b03198082161415620002ef576040805162461bcd60e51b815260206004820152601c60248201527f4552433136353a20696e76616c696420696e7465726661636520696400000000604482015290519081900360640190fd5b6001600160e01b0319166000908152602081905260409020805460ff19166001179055565b3390565b6200032b6001600160e01b036200031416565b6004546001600160a01b039081169116146200038e576040805162461bcd60e51b815260206004820181905260248201527f4f776e61626c653a2063616c6c6572206973206e6f7420746865206f776e6572604482015290519081900360640190fd5b815181518114620003e6576040805162461bcd60e51b815260206004820152601a60248201527f45524332303a20696e636f6e73697374656e7420617272617973000000000000604482015290519081900360640190fd5b60005b8181101562000435576200042c8482815181106200040357fe5b60200260200101518483815181106200041857fe5b60200260200101516200043b60201b60201c565b600101620003e9565b50505050565b6001600160a01b03821662000497576040805162461bcd60e51b815260206004820152601f60248201527f45524332303a206d696e7420746f20746865207a65726f206164647265737300604482015290519081900360640190fd5b620004ae600083836001600160e01b036200055716565b620004ca816003546200055c60201b62000a4c1790919060201c565b6003556001600160a01b038216600090815260016020908152604090912054620004ff91839062000a4c6200055c821b17901c565b6001600160a01b03831660008181526001602090815260408083209490945583518581529351929391927fddf252ad1be2c89b69c2b068fc378daa952ba7f163c4a11628f55a4df523b3ef9281900390910190a35050565b505050565b600082820183811015620005b7576040805162461bcd60e51b815260206004820152601b60248201527f536166654d6174683a206164646974696f6e206f766572666c6f770000000000604482015290519081900360640190fd5b9392505050565b610ffd80620005ce6000396000f3fe608060405234801561001057600080fd5b50600436106101005760003560e01c806370a0823111610097578063a457c2d711610066578063a457c2d71461041e578063a9059cbb1461044a578063dd62ed3e14610476578063f2fde38b146104a457610100565b806370a08231146103c4578063715018a6146103ea5780638da5cb5b146103f257806395d89b411461041657610100565b806323b872dd116100d357806323b872dd1461021b578063313ce56714610251578063395093511461026f578063685731071461029b57610100565b806301ffc9a71461010557806306fdde0314610158578063095ea7b3146101d557806318160ddd14610201575b600080fd5b6101446004803603602081101561011b57600080fd5b50357fffffffff00000000000000000000000000000000000000000000000000000000166104ca565b604080519115158252519081900360200190f35b610160610501565b6040805160208082528351818301528351919283929083019185019080838360005b8381101561019a578181015183820152602001610182565b50505050905090810190601f1680156101c75780820380516001836020036101000a031916815260200191505b509250505060405180910390f35b610144600480360360408110156101eb57600080fd5b506001600160a01b03813516906020013561053a565b610209610557565b60408051918252519081900360200190f35b6101446004803603606081101561023157600080fd5b506001600160a01b0381358116916020810135909116906040013561055d565b6102596105ea565b6040805160ff9092168252519081900360200190f35b6101446004803603604081101561028557600080fd5b506001600160a01b0381351690602001356105ef565b6103c2600480360360408110156102b157600080fd5b8101906020810181356401000000008111156102cc57600080fd5b8201836020820111156102de57600080fd5b8035906020019184602083028401116401000000008311171561030057600080fd5b919080806020026020016040519081016040528093929190818152602001838360200280828437600092019190915250929594936020810193503591505064010000000081111561035057600080fd5b82018360208201111561036257600080fd5b8035906020019184602083028401116401000000008311171561038457600080fd5b919080806020026020016040519081016040528093929190818152602001838360200280828437600092019190915250929550610643945050505050565b005b610209600480360360208110156103da57600080fd5b50356001600160a01b031661074d565b6103c2610768565b6103fa610834565b604080516001600160a01b039092168252519081900360200190f35b610160610843565b6101446004803603604081101561043457600080fd5b506001600160a01b03813516906020013561087c565b6101446004803603604081101561046057600080fd5b506001600160a01b0381351690602001356108ea565b6102096004803603604081101561048c57600080fd5b506001600160a01b03813581169160200135166108fe565b6103c2600480360360208110156104ba57600080fd5b50356001600160a01b0316610929565b7fffffffff000000000000000000000000000000000000000000000000000000001660009081526020819052604090205460ff1690565b6040518060400160405280600581526020017f455243323000000000000000000000000000000000000000000000000000000081525081565b600061054e610547610aad565b8484610ab1565b50600192915050565b60035490565b600061056a848484610b9d565b6105e084610576610aad565b6105db85604051806060016040528060288152602001610f32602891396001600160a01b038a166000908152600260205260408120906105b4610aad565b6001600160a01b03168152602081019190915260400160002054919063ffffffff610d0616565b610ab1565b5060019392505050565b601281565b600061054e6105fc610aad565b846105db856002600061060d610aad565b6001600160a01b03908116825260208083019390935260409182016000908120918c16815292529020549063ffffffff610a4c16565b61064b610aad565b6004546001600160a01b039081169116146106ad576040805162461bcd60e51b815260206004820181905260248201527f4f776e61626c653a2063616c6c6572206973206e6f7420746865206f776e6572604482015290519081900360640190fd5b815181518114610704576040805162461bcd60e51b815260206004820152601a60248201527f45524332303a20696e636f6e73697374656e7420617272617973000000000000604482015290519081900360640190fd5b60005b818110156107475761073f84828151811061071e57fe5b602002602001015184838151811061073257fe5b6020026020010151610d9d565b600101610707565b50505050565b6001600160a01b031660009081526001602052604090205490565b610770610aad565b6004546001600160a01b039081169116146107d2576040805162461bcd60e51b815260206004820181905260248201527f4f776e61626c653a2063616c6c6572206973206e6f7420746865206f776e6572604482015290519081900360640190fd5b6004546040516000916001600160a01b0316907f8be0079c531659141344cd1fd0a4f28419497f9722a3daafe3b4186f6b6457e0908390a3600480547fffffffffffffffffffffffff0000000000000000000000000000000000000000169055565b6004546001600160a01b031690565b6040518060400160405280600381526020017f453230000000000000000000000000000000000000000000000000000000000081525081565b600061054e610889610aad565b846105db85604051806060016040528060258152602001610fa360259139600260006108b3610aad565b6001600160a01b03908116825260208083019390935260409182016000908120918d1681529252902054919063ffffffff610d0616565b600061054e6108f7610aad565b8484610b9d565b6001600160a01b03918216600090815260026020908152604080832093909416825291909152205490565b610931610aad565b6004546001600160a01b03908116911614610993576040805162461bcd60e51b815260206004820181905260248201527f4f776e61626c653a2063616c6c6572206973206e6f7420746865206f776e6572604482015290519081900360640190fd5b6001600160a01b0381166109d85760405162461bcd60e51b8152600401808060200182810382526026815260200180610ec46026913960400191505060405180910390fd5b6004546040516001600160a01b038084169216907f8be0079c531659141344cd1fd0a4f28419497f9722a3daafe3b4186f6b6457e090600090a3600480547fffffffffffffffffffffffff0000000000000000000000000000000000000000166001600160a01b0392909216919091179055565b600082820183811015610aa6576040805162461bcd60e51b815260206004820152601b60248201527f536166654d6174683a206164646974696f6e206f766572666c6f770000000000604482015290519081900360640190fd5b9392505050565b3390565b6001600160a01b038316610af65760405162461bcd60e51b8152600401808060200182810382526024815260200180610f7f6024913960400191505060405180910390fd5b6001600160a01b038216610b3b5760405162461bcd60e51b8152600401808060200182810382526022815260200180610eea6022913960400191505060405180910390fd5b6001600160a01b03808416600081815260026020908152604080832094871680845294825291829020859055815185815291517f8c5be1e5ebec7d5bd14f71427d1e84f3dd0314c0f7b2291e5b200ac8c7c3b9259281900390910190a3505050565b6001600160a01b038316610be25760405162461bcd60e51b8152600401808060200182810382526025815260200180610f5a6025913960400191505060405180910390fd5b6001600160a01b038216610c275760405162461bcd60e51b8152600401808060200182810382526023815260200180610ea16023913960400191505060405180910390fd5b610c32838383610e9b565b610c7581604051806060016040528060268152602001610f0c602691396001600160a01b038616600090815260016020526040902054919063ffffffff610d0616565b6001600160a01b038085166000908152600160205260408082209390935590841681522054610caa908263ffffffff610a4c16565b6001600160a01b0380841660008181526001602090815260409182902094909455805185815290519193928716927fddf252ad1be2c89b69c2b068fc378daa952ba7f163c4a11628f55a4df523b3ef92918290030190a3505050565b60008184841115610d955760405162461bcd60e51b81526004018080602001828103825283818151815260200191508051906020019080838360005b83811015610d5a578181015183820152602001610d42565b50505050905090810190601f168015610d875780820380516001836020036101000a031916815260200191505b509250505060405180910390fd5b505050900390565b6001600160a01b038216610df8576040805162461bcd60e51b815260206004820152601f60248201527f45524332303a206d696e7420746f20746865207a65726f206164647265737300604482015290519081900360640190fd5b610e0460008383610e9b565b600354610e17908263ffffffff610a4c16565b6003556001600160a01b038216600090815260016020526040902054610e43908263ffffffff610a4c16565b6001600160a01b03831660008181526001602090815260408083209490945583518581529351929391927fddf252ad1be2c89b69c2b068fc378daa952ba7f163c4a11628f55a4df523b3ef9281900390910190a35050565b50505056fe45524332303a207472616e7366657220746f20746865207a65726f20616464726573734f776e61626c653a206e6577206f776e657220697320746865207a65726f206164647265737345524332303a20617070726f766520746f20746865207a65726f206164647265737345524332303a207472616e7366657220616d6f756e7420657863656564732062616c616e636545524332303a207472616e7366657220616d6f756e74206578636565647320616c6c6f77616e636545524332303a207472616e736665722066726f6d20746865207a65726f206164647265737345524332303a20617070726f76652066726f6d20746865207a65726f206164647265737345524332303a2064656372656173656420616c6c6f77616e63652062656c6f77207a65726fa2646970667358221220c51119551817c095c0f5650325e395d5ef6d4f5c5123121d921552204e4dbc1164736f6c63430006080033",
  "linkReferences": {},
  "deployedLinkReferences": {}
}