{
  "_format": "hh-sol-artifact-1",
  "contractName": "ERC20WithOperatorsMintableMock",
  "sourceName": "contracts/solc-0.6/token/ERC20/ERC20Mock.sol",
  "abi": [
    {
      "inputs": [
        {
          "internalType": "address[]",
          "name": "tos",
          "type": "address[]"
        },
        {
          "internalType": "uint256[]",
          "name": "amounts",
          "type": "uint256[]"
        }
      ],
      "stateMutability": "nonpayable",
      "type": "constructor"
    },
    {
      "anonymous": false,
      "inputs": [
        {
          "indexed": true,
          "internalType": "address",
          "name": "_owner",
          "type": "address"
        },
        {
          "indexed": true,
          "internalType": "address",
          "name": "_spender",
          "type": "address"
        },
        {
          "indexed": false,
          "internalType": "uint256",
          "name": "_value",
          "type": "uint256"
        }
      ],
      "name": "Approval",
      "type": "event"
    },
    {
      "anonymous": false,
      "inputs": [
        {
          "indexed": true,
          "internalType": "address",
          "name": "previousOwner",
          "type": "address"
        },
        {
          "indexed": true,
          "internalType": "address",
          "name": "newOwner",
          "type": "address"
        }
      ],
      "name": "OwnershipTransferred",
      "type": "event"
    },
    {
      "anonymous": false,
      "inputs": [
        {
          "indexed": true,
          "internalType": "address",
          "name": "_from",
          "type": "address"
        },
        {
          "indexed": true,
          "internalType": "address",
          "name": "_to",
          "type": "address"
        },
        {
          "indexed": false,
          "internalType": "uint256",
          "name": "_value",
          "type": "uint256"
        }
      ],
      "name": "Transfer",
      "type": "event"
    },
    {
      "anonymous": false,
      "inputs": [
        {
          "indexed": false,
          "internalType": "address",
          "name": "operator",
          "type": "address"
        },
        {
          "indexed": false,
          "internalType": "bool",
          "name": "enabled",
          "type": "bool"
        }
      ],
      "name": "WhitelistedOperator",
      "type": "event"
    },
    {
      "inputs": [
        {
          "internalType": "address",
          "name": "owner",
          "type": "address"
        },
        {
          "internalType": "address",
          "name": "spender",
          "type": "address"
        }
      ],
      "name": "allowance",
      "outputs": [
        {
          "internalType": "uint256",
          "name": "",
          "type": "uint256"
        }
      ],
      "stateMutability": "view",
      "type": "function"
    },
    {
      "inputs": [
        {
          "internalType": "address",
          "name": "spender",
          "type": "address"
        },
        {
          "internalType": "uint256",
          "name": "amount",
          "type": "uint256"
        }
      ],
      "name": "approve",
      "outputs": [
        {
          "internalType": "bool",
          "name": "",
          "type": "bool"
        }
      ],
      "stateMutability": "nonpayable",
      "type": "function"
    },
    {
      "inputs": [
        {
          "internalType": "address",
          "name": "account",
          "type": "address"
        }
      ],
      "name": "balanceOf",
      "outputs": [
        {
          "internalType": "uint256",
          "name": "",
          "type": "uint256"
        }
      ],
      "stateMutability": "view",
      "type": "function"
    },
    {
      "inputs": [
        {
          "internalType": "address[]",
          "name": "tos",
          "type": "address[]"
        },
        {
          "internalType": "uint256[]",
          "name": "amounts",
          "type": "uint256[]"
        }
      ],
      "name": "batchMint",
      "outputs": [],
      "stateMutability": "nonpayable",
      "type": "function"
    },
    {
      "inputs": [],
      "name": "decimals",
      "outputs": [
        {
          "internalType": "uint8",
          "name": "",
          "type": "uint8"
        }
      ],
      "stateMutability": "view",
      "type": "function"
    },
    {
      "inputs": [
        {
          "internalType": "address",
          "name": "spender",
          "type": "address"
        },
        {
          "internalType": "uint256",
          "name": "subtractedValue",
          "type": "uint256"
        }
      ],
      "name": "decreaseAllowance",
      "outputs": [
        {
          "internalType": "bool",
          "name": "",
          "type": "bool"
        }
      ],
      "stateMutability": "nonpayable",
      "type": "function"
    },
    {
      "inputs": [
        {
          "internalType": "address",
          "name": "spender",
          "type": "address"
        },
        {
          "internalType": "uint256",
          "name": "addedValue",
          "type": "uint256"
        }
      ],
      "name": "increaseAllowance",
      "outputs": [
        {
          "internalType": "bool",
          "name": "",
          "type": "bool"
        }
      ],
      "stateMutability": "nonpayable",
      "type": "function"
    },
    {
      "inputs": [
        {
          "internalType": "address",
          "name": "who",
          "type": "address"
        }
      ],
      "name": "isOperator",
      "outputs": [
        {
          "internalType": "bool",
          "name": "",
          "type": "bool"
        }
      ],
      "stateMutability": "view",
      "type": "function"
    },
    {
      "inputs": [],
      "name": "name",
      "outputs": [
        {
          "internalType": "string",
          "name": "",
          "type": "string"
        }
      ],
      "stateMutability": "view",
      "type": "function"
    },
    {
      "inputs": [],
      "name": "owner",
      "outputs": [
        {
          "internalType": "address",
          "name": "",
          "type": "address"
        }
      ],
      "stateMutability": "view",
      "type": "function"
    },
    {
      "inputs": [],
      "name": "renounceOwnership",
      "outputs": [],
      "stateMutability": "nonpayable",
      "type": "function"
    },
    {
      "inputs": [
        {
          "internalType": "bytes4",
          "name": "interfaceId",
          "type": "bytes4"
        }
      ],
      "name": "supportsInterface",
      "outputs": [
        {
          "internalType": "bool",
          "name": "",
          "type": "bool"
        }
      ],
      "stateMutability": "view",
      "type": "function"
    },
    {
      "inputs": [],
      "name": "symbol",
      "outputs": [
        {
          "internalType": "string",
          "name": "",
          "type": "string"
        }
      ],
      "stateMutability": "view",
      "type": "function"
    },
    {
      "inputs": [],
      "name": "totalSupply",
      "outputs": [
        {
          "internalType": "uint256",
          "name": "",
          "type": "uint256"
        }
      ],
      "stateMutability": "view",
      "type": "function"
    },
    {
      "inputs": [
        {
          "internalType": "address",
          "name": "recipient",
          "type": "address"
        },
        {
          "internalType": "uint256",
          "name": "amount",
          "type": "uint256"
        }
      ],
      "name": "transfer",
      "outputs": [
        {
          "internalType": "bool",
          "name": "",
          "type": "bool"
        }
      ],
      "stateMutability": "nonpayable",
      "type": "function"
    },
    {
      "inputs": [
        {
          "internalType": "address",
          "name": "sender",
          "type": "address"
        },
        {
          "internalType": "address",
          "name": "recipient",
          "type": "address"
        },
        {
          "internalType": "uint256",
          "name": "amount",
          "type": "uint256"
        }
      ],
      "name": "transferFrom",
      "outputs": [
        {
          "internalType": "bool",
          "name": "",
          "type": "bool"
        }
      ],
      "stateMutability": "nonpayable",
      "type": "function"
    },
    {
      "inputs": [
        {
          "internalType": "address",
          "name": "newOwner",
          "type": "address"
        }
      ],
      "name": "transferOwnership",
      "outputs": [],
      "stateMutability": "nonpayable",
      "type": "function"
    },
    {
      "inputs": [
        {
          "internalType": "address",
          "name": "operator",
          "type": "address"
        },
        {
          "internalType": "bool",
          "name": "enabled",
          "type": "bool"
        }
      ],
      "name": "whitelistOperator",
      "outputs": [],
      "stateMutability": "nonpayable",
      "type": "function"
    }
  ],
  "bytecode": "0x60806040523480156200001157600080fd5b50604051620017aa380380620017aa833981810160405260408110156200003757600080fd5b81019080805160405193929190846401000000008211156200005857600080fd5b9083019060208201858111156200006e57600080fd5b82518660208202830111640100000000821117156200008c57600080fd5b82525081516020918201928201910280838360005b83811015620000bb578181015183820152602001620000a1565b5050505090500160405260200180516040519392919084640100000000821115620000e557600080fd5b908301906020820185811115620000fb57600080fd5b82518660208202830111640100000000821117156200011957600080fd5b82525081516020918201928201910280838360005b83811015620001485781810151838201526020016200012e565b505050509050016040525050506200016d6301ffc9a760e01b6200028f60201b60201c565b620001886336372b0760e01b6001600160e01b036200028f16565b620001a363a219a02560e01b6001600160e01b036200028f16565b620001be634e83a8c360e11b6001600160e01b036200028f16565b620001d96306fdde0360e01b6001600160e01b036200028f16565b620001f46395d89b4160e01b6001600160e01b036200028f16565b6200020f63313ce56760e01b6001600160e01b036200028f16565b6000620002246001600160e01b036200031416565b600480546001600160a01b0319166001600160a01b038316908117909155604051919250906000907f8be0079c531659141344cd1fd0a4f28419497f9722a3daafe3b4186f6b6457e0908290a3506200028782826001600160e01b036200031816565b5050620005be565b6001600160e01b03198082161415620002ef576040805162461bcd60e51b815260206004820152601c60248201527f4552433136353a20696e76616c696420696e7465726661636520696400000000604482015290519081900360640190fd5b6001600160e01b0319166000908152602081905260409020805460ff19166001179055565b3390565b6200032b6001600160e01b036200031416565b6004546001600160a01b039081169116146200038e576040805162461bcd60e51b815260206004820181905260248201527f4f776e61626c653a2063616c6c6572206973206e6f7420746865206f776e6572604482015290519081900360640190fd5b815181518114620003e6576040805162461bcd60e51b815260206004820152601a60248201527f45524332303a20696e636f6e73697374656e7420617272617973000000000000604482015290519081900360640190fd5b60005b8181101562000435576200042c8482815181106200040357fe5b60200260200101518483815181106200041857fe5b60200260200101516200043b60201b60201c565b600101620003e9565b50505050565b6001600160a01b03821662000497576040805162461bcd60e51b815260206004820152601f60248201527f45524332303a206d696e7420746f20746865207a65726f206164647265737300604482015290519081900360640190fd5b620004ae600083836001600160e01b036200055716565b620004ca816003546200055c60201b62000b061790919060201c565b6003556001600160a01b038216600090815260016020908152604090912054620004ff91839062000b066200055c821b17901c565b6001600160a01b03831660008181526001602090815260408083209490945583518581529351929391927fddf252ad1be2c89b69c2b068fc378daa952ba7f163c4a11628f55a4df523b3ef9281900390910190a35050565b505050565b600082820183811015620005b7576040805162461bcd60e51b815260206004820152601b60248201527f536166654d6174683a206164646974696f6e206f766572666c6f770000000000604482015290519081900360640190fd5b9392505050565b6111dc80620005ce6000396000f3fe608060405234801561001057600080fd5b50600436106101365760003560e01c80636d70f7ae116100b257806395d89b4111610081578063a9059cbb11610066578063a9059cbb146104cc578063dd62ed3e146104f8578063f2fde38b1461052657610136565b806395d89b411461018e578063a457c2d7146104a057610136565b80636d70f7ae1461042857806370a082311461044e578063715018a6146104745780638da5cb5b1461047c57610136565b806318ea451311610109578063313ce567116100ee578063313ce567146102b757806339509351146102d5578063685731071461030157610136565b806318ea45131461025157806323b872dd1461028157610136565b806301ffc9a71461013b57806306fdde031461018e578063095ea7b31461020b57806318160ddd14610237575b600080fd5b61017a6004803603602081101561015157600080fd5b50357fffffffff000000000000000000000000000000000000000000000000000000001661054c565b604080519115158252519081900360200190f35b610196610583565b6040805160208082528351818301528351919283929083019185019080838360005b838110156101d05781810151838201526020016101b8565b50505050905090810190601f1680156101fd5780820380516001836020036101000a031916815260200191505b509250505060405180910390f35b61017a6004803603604081101561022157600080fd5b506001600160a01b0381351690602001356105bc565b61023f6105da565b60408051918252519081900360200190f35b61027f6004803603604081101561026757600080fd5b506001600160a01b03813516906020013515156105e0565b005b61017a6004803603606081101561029757600080fd5b506001600160a01b038135811691602081013590911690604001356106cc565b6102bf610720565b6040805160ff9092168252519081900360200190f35b61017a600480360360408110156102eb57600080fd5b506001600160a01b038135169060200135610725565b61027f6004803603604081101561031757600080fd5b81019060208101813564010000000081111561033257600080fd5b82018360208201111561034457600080fd5b8035906020019184602083028401116401000000008311171561036657600080fd5b91908080602002602001604051908101604052809392919081815260200183836020028082843760009201919091525092959493602081019350359150506401000000008111156103b657600080fd5b8201836020820111156103c857600080fd5b803590602001918460208302840111640100000000831117156103ea57600080fd5b91908080602002602001604051908101604052809392919081815260200183836020028082843760009201919091525092955061074e945050505050565b61017a6004803603602081101561043e57600080fd5b50356001600160a01b0316610858565b61023f6004803603602081101561046457600080fd5b50356001600160a01b0316610876565b61027f610891565b61048461095d565b604080516001600160a01b039092168252519081900360200190f35b61017a600480360360408110156104b657600080fd5b506001600160a01b03813516906020013561096c565b61017a600480360360408110156104e257600080fd5b506001600160a01b03813516906020013561098e565b61023f6004803603604081101561050e57600080fd5b506001600160a01b03813581169160200135166109a2565b61027f6004803603602081101561053c57600080fd5b50356001600160a01b03166109e3565b7fffffffff000000000000000000000000000000000000000000000000000000001660009081526020819052604090205460ff1690565b6040518060400160405280600581526020017f455243323000000000000000000000000000000000000000000000000000000081525081565b60006105d06105c9610b67565b8484610b6b565b5060015b92915050565b60035490565b6105e8610b67565b6004546001600160a01b0390811691161461064a576040805162461bcd60e51b815260206004820181905260248201527f4f776e61626c653a2063616c6c6572206973206e6f7420746865206f776e6572604482015290519081900360640190fd5b6001600160a01b03821660008181526005602090815260409182902080547fffffffffffffffffffffffffffffffffffffffffffffffffffffffffffffff001685151590811790915582519384529083015280517f68d3992ad51e852ec24f4f7d106d7886d715a58e71176bc329cea3d11e7f08e49281900390910190a15050565b6000806106d7610b67565b90506106e281610858565b61070a5761070a8582610705866106f98a876109a2565b9063ffffffff610b8e16565b610b6b565b610715858585610bd0565b506001949350505050565b601281565b600061073083610858565b1561073d575060016105d4565b6107478383610d39565b90506105d4565b610756610b67565b6004546001600160a01b039081169116146107b8576040805162461bcd60e51b815260206004820181905260248201527f4f776e61626c653a2063616c6c6572206973206e6f7420746865206f776e6572604482015290519081900360640190fd5b81518151811461080f576040805162461bcd60e51b815260206004820152601a60248201527f45524332303a20696e636f6e73697374656e7420617272617973000000000000604482015290519081900360640190fd5b60005b818110156108525761084a84828151811061082957fe5b602002602001015184838151811061083d57fe5b6020026020010151610d8d565b600101610812565b50505050565b6001600160a01b031660009081526005602052604090205460ff1690565b6001600160a01b031660009081526001602052604090205490565b610899610b67565b6004546001600160a01b039081169116146108fb576040805162461bcd60e51b815260206004820181905260248201527f4f776e61626c653a2063616c6c6572206973206e6f7420746865206f776e6572604482015290519081900360640190fd5b6004546040516000916001600160a01b0316907f8be0079c531659141344cd1fd0a4f28419497f9722a3daafe3b4186f6b6457e0908390a3600480547fffffffffffffffffffffffff0000000000000000000000000000000000000000169055565b6004546001600160a01b031690565b600061097783610858565b15610984575060016105d4565b6107478383610e8b565b60006105d061099b610b67565b8484610bd0565b60006109ad82610858565b156109d957507fffffffffffffffffffffffffffffffffffffffffffffffffffffffffffffffff6105d4565b6107478383610ef9565b6109eb610b67565b6004546001600160a01b03908116911614610a4d576040805162461bcd60e51b815260206004820181905260248201527f4f776e61626c653a2063616c6c6572206973206e6f7420746865206f776e6572604482015290519081900360640190fd5b6001600160a01b038116610a925760405162461bcd60e51b81526004018080602001828103825260268152602001806110cb6026913960400191505060405180910390fd5b6004546040516001600160a01b038084169216907f8be0079c531659141344cd1fd0a4f28419497f9722a3daafe3b4186f6b6457e090600090a3600480547fffffffffffffffffffffffff0000000000000000000000000000000000000000166001600160a01b0392909216919091179055565b600082820183811015610b60576040805162461bcd60e51b815260206004820152601b60248201527f536166654d6174683a206164646974696f6e206f766572666c6f770000000000604482015290519081900360640190fd5b9392505050565b3390565b610b7482610858565b15610b7e57610b89565b610b89838383610f24565b505050565b6000610b6083836040518060400160405280601e81526020017f536166654d6174683a207375627472616374696f6e206f766572666c6f770000815250611010565b6001600160a01b038316610c155760405162461bcd60e51b81526004018080602001828103825260258152602001806111396025913960400191505060405180910390fd5b6001600160a01b038216610c5a5760405162461bcd60e51b81526004018080602001828103825260238152602001806110a86023913960400191505060405180910390fd5b610c65838383610b89565b610ca881604051806060016040528060268152602001611113602691396001600160a01b038616600090815260016020526040902054919063ffffffff61101016565b6001600160a01b038085166000908152600160205260408082209390935590841681522054610cdd908263ffffffff610b0616565b6001600160a01b0380841660008181526001602090815260409182902094909455805185815290519193928716927fddf252ad1be2c89b69c2b068fc378daa952ba7f163c4a11628f55a4df523b3ef92918290030190a3505050565b60006105d0610d46610b67565b846107058560026000610d57610b67565b6001600160a01b03908116825260208083019390935260409182016000908120918c16815292529020549063ffffffff610b0616565b6001600160a01b038216610de8576040805162461bcd60e51b815260206004820152601f60248201527f45524332303a206d696e7420746f20746865207a65726f206164647265737300604482015290519081900360640190fd5b610df460008383610b89565b600354610e07908263ffffffff610b0616565b6003556001600160a01b038216600090815260016020526040902054610e33908263ffffffff610b0616565b6001600160a01b03831660008181526001602090815260408083209490945583518581529351929391927fddf252ad1be2c89b69c2b068fc378daa952ba7f163c4a11628f55a4df523b3ef9281900390910190a35050565b60006105d0610e98610b67565b84610705856040518060600160405280602581526020016111826025913960026000610ec2610b67565b6001600160a01b03908116825260208083019390935260409182016000908120918d1681529252902054919063ffffffff61101016565b6001600160a01b03918216600090815260026020908152604080832093909416825291909152205490565b6001600160a01b038316610f695760405162461bcd60e51b815260040180806020018281038252602481526020018061115e6024913960400191505060405180910390fd5b6001600160a01b038216610fae5760405162461bcd60e51b81526004018080602001828103825260228152602001806110f16022913960400191505060405180910390fd5b6001600160a01b03808416600081815260026020908152604080832094871680845294825291829020859055815185815291517f8c5be1e5ebec7d5bd14f71427d1e84f3dd0314c0f7b2291e5b200ac8c7c3b9259281900390910190a3505050565b6000818484111561109f5760405162461bcd60e51b81526004018080602001828103825283818151815260200191508051906020019080838360005b8381101561106457818101518382015260200161104c565b50505050905090810190601f1680156110915780820380516001836020036101000a031916815260200191505b509250505060405180910390fd5b50505090039056fe45524332303a207472616e7366657220746f20746865207a65726f20616464726573734f776e61626c653a206e6577206f776e657220697320746865207a65726f206164647265737345524332303a20617070726f766520746f20746865207a65726f206164647265737345524332303a207472616e7366657220616d6f756e7420657863656564732062616c616e636545524332303a207472616e736665722066726f6d20746865207a65726f206164647265737345524332303a20617070726f76652066726f6d20746865207a65726f206164647265737345524332303a2064656372656173656420616c6c6f77616e63652062656c6f77207a65726fa2646970667358221220414cbd17d1818b4c82da4717262f8918e62ac8eb977509680bc8d171babdda9e64736f6c63430006080033",
  "linkReferences": {},
  "deployedLinkReferences": {}
}