{
  "_format": "hh-sol-artifact-1",
  "contractName": "REVVTrophiesMetadata",
  "sourceName": "contracts/solc-0.6/metadata/REVVTrophiesMetadata.sol",
  "abi": [
    {
      "inputs": [
        {
          "internalType": "address",
          "name": "delegator",
          "type": "address"
        }
      ],
      "stateMutability": "nonpayable",
      "type": "constructor"
    },
    {
      "inputs": [
        {
          "internalType": "uint256",
          "name": "id",
          "type": "uint256"
        }
      ],
      "name": "getAllAttributes",
      "outputs": [
        {
          "internalType": "bytes32[]",
          "name": "names",
          "type": "bytes32[]"
        },
        {
          "internalType": "uint256[]",
          "name": "values",
          "type": "uint256[]"
        }
      ],
      "stateMutability": "view",
      "type": "function"
    },
    {
      "inputs": [
        {
          "internalType": "uint256",
          "name": "id",
          "type": "uint256"
        },
        {
          "internalType": "bytes32",
          "name": "name",
          "type": "bytes32"
        }
      ],
      "name": "getAttribute",
      "outputs": [
        {
          "internalType": "uint256",
          "name": "",
          "type": "uint256"
        }
      ],
      "stateMutability": "view",
      "type": "function"
    },
    {
      "inputs": [
        {
          "internalType": "uint256",
          "name": "id",
          "type": "uint256"
        },
        {
          "internalType": "bytes32[]",
          "name": "names",
          "type": "bytes32[]"
        }
      ],
      "name": "getAttributes",
      "outputs": [
        {
          "internalType": "uint256[]",
          "name": "values",
          "type": "uint256[]"
        }
      ],
      "stateMutability": "view",
      "type": "function"
    },
    {
      "inputs": [],
      "name": "inventoryMetadataDelegator",
      "outputs": [
        {
          "internalType": "address",
          "name": "",
          "type": "address"
        }
      ],
      "stateMutability": "view",
      "type": "function"
    },
    {
      "inputs": [
        {
          "internalType": "uint256",
          "name": "collectionId",
          "type": "uint256"
        },
        {
          "internalType": "bytes32[]",
          "name": "names",
          "type": "bytes32[]"
        },
        {
          "internalType": "uint256[]",
          "name": "lengths",
          "type": "uint256[]"
        },
        {
          "internalType": "uint256[]",
          "name": "indices",
          "type": "uint256[]"
        }
      ],
      "name": "setLayout",
      "outputs": [],
      "stateMutability": "nonpayable",
      "type": "function"
    },
    {
      "inputs": [
        {
          "internalType": "bytes4",
          "name": "interfaceId",
          "type": "bytes4"
        }
      ],
      "name": "supportsInterface",
      "outputs": [
        {
          "internalType": "bool",
          "name": "",
          "type": "bool"
        }
      ],
      "stateMutability": "view",
      "type": "function"
    }
  ],
  "bytecode": "0x60806040523480156200001157600080fd5b506040516200165a3803806200165a833981810160405260208110156200003757600080fd5b5051602081620000576301ffc9a760e01b6001600160e01b03620001a116565b620000726347711ad760e11b6001600160e01b03620001a116565b6200008d633803abb760e21b6001600160e01b03620001a116565b620000a1816001600160e01b036200022616565b620000cf60026f18985cd950dbdb1b1958dd1a5bdb925960821b61010060006001600160e01b036200031616565b620000fb60046a18985cd9551bdad95b925960aa1b61010085900360006001600160e01b036200031616565b6200012f60046f18985cd950dbdb1b1958dd1a5bdb925960821b60001985016101008690036001600160e01b036200031616565b506200015390506004637479706560e01b600860f06001600160e01b036200031616565b620001776004667375625479706560c81b600860e86001600160e01b036200031616565b6200019a60046539b2b0b9b7b760d11b600860e06001600160e01b036200031616565b50620004bb565b6001600160e01b0319808216141562000201576040805162461bcd60e51b815260206004820152601c60248201527f4552433136353a20696e76616c696420696e7465726661636520696400000000604482015290519081900360640190fd5b6001600160e01b0319166000908152602081905260409020805460ff19166001179055565b604080516301ffc9a760e01b815263b44bec7f60e01b600482015290516001600160a01b038316916301ffc9a7916024808301926020929190829003018186803b1580156200027457600080fd5b505afa15801562000289573d6000803e3d6000fd5b505050506040513d6020811015620002a057600080fd5b5051620002f4576040805162461bcd60e51b815260206004820152601a60248201527f496e764d6574613a20696e76616c69642064656c656761746f72000000000000604482015290519081900360640190fd5b600180546001600160a01b0319166001600160a01b0392909216919091179055565b62000333828260006200035a60201b62000b91179092919060201c565b50620003538484608084901b851762000420602090811b62000c5517901c565b5050505050565b6000808311620003b1576040805162461bcd60e51b815260206004820152601e60248201527f55496e74323536457874726163743a206c656e677468206973207a65726f0000604482015290519081900360640190fd5b61010083830111156200040b576040805162461bcd60e51b815260206004820152601b60248201527f55496e74323536457874726163743a206f7574206f6620626f6e640000000000604482015290519081900360640190fd5b5082811c6000196001841b01165b9392505050565b6000828152600184016020526040812054806200048757505060408051808201825283815260208082018481528654600181810189556000898152848120955160029093029095019182559151908201558654868452818801909252929091205562000419565b828560000160018303815481106200049b57fe5b906000526020600020906002020160010181905550600091505062000419565b61118f80620004cb6000396000f3fe608060405234801561001057600080fd5b50600436106100725760003560e01c806354dea7f61161005057806354dea7f614610378578063d009718f146103ad578063e00eaedc1461046357610072565b806301ffc9a7146100775780630a35e3d7146100ca57806320dc9daf146101c4575b600080fd5b6100b66004803603602081101561008d57600080fd5b50357fffffffff0000000000000000000000000000000000000000000000000000000016610487565b604080519115158252519081900360200190f35b610174600480360360408110156100e057600080fd5b8135919081019060408101602082013564010000000081111561010257600080fd5b82018360208201111561011457600080fd5b8035906020019184602083028401116401000000008311171561013657600080fd5b9190808060200260200160405190810160405280939291908181526020018383602002808284376000920191909152509295506104be945050505050565b60408051602080825283518183015283519192839290830191858101910280838360005b838110156101b0578181015183820152602001610198565b505050509050019250505060405180910390f35b610376600480360360808110156101da57600080fd5b813591908101906040810160208201356401000000008111156101fc57600080fd5b82018360208201111561020e57600080fd5b8035906020019184602083028401116401000000008311171561023057600080fd5b919080806020026020016040519081016040528093929190818152602001838360200280828437600092019190915250929594936020810193503591505064010000000081111561028057600080fd5b82018360208201111561029257600080fd5b803590602001918460208302840111640100000000831117156102b457600080fd5b919080806020026020016040519081016040528093929190818152602001838360200280828437600092019190915250929594936020810193503591505064010000000081111561030457600080fd5b82018360208201111561031657600080fd5b8035906020019184602083028401116401000000008311171561033857600080fd5b9190808060200260200160405190810160405280939291908181526020018383602002808284376000920191909152509295506106c7945050505050565b005b61039b6004803603604081101561038e57600080fd5b5080359060200135610738565b60408051918252519081900360200190f35b6103ca600480360360208110156103c357600080fd5b50356108a6565b604051808060200180602001838103835285818151815260200191508051906020019060200280838360005b8381101561040e5781810151838201526020016103f6565b50505050905001838103825284818151815260200191508051906020019060200280838360005b8381101561044d578181015183820152602001610435565b5050505090500194505050505060405180910390f35b61046b610b82565b604080516001600160a01b039092168252519081900360200190f35b7fffffffff000000000000000000000000000000000000000000000000000000001660009081526020819052604090205460ff1690565b600154604080516356f5fb7960e11b81526004810185905290516060926001600160a01b031691600091839163adebf6f2916024808301926020929190829003018186803b15801561050f57600080fd5b505afa158015610523573d6000803e3d6000fd5b505050506040513d602081101561053957600080fd5b5051610546576004610549565b60025b9050835167ffffffffffffffff8111801561056357600080fd5b5060405190808252806020026020018201604052801561058d578160200160208202803683370190505b50925060005b84518110156106be576105c28582815181106105ab57fe5b602002602001015183610cec90919063ffffffff16565b61064d5760066000846001600160a01b031663c7778baa896040518263ffffffff1660e01b81526004018082815260200191505060206040518083038186803b15801561060e57600080fd5b505afa158015610622573d6000803e3d6000fd5b505050506040513d602081101561063857600080fd5b50518152602081019190915260400160002091505b600061067586838151811061065e57fe5b602002602001015184610d0490919063ffffffff16565b905061069e876fffffffffffffffffffffffffffffffff8316608084901c63ffffffff610b9116565b8583815181106106aa57fe5b602090810291909101015250600101610593565b50505092915050565b6001546001600160a01b03163314610726576040805162461bcd60e51b815260206004820152601860248201527f4d657461646174613a2064656c656761746f72206f6e6c790000000000000000604482015290519081900360640190fd5b61073284848484610d94565b50505050565b600154604080516356f5fb7960e11b81526004810185905290516000926001600160a01b0316918391839163adebf6f2916024808301926020929190829003018186803b15801561078857600080fd5b505afa15801561079c573d6000803e3d6000fd5b505050506040513d60208110156107b257600080fd5b50516107bf5760046107c2565b60025b90506107d4818563ffffffff610cec16565b61085f5760066000836001600160a01b031663c7778baa886040518263ffffffff1660e01b81526004018082815260200191505060206040518083038186803b15801561082057600080fd5b505afa158015610834573d6000803e3d6000fd5b505050506040513d602081101561084a57600080fd5b50518152602081019190915260400160002090505b6000610871828663ffffffff610d0416565b905061089a866fffffffffffffffffffffffffffffffff8316608084901c63ffffffff610b9116565b93505050505b92915050565b600154604080516356f5fb7960e11b815260048101849052905160609283926001600160a01b0390911691600091839163adebf6f291602480820192602092909190829003018186803b1580156108fc57600080fd5b505afa158015610910573d6000803e3d6000fd5b505050506040513d602081101561092657600080fd5b5051610933576004610936565b60025b9050600060066000846001600160a01b031663c7778baa896040518263ffffffff1660e01b81526004018082815260200191505060206040518083038186803b15801561098257600080fd5b505afa158015610996573d6000803e3d6000fd5b505050506040513d60208110156109ac57600080fd5b505181526020810191909152604001600090812091506109cb83610f69565b905060006109d883610f69565b90508181018067ffffffffffffffff811180156109f457600080fd5b50604051908082528060200260200182016040528015610a1e578160200160208202803683370190505b5097508067ffffffffffffffff81118015610a3857600080fd5b50604051908082528060200260200182016040528015610a62578160200160208202803683370190505b50965060008080805b86811015610aed57610a83898263ffffffff610f6d16565b8094508195505050838c8381518110610a9857fe5b6020908102919091010152610aca8d6fffffffffffffffffffffffffffffffff8516608086901c63ffffffff610b9116565b8b8381518110610ad657fe5b602090810291909101015260019182019101610a6b565b5060005b85811015610b7357610b09888263ffffffff610f6d16565b8094508195505050838c8381518110610b1e57fe5b6020908102919091010152610b508d6fffffffffffffffffffffffffffffffff8516608086901c63ffffffff610b9116565b8b8381518110610b5c57fe5b602090810291909101015260019182019101610af1565b50505050505050505050915091565b6001546001600160a01b031681565b6000808311610be7576040805162461bcd60e51b815260206004820152601e60248201527f55496e74323536457874726163743a206c656e677468206973207a65726f0000604482015290519081900360640190fd5b6101008383011115610c40576040805162461bcd60e51b815260206004820152601b60248201527f55496e74323536457874726163743a206f7574206f6620626f6e640000000000604482015290519081900360640190fd5b5082811c6000196001841b01165b9392505050565b600082815260018401602052604081205480610cba575050604080518082018252838152602080820184815286546001818101895560008981528481209551600290930290950191825591519082015586548684528188019092529290912055610c4e565b82856000016001830381548110610ccd57fe5b9060005260206000209060020201600101819055506000915050610c4e565b60009081526001919091016020526040902054151590565b600081815260018301602052604081205480610d67576040805162461bcd60e51b815260206004820152601860248201527f456e756d4d61703a206e6f6e6578697374656e74206b65790000000000000000604482015290519081900360640190fd5b836000016001820381548110610d7957fe5b90600052602060002090600202016001015491505092915050565b8251825181148015610da65750808251145b610df7576040805162461bcd60e51b815260206004820152601c60248201527f496e764d6574613a20696e636f6e73697374656e742061727261797300000000604482015290519081900360640190fd5b6000858152600660205260409020610e0e81610ffe565b600154604080516356f5fb7960e11b81526004810189905290516001600160a01b0390921691600091839163adebf6f291602480820192602092909190829003018186803b158015610e5f57600080fd5b505afa158015610e73573d6000803e3d6000fd5b505050506040513d6020811015610e8957600080fd5b5051610e96576004610e99565b60025b905060005b84811015610f5e576000888281518110610eb457fe5b60200260200101519050610ed18184610cec90919063ffffffff16565b15610f23576040805162461bcd60e51b815260206004820152601e60248201527f496e764d6574613a206f766572726964652064656661756c7420617474720000604482015290519081900360640190fd5b610f5585828a8581518110610f3457fe5b60200260200101518a8681518110610f4857fe5b602002602001015161104a565b50600101610e9e565b505050505050505050565b5490565b815460009081908310610fc7576040805162461bcd60e51b815260206004820152601c60248201527f456e756d4d61703a20696e646578206f7574206f6620626f756e647300000000604482015290519081900360640190fd5b6000846000018481548110610fd857fe5b906000526020600020906002020190508060000154816001015492509250509250929050565b600061100982610f69565b905060005b81811015611045576000611028848263ffffffff610f6d16565b50905061103b848263ffffffff61107b16565b505060010161100e565b505050565b61105c6000838363ffffffff610b9116565b506110748484608084901b851763ffffffff610c5516565b5050505050565b6000818152600183016020526040812054801561114f57835460001980830191908101906000908790839081106110ae57fe5b90600052602060002090600202019050808760000184815481106110ce57fe5b60009182526020808320845460029093020191825560019384015491840191909155835482528983019052604090209084019055865487908061110d57fe5b60008281526020808220600260001990940193840201828155600190810183905592909355888152898201909252604082209190915594506108a09350505050565b60009150506108a056fea26469706673582212202c88037540e387f21ec7edc07c9d3b46c3e1005fee6f1984cb383573efdbf21664736f6c63430006080033",
  "linkReferences": {},
  "deployedLinkReferences": {}
}