{
  "_format": "hh-sol-artifact-1",
  "contractName": "Unipool",
  "sourceName": "contracts/solc-0.6/staking/LP_REVV_SAND_Unipool.sol",
  "abi": [
    {
      "inputs": [
        {
          "internalType": "contract IERC20",
          "name": "uni_",
          "type": "address"
        },
        {
          "internalType": "contract IERC20",
          "name": "rewardToken_",
          "type": "address"
        },
        {
          "internalType": "uint256",
          "name": "duration",
          "type": "uint256"
        }
      ],
      "stateMutability": "nonpayable",
      "type": "constructor"
    },
    {
      "anonymous": false,
      "inputs": [
        {
          "indexed": true,
          "internalType": "address",
          "name": "previousOwner",
          "type": "address"
        },
        {
          "indexed": true,
          "internalType": "address",
          "name": "newOwner",
          "type": "address"
        }
      ],
      "name": "OwnershipTransferred",
      "type": "event"
    },
    {
      "anonymous": false,
      "inputs": [
        {
          "indexed": false,
          "internalType": "uint256",
          "name": "reward",
          "type": "uint256"
        }
      ],
      "name": "RewardAdded",
      "type": "event"
    },
    {
      "anonymous": false,
      "inputs": [
        {
          "indexed": true,
          "internalType": "address",
          "name": "user",
          "type": "address"
        },
        {
          "indexed": false,
          "internalType": "uint256",
          "name": "reward",
          "type": "uint256"
        }
      ],
      "name": "RewardPaid",
      "type": "event"
    },
    {
      "anonymous": false,
      "inputs": [
        {
          "indexed": true,
          "internalType": "address",
          "name": "user",
          "type": "address"
        },
        {
          "indexed": false,
          "internalType": "uint256",
          "name": "amount",
          "type": "uint256"
        }
      ],
      "name": "Staked",
      "type": "event"
    },
    {
      "anonymous": false,
      "inputs": [
        {
          "indexed": true,
          "internalType": "address",
          "name": "user",
          "type": "address"
        },
        {
          "indexed": false,
          "internalType": "uint256",
          "name": "amount",
          "type": "uint256"
        }
      ],
      "name": "Withdrawn",
      "type": "event"
    },
    {
      "inputs": [],
      "name": "DURATION",
      "outputs": [
        {
          "internalType": "uint256",
          "name": "",
          "type": "uint256"
        }
      ],
      "stateMutability": "view",
      "type": "function"
    },
    {
      "inputs": [
        {
          "internalType": "address",
          "name": "account",
          "type": "address"
        }
      ],
      "name": "balanceOf",
      "outputs": [
        {
          "internalType": "uint256",
          "name": "",
          "type": "uint256"
        }
      ],
      "stateMutability": "view",
      "type": "function"
    },
    {
      "inputs": [
        {
          "internalType": "address",
          "name": "account",
          "type": "address"
        }
      ],
      "name": "earned",
      "outputs": [
        {
          "internalType": "uint256",
          "name": "",
          "type": "uint256"
        }
      ],
      "stateMutability": "view",
      "type": "function"
    },
    {
      "inputs": [],
      "name": "exit",
      "outputs": [],
      "stateMutability": "nonpayable",
      "type": "function"
    },
    {
      "inputs": [],
      "name": "getReward",
      "outputs": [],
      "stateMutability": "nonpayable",
      "type": "function"
    },
    {
      "inputs": [],
      "name": "lastTimeRewardApplicable",
      "outputs": [
        {
          "internalType": "uint256",
          "name": "",
          "type": "uint256"
        }
      ],
      "stateMutability": "view",
      "type": "function"
    },
    {
      "inputs": [],
      "name": "lastUpdateTime",
      "outputs": [
        {
          "internalType": "uint256",
          "name": "",
          "type": "uint256"
        }
      ],
      "stateMutability": "view",
      "type": "function"
    },
    {
      "inputs": [
        {
          "internalType": "uint256",
          "name": "reward",
          "type": "uint256"
        }
      ],
      "name": "notifyRewardAmount",
      "outputs": [],
      "stateMutability": "nonpayable",
      "type": "function"
    },
    {
      "inputs": [],
      "name": "owner",
      "outputs": [
        {
          "internalType": "address",
          "name": "",
          "type": "address"
        }
      ],
      "stateMutability": "view",
      "type": "function"
    },
    {
      "inputs": [],
      "name": "periodFinish",
      "outputs": [
        {
          "internalType": "uint256",
          "name": "",
          "type": "uint256"
        }
      ],
      "stateMutability": "view",
      "type": "function"
    },
    {
      "inputs": [],
      "name": "renounceOwnership",
      "outputs": [],
      "stateMutability": "nonpayable",
      "type": "function"
    },
    {
      "inputs": [],
      "name": "rewardDistribution",
      "outputs": [
        {
          "internalType": "address",
          "name": "",
          "type": "address"
        }
      ],
      "stateMutability": "view",
      "type": "function"
    },
    {
      "inputs": [],
      "name": "rewardPerToken",
      "outputs": [
        {
          "internalType": "uint256",
          "name": "",
          "type": "uint256"
        }
      ],
      "stateMutability": "view",
      "type": "function"
    },
    {
      "inputs": [],
      "name": "rewardPerTokenStored",
      "outputs": [
        {
          "internalType": "uint256",
          "name": "",
          "type": "uint256"
        }
      ],
      "stateMutability": "view",
      "type": "function"
    },
    {
      "inputs": [],
      "name": "rewardRate",
      "outputs": [
        {
          "internalType": "uint256",
          "name": "",
          "type": "uint256"
        }
      ],
      "stateMutability": "view",
      "type": "function"
    },
    {
      "inputs": [],
      "name": "rewardToken",
      "outputs": [
        {
          "internalType": "contract IERC20",
          "name": "",
          "type": "address"
        }
      ],
      "stateMutability": "view",
      "type": "function"
    },
    {
      "inputs": [
        {
          "internalType": "address",
          "name": "",
          "type": "address"
        }
      ],
      "name": "rewards",
      "outputs": [
        {
          "internalType": "uint256",
          "name": "",
          "type": "uint256"
        }
      ],
      "stateMutability": "view",
      "type": "function"
    },
    {
      "inputs": [
        {
          "internalType": "address",
          "name": "_rewardDistribution",
          "type": "address"
        }
      ],
      "name": "setRewardDistribution",
      "outputs": [],
      "stateMutability": "nonpayable",
      "type": "function"
    },
    {
      "inputs": [
        {
          "internalType": "uint256",
          "name": "amount",
          "type": "uint256"
        }
      ],
      "name": "stake",
      "outputs": [],
      "stateMutability": "nonpayable",
      "type": "function"
    },
    {
      "inputs": [],
      "name": "totalSupply",
      "outputs": [
        {
          "internalType": "uint256",
          "name": "",
          "type": "uint256"
        }
      ],
      "stateMutability": "view",
      "type": "function"
    },
    {
      "inputs": [
        {
          "internalType": "address",
          "name": "newOwner",
          "type": "address"
        }
      ],
      "name": "transferOwnership",
      "outputs": [],
      "stateMutability": "nonpayable",
      "type": "function"
    },
    {
      "inputs": [],
      "name": "uni",
      "outputs": [
        {
          "internalType": "contract IERC20",
          "name": "",
          "type": "address"
        }
      ],
      "stateMutability": "view",
      "type": "function"
    },
    {
      "inputs": [
        {
          "internalType": "address",
          "name": "",
          "type": "address"
        }
      ],
      "name": "userRewardPerTokenPaid",
      "outputs": [
        {
          "internalType": "uint256",
          "name": "",
          "type": "uint256"
        }
      ],
      "stateMutability": "view",
      "type": "function"
    },
    {
      "inputs": [
        {
          "internalType": "uint256",
          "name": "amount",
          "type": "uint256"
        }
      ],
      "name": "withdraw",
      "outputs": [],
      "stateMutability": "nonpayable",
      "type": "function"
    }
  ],
  "bytecode": "0x60e06040526000600455600060055534801561001a57600080fd5b5060405161158f38038061158f8339818101604052606081101561003d57600080fd5b50805160208201516040909201516001600160601b0319606083901b1660805290919060006100736001600160e01b036100dd16565b600280546001600160a01b0319166001600160a01b038316908117909155604051919250906000907f8be0079c531659141344cd1fd0a4f28419497f9722a3daafe3b4186f6b6457e0908290a35060609190911b6001600160601b03191660c05260a052506100e1565b3390565b60805160601c60a05160c05160601c61145961013660003980610784528061086d5280610ca55250806104c852806106a15280610709528061074a525080610b695280610e57528061100652506114596000f3fe608060405234801561001057600080fd5b50600436106101975760003560e01c806380faa57d116100e3578063df136d651161008c578063edc9af9511610066578063edc9af9514610349578063f2fde38b14610351578063f7c618c11461037757610197565b8063df136d6514610331578063e9fad8ee14610339578063ebe2b12b1461034157610197565b8063a694fc3a116100bd578063a694fc3a14610304578063c8f33c9114610321578063cd3daf9d1461032957610197565b806380faa57d146102ce5780638b876347146102d65780638da5cb5b146102fc57610197565b80632e1a7d4d1161014557806370a082311161011f57806370a0823114610298578063715018a6146102be5780637b0a47ee146102c657610197565b80632e1a7d4d146102565780633c6b16ab146102735780633d18b9121461029057610197565b8063101114cf11610176578063101114cf1461022257806318160ddd146102465780631be052891461024e57610197565b80628cc2621461019c5780630700037d146101d45780630d68b761146101fa575b600080fd5b6101c2600480360360208110156101b257600080fd5b50356001600160a01b031661037f565b60408051918252519081900360200190f35b6101c2600480360360208110156101ea57600080fd5b50356001600160a01b0316610405565b6102206004803603602081101561021057600080fd5b50356001600160a01b0316610417565b005b61022a6104b0565b604080516001600160a01b039092168252519081900360200190f35b6101c26104bf565b6101c26104c6565b6102206004803603602081101561026c57600080fd5b50356104ea565b6102206004803603602081101561028957600080fd5b50356105dd565b6102206107e9565b6101c2600480360360208110156102ae57600080fd5b50356001600160a01b03166108dd565b6102206108f8565b6101c26109b9565b6101c26109bf565b6101c2600480360360208110156102ec57600080fd5b50356001600160a01b03166109d2565b61022a6109e4565b6102206004803603602081101561031a57600080fd5b50356109f3565b6101c2610ae6565b6101c2610aec565b6101c2610b40565b610220610b46565b6101c2610b61565b61022a610b67565b6102206004803603602081101561036757600080fd5b50356001600160a01b0316610b8b565b61022a610ca3565b6001600160a01b03811660009081526009602090815260408083205460089092528220546103ff91906103f390670de0b6b3a7640000906103e7906103d2906103c6610aec565b9063ffffffff610cc716565b6103db886108dd565b9063ffffffff610d1016565b9063ffffffff610d6916565b9063ffffffff610dab16565b92915050565b60096020526000908152604090205481565b61041f610e05565b6002546001600160a01b03908116911614610481576040805162461bcd60e51b815260206004820181905260248201527f4f776e61626c653a2063616c6c6572206973206e6f7420746865206f776e6572604482015290519081900360640190fd5b6003805473ffffffffffffffffffffffffffffffffffffffff19166001600160a01b0392909216919091179055565b6003546001600160a01b031681565b6000545b90565b7f000000000000000000000000000000000000000000000000000000000000000081565b336104f3610aec565b6007556104fe6109bf565b6006556001600160a01b03811615610545576105198161037f565b6001600160a01b0382166000908152600960209081526040808320939093556007546008909152919020555b6000821161059a576040805162461bcd60e51b815260206004820152601160248201527f43616e6e6f742077697468647261772030000000000000000000000000000000604482015290519081900360640190fd5b6105a382610e09565b60408051838152905133917f7084f5476618d8e60b11ef0d7d3f06914655adb8793e28ff7f018d4c76d505d5919081900360200190a25050565b6003546001600160a01b03166105f1610e05565b6001600160a01b0316146106365760405162461bcd60e51b81526004018080602001828103825260218152602001806113d96021913960400191505060405180910390fd5b6000610640610aec565b60075561064b6109bf565b6006556001600160a01b03811615610692576106668161037f565b6001600160a01b0382166000908152600960209081526040808320939093556007546008909152919020555b60045442106106d3576106cb827f000000000000000000000000000000000000000000000000000000000000000063ffffffff610d6916565b60055561073e565b6004546000906106e9904263ffffffff610cc716565b9050600061070260055483610d1090919063ffffffff16565b90506107387f00000000000000000000000000000000000000000000000000000000000000006103e7868463ffffffff610dab16565b60055550505b426006819055610774907f000000000000000000000000000000000000000000000000000000000000000063ffffffff610dab16565b6004556107b26001600160a01b037f00000000000000000000000000000000000000000000000000000000000000001633308563ffffffff610e8f16565b6040805183815290517fde88a922e0d3b88b24e9623efeb464919c6bf9f66857a65e2bfcf2ce87a9433d9181900360200190a15050565b336107f2610aec565b6007556107fd6109bf565b6006556001600160a01b03811615610844576108188161037f565b6001600160a01b0382166000908152600960209081526040808320939093556007546008909152919020555b600061084f3361037f565b905080156108d957336000818152600960205260408120556108a2907f00000000000000000000000000000000000000000000000000000000000000006001600160a01b0316908363ffffffff610f1d16565b60408051828152905133917fe2403640ba68fed3a2f88b7557551d1993f84b99bb10ff833f0cf8db0c5e0486919081900360200190a25b5050565b6001600160a01b031660009081526001602052604090205490565b610900610e05565b6002546001600160a01b03908116911614610962576040805162461bcd60e51b815260206004820181905260248201527f4f776e61626c653a2063616c6c6572206973206e6f7420746865206f776e6572604482015290519081900360640190fd5b6002546040516000916001600160a01b0316907f8be0079c531659141344cd1fd0a4f28419497f9722a3daafe3b4186f6b6457e0908390a36002805473ffffffffffffffffffffffffffffffffffffffff19169055565b60055481565b60006109cd42600454610fa2565b905090565b60086020526000908152604090205481565b6002546001600160a01b031690565b336109fc610aec565b600755610a076109bf565b6006556001600160a01b03811615610a4e57610a228161037f565b6001600160a01b0382166000908152600960209081526040808320939093556007546008909152919020555b60008211610aa3576040805162461bcd60e51b815260206004820152600e60248201527f43616e6e6f74207374616b652030000000000000000000000000000000000000604482015290519081900360640190fd5b610aac82610fb8565b60408051838152905133917f9e71bc8eea02a63969f509818f2dafb9254532904319f9dbda79b67bd34a5f3d919081900360200190a25050565b60065481565b6000610af66104bf565b610b0357506007546104c3565b6109cd610b31610b116104bf565b6103e7670de0b6b3a76400006103db6005546103db6006546103c66109bf565b6007549063ffffffff610dab16565b60075481565b610b4e6107e9565b610b5f610b5a336108dd565b6104ea565b565b60045481565b7f000000000000000000000000000000000000000000000000000000000000000081565b610b93610e05565b6002546001600160a01b03908116911614610bf5576040805162461bcd60e51b815260206004820181905260248201527f4f776e61626c653a2063616c6c6572206973206e6f7420746865206f776e6572604482015290519081900360640190fd5b6001600160a01b038116610c3a5760405162461bcd60e51b81526004018080602001828103825260268152602001806113926026913960400191505060405180910390fd5b6002546040516001600160a01b038084169216907f8be0079c531659141344cd1fd0a4f28419497f9722a3daafe3b4186f6b6457e090600090a36002805473ffffffffffffffffffffffffffffffffffffffff19166001600160a01b0392909216919091179055565b7f000000000000000000000000000000000000000000000000000000000000000081565b6000610d0983836040518060400160405280601e81526020017f536166654d6174683a207375627472616374696f6e206f766572666c6f77000081525061103c565b9392505050565b600082610d1f575060006103ff565b82820282848281610d2c57fe5b0414610d095760405162461bcd60e51b81526004018080602001828103825260218152602001806113b86021913960400191505060405180910390fd5b6000610d0983836040518060400160405280601a81526020017f536166654d6174683a206469766973696f6e206279207a65726f0000000000008152506110d3565b600082820183811015610d09576040805162461bcd60e51b815260206004820152601b60248201527f536166654d6174683a206164646974696f6e206f766572666c6f770000000000604482015290519081900360640190fd5b3390565b600054610e1c908263ffffffff610cc716565b600090815533815260016020526040902054610e3e908263ffffffff610cc716565b33600081815260016020526040902091909155610e8c907f00000000000000000000000000000000000000000000000000000000000000006001600160a01b0316908363ffffffff610f1d16565b50565b604080516001600160a01b0380861660248301528416604482015260648082018490528251808303909101815260849091019091526020810180517bffffffffffffffffffffffffffffffffffffffffffffffffffffffff167f23b872dd00000000000000000000000000000000000000000000000000000000179052610f17908590611138565b50505050565b604080516001600160a01b038416602482015260448082018490528251808303909101815260649091019091526020810180517bffffffffffffffffffffffffffffffffffffffffffffffffffffffff167fa9059cbb00000000000000000000000000000000000000000000000000000000179052610f9d908490611138565b505050565b6000818310610fb15781610d09565b5090919050565b600054610fcb908263ffffffff610dab16565b600090815533815260016020526040902054610fed908263ffffffff610dab16565b33600081815260016020526040902091909155610e8c907f00000000000000000000000000000000000000000000000000000000000000006001600160a01b031690308463ffffffff610e8f16565b600081848411156110cb5760405162461bcd60e51b81526004018080602001828103825283818151815260200191508051906020019080838360005b83811015611090578181015183820152602001611078565b50505050905090810190601f1680156110bd5780820380516001836020036101000a031916815260200191505b509250505060405180910390fd5b505050900390565b600081836111225760405162461bcd60e51b8152602060048201818152835160248401528351909283926044909101919085019080838360008315611090578181015183820152602001611078565b50600083858161112e57fe5b0495945050505050565b606061118d826040518060400160405280602081526020017f5361666545524332303a206c6f772d6c6576656c2063616c6c206661696c6564815250856001600160a01b03166111e99092919063ffffffff16565b805190915015610f9d578080602001905160208110156111ac57600080fd5b5051610f9d5760405162461bcd60e51b815260040180806020018281038252602a8152602001806113fa602a913960400191505060405180910390fd5b60606111f88484600085611200565b949350505050565b606061120b8561138b565b61125c576040805162461bcd60e51b815260206004820152601d60248201527f416464726573733a2063616c6c20746f206e6f6e2d636f6e7472616374000000604482015290519081900360640190fd5b60006060866001600160a01b031685876040518082805190602001908083835b602083106112b957805182527fffffffffffffffffffffffffffffffffffffffffffffffffffffffffffffffe0909201916020918201910161127c565b6001836020036101000a03801982511681845116808217855250505050505090500191505060006040518083038185875af1925050503d806000811461131b576040519150601f19603f3d011682016040523d82523d6000602084013e611320565b606091505b509150915081156113345791506111f89050565b8051156113445780518082602001fd5b60405162461bcd60e51b8152602060048201818152865160248401528651879391928392604401919085019080838360008315611090578181015183820152602001611078565b3b15159056fe4f776e61626c653a206e6577206f776e657220697320746865207a65726f2061646472657373536166654d6174683a206d756c7469706c69636174696f6e206f766572666c6f7743616c6c6572206973206e6f742072657761726420646973747269627574696f6e5361666545524332303a204552433230206f7065726174696f6e20646964206e6f742073756363656564a264697066735822122062b4bfe348c31f97ee68fc25dc5f023c5264af02ba29fcd10043710da8498a6e64736f6c63430006080033",
  "linkReferences": {},
  "deployedLinkReferences": {}
}