{
  "_format": "hh-sol-artifact-1",
  "contractName": "ERC1155Tradable",
  "sourceName": "contracts/solc-0.6/token/ERC1155/ERC1155Tradable.sol",
  "abi": [
    {
      "inputs": [
        {
          "internalType": "string",
          "name": "_name",
          "type": "string"
        },
        {
          "internalType": "string",
          "name": "_symbol",
          "type": "string"
        },
        {
          "internalType": "address",
          "name": "_proxyRegistryAddress",
          "type": "address"
        }
      ],
      "stateMutability": "nonpayable",
      "type": "constructor"
    },
    {
      "anonymous": false,
      "inputs": [
        {
          "indexed": true,
          "internalType": "address",
          "name": "_owner",
          "type": "address"
        },
        {
          "indexed": true,
          "internalType": "address",
          "name": "_operator",
          "type": "address"
        },
        {
          "indexed": false,
          "internalType": "bool",
          "name": "_approved",
          "type": "bool"
        }
      ],
      "name": "ApprovalForAll",
      "type": "event"
    },
    {
      "anonymous": false,
      "inputs": [
        {
          "indexed": true,
          "internalType": "address",
          "name": "account",
          "type": "address"
        }
      ],
      "name": "MinterAdded",
      "type": "event"
    },
    {
      "anonymous": false,
      "inputs": [
        {
          "indexed": true,
          "internalType": "address",
          "name": "account",
          "type": "address"
        }
      ],
      "name": "MinterRemoved",
      "type": "event"
    },
    {
      "anonymous": false,
      "inputs": [
        {
          "indexed": true,
          "internalType": "address",
          "name": "previousOwner",
          "type": "address"
        },
        {
          "indexed": true,
          "internalType": "address",
          "name": "newOwner",
          "type": "address"
        }
      ],
      "name": "OwnershipTransferred",
      "type": "event"
    },
    {
      "anonymous": false,
      "inputs": [
        {
          "indexed": true,
          "internalType": "bytes32",
          "name": "role",
          "type": "bytes32"
        },
        {
          "indexed": true,
          "internalType": "bytes32",
          "name": "previousAdminRole",
          "type": "bytes32"
        },
        {
          "indexed": true,
          "internalType": "bytes32",
          "name": "newAdminRole",
          "type": "bytes32"
        }
      ],
      "name": "RoleAdminChanged",
      "type": "event"
    },
    {
      "anonymous": false,
      "inputs": [
        {
          "indexed": true,
          "internalType": "bytes32",
          "name": "role",
          "type": "bytes32"
        },
        {
          "indexed": true,
          "internalType": "address",
          "name": "account",
          "type": "address"
        },
        {
          "indexed": true,
          "internalType": "address",
          "name": "sender",
          "type": "address"
        }
      ],
      "name": "RoleGranted",
      "type": "event"
    },
    {
      "anonymous": false,
      "inputs": [
        {
          "indexed": true,
          "internalType": "bytes32",
          "name": "role",
          "type": "bytes32"
        },
        {
          "indexed": true,
          "internalType": "address",
          "name": "account",
          "type": "address"
        },
        {
          "indexed": true,
          "internalType": "address",
          "name": "sender",
          "type": "address"
        }
      ],
      "name": "RoleRevoked",
      "type": "event"
    },
    {
      "anonymous": false,
      "inputs": [
        {
          "indexed": true,
          "internalType": "address",
          "name": "_operator",
          "type": "address"
        },
        {
          "indexed": true,
          "internalType": "address",
          "name": "_from",
          "type": "address"
        },
        {
          "indexed": true,
          "internalType": "address",
          "name": "_to",
          "type": "address"
        },
        {
          "indexed": false,
          "internalType": "uint256[]",
          "name": "_ids",
          "type": "uint256[]"
        },
        {
          "indexed": false,
          "internalType": "uint256[]",
          "name": "_amounts",
          "type": "uint256[]"
        }
      ],
      "name": "TransferBatch",
      "type": "event"
    },
    {
      "anonymous": false,
      "inputs": [
        {
          "indexed": true,
          "internalType": "address",
          "name": "_operator",
          "type": "address"
        },
        {
          "indexed": true,
          "internalType": "address",
          "name": "_from",
          "type": "address"
        },
        {
          "indexed": true,
          "internalType": "address",
          "name": "_to",
          "type": "address"
        },
        {
          "indexed": false,
          "internalType": "uint256",
          "name": "_id",
          "type": "uint256"
        },
        {
          "indexed": false,
          "internalType": "uint256",
          "name": "_amount",
          "type": "uint256"
        }
      ],
      "name": "TransferSingle",
      "type": "event"
    },
    {
      "anonymous": false,
      "inputs": [
        {
          "indexed": false,
          "internalType": "string",
          "name": "_uri",
          "type": "string"
        },
        {
          "indexed": true,
          "internalType": "uint256",
          "name": "_id",
          "type": "uint256"
        }
      ],
      "name": "URI",
      "type": "event"
    },
    {
      "inputs": [],
      "name": "DEFAULT_ADMIN_ROLE",
      "outputs": [
        {
          "internalType": "bytes32",
          "name": "",
          "type": "bytes32"
        }
      ],
      "stateMutability": "view",
      "type": "function"
    },
    {
      "inputs": [
        {
          "internalType": "address",
          "name": "account",
          "type": "address"
        }
      ],
      "name": "addMinter",
      "outputs": [],
      "stateMutability": "nonpayable",
      "type": "function"
    },
    {
      "inputs": [
        {
          "internalType": "address",
          "name": "_owner",
          "type": "address"
        },
        {
          "internalType": "uint256",
          "name": "_id",
          "type": "uint256"
        }
      ],
      "name": "balanceOf",
      "outputs": [
        {
          "internalType": "uint256",
          "name": "",
          "type": "uint256"
        }
      ],
      "stateMutability": "view",
      "type": "function"
    },
    {
      "inputs": [
        {
          "internalType": "address[]",
          "name": "_owners",
          "type": "address[]"
        },
        {
          "internalType": "uint256[]",
          "name": "_ids",
          "type": "uint256[]"
        }
      ],
      "name": "balanceOfBatch",
      "outputs": [
        {
          "internalType": "uint256[]",
          "name": "",
          "type": "uint256[]"
        }
      ],
      "stateMutability": "view",
      "type": "function"
    },
    {
      "inputs": [
        {
          "internalType": "uint256",
          "name": "_id",
          "type": "uint256"
        }
      ],
      "name": "create",
      "outputs": [],
      "stateMutability": "nonpayable",
      "type": "function"
    },
    {
      "inputs": [
        {
          "internalType": "uint256",
          "name": "",
          "type": "uint256"
        }
      ],
      "name": "creators",
      "outputs": [
        {
          "internalType": "address",
          "name": "",
          "type": "address"
        }
      ],
      "stateMutability": "view",
      "type": "function"
    },
    {
      "inputs": [
        {
          "internalType": "bytes32",
          "name": "role",
          "type": "bytes32"
        }
      ],
      "name": "getRoleAdmin",
      "outputs": [
        {
          "internalType": "bytes32",
          "name": "",
          "type": "bytes32"
        }
      ],
      "stateMutability": "view",
      "type": "function"
    },
    {
      "inputs": [
        {
          "internalType": "bytes32",
          "name": "role",
          "type": "bytes32"
        },
        {
          "internalType": "uint256",
          "name": "index",
          "type": "uint256"
        }
      ],
      "name": "getRoleMember",
      "outputs": [
        {
          "internalType": "address",
          "name": "",
          "type": "address"
        }
      ],
      "stateMutability": "view",
      "type": "function"
    },
    {
      "inputs": [
        {
          "internalType": "bytes32",
          "name": "role",
          "type": "bytes32"
        }
      ],
      "name": "getRoleMemberCount",
      "outputs": [
        {
          "internalType": "uint256",
          "name": "",
          "type": "uint256"
        }
      ],
      "stateMutability": "view",
      "type": "function"
    },
    {
      "inputs": [
        {
          "internalType": "bytes32",
          "name": "role",
          "type": "bytes32"
        },
        {
          "internalType": "address",
          "name": "account",
          "type": "address"
        }
      ],
      "name": "grantRole",
      "outputs": [],
      "stateMutability": "nonpayable",
      "type": "function"
    },
    {
      "inputs": [
        {
          "internalType": "bytes32",
          "name": "role",
          "type": "bytes32"
        },
        {
          "internalType": "address",
          "name": "account",
          "type": "address"
        }
      ],
      "name": "hasRole",
      "outputs": [
        {
          "internalType": "bool",
          "name": "",
          "type": "bool"
        }
      ],
      "stateMutability": "view",
      "type": "function"
    },
    {
      "inputs": [
        {
          "internalType": "address",
          "name": "_owner",
          "type": "address"
        },
        {
          "internalType": "address",
          "name": "_operator",
          "type": "address"
        }
      ],
      "name": "isApprovedForAll",
      "outputs": [
        {
          "internalType": "bool",
          "name": "isOperator",
          "type": "bool"
        }
      ],
      "stateMutability": "view",
      "type": "function"
    },
    {
      "inputs": [
        {
          "internalType": "address",
          "name": "account",
          "type": "address"
        }
      ],
      "name": "isMinter",
      "outputs": [
        {
          "internalType": "bool",
          "name": "",
          "type": "bool"
        }
      ],
      "stateMutability": "view",
      "type": "function"
    },
    {
      "inputs": [
        {
          "internalType": "address",
          "name": "_to",
          "type": "address"
        },
        {
          "internalType": "uint256",
          "name": "_id",
          "type": "uint256"
        },
        {
          "internalType": "uint256",
          "name": "_quantity",
          "type": "uint256"
        },
        {
          "internalType": "bytes",
          "name": "_data",
          "type": "bytes"
        }
      ],
      "name": "mint",
      "outputs": [],
      "stateMutability": "nonpayable",
      "type": "function"
    },
    {
      "inputs": [],
      "name": "name",
      "outputs": [
        {
          "internalType": "string",
          "name": "",
          "type": "string"
        }
      ],
      "stateMutability": "view",
      "type": "function"
    },
    {
      "inputs": [],
      "name": "owner",
      "outputs": [
        {
          "internalType": "address",
          "name": "",
          "type": "address"
        }
      ],
      "stateMutability": "view",
      "type": "function"
    },
    {
      "inputs": [],
      "name": "proxyRegistryAddress",
      "outputs": [
        {
          "internalType": "address",
          "name": "",
          "type": "address"
        }
      ],
      "stateMutability": "view",
      "type": "function"
    },
    {
      "inputs": [
        {
          "internalType": "address",
          "name": "account",
          "type": "address"
        }
      ],
      "name": "removeMinter",
      "outputs": [],
      "stateMutability": "nonpayable",
      "type": "function"
    },
    {
      "inputs": [],
      "name": "renounceMinter",
      "outputs": [],
      "stateMutability": "nonpayable",
      "type": "function"
    },
    {
      "inputs": [],
      "name": "renounceOwnership",
      "outputs": [],
      "stateMutability": "nonpayable",
      "type": "function"
    },
    {
      "inputs": [
        {
          "internalType": "bytes32",
          "name": "role",
          "type": "bytes32"
        },
        {
          "internalType": "address",
          "name": "account",
          "type": "address"
        }
      ],
      "name": "renounceRole",
      "outputs": [],
      "stateMutability": "nonpayable",
      "type": "function"
    },
    {
      "inputs": [
        {
          "internalType": "bytes32",
          "name": "role",
          "type": "bytes32"
        },
        {
          "internalType": "address",
          "name": "account",
          "type": "address"
        }
      ],
      "name": "revokeRole",
      "outputs": [],
      "stateMutability": "nonpayable",
      "type": "function"
    },
    {
      "inputs": [
        {
          "internalType": "address",
          "name": "_from",
          "type": "address"
        },
        {
          "internalType": "address",
          "name": "_to",
          "type": "address"
        },
        {
          "internalType": "uint256[]",
          "name": "_ids",
          "type": "uint256[]"
        },
        {
          "internalType": "uint256[]",
          "name": "_amounts",
          "type": "uint256[]"
        },
        {
          "internalType": "bytes",
          "name": "_data",
          "type": "bytes"
        }
      ],
      "name": "safeBatchTransferFrom",
      "outputs": [],
      "stateMutability": "nonpayable",
      "type": "function"
    },
    {
      "inputs": [
        {
          "internalType": "address",
          "name": "_from",
          "type": "address"
        },
        {
          "internalType": "address",
          "name": "_to",
          "type": "address"
        },
        {
          "internalType": "uint256",
          "name": "_id",
          "type": "uint256"
        },
        {
          "internalType": "uint256",
          "name": "_amount",
          "type": "uint256"
        },
        {
          "internalType": "bytes",
          "name": "_data",
          "type": "bytes"
        }
      ],
      "name": "safeTransferFrom",
      "outputs": [],
      "stateMutability": "nonpayable",
      "type": "function"
    },
    {
      "inputs": [
        {
          "internalType": "address",
          "name": "_operator",
          "type": "address"
        },
        {
          "internalType": "bool",
          "name": "_approved",
          "type": "bool"
        }
      ],
      "name": "setApprovalForAll",
      "outputs": [],
      "stateMutability": "nonpayable",
      "type": "function"
    },
    {
      "inputs": [
        {
          "internalType": "string",
          "name": "_newBaseMetadataURI",
          "type": "string"
        }
      ],
      "name": "setBaseMetadataURI",
      "outputs": [],
      "stateMutability": "nonpayable",
      "type": "function"
    },
    {
      "inputs": [
        {
          "internalType": "address",
          "name": "_newProxyRegistryAddress",
          "type": "address"
        }
      ],
      "name": "setProxyRegistryAddress",
      "outputs": [],
      "stateMutability": "nonpayable",
      "type": "function"
    },
    {
      "inputs": [
        {
          "internalType": "bytes4",
          "name": "_interfaceID",
          "type": "bytes4"
        }
      ],
      "name": "supportsInterface",
      "outputs": [
        {
          "internalType": "bool",
          "name": "",
          "type": "bool"
        }
      ],
      "stateMutability": "view",
      "type": "function"
    },
    {
      "inputs": [],
      "name": "symbol",
      "outputs": [
        {
          "internalType": "string",
          "name": "",
          "type": "string"
        }
      ],
      "stateMutability": "view",
      "type": "function"
    },
    {
      "inputs": [
        {
          "internalType": "uint256",
          "name": "",
          "type": "uint256"
        }
      ],
      "name": "tokenSupply",
      "outputs": [
        {
          "internalType": "uint256",
          "name": "",
          "type": "uint256"
        }
      ],
      "stateMutability": "view",
      "type": "function"
    },
    {
      "inputs": [
        {
          "internalType": "address",
          "name": "newOwner",
          "type": "address"
        }
      ],
      "name": "transferOwnership",
      "outputs": [],
      "stateMutability": "nonpayable",
      "type": "function"
    },
    {
      "inputs": [
        {
          "internalType": "uint256",
          "name": "_id",
          "type": "uint256"
        }
      ],
      "name": "uri",
      "outputs": [
        {
          "internalType": "string",
          "name": "",
          "type": "string"
        }
      ],
      "stateMutability": "view",
      "type": "function"
    }
  ],
  "bytecode": "0x608060405260006006553480156200001657600080fd5b506040516200327938038062003279833981810160405260608110156200003c57600080fd5b81019080805160405193929190846401000000008211156200005d57600080fd5b9083019060208201858111156200007357600080fd5b82516401000000008111828201881017156200008e57600080fd5b82525081516020918201929091019080838360005b83811015620000bd578181015183820152602001620000a3565b50505050905090810190601f168015620000eb5780820380516001836020036101000a031916815260200191505b50604052602001805160405193929190846401000000008211156200010f57600080fd5b9083019060208201858111156200012557600080fd5b82516401000000008111828201881017156200014057600080fd5b82525081516020918201929091019080838360005b838110156200016f57818101518382015260200162000155565b50505050905090810190601f1680156200019d5780820380516001836020036101000a031916815260200191505b5060405260200151915060009050620001be6001600160e01b03620002d116565b600380546001600160a01b0319166001600160a01b038316908117909155604051919250906000907f8be0079c531659141344cd1fd0a4f28419497f9722a3daafe3b4186f6b6457e0908290a350620002346000620002256001600160e01b03620002d116565b6001600160e01b03620002d616565b620002476001600160e01b03620002d116565b6001600160a01b03167f6ae172837ea30b801fbfcdd4108aa1d5bf8ff775444fd70256b44e6bf3dfc3f660405160405180910390a28251620002919060099060208601906200040c565b508151620002a790600a9060208501906200040c565b50600580546001600160a01b0319166001600160a01b039290921691909117905550620004ae9050565b335b90565b620002eb82826001600160e01b03620002ef16565b5050565b60008281526004602090815260409091206200031691839062001a4d62000373821b17901c565b15620002eb576200032f6001600160e01b03620002d116565b6001600160a01b0316816001600160a01b0316837f2f8788117e7eff1d82e926ec794901d17c78024a50270940304540a733656f0d60405160405180910390a45050565b600062000393836001600160a01b0384166001600160e01b036200039c16565b90505b92915050565b6000620003b383836001600160e01b03620003f416565b620003eb5750815460018181018455600084815260208082209093018490558454848252828601909352604090209190915562000396565b50600062000396565b60009081526001919091016020526040902054151590565b828054600181600116156101000203166002900490600052602060002090601f016020900481019282601f106200044f57805160ff19168380011785556200047f565b828001600101855582156200047f579182015b828111156200047f57825182559160200191906001019062000462565b506200048d92915062000491565b5090565b620002d391905b808211156200048d576000815560010162000498565b612dbb80620004be6000396000f3fe608060405234801561001057600080fd5b50600436106101ef5760003560e01c80639010d07c1161010f578063ca15c873116100a2578063d547741f11610071578063d547741f14610a11578063e985e9c514610a3d578063f242432a14610a6b578063f2fde38b14610b36576101ef565b8063ca15c873146109a9578063cd53d08e146109c6578063cd7c0326146109e3578063d26ea6c0146109eb576101ef565b806398650275116100de5780639865027514610945578063a217fddf1461094d578063a22cb46514610955578063aa271e1a14610983576101ef565b80639010d07c146108c857806391d14854146108eb57806395d89b4114610917578063983b2d561461091f576101ef565b80633092afd511610187578063731133e911610156578063731133e91461071f578063780900dc146107e15780637e518ec8146107fe5780638da5cb5b146108a4576101ef565b80633092afd51461054e57806336568abe146105745780634e1273f4146105a0578063715018a614610717576101ef565b8063248a9ca3116101c3578063248a9ca31461031f5780632693ebf21461033c5780632eb2c2d6146103595780632f2ff15d14610522576101ef565b8062fdd58e146101f457806301ffc9a71461023257806306fdde03146102855780630e89341c14610302575b600080fd5b6102206004803603604081101561020a57600080fd5b506001600160a01b038135169060200135610b5c565b60408051918252519081900360200190f35b6102716004803603602081101561024857600080fd5b50357fffffffff0000000000000000000000000000000000000000000000000000000016610b85565b604080519115158252519081900360200190f35b61028d610c2e565b6040805160208082528351818301528351919283929083019185019080838360005b838110156102c75781810151838201526020016102af565b50505050905090810190601f1680156102f45780820380516001836020036101000a031916815260200191505b509250505060405180910390f35b61028d6004803603602081101561031857600080fd5b5035610cbc565b6102206004803603602081101561033557600080fd5b5035610d5b565b6102206004803603602081101561035257600080fd5b5035610d70565b610520600480360360a081101561036f57600080fd5b6001600160a01b0382358116926020810135909116918101906060810160408201356401000000008111156103a357600080fd5b8201836020820111156103b557600080fd5b803590602001918460208302840111640100000000831117156103d757600080fd5b919080806020026020016040519081016040528093929190818152602001838360200280828437600092019190915250929594936020810193503591505064010000000081111561042757600080fd5b82018360208201111561043957600080fd5b8035906020019184602083028401116401000000008311171561045b57600080fd5b91908080602002602001604051908101604052809392919081815260200183836020028082843760009201919091525092959493602081019350359150506401000000008111156104ab57600080fd5b8201836020820111156104bd57600080fd5b803590602001918460018302840111640100000000831117156104df57600080fd5b91908080601f016020809104026020016040519081016040528093929190818152602001838380828437600092019190915250929550610d82945050505050565b005b6105206004803603604081101561053857600080fd5b50803590602001356001600160a01b0316610e3e565b6105206004803603602081101561056457600080fd5b50356001600160a01b0316610eaa565b6105206004803603604081101561058a57600080fd5b50803590602001356001600160a01b0316610f22565b6106c7600480360360408110156105b657600080fd5b8101906020810181356401000000008111156105d157600080fd5b8201836020820111156105e357600080fd5b8035906020019184602083028401116401000000008311171561060557600080fd5b919080806020026020016040519081016040528093929190818152602001838360200280828437600092019190915250929594936020810193503591505064010000000081111561065557600080fd5b82018360208201111561066757600080fd5b8035906020019184602083028401116401000000008311171561068957600080fd5b919080806020026020016040519081016040528093929190818152602001838360200280828437600092019190915250929550610f83945050505050565b60408051602080825283518183015283519192839290830191858101910280838360005b838110156107035781810151838201526020016106eb565b505050509050019250505060405180910390f35b61052061109b565b6105206004803603608081101561073557600080fd5b6001600160a01b03823516916020810135916040820135919081019060808101606082013564010000000081111561076c57600080fd5b82018360208201111561077e57600080fd5b803590602001918460018302840111640100000000831117156107a057600080fd5b91908080601f01602080910402602001604051908101604052809392919081815260200183838082843760009201919091525092955061115c945050505050565b610520600480360360208110156107f757600080fd5b50356111ea565b6105206004803603602081101561081457600080fd5b81019060208101813564010000000081111561082f57600080fd5b82018360208201111561084157600080fd5b8035906020019184600183028401116401000000008311171561086357600080fd5b91908080601f016020809104026020016040519081016040528093929190818152602001838380828437600092019190915250929550611321945050505050565b6108ac611394565b604080516001600160a01b039092168252519081900360200190f35b6108ac600480360360408110156108de57600080fd5b50803590602001356113a4565b6102716004803603604081101561090157600080fd5b50803590602001356001600160a01b03166113c9565b61028d6113e7565b6105206004803603602081101561093557600080fd5b50356001600160a01b0316611442565b61052061150f565b6102206115a6565b6105206004803603604081101561096b57600080fd5b506001600160a01b03813516906020013515156115ab565b6102716004803603602081101561099957600080fd5b50356001600160a01b0316611637565b610220600480360360208110156109bf57600080fd5b5035611689565b6108ac600480360360208110156109dc57600080fd5b50356116a0565b6108ac6116bb565b61052060048036036020811015610a0157600080fd5b50356001600160a01b03166116ca565b61052060048036036040811015610a2757600080fd5b50803590602001356001600160a01b0316611763565b61027160048036036040811015610a5357600080fd5b506001600160a01b03813581169160200135166117bc565b610520600480360360a0811015610a8157600080fd5b6001600160a01b03823581169260208101359091169160408201359160608101359181019060a081016080820135640100000000811115610ac157600080fd5b820183602082011115610ad357600080fd5b80359060200191846001830284011164010000000083111715610af557600080fd5b91908080601f016020809104026020016040519081016040528093929190818152602001838380828437600092019190915250929550611880945050505050565b61052060048036036020811015610b4c57600080fd5b50356001600160a01b0316611935565b6001600160a01b0382166000908152602081815260408083208484529091529020545b92915050565b60007fffffffff0000000000000000000000000000000000000000000000000000000082167f01ffc9a7000000000000000000000000000000000000000000000000000000001480610c1857507fffffffff0000000000000000000000000000000000000000000000000000000082167fd9b67a2600000000000000000000000000000000000000000000000000000000145b15610c2557506001610c29565b5060005b919050565b6009805460408051602060026001851615610100026000190190941693909304601f81018490048402820184019092528181529291830182828015610cb45780601f10610c8957610100808354040283529160200191610cb4565b820191906000526020600020905b815481529060010190602001808311610c9757829003601f168201915b505050505081565b6002805460408051602060018416156101000260001901909316849004601f8101849004840282018401909252818152606093610b7f9391929091830182828015610d485780601f10610d1d57610100808354040283529160200191610d48565b820191906000526020600020905b815481529060010190602001808311610d2b57829003601f168201915b5050505050610d5684611a62565b611b56565b60009081526004602052604090206002015490565b60086020526000908152604090205481565b336001600160a01b0386161480610d9e5750610d9e85336117bc565b610dd95760405162461bcd60e51b815260040180806020018281038252602f815260200180612caf602f913960400191505060405180910390fd5b6001600160a01b038416610e1e5760405162461bcd60e51b8152600401808060200182810382526030815260200180612c2a6030913960400191505060405180910390fd5b610e2a85858585611b92565b610e378585858585611e3d565b5050505050565b600082815260046020526040902060020154610e6190610e5c612074565b6113c9565b610e9c5760405162461bcd60e51b815260040180806020018281038252602f815260200180612ac2602f913960400191505060405180910390fd5b610ea68282612078565b5050565b610eb2612074565b6003546001600160a01b03908116911614610f14576040805162461bcd60e51b815260206004820181905260248201527f4f776e61626c653a2063616c6c6572206973206e6f7420746865206f776e6572604482015290519081900360640190fd5b610f1f600082611763565b50565b610f2a612074565b6001600160a01b0316816001600160a01b031614610f795760405162461bcd60e51b815260040180806020018281038252602f815260200180612d57602f913960400191505060405180910390fd5b610ea682826120e7565b60608151835114610fc55760405162461bcd60e51b815260040180806020018281038252602c815260200180612c5a602c913960400191505060405180910390fd5b6060835167ffffffffffffffff81118015610fdf57600080fd5b50604051908082528060200260200182016040528015611009578160200160208202803683370190505b50905060005b84518110156110935760008086838151811061102757fe5b60200260200101516001600160a01b03166001600160a01b03168152602001908152602001600020600085838151811061105d57fe5b602002602001015181526020019081526020016000205482828151811061108057fe5b602090810291909101015260010161100f565b509392505050565b6110a3612074565b6003546001600160a01b03908116911614611105576040805162461bcd60e51b815260206004820181905260248201527f4f776e61626c653a2063616c6c6572206973206e6f7420746865206f776e6572604482015290519081900360640190fd5b6003546040516000916001600160a01b0316907f8be0079c531659141344cd1fd0a4f28419497f9722a3daafe3b4186f6b6457e0908390a36003805473ffffffffffffffffffffffffffffffffffffffff19169055565b61116c611167612074565b611637565b6111a75760405162461bcd60e51b8152600401808060200182810382526030815260200180612bfa6030913960400191505060405180910390fd5b6111b384848484612156565b6000838152600860205260409020546111d2908363ffffffff6121fc16565b60009384526008602052604090932092909255505050565b6111f2612074565b6003546001600160a01b03908116911614611254576040805162461bcd60e51b815260206004820181905260248201527f4f776e61626c653a2063616c6c6572206973206e6f7420746865206f776e6572604482015290519081900360640190fd5b6000818152600760205260409020805473ffffffffffffffffffffffffffffffffffffffff191633179055807f6bb7ff708619ba0610cba295a58592e0451dee2622938c8755667688daf3529b6112aa82610cbc565b6040805160208082528351818301528351919283929083019185019080838360005b838110156112e45781810151838201526020016112cc565b50505050905090810190601f1680156113115780820380516001836020036101000a031916815260200191505b509250505060405180910390a250565b611329612074565b6003546001600160a01b0390811691161461138b576040805162461bcd60e51b815260206004820181905260248201527f4f776e61626c653a2063616c6c6572206973206e6f7420746865206f776e6572604482015290519081900360640190fd5b610f1f81612256565b6003546001600160a01b03165b90565b60008281526004602052604081206113c2908363ffffffff61226916565b9392505050565b60008281526004602052604081206113c2908363ffffffff61227516565b600a805460408051602060026001851615610100026000190190941693909304601f81018490048402820184019092528181529291830182828015610cb45780601f10610c8957610100808354040283529160200191610cb4565b61144d611167612074565b6114885760405162461bcd60e51b8152600401808060200182810382526030815260200180612bfa6030913960400191505060405180910390fd5b61149181611637565b156114cd5760405162461bcd60e51b8152600401808060200182810382526029815260200180612c866029913960400191505060405180910390fd5b6114d8600082610e3e565b6040516001600160a01b038216907f6ae172837ea30b801fbfcdd4108aa1d5bf8ff775444fd70256b44e6bf3dfc3f690600090a250565b61151a611167612074565b6115555760405162461bcd60e51b8152600401808060200182810382526030815260200180612bfa6030913960400191505060405180910390fd5b6115676000611562612074565b610f22565b61156f612074565b6001600160a01b03167fe94479a9f7e1952cc78f2d6baab678adc1b772d936c6583def489e524cb6669260405160405180910390a2565b600081565b3360008181526001602090815260408083206001600160a01b0387168085529083529281902080547fffffffffffffffffffffffffffffffffffffffffffffffffffffffffffffff0016861515908117909155815190815290519293927f17307eab39ab6107e8899845ad3d59bd9653f200f220920489ca2b5937696c31929181900390910190a35050565b60006001600160a01b03821661167e5760405162461bcd60e51b8152600401808060200182810382526029815260200180612b6c6029913960400191505060405180910390fd5b610b7f6000836113c9565b6000818152600460205260408120610b7f9061228a565b6007602052600090815260409020546001600160a01b031681565b6005546001600160a01b031681565b6116d2612074565b6003546001600160a01b03908116911614611734576040805162461bcd60e51b815260206004820181905260248201527f4f776e61626c653a2063616c6c6572206973206e6f7420746865206f776e6572604482015290519081900360640190fd5b6005805473ffffffffffffffffffffffffffffffffffffffff19166001600160a01b0392909216919091179055565b60008281526004602052604090206002015461178190610e5c612074565b610f795760405162461bcd60e51b8152600401808060200182810382526030815260200180612bca6030913960400191505060405180910390fd5b600554604080517fc45527910000000000000000000000000000000000000000000000000000000081526001600160a01b0385811660048301529151600093831692851691839163c455279191602480820192602092909190829003018186803b15801561182957600080fd5b505afa15801561183d573d6000803e3d6000fd5b505050506040513d602081101561185357600080fd5b50516001600160a01b0316141561186e576001915050610b7f565b6118788484612295565b949350505050565b336001600160a01b038616148061189c575061189c85336117bc565b6118d75760405162461bcd60e51b815260040180806020018281038252602a815260200180612b42602a913960400191505060405180910390fd5b6001600160a01b03841661191c5760405162461bcd60e51b815260040180806020018281038252602b815260200180612af1602b913960400191505060405180910390fd5b611928858585856122c3565b610e3785858585856123ab565b61193d612074565b6003546001600160a01b0390811691161461199f576040805162461bcd60e51b815260206004820181905260248201527f4f776e61626c653a2063616c6c6572206973206e6f7420746865206f776e6572604482015290519081900360640190fd5b6001600160a01b0381166119e45760405162461bcd60e51b8152600401808060200182810382526026815260200180612b1c6026913960400191505060405180910390fd5b6003546040516001600160a01b038084169216907f8be0079c531659141344cd1fd0a4f28419497f9722a3daafe3b4186f6b6457e090600090a36003805473ffffffffffffffffffffffffffffffffffffffff19166001600160a01b0392909216919091179055565b60006113c2836001600160a01b03841661255e565b606081611aa3575060408051808201909152600181527f30000000000000000000000000000000000000000000000000000000000000006020820152610c29565b8160005b8115611abb57600101600a82049150611aa7565b60608167ffffffffffffffff81118015611ad457600080fd5b506040519080825280601f01601f191660200182016040528015611aff576020820181803683370190505b50905060001982015b8515611b4d57600a860660300160f81b82828060019003935081518110611b2b57fe5b60200101906001600160f81b031916908160001a905350600a86049550611b08565b50949350505050565b60606113c283836040518060200160405280600081525060405180602001604052806000815250604051806020016040528060008152506125a8565b8051825114611bd25760405162461bcd60e51b8152600401808060200182810382526035815260200180612b956035913960400191505060405180910390fd5b815160005b81811015611d5c57611c4d838281518110611bee57fe5b6020026020010151600080896001600160a01b03166001600160a01b031681526020019081526020016000206000878581518110611c2857fe5b60200260200101518152602001908152602001600020546127cd90919063ffffffff16565b600080886001600160a01b03166001600160a01b031681526020019081526020016000206000868481518110611c7f57fe5b6020026020010151815260200190815260200160002081905550611d07838281518110611ca857fe5b6020026020010151600080886001600160a01b03166001600160a01b031681526020019081526020016000206000878581518110611ce257fe5b60200260200101518152602001908152602001600020546121fc90919063ffffffff16565b600080876001600160a01b03166001600160a01b031681526020019081526020016000206000868481518110611d3957fe5b602090810291909101810151825281019190915260400160002055600101611bd7565b50836001600160a01b0316856001600160a01b0316336001600160a01b03167f4a39dc06d4c0dbc64b70af90fd698a233a518aa5d07e595d983b8c0526c8f7fb8686604051808060200180602001838103835285818151815260200191508051906020019060200280838360005b83811015611de2578181015183820152602001611dca565b50505050905001838103825284818151815260200191508051906020019060200280838360005b83811015611e21578181015183820152602001611e09565b5050505090500194505050505060405180910390a45050505050565b611e4f846001600160a01b031661280f565b15610e37576000846001600160a01b031663bc197c8133888787876040518663ffffffff1660e01b815260040180866001600160a01b03166001600160a01b03168152602001856001600160a01b03166001600160a01b03168152602001806020018060200180602001848103845287818151815260200191508051906020019060200280838360005b83811015611ef1578181015183820152602001611ed9565b50505050905001848103835286818151815260200191508051906020019060200280838360005b83811015611f30578181015183820152602001611f18565b50505050905001848103825285818151815260200191508051906020019080838360005b83811015611f6c578181015183820152602001611f54565b50505050905090810190601f168015611f995780820380516001836020036101000a031916815260200191505b5098505050505050505050602060405180830381600087803b158015611fbe57600080fd5b505af1158015611fd2573d6000803e3d6000fd5b505050506040513d6020811015611fe857600080fd5b505190507fffffffff0000000000000000000000000000000000000000000000000000000081167fbc197c81000000000000000000000000000000000000000000000000000000001461206c5760405162461bcd60e51b815260040180806020018281038252603f815260200180612cde603f913960400191505060405180910390fd5b505050505050565b3390565b6000828152600460205260409020612096908263ffffffff611a4d16565b15610ea6576120a3612074565b6001600160a01b0316816001600160a01b0316837f2f8788117e7eff1d82e926ec794901d17c78024a50270940304540a733656f0d60405160405180910390a45050565b6000828152600460205260409020612105908263ffffffff61281516565b15610ea657612112612074565b6001600160a01b0316816001600160a01b0316837ff6391f5c32d9c69d2a47ea670b442974b53935d1edc7fd64eb21e047a839171b60405160405180910390a45050565b6001600160a01b038416600090815260208181526040808320868452909152902054612188908363ffffffff6121fc16565b6001600160a01b038516600081815260208181526040808320888452825280832094909455835187815290810186905283519293919233927fc3d58168c5ae7397731d063d5bbf3d657854427343f4c083240f7aacaa2d0f62928290030190a46121f66000858585856123ab565b50505050565b6000828201838110156113c2576040805162461bcd60e51b815260206004820152601b60248201527f536166654d6174683a206164646974696f6e206f766572666c6f770000000000604482015290519081900360640190fd5b8051610ea6906002906020840190612a07565b60006113c2838361282a565b60006113c2836001600160a01b03841661288e565b6000610b7f826128a6565b6001600160a01b03918216600090815260016020908152604080832093909416825291909152205460ff1690565b6001600160a01b0384166000908152602081815260408083208584529091529020546122f5908263ffffffff6127cd16565b6001600160a01b038086166000908152602081815260408083208784528252808320949094559186168152808252828120858252909152205461233e908263ffffffff6121fc16565b6001600160a01b03808516600081815260208181526040808320888452825291829020949094558051868152938401859052805191939288169233927fc3d58168c5ae7397731d063d5bbf3d657854427343f4c083240f7aacaa2d0f62929181900390910190a450505050565b6123bd846001600160a01b031661280f565b15610e37576000846001600160a01b031663f23a6e6133888787876040518663ffffffff1660e01b815260040180866001600160a01b03166001600160a01b03168152602001856001600160a01b03166001600160a01b0316815260200184815260200183815260200180602001828103825283818151815260200191508051906020019080838360005b83811015612460578181015183820152602001612448565b50505050905090810190601f16801561248d5780820380516001836020036101000a031916815260200191505b509650505050505050602060405180830381600087803b1580156124b057600080fd5b505af11580156124c4573d6000803e3d6000fd5b505050506040513d60208110156124da57600080fd5b505190507fffffffff0000000000000000000000000000000000000000000000000000000081167ff23a6e61000000000000000000000000000000000000000000000000000000001461206c5760405162461bcd60e51b815260040180806020018281038252603a815260200180612d1d603a913960400191505060405180910390fd5b600061256a838361288e565b6125a057508154600181810184556000848152602080822090930184905584548482528286019093526040902091909155610b7f565b506000610b7f565b805182518451865188516060948a948a948a948a948a948a94919092019092019091010167ffffffffffffffff811180156125e257600080fd5b506040519080825280601f01601f19166020018201604052801561260d576020820181803683370190505b509050806000805b88518110156126665788818151811061262a57fe5b602001015160f81c60f81b83838060010194508151811061264757fe5b60200101906001600160f81b031916908160001a905350600101612615565b5060005b87518110156126bb5787818151811061267f57fe5b602001015160f81c60f81b83838060010194508151811061269c57fe5b60200101906001600160f81b031916908160001a90535060010161266a565b5060005b8651811015612710578681815181106126d457fe5b602001015160f81c60f81b8383806001019450815181106126f157fe5b60200101906001600160f81b031916908160001a9053506001016126bf565b5060005b85518110156127655785818151811061272957fe5b602001015160f81c60f81b83838060010194508151811061274657fe5b60200101906001600160f81b031916908160001a905350600101612714565b5060005b84518110156127ba5784818151811061277e57fe5b602001015160f81c60f81b83838060010194508151811061279b57fe5b60200101906001600160f81b031916908160001a905350600101612769565b50909d9c50505050505050505050505050565b60006113c283836040518060400160405280601e81526020017f536166654d6174683a207375627472616374696f6e206f766572666c6f7700008152506128aa565b3b151590565b60006113c2836001600160a01b038416612941565b8154600090821061286c5760405162461bcd60e51b8152600401808060200182810382526022815260200180612aa06022913960400191505060405180910390fd5b82600001828154811061287b57fe5b9060005260206000200154905092915050565b60009081526001919091016020526040902054151590565b5490565b600081848411156129395760405162461bcd60e51b81526004018080602001828103825283818151815260200191508051906020019080838360005b838110156128fe5781810151838201526020016128e6565b50505050905090810190601f16801561292b5780820380516001836020036101000a031916815260200191505b509250505060405180910390fd5b505050900390565b600081815260018301602052604081205480156129fd578354600019808301919081019060009087908390811061297457fe5b906000526020600020015490508087600001848154811061299157fe5b6000918252602080832090910192909255828152600189810190925260409020908401905586548790806129c157fe5b60019003818190600052602060002001600090559055866001016000878152602001908152602001600020600090556001945050505050610b7f565b6000915050610b7f565b828054600181600116156101000203166002900490600052602060002090601f016020900481019282601f10612a4857805160ff1916838001178555612a75565b82800160010185558215612a75579182015b82811115612a75578251825591602001919060010190612a5a565b50612a81929150612a85565b5090565b6113a191905b80821115612a815760008155600101612a8b56fe456e756d657261626c655365743a20696e646578206f7574206f6620626f756e6473416363657373436f6e74726f6c3a2073656e646572206d75737420626520616e2061646d696e20746f206772616e744552433131353523736166655472616e7366657246726f6d3a20494e56414c49445f524543495049454e544f776e61626c653a206e6577206f776e657220697320746865207a65726f20616464726573734552433131353523736166655472616e7366657246726f6d3a20494e56414c49445f4f50455241544f524d696e746572526f6c653a2061646472657373207a65726f2063616e6e6f74206265206d696e74657245524331313535235f7361666542617463685472616e7366657246726f6d3a20494e56414c49445f4152524159535f4c454e475448416363657373436f6e74726f6c3a2073656e646572206d75737420626520616e2061646d696e20746f207265766f6b654d696e746572526f6c653a2063616c6c657220646f6573206e6f74206861766520746865204d696e74657220726f6c6545524331313535237361666542617463685472616e7366657246726f6d3a20494e56414c49445f524543495049454e54455243313135352362616c616e63654f6642617463683a20494e56414c49445f41525241595f4c454e4754484d696e746572526f6c653a2061646420616e206163636f756e7420616c7265616479206d696e74657245524331313535237361666542617463685472616e7366657246726f6d3a20494e56414c49445f4f50455241544f5245524331313535235f63616c6c6f6e45524331313535426174636852656365697665643a20494e56414c49445f4f4e5f524543454956455f4d45535341474545524331313535235f63616c6c6f6e4552433131353552656365697665643a20494e56414c49445f4f4e5f524543454956455f4d455353414745416363657373436f6e74726f6c3a2063616e206f6e6c792072656e6f756e636520726f6c657320666f722073656c66a26469706673582212206c41e58f9f5027efb09819d67223192b1360efd59c00e43cb7cb400817573bb064736f6c63430006080033",
  "linkReferences": {},
  "deployedLinkReferences": {}
}