{
  "_format": "hh-sol-artifact-1",
  "contractName": "GameeVouchers",
  "sourceName": "contracts/solc-0.6/token/ERC1155/GameeVouchers.sol",
  "abi": [
    {
      "inputs": [
        {
          "internalType": "address",
          "name": "proxyContractAddress",
          "type": "address"
        }
      ],
      "stateMutability": "nonpayable",
      "type": "constructor"
    },
    {
      "anonymous": false,
      "inputs": [
        {
          "indexed": true,
          "internalType": "address",
          "name": "_owner",
          "type": "address"
        },
        {
          "indexed": true,
          "internalType": "address",
          "name": "_operator",
          "type": "address"
        },
        {
          "indexed": false,
          "internalType": "bool",
          "name": "_approved",
          "type": "bool"
        }
      ],
      "name": "ApprovalForAll",
      "type": "event"
    },
    {
      "anonymous": false,
      "inputs": [
        {
          "indexed": true,
          "internalType": "uint256",
          "name": "collectionId",
          "type": "uint256"
        },
        {
          "indexed": true,
          "internalType": "bool",
          "name": "fungible",
          "type": "bool"
        }
      ],
      "name": "CollectionCreated",
      "type": "event"
    },
    {
      "anonymous": false,
      "inputs": [
        {
          "indexed": true,
          "internalType": "address",
          "name": "account",
          "type": "address"
        }
      ],
      "name": "MinterAdded",
      "type": "event"
    },
    {
      "anonymous": false,
      "inputs": [
        {
          "indexed": true,
          "internalType": "address",
          "name": "account",
          "type": "address"
        }
      ],
      "name": "MinterRemoved",
      "type": "event"
    },
    {
      "anonymous": false,
      "inputs": [
        {
          "indexed": true,
          "internalType": "address",
          "name": "previousOwner",
          "type": "address"
        },
        {
          "indexed": true,
          "internalType": "address",
          "name": "newOwner",
          "type": "address"
        }
      ],
      "name": "OwnershipTransferred",
      "type": "event"
    },
    {
      "anonymous": false,
      "inputs": [
        {
          "indexed": true,
          "internalType": "bytes32",
          "name": "role",
          "type": "bytes32"
        },
        {
          "indexed": true,
          "internalType": "bytes32",
          "name": "previousAdminRole",
          "type": "bytes32"
        },
        {
          "indexed": true,
          "internalType": "bytes32",
          "name": "newAdminRole",
          "type": "bytes32"
        }
      ],
      "name": "RoleAdminChanged",
      "type": "event"
    },
    {
      "anonymous": false,
      "inputs": [
        {
          "indexed": true,
          "internalType": "bytes32",
          "name": "role",
          "type": "bytes32"
        },
        {
          "indexed": true,
          "internalType": "address",
          "name": "account",
          "type": "address"
        },
        {
          "indexed": true,
          "internalType": "address",
          "name": "sender",
          "type": "address"
        }
      ],
      "name": "RoleGranted",
      "type": "event"
    },
    {
      "anonymous": false,
      "inputs": [
        {
          "indexed": true,
          "internalType": "bytes32",
          "name": "role",
          "type": "bytes32"
        },
        {
          "indexed": true,
          "internalType": "address",
          "name": "account",
          "type": "address"
        },
        {
          "indexed": true,
          "internalType": "address",
          "name": "sender",
          "type": "address"
        }
      ],
      "name": "RoleRevoked",
      "type": "event"
    },
    {
      "anonymous": false,
      "inputs": [
        {
          "indexed": true,
          "internalType": "address",
          "name": "_operator",
          "type": "address"
        },
        {
          "indexed": true,
          "internalType": "address",
          "name": "_from",
          "type": "address"
        },
        {
          "indexed": true,
          "internalType": "address",
          "name": "_to",
          "type": "address"
        },
        {
          "indexed": false,
          "internalType": "uint256[]",
          "name": "_ids",
          "type": "uint256[]"
        },
        {
          "indexed": false,
          "internalType": "uint256[]",
          "name": "_values",
          "type": "uint256[]"
        }
      ],
      "name": "TransferBatch",
      "type": "event"
    },
    {
      "anonymous": false,
      "inputs": [
        {
          "indexed": true,
          "internalType": "address",
          "name": "_operator",
          "type": "address"
        },
        {
          "indexed": true,
          "internalType": "address",
          "name": "_from",
          "type": "address"
        },
        {
          "indexed": true,
          "internalType": "address",
          "name": "_to",
          "type": "address"
        },
        {
          "indexed": false,
          "internalType": "uint256",
          "name": "_id",
          "type": "uint256"
        },
        {
          "indexed": false,
          "internalType": "uint256",
          "name": "_value",
          "type": "uint256"
        }
      ],
      "name": "TransferSingle",
      "type": "event"
    },
    {
      "anonymous": false,
      "inputs": [
        {
          "indexed": false,
          "internalType": "string",
          "name": "_value",
          "type": "string"
        },
        {
          "indexed": true,
          "internalType": "uint256",
          "name": "_id",
          "type": "uint256"
        }
      ],
      "name": "URI",
      "type": "event"
    },
    {
      "inputs": [],
      "name": "DEFAULT_ADMIN_ROLE",
      "outputs": [
        {
          "internalType": "bytes32",
          "name": "",
          "type": "bytes32"
        }
      ],
      "stateMutability": "view",
      "type": "function"
    },
    {
      "inputs": [
        {
          "internalType": "address",
          "name": "account",
          "type": "address"
        }
      ],
      "name": "addMinter",
      "outputs": [],
      "stateMutability": "nonpayable",
      "type": "function"
    },
    {
      "inputs": [
        {
          "internalType": "address",
          "name": "owner",
          "type": "address"
        },
        {
          "internalType": "uint256",
          "name": "id",
          "type": "uint256"
        }
      ],
      "name": "balanceOf",
      "outputs": [
        {
          "internalType": "uint256",
          "name": "",
          "type": "uint256"
        }
      ],
      "stateMutability": "view",
      "type": "function"
    },
    {
      "inputs": [
        {
          "internalType": "address[]",
          "name": "owners",
          "type": "address[]"
        },
        {
          "internalType": "uint256[]",
          "name": "ids",
          "type": "uint256[]"
        }
      ],
      "name": "balanceOfBatch",
      "outputs": [
        {
          "internalType": "uint256[]",
          "name": "",
          "type": "uint256[]"
        }
      ],
      "stateMutability": "view",
      "type": "function"
    },
    {
      "inputs": [
        {
          "internalType": "address",
          "name": "from",
          "type": "address"
        },
        {
          "internalType": "uint256[]",
          "name": "ids",
          "type": "uint256[]"
        },
        {
          "internalType": "uint256[]",
          "name": "values",
          "type": "uint256[]"
        }
      ],
      "name": "batchBurnFrom",
      "outputs": [],
      "stateMutability": "nonpayable",
      "type": "function"
    },
    {
      "inputs": [
        {
          "internalType": "address",
          "name": "to",
          "type": "address"
        },
        {
          "internalType": "uint256[]",
          "name": "ids",
          "type": "uint256[]"
        },
        {
          "internalType": "uint256[]",
          "name": "values",
          "type": "uint256[]"
        },
        {
          "internalType": "bytes",
          "name": "data",
          "type": "bytes"
        }
      ],
      "name": "batchMint",
      "outputs": [],
      "stateMutability": "nonpayable",
      "type": "function"
    },
    {
      "inputs": [
        {
          "internalType": "address",
          "name": "from",
          "type": "address"
        },
        {
          "internalType": "uint256",
          "name": "id",
          "type": "uint256"
        },
        {
          "internalType": "uint256",
          "name": "value",
          "type": "uint256"
        }
      ],
      "name": "burnFrom",
      "outputs": [],
      "stateMutability": "nonpayable",
      "type": "function"
    },
    {
      "inputs": [
        {
          "internalType": "uint256",
          "name": "nftId",
          "type": "uint256"
        }
      ],
      "name": "collectionOf",
      "outputs": [
        {
          "internalType": "uint256",
          "name": "",
          "type": "uint256"
        }
      ],
      "stateMutability": "pure",
      "type": "function"
    },
    {
      "inputs": [
        {
          "internalType": "uint256",
          "name": "collectionId",
          "type": "uint256"
        }
      ],
      "name": "createCollection",
      "outputs": [],
      "stateMutability": "nonpayable",
      "type": "function"
    },
    {
      "inputs": [
        {
          "internalType": "bytes32",
          "name": "role",
          "type": "bytes32"
        }
      ],
      "name": "getRoleAdmin",
      "outputs": [
        {
          "internalType": "bytes32",
          "name": "",
          "type": "bytes32"
        }
      ],
      "stateMutability": "view",
      "type": "function"
    },
    {
      "inputs": [
        {
          "internalType": "bytes32",
          "name": "role",
          "type": "bytes32"
        },
        {
          "internalType": "uint256",
          "name": "index",
          "type": "uint256"
        }
      ],
      "name": "getRoleMember",
      "outputs": [
        {
          "internalType": "address",
          "name": "",
          "type": "address"
        }
      ],
      "stateMutability": "view",
      "type": "function"
    },
    {
      "inputs": [
        {
          "internalType": "bytes32",
          "name": "role",
          "type": "bytes32"
        }
      ],
      "name": "getRoleMemberCount",
      "outputs": [
        {
          "internalType": "uint256",
          "name": "",
          "type": "uint256"
        }
      ],
      "stateMutability": "view",
      "type": "function"
    },
    {
      "inputs": [
        {
          "internalType": "bytes32",
          "name": "role",
          "type": "bytes32"
        },
        {
          "internalType": "address",
          "name": "account",
          "type": "address"
        }
      ],
      "name": "grantRole",
      "outputs": [],
      "stateMutability": "nonpayable",
      "type": "function"
    },
    {
      "inputs": [
        {
          "internalType": "bytes32",
          "name": "role",
          "type": "bytes32"
        },
        {
          "internalType": "address",
          "name": "account",
          "type": "address"
        }
      ],
      "name": "hasRole",
      "outputs": [
        {
          "internalType": "bool",
          "name": "",
          "type": "bool"
        }
      ],
      "stateMutability": "view",
      "type": "function"
    },
    {
      "inputs": [
        {
          "internalType": "address",
          "name": "tokenOwner",
          "type": "address"
        },
        {
          "internalType": "address",
          "name": "operator",
          "type": "address"
        }
      ],
      "name": "isApprovedForAll",
      "outputs": [
        {
          "internalType": "bool",
          "name": "",
          "type": "bool"
        }
      ],
      "stateMutability": "view",
      "type": "function"
    },
    {
      "inputs": [
        {
          "internalType": "uint256",
          "name": "id",
          "type": "uint256"
        }
      ],
      "name": "isFungible",
      "outputs": [
        {
          "internalType": "bool",
          "name": "",
          "type": "bool"
        }
      ],
      "stateMutability": "pure",
      "type": "function"
    },
    {
      "inputs": [
        {
          "internalType": "address",
          "name": "account",
          "type": "address"
        }
      ],
      "name": "isMinter",
      "outputs": [
        {
          "internalType": "bool",
          "name": "",
          "type": "bool"
        }
      ],
      "stateMutability": "view",
      "type": "function"
    },
    {
      "inputs": [
        {
          "internalType": "uint256",
          "name": "id",
          "type": "uint256"
        }
      ],
      "name": "isNFT",
      "outputs": [
        {
          "internalType": "bool",
          "name": "",
          "type": "bool"
        }
      ],
      "stateMutability": "pure",
      "type": "function"
    },
    {
      "inputs": [
        {
          "internalType": "uint256",
          "name": "id",
          "type": "uint256"
        }
      ],
      "name": "isNFTCollection",
      "outputs": [
        {
          "internalType": "bool",
          "name": "",
          "type": "bool"
        }
      ],
      "stateMutability": "pure",
      "type": "function"
    },
    {
      "inputs": [],
      "name": "name",
      "outputs": [
        {
          "internalType": "string",
          "name": "",
          "type": "string"
        }
      ],
      "stateMutability": "view",
      "type": "function"
    },
    {
      "inputs": [],
      "name": "owner",
      "outputs": [
        {
          "internalType": "address",
          "name": "",
          "type": "address"
        }
      ],
      "stateMutability": "view",
      "type": "function"
    },
    {
      "inputs": [
        {
          "internalType": "uint256",
          "name": "nftId",
          "type": "uint256"
        }
      ],
      "name": "ownerOf",
      "outputs": [
        {
          "internalType": "address",
          "name": "",
          "type": "address"
        }
      ],
      "stateMutability": "view",
      "type": "function"
    },
    {
      "inputs": [],
      "name": "renounceMinter",
      "outputs": [],
      "stateMutability": "nonpayable",
      "type": "function"
    },
    {
      "inputs": [],
      "name": "renounceOwnership",
      "outputs": [],
      "stateMutability": "nonpayable",
      "type": "function"
    },
    {
      "inputs": [
        {
          "internalType": "bytes32",
          "name": "role",
          "type": "bytes32"
        },
        {
          "internalType": "address",
          "name": "account",
          "type": "address"
        }
      ],
      "name": "renounceRole",
      "outputs": [],
      "stateMutability": "nonpayable",
      "type": "function"
    },
    {
      "inputs": [
        {
          "internalType": "bytes32",
          "name": "role",
          "type": "bytes32"
        },
        {
          "internalType": "address",
          "name": "account",
          "type": "address"
        }
      ],
      "name": "revokeRole",
      "outputs": [],
      "stateMutability": "nonpayable",
      "type": "function"
    },
    {
      "inputs": [
        {
          "internalType": "address",
          "name": "to",
          "type": "address"
        },
        {
          "internalType": "uint256[]",
          "name": "ids",
          "type": "uint256[]"
        },
        {
          "internalType": "uint256[]",
          "name": "values",
          "type": "uint256[]"
        },
        {
          "internalType": "bytes",
          "name": "data",
          "type": "bytes"
        }
      ],
      "name": "safeBatchMint",
      "outputs": [],
      "stateMutability": "nonpayable",
      "type": "function"
    },
    {
      "inputs": [
        {
          "internalType": "address",
          "name": "from",
          "type": "address"
        },
        {
          "internalType": "address",
          "name": "to",
          "type": "address"
        },
        {
          "internalType": "uint256[]",
          "name": "ids",
          "type": "uint256[]"
        },
        {
          "internalType": "uint256[]",
          "name": "values",
          "type": "uint256[]"
        },
        {
          "internalType": "bytes",
          "name": "data",
          "type": "bytes"
        }
      ],
      "name": "safeBatchTransferFrom",
      "outputs": [],
      "stateMutability": "nonpayable",
      "type": "function"
    },
    {
      "inputs": [
        {
          "internalType": "address",
          "name": "from",
          "type": "address"
        },
        {
          "internalType": "address",
          "name": "to",
          "type": "address"
        },
        {
          "internalType": "uint256",
          "name": "id",
          "type": "uint256"
        },
        {
          "internalType": "uint256",
          "name": "value",
          "type": "uint256"
        },
        {
          "internalType": "bytes",
          "name": "data",
          "type": "bytes"
        }
      ],
      "name": "safeTransferFrom",
      "outputs": [],
      "stateMutability": "nonpayable",
      "type": "function"
    },
    {
      "inputs": [
        {
          "internalType": "address",
          "name": "from",
          "type": "address"
        },
        {
          "internalType": "uint256[]",
          "name": "nftIds",
          "type": "uint256[]"
        }
      ],
      "name": "sameNFTCollectionBatchBurnFrom",
      "outputs": [],
      "stateMutability": "nonpayable",
      "type": "function"
    },
    {
      "inputs": [
        {
          "internalType": "address",
          "name": "to",
          "type": "address"
        },
        {
          "internalType": "uint256[]",
          "name": "ids",
          "type": "uint256[]"
        }
      ],
      "name": "sameNFTCollectionBatchMint",
      "outputs": [],
      "stateMutability": "nonpayable",
      "type": "function"
    },
    {
      "inputs": [
        {
          "internalType": "address",
          "name": "to",
          "type": "address"
        },
        {
          "internalType": "uint256[]",
          "name": "ids",
          "type": "uint256[]"
        },
        {
          "internalType": "bytes",
          "name": "data",
          "type": "bytes"
        }
      ],
      "name": "sameNFTCollectionSafeBatchMint",
      "outputs": [],
      "stateMutability": "nonpayable",
      "type": "function"
    },
    {
      "inputs": [
        {
          "internalType": "address",
          "name": "from",
          "type": "address"
        },
        {
          "internalType": "address",
          "name": "to",
          "type": "address"
        },
        {
          "internalType": "uint256[]",
          "name": "nftIds",
          "type": "uint256[]"
        },
        {
          "internalType": "bytes",
          "name": "data",
          "type": "bytes"
        }
      ],
      "name": "sameNFTCollectionSafeBatchTransferFrom",
      "outputs": [],
      "stateMutability": "nonpayable",
      "type": "function"
    },
    {
      "inputs": [
        {
          "internalType": "address",
          "name": "operator",
          "type": "address"
        },
        {
          "internalType": "bool",
          "name": "approved",
          "type": "bool"
        }
      ],
      "name": "setApprovalForAll",
      "outputs": [],
      "stateMutability": "nonpayable",
      "type": "function"
    },
    {
      "inputs": [
        {
          "internalType": "string",
          "name": "baseMetadataURI",
          "type": "string"
        }
      ],
      "name": "setBaseMetadataURI",
      "outputs": [],
      "stateMutability": "nonpayable",
      "type": "function"
    },
    {
      "inputs": [
        {
          "internalType": "bytes4",
          "name": "interfaceId",
          "type": "bytes4"
        }
      ],
      "name": "supportsInterface",
      "outputs": [
        {
          "internalType": "bool",
          "name": "",
          "type": "bool"
        }
      ],
      "stateMutability": "view",
      "type": "function"
    },
    {
      "inputs": [],
      "name": "symbol",
      "outputs": [
        {
          "internalType": "string",
          "name": "",
          "type": "string"
        }
      ],
      "stateMutability": "view",
      "type": "function"
    },
    {
      "inputs": [
        {
          "internalType": "uint256",
          "name": "id",
          "type": "uint256"
        }
      ],
      "name": "totalSupply",
      "outputs": [
        {
          "internalType": "uint256",
          "name": "",
          "type": "uint256"
        }
      ],
      "stateMutability": "view",
      "type": "function"
    },
    {
      "inputs": [
        {
          "internalType": "address",
          "name": "newOwner",
          "type": "address"
        }
      ],
      "name": "transferOwnership",
      "outputs": [],
      "stateMutability": "nonpayable",
      "type": "function"
    },
    {
      "inputs": [
        {
          "internalType": "uint256",
          "name": "id",
          "type": "uint256"
        }
      ],
      "name": "uri",
      "outputs": [
        {
          "internalType": "string",
          "name": "",
          "type": "string"
        }
      ],
      "stateMutability": "view",
      "type": "function"
    }
  ],
  "bytecode": "0x60c0604052600d60808190526c47616d6565566f75636865727360981b60a0908152620000309160089190620003a3565b5060408051808201909152600d8082526c47616d6565566f75636865727360981b60209092019182526200006791600991620003a3565b503480156200007557600080fd5b506040516200501a3803806200501a833981810160405260208110156200009b57600080fd5b5051620000b86301ffc9a760e01b6001600160e01b03620001e316565b620000d3636cdb3d1360e11b6001600160e01b03620001e316565b620000ee6303a24d0760e21b6001600160e01b03620001e316565b6200010963b44bec7f60e01b6001600160e01b03620001e316565b60006200011e6001600160e01b036200026816565b600680546001600160a01b0319166001600160a01b038316908117909155604051919250906000907f8be0079c531659141344cd1fd0a4f28419497f9722a3daafe3b4186f6b6457e0908290a350620001946000620001856001600160e01b036200026816565b6001600160e01b036200026d16565b620001a76001600160e01b036200026816565b6001600160a01b03167f6ae172837ea30b801fbfcdd4108aa1d5bf8ff775444fd70256b44e6bf3dfc3f660405160405180910390a25062000445565b6001600160e01b0319808216141562000243576040805162461bcd60e51b815260206004820152601c60248201527f4552433136353a20696e76616c696420696e7465726661636520696400000000604482015290519081900360640190fd5b6001600160e01b0319166000908152602081905260409020805460ff19166001179055565b335b90565b6200028282826001600160e01b036200028616565b5050565b6000828152600760209081526040909120620002ad918390620022a46200030a821b17901c565b156200028257620002c66001600160e01b036200026816565b6001600160a01b0316816001600160a01b0316837f2f8788117e7eff1d82e926ec794901d17c78024a50270940304540a733656f0d60405160405180910390a45050565b60006200032a836001600160a01b0384166001600160e01b036200033316565b90505b92915050565b60006200034a83836001600160e01b036200038b16565b62000382575081546001818101845560008481526020808220909301849055845484825282860190935260409020919091556200032d565b5060006200032d565b60009081526001919091016020526040902054151590565b828054600181600116156101000203166002900490600052602060002090601f016020900481019282601f10620003e657805160ff191683800117855562000416565b8280016001018555821562000416579182015b8281111562000416578251825591602001919060010190620003f9565b506200042492915062000428565b5090565b6200026a91905b808211156200042457600081556001016200042f565b614bc580620004556000396000f3fe608060405234801561001057600080fd5b50600436106102c75760003560e01c80638da5cb5b1161017b578063adebf6f2116100d8578063d0011d9d1161008c578063e985e9c511610071578063e985e9c514611255578063f242432a14611283578063f2fde38b1461134e576102c7565b8063d0011d9d1461120c578063d547741f14611229576102c7565b8063bd85b039116100bd578063bd85b039146111b5578063c7778baa146111d2578063ca15c873146111ef576102c7565b8063adebf6f214610fda578063b48ab8b614610ff7576102c7565b8063983b2d561161012f578063a217fddf11610114578063a217fddf14610f7e578063a22cb46514610f86578063aa271e1a14610fb4576102c7565b8063983b2d5614610f505780639865027514610f76576102c7565b806391d148541161016057806391d1485414610eff57806395d89b4114610f2b57806397634f9f14610f33576102c7565b80638da5cb5b14610ed45780639010d07c14610edc576102c7565b80632eb2c2d6116102295780636352211e116101dd578063745c4b50116101c2578063745c4b5014610c585780637e518ec814610d925780638053493414610e02576102c7565b80636352211e14610c17578063715018a614610c50576102c7565b806336568abe1161020e57806336568abe146109315780634e1273f41461095d578063524a491314610ad4576102c7565b80632eb2c2d61461073e5780632f2ff15d14610905576102c7565b80630e89341c116102805780631942f6c4116102655780631942f6c4146105ee5780631c353b3d146106a1578063248a9ca314610721576102c7565b80630e89341c1461059f578063124d91e5146105bc576102c7565b806301ffc9a7116102b157806301ffc9a71461033b57806306fdde03146103625780630d6a5bbb146103df576102c7565b8062fdd58e146102cc57806301b955f91461030a575b600080fd5b6102f8600480360360408110156102e257600080fd5b506001600160a01b038135169060200135611374565b60408051918252519081900360200190f35b6103276004803603602081101561032057600080fd5b503561143f565b604080519115158252519081900360200190f35b6103276004803603602081101561035157600080fd5b50356001600160e01b03191661147a565b61036a611499565b6040805160208082528351818301528351919283929083019185019080838360005b838110156103a457818101518382015260200161038c565b50505050905090810190601f1680156103d15780820380516001836020036101000a031916815260200191505b509250505060405180910390f35b61059d600480360360808110156103f557600080fd5b6001600160a01b03823516919081019060408101602082013564010000000081111561042057600080fd5b82018360208201111561043257600080fd5b8035906020019184602083028401116401000000008311171561045457600080fd5b91908080602002602001604051908101604052809392919081815260200183836020028082843760009201919091525092959493602081019350359150506401000000008111156104a457600080fd5b8201836020820111156104b657600080fd5b803590602001918460208302840111640100000000831117156104d857600080fd5b919080806020026020016040519081016040528093929190818152602001838360200280828437600092019190915250929594936020810193503591505064010000000081111561052857600080fd5b82018360208201111561053a57600080fd5b8035906020019184600183028401116401000000008311171561055c57600080fd5b91908080601f016020809104026020016040519081016040528093929190818152602001838380828437600092019190915250929550611527945050505050565b005b61036a600480360360208110156105b557600080fd5b5035611586565b61059d600480360360608110156105d257600080fd5b506001600160a01b038135169060208101359060400135611591565b61059d6004803603604081101561060457600080fd5b6001600160a01b03823516919081019060408101602082013564010000000081111561062f57600080fd5b82018360208201111561064157600080fd5b8035906020019184602083028401116401000000008311171561066357600080fd5b91908080602002602001604051908101604052809392919081815260200183836020028082843760009201919091525092955061159f945050505050565b61059d600480360360408110156106b757600080fd5b6001600160a01b0382351691908101906040810160208201356401000000008111156106e257600080fd5b8201836020820111156106f457600080fd5b8035906020019184602083028401116401000000008311171561071657600080fd5b509092509050611605565b6102f86004803603602081101561073757600080fd5b5035611647565b61059d600480360360a081101561075457600080fd5b6001600160a01b03823581169260208101359091169181019060608101604082013564010000000081111561078857600080fd5b82018360208201111561079a57600080fd5b803590602001918460208302840111640100000000831117156107bc57600080fd5b919080806020026020016040519081016040528093929190818152602001838360200280828437600092019190915250929594936020810193503591505064010000000081111561080c57600080fd5b82018360208201111561081e57600080fd5b8035906020019184602083028401116401000000008311171561084057600080fd5b919080806020026020016040519081016040528093929190818152602001838360200280828437600092019190915250929594936020810193503591505064010000000081111561089057600080fd5b8201836020820111156108a257600080fd5b803590602001918460018302840111640100000000831117156108c457600080fd5b91908080601f01602080910402602001604051908101604052809392919081815260200183838082843760009201919091525092955061165c945050505050565b61059d6004803603604081101561091b57600080fd5b50803590602001356001600160a01b0316611670565b61059d6004803603604081101561094757600080fd5b50803590602001356001600160a01b03166116d8565b610a846004803603604081101561097357600080fd5b81019060208101813564010000000081111561098e57600080fd5b8201836020820111156109a057600080fd5b803590602001918460208302840111640100000000831117156109c257600080fd5b9190808060200260200160405190810160405280939291908181526020018383602002808284376000920191909152509295949360208101935035915050640100000000811115610a1257600080fd5b820183602082011115610a2457600080fd5b80359060200191846020830284011164010000000083111715610a4657600080fd5b919080806020026020016040519081016040528093929190818152602001838360200280828437600092019190915250929550611739945050505050565b60408051602080825283518183015283519192839290830191858101910280838360005b83811015610ac0578181015183820152602001610aa8565b505050509050019250505060405180910390f35b61059d60048036036080811015610aea57600080fd5b6001600160a01b038235811692602081013590911691810190606081016040820135640100000000811115610b1e57600080fd5b820183602082011115610b3057600080fd5b80359060200191846020830284011164010000000083111715610b5257600080fd5b9190808060200260200160405190810160405280939291908181526020018383602002808284376000920191909152509295949360208101935035915050640100000000811115610ba257600080fd5b820183602082011115610bb457600080fd5b80359060200191846001830284011164010000000083111715610bd657600080fd5b91908080601f01602080910402602001604051908101604052809392919081815260200183838082843760009201919091525092955061195d945050505050565b610c3460048036036020811015610c2d57600080fd5b5035611969565b604080516001600160a01b039092168252519081900360200190f35b61059d6119d3565b61059d60048036036060811015610c6e57600080fd5b6001600160a01b038235169190810190604081016020820135640100000000811115610c9957600080fd5b820183602082011115610cab57600080fd5b80359060200191846020830284011164010000000083111715610ccd57600080fd5b9190808060200260200160405190810160405280939291908181526020018383602002808284376000920191909152509295949360208101935035915050640100000000811115610d1d57600080fd5b820183602082011115610d2f57600080fd5b80359060200191846001830284011164010000000083111715610d5157600080fd5b91908080601f016020809104026020016040519081016040528093929190818152602001838380828437600092019190915250929550611a94945050505050565b61059d60048036036020811015610da857600080fd5b810190602081018135640100000000811115610dc357600080fd5b820183602082011115610dd557600080fd5b80359060200191846001830284011164010000000083111715610df757600080fd5b509092509050611ae7565b61059d60048036036060811015610e1857600080fd5b6001600160a01b038235169190810190604081016020820135640100000000811115610e4357600080fd5b820183602082011115610e5557600080fd5b80359060200191846020830284011164010000000083111715610e7757600080fd5b919390929091602081019035640100000000811115610e9557600080fd5b820183602082011115610ea757600080fd5b80359060200191846020830284011164010000000083111715610ec957600080fd5b509092509050611b5d565b610c34611bcb565b610c3460048036036040811015610ef257600080fd5b5080359060200135611bdb565b61032760048036036040811015610f1557600080fd5b50803590602001356001600160a01b0316611c00565b61036a611c1e565b61032760048036036020811015610f4957600080fd5b5035611c79565b61059d60048036036020811015610f6657600080fd5b50356001600160a01b0316611caf565b61059d611d7c565b6102f8611e13565b61059d60048036036040811015610f9c57600080fd5b506001600160a01b0381351690602001351515611e18565b61032760048036036020811015610fca57600080fd5b50356001600160a01b0316611ef9565b61032760048036036020811015610ff057600080fd5b5035611f4b565b61059d6004803603608081101561100d57600080fd5b6001600160a01b03823516919081019060408101602082013564010000000081111561103857600080fd5b82018360208201111561104a57600080fd5b8035906020019184602083028401116401000000008311171561106c57600080fd5b91908080602002602001604051908101604052809392919081815260200183836020028082843760009201919091525092959493602081019350359150506401000000008111156110bc57600080fd5b8201836020820111156110ce57600080fd5b803590602001918460208302840111640100000000831117156110f057600080fd5b919080806020026020016040519081016040528093929190818152602001838360200280828437600092019190915250929594936020810193503591505064010000000081111561114057600080fd5b82018360208201111561115257600080fd5b8035906020019184600183028401116401000000008311171561117457600080fd5b91908080601f016020809104026020016040519081016040528093929190818152602001838380828437600092019190915250929550611f55945050505050565b6102f8600480360360208110156111cb57600080fd5b5035611fa9565b6102f8600480360360208110156111e857600080fd5b5035611fff565b6102f86004803603602081101561120557600080fd5b5035612069565b61059d6004803603602081101561122257600080fd5b5035612080565b61059d6004803603604081101561123f57600080fd5b50803590602001356001600160a01b03166120f6565b6103276004803603604081101561126b57600080fd5b506001600160a01b038135811691602001351661214f565b61059d600480360360a081101561129957600080fd5b6001600160a01b03823581169260208101359091169160408201359160608101359181019060a0810160808201356401000000008111156112d957600080fd5b8201836020820111156112eb57600080fd5b8035906020019184600183028401116401000000008311171561130d57600080fd5b91908080601f01602080910402602001604051908101604052809392919081815260200183838082843760009201919091525092955061217d945050505050565b61059d6004803603602081101561136457600080fd5b50356001600160a01b031661218c565b60006001600160a01b0383166113d1576040805162461bcd60e51b815260206004820152601760248201527f496e76656e746f72793a207a65726f2061646472657373000000000000000000604482015290519081900360640190fd5b6113da82611c79565b15611414576000828152600460205260409020546001600160a01b0384811691161461140757600061140a565b60015b60ff169050611439565b5060008181526002602090815260408083206001600160a01b03861684529091529020545b92915050565b6000600160ff1b82161580159061147257507bffffffffffffffffffffffffffffffffffffffffffffffffffffffff8216155b90505b919050565b6001600160e01b03191660009081526020819052604090205460ff1690565b6008805460408051602060026001851615610100026000190190941693909304601f8101849004840282018401909252818152929183018282801561151f5780601f106114f45761010080835404028352916020019161151f565b820191906000526020600020905b81548152906001019060200180831161150257829003601f168201915b505050505081565b6115376115326122b9565b611ef9565b6115725760405162461bcd60e51b8152600401808060200182810382526030815260200180614ae56030913960400191505060405180910390fd5b6115808484848460016122bd565b50505050565b6060611472826124ae565b60006115808484848461256c565b6115aa6115326122b9565b6115e55760405162461bcd60e51b8152600401808060200182810382526030815260200180614ae56030913960400191505060405180910390fd5b61160182826040518060200160405280600081525060006128f7565b5050565b61164283838380806020026020016040519081016040528093929190818152602001838360200280828437600092019190915250612c5692505050565b505050565b60009081526007602052604090206002015490565b6116698585858585612ff7565b5050505050565b6000828152600760205260409020600201546116939061168e6122b9565b611c00565b6116ce5760405162461bcd60e51b815260040180806020018281038252602f815260200180614a37602f913960400191505060405180910390fd5b611601828261328b565b6116e06122b9565b6001600160a01b0316816001600160a01b03161461172f5760405162461bcd60e51b815260040180806020018281038252602f815260200180614b61602f913960400191505060405180910390fd5b61160182826132fa565b60608151835114611791576040805162461bcd60e51b815260206004820152601e60248201527f496e76656e746f72793a20696e636f6e73697374656e74206172726179730000604482015290519081900360640190fd5b6060835167ffffffffffffffff811180156117ab57600080fd5b506040519080825280602002602001820160405280156117d5578160200160208202803683370190505b50905060005b84518110156119555760006001600160a01b03168582815181106117fb57fe5b60200260200101516001600160a01b0316141561185f576040805162461bcd60e51b815260206004820152601760248201527f496e76656e746f72793a207a65726f2061646472657373000000000000000000604482015290519081900360640190fd5b600084828151811061186d57fe5b6020026020010151905061188081611c79565b156118e95785828151811061189157fe5b602090810291909101810151600083815260049092526040909120546001600160a01b039081169116146118c65760006118c9565b60015b60ff168383815181106118d857fe5b60200260200101818152505061194c565b60026000828152602001908152602001600020600087848151811061190a57fe5b60200260200101516001600160a01b03166001600160a01b031681526020019081526020016000205483838151811061193f57fe5b6020026020010181815250505b506001016117db565b509392505050565b61158084848484613369565b6000818152600460205260408120546001600160a01b031680611472576040805162461bcd60e51b815260206004820152601b60248201527f496e76656e746f72793a206e6f6e2d6578697374696e67204e46540000000000604482015290519081900360640190fd5b6119db6122b9565b6006546001600160a01b03908116911614611a3d576040805162461bcd60e51b815260206004820181905260248201527f4f776e61626c653a2063616c6c6572206973206e6f7420746865206f776e6572604482015290519081900360640190fd5b6006546040516000916001600160a01b0316907f8be0079c531659141344cd1fd0a4f28419497f9722a3daafe3b4186f6b6457e0908390a36006805473ffffffffffffffffffffffffffffffffffffffff19169055565b611a9f6115326122b9565b611ada5760405162461bcd60e51b8152600401808060200182810382526030815260200180614ae56030913960400191505060405180910390fd5b61164283838360016128f7565b611aef6122b9565b6006546001600160a01b03908116911614611b51576040805162461bcd60e51b815260206004820181905260248201527f4f776e61626c653a2063616c6c6572206973206e6f7420746865206f776e6572604482015290519081900360640190fd5b611642600a838361497c565b611669858585808060200260200160405190810160405280939291908181526020018383602002808284376000920191909152505060408051602080890282810182019093528882529093508892508791829185019084908082843760009201919091525061376392505050565b6006546001600160a01b03165b90565b6000828152600760205260408120611bf9908363ffffffff61393216565b9392505050565b6000828152600760205260408120611bf9908363ffffffff61393e16565b6009805460408051602060026001851615610100026000190190941693909304601f8101849004840282018401909252818152929183018282801561151f5780601f106114f45761010080835404028352916020019161151f565b6000600160ff1b8216158015906114725750507bffffffffffffffffffffffffffffffffffffffffffffffffffffffff16151590565b611cba6115326122b9565b611cf55760405162461bcd60e51b8152600401808060200182810382526030815260200180614ae56030913960400191505060405180910390fd5b611cfe81611ef9565b15611d3a5760405162461bcd60e51b8152600401808060200182810382526029815260200180614b386029913960400191505060405180910390fd5b611d45600082611670565b6040516001600160a01b038216907f6ae172837ea30b801fbfcdd4108aa1d5bf8ff775444fd70256b44e6bf3dfc3f690600090a250565b611d876115326122b9565b611dc25760405162461bcd60e51b8152600401808060200182810382526030815260200180614ae56030913960400191505060405180910390fd5b611dd46000611dcf6122b9565b6116d8565b611ddc6122b9565b6001600160a01b03167fe94479a9f7e1952cc78f2d6baab678adc1b772d936c6583def489e524cb6669260405160405180910390a2565b600081565b6000611e226122b9565b9050806001600160a01b0316836001600160a01b03161415611e8b576040805162461bcd60e51b815260206004820152601d60248201527f496e76656e746f72793a20617070726f76616c20746f2073656e646572000000604482015290519081900360640190fd5b6001600160a01b03818116600081815260016020908152604080832094881680845294825291829020805460ff1916871515908117909155825190815291517f17307eab39ab6107e8899845ad3d59bd9653f200f220920489ca2b5937696c319281900390910190a3505050565b60006001600160a01b038216611f405760405162461bcd60e51b8152600401808060200182810382526029815260200180614a8c6029913960400191505060405180910390fd5b611472600083611c00565b600160ff1b161590565b611f606115326122b9565b611f9b5760405162461bcd60e51b8152600401808060200182810382526030815260200180614ae56030913960400191505060405180910390fd5b6115808484848460006122bd565b6000611fb482611c79565b15611fea576000828152600460205260409020546001600160a01b031615611fdd576001611fe0565b60005b60ff169050611475565b50600081815260036020526040902054611475565b600061200a82611c79565b61205b576040805162461bcd60e51b815260206004820152601560248201527f496e76656e746f72793a206e6f7420616e204e46540000000000000000000000604482015290519081900360640190fd5b506001600160e01b03191690565b600081815260076020526040812061147290613953565b6120886122b9565b6006546001600160a01b039081169116146120ea576040805162461bcd60e51b815260206004820181905260248201527f4f776e61626c653a2063616c6c6572206973206e6f7420746865206f776e6572604482015290519081900360640190fd5b6120f38161395e565b50565b6000828152600760205260409020600201546121149061168e6122b9565b61172f5760405162461bcd60e51b8152600401808060200182810382526030815260200180614ab56030913960400191505060405180910390fd5b6001600160a01b03918216600090815260016020908152604080832093909416825291909152205460ff1690565b61166985858585856000613b10565b6121946122b9565b6006546001600160a01b039081169116146121f6576040805162461bcd60e51b815260206004820181905260248201527f4f776e61626c653a2063616c6c6572206973206e6f7420746865206f776e6572604482015290519081900360640190fd5b6001600160a01b03811661223b5760405162461bcd60e51b8152600401808060200182810382526026815260200180614a666026913960400191505060405180910390fd5b6006546040516001600160a01b038084169216907f8be0079c531659141344cd1fd0a4f28419497f9722a3daafe3b4186f6b6457e090600090a36006805473ffffffffffffffffffffffffffffffffffffffff19166001600160a01b0392909216919091179055565b6000611bf9836001600160a01b038416613ec6565b3390565b835183518114612314576040805162461bcd60e51b815260206004820152601e60248201527f496e76656e746f72793a20696e636f6e73697374656e74206172726179730000604482015290519081900360640190fd5b6001600160a01b03861661236f576040805162461bcd60e51b815260206004820152601760248201527f496e76656e746f72793a207a65726f2061646472657373000000000000000000604482015290519081900360640190fd5b600160005b828110156123b8576123b08888838151811061238c57fe5b60200260200101518884815181106123a057fe5b6020026020010151888887613f10565b600101612374565b506001600160a01b03871660006123cd6122b9565b6001600160a01b03167f4a39dc06d4c0dbc64b70af90fd698a233a518aa5d07e595d983b8c0526c8f7fb8989604051808060200180602001838103835285818151815260200191508051906020019060200280838360005b8381101561243d578181015183820152602001612425565b50505050905001838103825284818151815260200191508051906020019060200280838360005b8381101561247c578181015183820152602001612464565b5050505090500194505050505060405180910390a482156124a5576124a56000888888886141dd565b50505050505050565b60606124b98261441d565b60405160200180807f68747470733a2f2f7072656669782f6a736f6e2f00000000000000000000000081525060140182805190602001908083835b6020831061253157805182527fffffffffffffffffffffffffffffffffffffffffffffffffffffffffffffffe090920191602091820191016124f4565b6001836020036101000a0380198251168184511680821785525050505050509050019150506040516020818303038152906040529050919050565b6000808261261b5761257c6122b9565b90506000816001600160a01b0316876001600160a01b031614806125c557506001600160a01b0380881660009081526001602090815260408083209386168352929052205460ff165b905080612619576040805162461bcd60e51b815260206004820152601e60248201527f496e76656e746f72793a206e6f6e2d617070726f7665642073656e6465720000604482015290519081900360640190fd5b505b600061262686611f4b565b156126db578461267d576040805162461bcd60e51b815260206004820152601560248201527f496e76656e746f72793a207a65726f2076616c75650000000000000000000000604482015290519081900360640190fd5b5060008581526002602090815260408083206001600160a01b038a16845290915290205485906126b3908663ffffffff61452c16565b60008281526002602090815260408083206001600160a01b038c168452909152902055612877565b7bffffffffffffffffffffffffffffffffffffffffffffffffffffffff86161561282a5784600114612754576040805162461bcd60e51b815260206004820152601a60248201527f496e76656e746f72793a2077726f6e67204e46542076616c7565000000000000604482015290519081900360640190fd5b6000868152600460205260409020546001600160a01b038881169116146127c2576040805162461bcd60e51b815260206004820152601860248201527f496e76656e746f72793a206e6f6e2d6f776e6564204e46540000000000000000604482015290519081900360640190fd5b506000858152600460209081526040808320805473ffffffffffffffffffffffffffffffffffffffff19166001600160a01b03878116919091179091556001600160e01b0319891680855260028452828520918b168552925290912080548690039055612877565b6040805162461bcd60e51b815260206004820152601b60248201527f496e76656e746f72793a2077726f6e67206964656e7469666965720000000000604482015290519081900360640190fd5b600081815260036020526040902080548690039055836124a557826001600160a01b0316876001600160a01b0316836001600160a01b03167fc3d58168c5ae7397731d063d5bbf3d657854427343f4c083240f7aacaa2d0f628989604051808381526020018281526020019250505060405180910390a450505050505050565b6001600160a01b038416612952576040805162461bcd60e51b815260206004820152601760248201527f496e76656e746f72793a207a65726f2061646472657373000000000000000000604482015290519081900360640190fd5b825160608167ffffffffffffffff8111801561296d57600080fd5b50604051908082528060200260200182016040528015612997578160200160208202803683370190505b5090506000805b83811015612b3a5760008782815181106129b457fe5b602002602001015190506129c781611c79565b612a18576040805162461bcd60e51b815260206004820152601560248201527f496e76656e746f72793a206e6f7420616e204e46540000000000000000000000604482015290519081900360640190fd5b6000818152600460205260409020546001600160a01b031615612a82576040805162461bcd60e51b815260206004820152601d60248201527f496e76656e746f72793a204e465420616c726561647920657869737473000000604482015290519081900360640190fd5b6000818152600460205260409020805473ffffffffffffffffffffffffffffffffffffffff19166001600160a01b038b161790558351600190859084908110612ac757fe5b602090810291909101015281612ae9576001600160e01b031981169250612b31565b6001600160e01b031981168314612b315760405162461bcd60e51b8152600401808060200182810382526023815260200180614b156023913960400191505060405180910390fd5b5060010161299e565b5060008181526002602090815260408083206001600160a01b038b168085529083528184208054880190558484526003909252822080548601905590612b7e6122b9565b6001600160a01b03167f4a39dc06d4c0dbc64b70af90fd698a233a518aa5d07e595d983b8c0526c8f7fb8986604051808060200180602001838103835285818151815260200191508051906020019060200280838360005b83811015612bee578181015183820152602001612bd6565b50505050905001838103825284818151815260200191508051906020019060200280838360005b83811015612c2d578181015183820152602001612c15565b5050505090500194505050505060405180910390a483156124a5576124a56000888885896141dd565b6000612c606122b9565b90506000816001600160a01b0316846001600160a01b03161480612ca957506001600160a01b0380851660009081526001602090815260408083209386168352929052205460ff165b905080612cfd576040805162461bcd60e51b815260206004820152601e60248201527f496e76656e746f72793a206e6f6e2d617070726f7665642073656e6465720000604482015290519081900360640190fd5b825160608167ffffffffffffffff81118015612d1857600080fd5b50604051908082528060200260200182016040528015612d42578160200160208202803683370190505b509050600080805b84811015612eea576000888281518110612d6057fe5b60200260200101519050612d7381611c79565b612dc4576040805162461bcd60e51b815260206004820152601560248201527f496e76656e746f72793a206e6f7420616e204e46540000000000000000000000604482015290519081900360640190fd5b6000818152600460205260409020546001600160a01b038b8116911614612e32576040805162461bcd60e51b815260206004820152601860248201527f496e76656e746f72793a204e4654206e6f74206f776e65640000000000000000604482015290519081900360640190fd5b6000818152600460205260409020805473ffffffffffffffffffffffffffffffffffffffff19166001600160a01b0386161790558451600190869084908110612e7757fe5b602090810291909101015281612e99576001600160e01b031981169250612ee1565b6001600160e01b031981168314612ee15760405162461bcd60e51b8152600401808060200182810382526023815260200180614b156023913960400191505060405180910390fd5b50600101612d4a565b5060008181526002602090815260408083206001600160a01b03808d1680865291845282852080548a900390558585526003845282852080548a9003905582518381528c51938101939093528b51878216959294918c16937f4a39dc06d4c0dbc64b70af90fd698a233a518aa5d07e595d983b8c0526c8f7fb938e938b938392838301926060850192888201929102908190849084905b83811015612f99578181015183820152602001612f81565b50505050905001838103825284818151815260200191508051906020019060200280838360005b83811015612fd8578181015183820152602001612fc0565b5050505090500194505050505060405180910390a45050505050505050565b6001600160a01b038416613052576040805162461bcd60e51b815260206004820152601760248201527f496e76656e746f72793a207a65726f2061646472657373000000000000000000604482015290519081900360640190fd5b8251825181146130a9576040805162461bcd60e51b815260206004820152601e60248201527f496e76656e746f72793a20696e636f6e73697374656e74206172726179730000604482015290519081900360640190fd5b60006130b36122b9565b90506000816001600160a01b0316886001600160a01b031614806130fc57506001600160a01b0380891660009081526001602090815260408083209386168352929052205460ff165b905080613150576040805162461bcd60e51b815260206004820152601e60248201527f496e76656e746f72793a206e6f6e2d617070726f7665642073656e6465720000604482015290519081900360640190fd5b600160005b84811015613199576131918a8a8a848151811061316e57fe5b60200260200101518a858151811061318257fe5b60200260200101518a87613b10565b600101613155565b50876001600160a01b0316896001600160a01b0316846001600160a01b03167f4a39dc06d4c0dbc64b70af90fd698a233a518aa5d07e595d983b8c0526c8f7fb8a8a604051808060200180602001838103835285818151815260200191508051906020019060200280838360005b8381101561321f578181015183820152602001613207565b50505050905001838103825284818151815260200191508051906020019060200280838360005b8381101561325e578181015183820152602001613246565b5050505090500194505050505060405180910390a461328089898989896141dd565b505050505050505050565b60008281526007602052604090206132a9908263ffffffff6122a416565b15611601576132b66122b9565b6001600160a01b0316816001600160a01b0316837f2f8788117e7eff1d82e926ec794901d17c78024a50270940304540a733656f0d60405160405180910390a45050565b6000828152600760205260409020613318908263ffffffff61456e16565b15611601576133256122b9565b6001600160a01b0316816001600160a01b0316837ff6391f5c32d9c69d2a47ea670b442974b53935d1edc7fd64eb21e047a839171b60405160405180910390a45050565b6001600160a01b0383166133c4576040805162461bcd60e51b815260206004820152601760248201527f496e76656e746f72793a207a65726f2061646472657373000000000000000000604482015290519081900360640190fd5b815160608167ffffffffffffffff811180156133df57600080fd5b50604051908082528060200260200182016040528015613409578160200160208202803683370190505b50905060006134166122b9565b90506000816001600160a01b0316886001600160a01b0316148061345f57506001600160a01b0380891660009081526001602090815260408083209386168352929052205460ff165b9050806134b3576040805162461bcd60e51b815260206004820152601e60248201527f496e76656e746f72793a206e6f6e2d617070726f7665642073656e6465720000604482015290519081900360640190fd5b6000805b858110156136575760008882815181106134cd57fe5b602002602001015190506134e081611c79565b613531576040805162461bcd60e51b815260206004820152601560248201527f496e76656e746f72793a206e6f7420616e204e46540000000000000000000000604482015290519081900360640190fd5b6000818152600460205260409020546001600160a01b038c811691161461359f576040805162461bcd60e51b815260206004820152601860248201527f496e76656e746f72793a204e4654206e6f74206f776e65640000000000000000604482015290519081900360640190fd5b6000818152600460205260409020805473ffffffffffffffffffffffffffffffffffffffff19166001600160a01b038c1617905585516001908790849081106135e457fe5b602090810291909101015281613606576001600160e01b03198116925061364e565b6001600160e01b03198116831461364e5760405162461bcd60e51b8152600401808060200182810382526023815260200180614b156023913960400191505060405180910390fd5b506001016134b7565b5060008181526002602090815260408083206001600160a01b038d811680865291845282852080548b900390558c811680865283862080548c01905583518481528d51948101949094528c5190959294918916937f4a39dc06d4c0dbc64b70af90fd698a233a518aa5d07e595d983b8c0526c8f7fb938e938c938392838301926060850192888201929102908190849084905b838110156137025781810151838201526020016136ea565b50505050905001838103825284818151815260200191508051906020019060200280838360005b83811015613741578181015183820152602001613729565b5050505090500194505050505060405180910390a4613280838989878a6141dd565b8151815181146137ba576040805162461bcd60e51b815260206004820152601e60248201527f496e76656e746f72793a20696e636f6e73697374656e74206172726179730000604482015290519081900360640190fd5b60006137c46122b9565b90506000816001600160a01b0316866001600160a01b0316148061380d57506001600160a01b0380871660009081526001602090815260408083209386168352929052205460ff165b905080613861576040805162461bcd60e51b815260206004820152601e60248201527f496e76656e746f72793a206e6f6e2d617070726f7665642073656e6465720000604482015290519081900360640190fd5b600160005b848110156138a8576138a08888838151811061387e57fe5b602002602001015188848151811061389257fe5b60200260200101518561256c565b600101613866565b506000809050806001600160a01b0316886001600160a01b0316856001600160a01b03167f4a39dc06d4c0dbc64b70af90fd698a233a518aa5d07e595d983b8c0526c8f7fb8a8a6040518080602001806020018381038352858181518152602001915080519060200190602002808383600083811015612f99578181015183820152602001612f81565b6000611bf98383614583565b6000611bf9836001600160a01b0384166145e7565b6000611472826145ff565b61396781611c79565b156139b9576040805162461bcd60e51b815260206004820152601b60248201527f496e76656e746f72793a206e6f74206120636f6c6c656374696f6e0000000000604482015290519081900360640190fd5b60008181526005602052604090205460ff1615613a1d576040805162461bcd60e51b815260206004820152601e60248201527f496e76656e746f72793a206578697374696e6720636f6c6c656374696f6e0000604482015290519081900360640190fd5b6000818152600560205260409020805460ff19166001179055807f6bb7ff708619ba0610cba295a58592e0451dee2622938c8755667688daf3529b613a61826124ae565b6040805160208082528351818301528351919283929083019185019080838360005b83811015613a9b578181015183820152602001613a83565b50505050905090810190601f168015613ac85780820380516001836020036101000a031916815260200191505b509250505060405180910390a2613ade81611f4b565b1515817f4ebf8ad0df535ba5e487bc9cb27fe44120ca81c3a95d3eba79c0bd1df2ab2d5d60405160405180910390a350565b600081613c19576001600160a01b038616613b72576040805162461bcd60e51b815260206004820152601760248201527f496e76656e746f72793a207a65726f2061646472657373000000000000000000604482015290519081900360640190fd5b613b7a6122b9565b90506000816001600160a01b0316886001600160a01b03161480613bc357506001600160a01b0380891660009081526001602090815260408083209386168352929052205460ff165b905080613c17576040805162461bcd60e51b815260206004820152601e60248201527f496e76656e746f72793a206e6f6e2d617070726f7665642073656e6465720000604482015290519081900360640190fd5b505b6000613c2486611f4b565b15613cd95784613c7b576040805162461bcd60e51b815260206004820152601560248201527f496e76656e746f72793a207a65726f2076616c75650000000000000000000000604482015290519081900360640190fd5b5060008581526002602090815260408083206001600160a01b038b1684529091529020548590613cb1908663ffffffff61452c16565b60008281526002602090815260408083206001600160a01b038d168452909152902055613e24565b7bffffffffffffffffffffffffffffffffffffffffffffffffffffffff86161561282a5784600114613d52576040805162461bcd60e51b815260206004820152601a60248201527f496e76656e746f72793a2077726f6e67204e46542076616c7565000000000000604482015290519081900360640190fd5b6000868152600460205260409020546001600160a01b03898116911614613dc0576040805162461bcd60e51b815260206004820152601860248201527f496e76656e746f72793a206e6f6e2d6f776e6564204e46540000000000000000604482015290519081900360640190fd5b506000858152600460209081526040808320805473ffffffffffffffffffffffffffffffffffffffff19166001600160a01b038b8116919091179091556001600160e01b0319891680855260028452828520918c1685529252909120805486900390555b60008181526002602090815260408083206001600160a01b038b168452909152902080548601905582613ebc57613e5e8888888888614603565b866001600160a01b0316886001600160a01b0316836001600160a01b03167fc3d58168c5ae7397731d063d5bbf3d657854427343f4c083240f7aacaa2d0f628989604051808381526020018281526020019250505060405180910390a45b5050505050505050565b6000613ed283836145e7565b613f0857508154600181810184556000848152602080822090930184905584548482528286019093526040902091909155611439565b506000611439565b80613f70576001600160a01b038616613f70576040805162461bcd60e51b815260206004820152601760248201527f496e76656e746f72793a207a65726f2061646472657373000000000000000000604482015290519081900360640190fd5b6000613f7b86611f4b565b156140085784613fd2576040805162461bcd60e51b815260206004820152601560248201527f496e76656e746f72793a207a65726f2076616c75650000000000000000000000604482015290519081900360640190fd5b506000858152600360205260409020548590613ff4908663ffffffff6147bf16565b600082815260036020526040902055614140565b7bffffffffffffffffffffffffffffffffffffffffffffffffffffffff86161561282a5784600114614081576040805162461bcd60e51b815260206004820152601a60248201527f496e76656e746f72793a2077726f6e67204e46542076616c7565000000000000604482015290519081900360640190fd5b6000868152600460205260409020546001600160a01b0316156140eb576040805162461bcd60e51b815260206004820152601d60248201527f496e76656e746f72793a204e465420616c726561647920657869737473000000604482015290519081900360640190fd5b506000858152600460209081526040808320805473ffffffffffffffffffffffffffffffffffffffff19166001600160a01b038b161790556001600160e01b0319881680845260039092529091208054860190555b60008181526002602090815260408083206001600160a01b038b1684529091529020805486019055816124a5576001600160a01b03871660006141816122b9565b6001600160a01b03167fc3d58168c5ae7397731d063d5bbf3d657854427343f4c083240f7aacaa2d0f628989604051808381526020018281526020019250505060405180910390a482156124a5576124a5600088888888614603565b6141ef846001600160a01b0316614819565b6141f857611669565b6000846001600160a01b031663bc197c816142116122b9565b888787876040518663ffffffff1660e01b815260040180866001600160a01b03166001600160a01b03168152602001856001600160a01b03166001600160a01b03168152602001806020018060200180602001848103845287818151815260200191508051906020019060200280838360005b8381101561429c578181015183820152602001614284565b50505050905001848103835286818151815260200191508051906020019060200280838360005b838110156142db5781810151838201526020016142c3565b50505050905001848103825285818151815260200191508051906020019080838360005b838110156143175781810151838201526020016142ff565b50505050905090810190601f1680156143445780820380516001836020036101000a031916815260200191505b5098505050505050505050602060405180830381600087803b15801561436957600080fd5b505af115801561437d573d6000803e3d6000fd5b505050506040513d602081101561439357600080fd5b505190506001600160e01b031981167fbc197c810000000000000000000000000000000000000000000000000000000014614415576040805162461bcd60e51b815260206004820152601b60248201527f496e76656e746f72793a207472616e7366657220726566757365640000000000604482015290519081900360640190fd5b505050505050565b60608161445e575060408051808201909152600181527f30000000000000000000000000000000000000000000000000000000000000006020820152611475565b8160005b811561447657600101600a82049150614462565b60608167ffffffffffffffff8111801561448f57600080fd5b506040519080825280601f01601f1916602001820160405280156144ba576020820181803683370190505b50859350905060001982015b831561452357600a840660300160f81b828280600190039350815181106144e957fe5b60200101907effffffffffffffffffffffffffffffffffffffffffffffffffffffffffffff1916908160001a905350600a840493506144c6565b50949350505050565b6000611bf983836040518060400160405280601e81526020017f536166654d6174683a207375627472616374696f6e206f766572666c6f77000081525061481f565b6000611bf9836001600160a01b0384166148b6565b815460009082106145c55760405162461bcd60e51b8152600401808060200182810382526022815260200180614a156022913960400191505060405180910390fd5b8260000182815481106145d457fe5b9060005260206000200154905092915050565b60009081526001919091016020526040902054151590565b5490565b614615846001600160a01b0316614819565b61461e57611669565b6000846001600160a01b031663f23a6e616146376122b9565b888787876040518663ffffffff1660e01b815260040180866001600160a01b03166001600160a01b03168152602001856001600160a01b03166001600160a01b0316815260200184815260200183815260200180602001828103825283818151815260200191508051906020019080838360005b838110156146c35781810151838201526020016146ab565b50505050905090810190601f1680156146f05780820380516001836020036101000a031916815260200191505b509650505050505050602060405180830381600087803b15801561471357600080fd5b505af1158015614727573d6000803e3d6000fd5b505050506040513d602081101561473d57600080fd5b505190506001600160e01b031981167ff23a6e610000000000000000000000000000000000000000000000000000000014614415576040805162461bcd60e51b815260206004820152601b60248201527f496e76656e746f72793a207472616e7366657220726566757365640000000000604482015290519081900360640190fd5b600082820183811015611bf9576040805162461bcd60e51b815260206004820152601b60248201527f536166654d6174683a206164646974696f6e206f766572666c6f770000000000604482015290519081900360640190fd5b3b151590565b600081848411156148ae5760405162461bcd60e51b81526004018080602001828103825283818151815260200191508051906020019080838360005b8381101561487357818101518382015260200161485b565b50505050905090810190601f1680156148a05780820380516001836020036101000a031916815260200191505b509250505060405180910390fd5b505050900390565b6000818152600183016020526040812054801561497257835460001980830191908101906000908790839081106148e957fe5b906000526020600020015490508087600001848154811061490657fe5b60009182526020808320909101929092558281526001898101909252604090209084019055865487908061493657fe5b60019003818190600052602060002001600090559055866001016000878152602001908152602001600020600090556001945050505050611439565b6000915050611439565b828054600181600116156101000203166002900490600052602060002090601f016020900481019282601f106149bd5782800160ff198235161785556149ea565b828001600101855582156149ea579182015b828111156149ea5782358255916020019190600101906149cf565b506149f69291506149fa565b5090565b611bd891905b808211156149f65760008155600101614a0056fe456e756d657261626c655365743a20696e646578206f7574206f6620626f756e6473416363657373436f6e74726f6c3a2073656e646572206d75737420626520616e2061646d696e20746f206772616e744f776e61626c653a206e6577206f776e657220697320746865207a65726f20616464726573734d696e746572526f6c653a2061646472657373207a65726f2063616e6e6f74206265206d696e746572416363657373436f6e74726f6c3a2073656e646572206d75737420626520616e2061646d696e20746f207265766f6b654d696e746572526f6c653a2063616c6c657220646f6573206e6f74206861766520746865204d696e74657220726f6c65496e76656e746f72793a20696e636f6e73697374656e7420636f6c6c656374696f6e734d696e746572526f6c653a2061646420616e206163636f756e7420616c7265616479206d696e746572416363657373436f6e74726f6c3a2063616e206f6e6c792072656e6f756e636520726f6c657320666f722073656c66a264697066735822122000f686d14ee30e039df32fc7dbc2cec3a00097978052a70be23cf8fa7310bb8264736f6c63430006080033",
  "linkReferences": {},
  "deployedLinkReferences": {}
}