{
  "_format": "hh-sol-artifact-1",
  "contractName": "GameeVouchers",
  "sourceName": "contracts/solc-0.6/token/ERC1155/GameeVouchers.sol",
  "abi": [
    {
      "inputs": [
        {
          "internalType": "address",
          "name": "proxyContractAddress",
          "type": "address"
        }
      ],
      "stateMutability": "nonpayable",
      "type": "constructor"
    },
    {
      "anonymous": false,
      "inputs": [
        {
          "indexed": true,
          "internalType": "address",
          "name": "_owner",
          "type": "address"
        },
        {
          "indexed": true,
          "internalType": "address",
          "name": "_operator",
          "type": "address"
        },
        {
          "indexed": false,
          "internalType": "bool",
          "name": "_approved",
          "type": "bool"
        }
      ],
      "name": "ApprovalForAll",
      "type": "event"
    },
    {
      "anonymous": false,
      "inputs": [
        {
          "indexed": true,
          "internalType": "address",
          "name": "account",
          "type": "address"
        }
      ],
      "name": "MinterAdded",
      "type": "event"
    },
    {
      "anonymous": false,
      "inputs": [
        {
          "indexed": true,
          "internalType": "address",
          "name": "account",
          "type": "address"
        }
      ],
      "name": "MinterRemoved",
      "type": "event"
    },
    {
      "anonymous": false,
      "inputs": [
        {
          "indexed": true,
          "internalType": "address",
          "name": "previousOwner",
          "type": "address"
        },
        {
          "indexed": true,
          "internalType": "address",
          "name": "newOwner",
          "type": "address"
        }
      ],
      "name": "OwnershipTransferred",
      "type": "event"
    },
    {
      "anonymous": false,
      "inputs": [
        {
          "indexed": true,
          "internalType": "bytes32",
          "name": "role",
          "type": "bytes32"
        },
        {
          "indexed": true,
          "internalType": "bytes32",
          "name": "previousAdminRole",
          "type": "bytes32"
        },
        {
          "indexed": true,
          "internalType": "bytes32",
          "name": "newAdminRole",
          "type": "bytes32"
        }
      ],
      "name": "RoleAdminChanged",
      "type": "event"
    },
    {
      "anonymous": false,
      "inputs": [
        {
          "indexed": true,
          "internalType": "bytes32",
          "name": "role",
          "type": "bytes32"
        },
        {
          "indexed": true,
          "internalType": "address",
          "name": "account",
          "type": "address"
        },
        {
          "indexed": true,
          "internalType": "address",
          "name": "sender",
          "type": "address"
        }
      ],
      "name": "RoleGranted",
      "type": "event"
    },
    {
      "anonymous": false,
      "inputs": [
        {
          "indexed": true,
          "internalType": "bytes32",
          "name": "role",
          "type": "bytes32"
        },
        {
          "indexed": true,
          "internalType": "address",
          "name": "account",
          "type": "address"
        },
        {
          "indexed": true,
          "internalType": "address",
          "name": "sender",
          "type": "address"
        }
      ],
      "name": "RoleRevoked",
      "type": "event"
    },
    {
      "anonymous": false,
      "inputs": [
        {
          "indexed": true,
          "internalType": "address",
          "name": "_operator",
          "type": "address"
        },
        {
          "indexed": true,
          "internalType": "address",
          "name": "_from",
          "type": "address"
        },
        {
          "indexed": true,
          "internalType": "address",
          "name": "_to",
          "type": "address"
        },
        {
          "indexed": false,
          "internalType": "uint256[]",
          "name": "_ids",
          "type": "uint256[]"
        },
        {
          "indexed": false,
          "internalType": "uint256[]",
          "name": "_amounts",
          "type": "uint256[]"
        }
      ],
      "name": "TransferBatch",
      "type": "event"
    },
    {
      "anonymous": false,
      "inputs": [
        {
          "indexed": true,
          "internalType": "address",
          "name": "_operator",
          "type": "address"
        },
        {
          "indexed": true,
          "internalType": "address",
          "name": "_from",
          "type": "address"
        },
        {
          "indexed": true,
          "internalType": "address",
          "name": "_to",
          "type": "address"
        },
        {
          "indexed": false,
          "internalType": "uint256",
          "name": "_id",
          "type": "uint256"
        },
        {
          "indexed": false,
          "internalType": "uint256",
          "name": "_amount",
          "type": "uint256"
        }
      ],
      "name": "TransferSingle",
      "type": "event"
    },
    {
      "anonymous": false,
      "inputs": [
        {
          "indexed": false,
          "internalType": "string",
          "name": "_uri",
          "type": "string"
        },
        {
          "indexed": true,
          "internalType": "uint256",
          "name": "_id",
          "type": "uint256"
        }
      ],
      "name": "URI",
      "type": "event"
    },
    {
      "inputs": [],
      "name": "DEFAULT_ADMIN_ROLE",
      "outputs": [
        {
          "internalType": "bytes32",
          "name": "",
          "type": "bytes32"
        }
      ],
      "stateMutability": "view",
      "type": "function"
    },
    {
      "inputs": [
        {
          "internalType": "address",
          "name": "account",
          "type": "address"
        }
      ],
      "name": "addMinter",
      "outputs": [],
      "stateMutability": "nonpayable",
      "type": "function"
    },
    {
      "inputs": [
        {
          "internalType": "address",
          "name": "_owner",
          "type": "address"
        },
        {
          "internalType": "uint256",
          "name": "_id",
          "type": "uint256"
        }
      ],
      "name": "balanceOf",
      "outputs": [
        {
          "internalType": "uint256",
          "name": "",
          "type": "uint256"
        }
      ],
      "stateMutability": "view",
      "type": "function"
    },
    {
      "inputs": [
        {
          "internalType": "address[]",
          "name": "_owners",
          "type": "address[]"
        },
        {
          "internalType": "uint256[]",
          "name": "_ids",
          "type": "uint256[]"
        }
      ],
      "name": "balanceOfBatch",
      "outputs": [
        {
          "internalType": "uint256[]",
          "name": "",
          "type": "uint256[]"
        }
      ],
      "stateMutability": "view",
      "type": "function"
    },
    {
      "inputs": [
        {
          "internalType": "address",
          "name": "_to",
          "type": "address"
        },
        {
          "internalType": "uint256[]",
          "name": "_ids",
          "type": "uint256[]"
        },
        {
          "internalType": "uint256[]",
          "name": "_amounts",
          "type": "uint256[]"
        },
        {
          "internalType": "bytes",
          "name": "_data",
          "type": "bytes"
        }
      ],
      "name": "batchMint",
      "outputs": [],
      "stateMutability": "nonpayable",
      "type": "function"
    },
    {
      "inputs": [
        {
          "internalType": "uint256",
          "name": "_id",
          "type": "uint256"
        }
      ],
      "name": "create",
      "outputs": [],
      "stateMutability": "nonpayable",
      "type": "function"
    },
    {
      "inputs": [
        {
          "internalType": "uint256",
          "name": "",
          "type": "uint256"
        }
      ],
      "name": "creators",
      "outputs": [
        {
          "internalType": "address",
          "name": "",
          "type": "address"
        }
      ],
      "stateMutability": "view",
      "type": "function"
    },
    {
      "inputs": [
        {
          "internalType": "bytes32",
          "name": "role",
          "type": "bytes32"
        }
      ],
      "name": "getRoleAdmin",
      "outputs": [
        {
          "internalType": "bytes32",
          "name": "",
          "type": "bytes32"
        }
      ],
      "stateMutability": "view",
      "type": "function"
    },
    {
      "inputs": [
        {
          "internalType": "bytes32",
          "name": "role",
          "type": "bytes32"
        },
        {
          "internalType": "uint256",
          "name": "index",
          "type": "uint256"
        }
      ],
      "name": "getRoleMember",
      "outputs": [
        {
          "internalType": "address",
          "name": "",
          "type": "address"
        }
      ],
      "stateMutability": "view",
      "type": "function"
    },
    {
      "inputs": [
        {
          "internalType": "bytes32",
          "name": "role",
          "type": "bytes32"
        }
      ],
      "name": "getRoleMemberCount",
      "outputs": [
        {
          "internalType": "uint256",
          "name": "",
          "type": "uint256"
        }
      ],
      "stateMutability": "view",
      "type": "function"
    },
    {
      "inputs": [
        {
          "internalType": "bytes32",
          "name": "role",
          "type": "bytes32"
        },
        {
          "internalType": "address",
          "name": "account",
          "type": "address"
        }
      ],
      "name": "grantRole",
      "outputs": [],
      "stateMutability": "nonpayable",
      "type": "function"
    },
    {
      "inputs": [
        {
          "internalType": "bytes32",
          "name": "role",
          "type": "bytes32"
        },
        {
          "internalType": "address",
          "name": "account",
          "type": "address"
        }
      ],
      "name": "hasRole",
      "outputs": [
        {
          "internalType": "bool",
          "name": "",
          "type": "bool"
        }
      ],
      "stateMutability": "view",
      "type": "function"
    },
    {
      "inputs": [
        {
          "internalType": "address",
          "name": "_owner",
          "type": "address"
        },
        {
          "internalType": "address",
          "name": "_operator",
          "type": "address"
        }
      ],
      "name": "isApprovedForAll",
      "outputs": [
        {
          "internalType": "bool",
          "name": "isOperator",
          "type": "bool"
        }
      ],
      "stateMutability": "view",
      "type": "function"
    },
    {
      "inputs": [
        {
          "internalType": "address",
          "name": "account",
          "type": "address"
        }
      ],
      "name": "isMinter",
      "outputs": [
        {
          "internalType": "bool",
          "name": "",
          "type": "bool"
        }
      ],
      "stateMutability": "view",
      "type": "function"
    },
    {
      "inputs": [
        {
          "internalType": "address",
          "name": "_to",
          "type": "address"
        },
        {
          "internalType": "uint256",
          "name": "_id",
          "type": "uint256"
        },
        {
          "internalType": "uint256",
          "name": "_quantity",
          "type": "uint256"
        },
        {
          "internalType": "bytes",
          "name": "_data",
          "type": "bytes"
        }
      ],
      "name": "mint",
      "outputs": [],
      "stateMutability": "nonpayable",
      "type": "function"
    },
    {
      "inputs": [],
      "name": "name",
      "outputs": [
        {
          "internalType": "string",
          "name": "",
          "type": "string"
        }
      ],
      "stateMutability": "view",
      "type": "function"
    },
    {
      "inputs": [],
      "name": "owner",
      "outputs": [
        {
          "internalType": "address",
          "name": "",
          "type": "address"
        }
      ],
      "stateMutability": "view",
      "type": "function"
    },
    {
      "inputs": [],
      "name": "proxyRegistryAddress",
      "outputs": [
        {
          "internalType": "address",
          "name": "",
          "type": "address"
        }
      ],
      "stateMutability": "view",
      "type": "function"
    },
    {
      "inputs": [
        {
          "internalType": "address",
          "name": "account",
          "type": "address"
        }
      ],
      "name": "removeMinter",
      "outputs": [],
      "stateMutability": "nonpayable",
      "type": "function"
    },
    {
      "inputs": [],
      "name": "renounceMinter",
      "outputs": [],
      "stateMutability": "nonpayable",
      "type": "function"
    },
    {
      "inputs": [],
      "name": "renounceOwnership",
      "outputs": [],
      "stateMutability": "nonpayable",
      "type": "function"
    },
    {
      "inputs": [
        {
          "internalType": "bytes32",
          "name": "role",
          "type": "bytes32"
        },
        {
          "internalType": "address",
          "name": "account",
          "type": "address"
        }
      ],
      "name": "renounceRole",
      "outputs": [],
      "stateMutability": "nonpayable",
      "type": "function"
    },
    {
      "inputs": [
        {
          "internalType": "bytes32",
          "name": "role",
          "type": "bytes32"
        },
        {
          "internalType": "address",
          "name": "account",
          "type": "address"
        }
      ],
      "name": "revokeRole",
      "outputs": [],
      "stateMutability": "nonpayable",
      "type": "function"
    },
    {
      "inputs": [
        {
          "internalType": "address",
          "name": "_from",
          "type": "address"
        },
        {
          "internalType": "address",
          "name": "_to",
          "type": "address"
        },
        {
          "internalType": "uint256[]",
          "name": "_ids",
          "type": "uint256[]"
        },
        {
          "internalType": "uint256[]",
          "name": "_amounts",
          "type": "uint256[]"
        },
        {
          "internalType": "bytes",
          "name": "_data",
          "type": "bytes"
        }
      ],
      "name": "safeBatchTransferFrom",
      "outputs": [],
      "stateMutability": "nonpayable",
      "type": "function"
    },
    {
      "inputs": [
        {
          "internalType": "address",
          "name": "_from",
          "type": "address"
        },
        {
          "internalType": "address",
          "name": "_to",
          "type": "address"
        },
        {
          "internalType": "uint256",
          "name": "_id",
          "type": "uint256"
        },
        {
          "internalType": "uint256",
          "name": "_amount",
          "type": "uint256"
        },
        {
          "internalType": "bytes",
          "name": "_data",
          "type": "bytes"
        }
      ],
      "name": "safeTransferFrom",
      "outputs": [],
      "stateMutability": "nonpayable",
      "type": "function"
    },
    {
      "inputs": [
        {
          "internalType": "address",
          "name": "_operator",
          "type": "address"
        },
        {
          "internalType": "bool",
          "name": "_approved",
          "type": "bool"
        }
      ],
      "name": "setApprovalForAll",
      "outputs": [],
      "stateMutability": "nonpayable",
      "type": "function"
    },
    {
      "inputs": [
        {
          "internalType": "string",
          "name": "_newBaseMetadataURI",
          "type": "string"
        }
      ],
      "name": "setBaseMetadataURI",
      "outputs": [],
      "stateMutability": "nonpayable",
      "type": "function"
    },
    {
      "inputs": [
        {
          "internalType": "address",
          "name": "_newProxyRegistryAddress",
          "type": "address"
        }
      ],
      "name": "setProxyRegistryAddress",
      "outputs": [],
      "stateMutability": "nonpayable",
      "type": "function"
    },
    {
      "inputs": [
        {
          "internalType": "bytes4",
          "name": "_interfaceID",
          "type": "bytes4"
        }
      ],
      "name": "supportsInterface",
      "outputs": [
        {
          "internalType": "bool",
          "name": "",
          "type": "bool"
        }
      ],
      "stateMutability": "view",
      "type": "function"
    },
    {
      "inputs": [],
      "name": "symbol",
      "outputs": [
        {
          "internalType": "string",
          "name": "",
          "type": "string"
        }
      ],
      "stateMutability": "view",
      "type": "function"
    },
    {
      "inputs": [
        {
          "internalType": "uint256",
          "name": "",
          "type": "uint256"
        }
      ],
      "name": "tokenSupply",
      "outputs": [
        {
          "internalType": "uint256",
          "name": "",
          "type": "uint256"
        }
      ],
      "stateMutability": "view",
      "type": "function"
    },
    {
      "inputs": [
        {
          "internalType": "address",
          "name": "newOwner",
          "type": "address"
        }
      ],
      "name": "transferOwnership",
      "outputs": [],
      "stateMutability": "nonpayable",
      "type": "function"
    },
    {
      "inputs": [
        {
          "internalType": "uint256",
          "name": "_id",
          "type": "uint256"
        }
      ],
      "name": "uri",
      "outputs": [
        {
          "internalType": "string",
          "name": "",
          "type": "string"
        }
      ],
      "stateMutability": "view",
      "type": "function"
    }
  ],
  "bytecode": "0x608060405260006006553480156200001657600080fd5b50604051620035a9380380620035a9833981810160405260208110156200003c57600080fd5b5051604080518082018252600d81526c474d454520566f75636865727360981b6020828101919091528251808401909352600a83526908e9a8a8abeecdeeac6d60b31b90830152908260006200009a6001600160e01b03620001ae16565b600380546001600160a01b0319166001600160a01b038316908117909155604051919250906000907f8be0079c531659141344cd1fd0a4f28419497f9722a3daafe3b4186f6b6457e0908290a350620001106000620001016001600160e01b03620001ae16565b6001600160e01b03620001b316565b620001236001600160e01b03620001ae16565b6001600160a01b03167f6ae172837ea30b801fbfcdd4108aa1d5bf8ff775444fd70256b44e6bf3dfc3f660405160405180910390a282516200016d906009906020860190620002e9565b5081516200018390600a906020850190620002e9565b50600580546001600160a01b0319166001600160a01b0392909216919091179055506200038b915050565b335b90565b620001c882826001600160e01b03620001cc16565b5050565b6000828152600460209081526040909120620001f391839062001ca262000250821b17901c565b15620001c8576200020c6001600160e01b03620001ae16565b6001600160a01b0316816001600160a01b0316837f2f8788117e7eff1d82e926ec794901d17c78024a50270940304540a733656f0d60405160405180910390a45050565b600062000270836001600160a01b0384166001600160e01b036200027916565b90505b92915050565b60006200029083836001600160e01b03620002d116565b620002c85750815460018181018455600084815260208082209093018490558454848252828601909352604090209190915562000273565b50600062000273565b60009081526001919091016020526040902054151590565b828054600181600116156101000203166002900490600052602060002090601f016020900481019282601f106200032c57805160ff19168380011785556200035c565b828001600101855582156200035c579182015b828111156200035c5782518255916020019190600101906200033f565b506200036a9291506200036e565b5090565b620001b091905b808211156200036a576000815560010162000375565b61320e806200039b6000396000f3fe608060405234801561001057600080fd5b506004361061020a5760003560e01c80639010d07c1161012a578063b48ab8b6116100bd578063d26ea6c01161008c578063e985e9c511610071578063e985e9c514610c16578063f242432a14610c44578063f2fde38b14610d0f5761020a565b8063d26ea6c014610bc4578063d547741f14610bea5761020a565b8063b48ab8b6146109c4578063ca15c87314610b82578063cd53d08e14610b9f578063cd7c032614610bbc5761020a565b806398650275116100f95780639865027514610960578063a217fddf14610968578063a22cb46514610970578063aa271e1a1461099e5761020a565b80639010d07c146108e357806391d148541461090657806395d89b4114610932578063983b2d561461093a5761020a565b80633092afd5116101a2578063731133e911610171578063731133e91461073a578063780900dc146107fc5780637e518ec8146108195780638da5cb5b146108bf5761020a565b80633092afd51461056957806336568abe1461058f5780634e1273f4146105bb578063715018a6146107325761020a565b8063248a9ca3116101de578063248a9ca31461033a5780632693ebf2146103575780632eb2c2d6146103745780632f2ff15d1461053d5761020a565b8062fdd58e1461020f57806301ffc9a71461024d57806306fdde03146102a05780630e89341c1461031d575b600080fd5b61023b6004803603604081101561022557600080fd5b506001600160a01b038135169060200135610d35565b60408051918252519081900360200190f35b61028c6004803603602081101561026357600080fd5b50357fffffffff0000000000000000000000000000000000000000000000000000000016610d5e565b604080519115158252519081900360200190f35b6102a8610e07565b6040805160208082528351818301528351919283929083019185019080838360005b838110156102e25781810151838201526020016102ca565b50505050905090810190601f16801561030f5780820380516001836020036101000a031916815260200191505b509250505060405180910390f35b6102a86004803603602081101561033357600080fd5b5035610e95565b61023b6004803603602081101561035057600080fd5b5035610f34565b61023b6004803603602081101561036d57600080fd5b5035610f49565b61053b600480360360a081101561038a57600080fd5b6001600160a01b0382358116926020810135909116918101906060810160408201356401000000008111156103be57600080fd5b8201836020820111156103d057600080fd5b803590602001918460208302840111640100000000831117156103f257600080fd5b919080806020026020016040519081016040528093929190818152602001838360200280828437600092019190915250929594936020810193503591505064010000000081111561044257600080fd5b82018360208201111561045457600080fd5b8035906020019184602083028401116401000000008311171561047657600080fd5b91908080602002602001604051908101604052809392919081815260200183836020028082843760009201919091525092959493602081019350359150506401000000008111156104c657600080fd5b8201836020820111156104d857600080fd5b803590602001918460018302840111640100000000831117156104fa57600080fd5b91908080601f016020809104026020016040519081016040528093929190818152602001838380828437600092019190915250929550610f5b945050505050565b005b61053b6004803603604081101561055357600080fd5b50803590602001356001600160a01b0316611017565b61053b6004803603602081101561057f57600080fd5b50356001600160a01b0316611083565b61053b600480360360408110156105a557600080fd5b50803590602001356001600160a01b03166110fb565b6106e2600480360360408110156105d157600080fd5b8101906020810181356401000000008111156105ec57600080fd5b8201836020820111156105fe57600080fd5b8035906020019184602083028401116401000000008311171561062057600080fd5b919080806020026020016040519081016040528093929190818152602001838360200280828437600092019190915250929594936020810193503591505064010000000081111561067057600080fd5b82018360208201111561068257600080fd5b803590602001918460208302840111640100000000831117156106a457600080fd5b91908080602002602001604051908101604052809392919081815260200183836020028082843760009201919091525092955061115c945050505050565b60408051602080825283518183015283519192839290830191858101910280838360005b8381101561071e578181015183820152602001610706565b505050509050019250505060405180910390f35b61053b611274565b61053b6004803603608081101561075057600080fd5b6001600160a01b03823516916020810135916040820135919081019060808101606082013564010000000081111561078757600080fd5b82018360208201111561079957600080fd5b803590602001918460018302840111640100000000831117156107bb57600080fd5b91908080601f016020809104026020016040519081016040528093929190818152602001838380828437600092019190915250929550611335945050505050565b61053b6004803603602081101561081257600080fd5b50356113c3565b61053b6004803603602081101561082f57600080fd5b81019060208101813564010000000081111561084a57600080fd5b82018360208201111561085c57600080fd5b8035906020019184600183028401116401000000008311171561087e57600080fd5b91908080601f0160208091040260200160405190810160405280939291908181526020018383808284376000920191909152509295506114fa945050505050565b6108c761156d565b604080516001600160a01b039092168252519081900360200190f35b6108c7600480360360408110156108f957600080fd5b508035906020013561157d565b61028c6004803603604081101561091c57600080fd5b50803590602001356001600160a01b03166115a2565b6102a86115c0565b61053b6004803603602081101561095057600080fd5b50356001600160a01b031661161b565b61053b6116e8565b61023b61177f565b61053b6004803603604081101561098657600080fd5b506001600160a01b0381351690602001351515611784565b61028c600480360360208110156109b457600080fd5b50356001600160a01b0316611810565b61053b600480360360808110156109da57600080fd5b6001600160a01b038235169190810190604081016020820135640100000000811115610a0557600080fd5b820183602082011115610a1757600080fd5b80359060200191846020830284011164010000000083111715610a3957600080fd5b9190808060200260200160405190810160405280939291908181526020018383602002808284376000920191909152509295949360208101935035915050640100000000811115610a8957600080fd5b820183602082011115610a9b57600080fd5b80359060200191846020830284011164010000000083111715610abd57600080fd5b9190808060200260200160405190810160405280939291908181526020018383602002808284376000920191909152509295949360208101935035915050640100000000811115610b0d57600080fd5b820183602082011115610b1f57600080fd5b80359060200191846001830284011164010000000083111715610b4157600080fd5b91908080601f016020809104026020016040519081016040528093929190818152602001838380828437600092019190915250929550611862945050505050565b61023b60048036036020811015610b9857600080fd5b50356118de565b6108c760048036036020811015610bb557600080fd5b50356118f5565b6108c7611910565b61053b60048036036020811015610bda57600080fd5b50356001600160a01b031661191f565b61053b60048036036040811015610c0057600080fd5b50803590602001356001600160a01b03166119b8565b61028c60048036036040811015610c2c57600080fd5b506001600160a01b0381358116916020013516611a11565b61053b600480360360a0811015610c5a57600080fd5b6001600160a01b03823581169260208101359091169160408201359160608101359181019060a081016080820135640100000000811115610c9a57600080fd5b820183602082011115610cac57600080fd5b80359060200191846001830284011164010000000083111715610cce57600080fd5b91908080601f016020809104026020016040519081016040528093929190818152602001838380828437600092019190915250929550611ad5945050505050565b61053b60048036036020811015610d2557600080fd5b50356001600160a01b0316611b8a565b6001600160a01b0382166000908152602081815260408083208484529091529020545b92915050565b60007fffffffff0000000000000000000000000000000000000000000000000000000082167f01ffc9a7000000000000000000000000000000000000000000000000000000001480610df157507fffffffff0000000000000000000000000000000000000000000000000000000082167fd9b67a2600000000000000000000000000000000000000000000000000000000145b15610dfe57506001610e02565b5060005b919050565b6009805460408051602060026001851615610100026000190190941693909304601f81018490048402820184019092528181529291830182828015610e8d5780601f10610e6257610100808354040283529160200191610e8d565b820191906000526020600020905b815481529060010190602001808311610e7057829003601f168201915b505050505081565b6002805460408051602060018416156101000260001901909316849004601f8101849004840282018401909252818152606093610d589391929091830182828015610f215780601f10610ef657610100808354040283529160200191610f21565b820191906000526020600020905b815481529060010190602001808311610f0457829003601f168201915b5050505050610f2f84611cb7565b611dab565b60009081526004602052604090206002015490565b60086020526000908152604090205481565b336001600160a01b0386161480610f775750610f778533611a11565b610fb25760405162461bcd60e51b815260040180806020018281038252602f8152602001806130d2602f913960400191505060405180910390fd5b6001600160a01b038416610ff75760405162461bcd60e51b815260040180806020018281038252603081526020018061304d6030913960400191505060405180910390fd5b61100385858585611de7565b6110108585858585612092565b5050505050565b60008281526004602052604090206002015461103a906110356122c9565b6115a2565b6110755760405162461bcd60e51b815260040180806020018281038252602f815260200180612ee5602f913960400191505060405180910390fd5b61107f82826122cd565b5050565b61108b6122c9565b6003546001600160a01b039081169116146110ed576040805162461bcd60e51b815260206004820181905260248201527f4f776e61626c653a2063616c6c6572206973206e6f7420746865206f776e6572604482015290519081900360640190fd5b6110f86000826119b8565b50565b6111036122c9565b6001600160a01b0316816001600160a01b0316146111525760405162461bcd60e51b815260040180806020018281038252602f8152602001806131aa602f913960400191505060405180910390fd5b61107f828261233c565b6060815183511461119e5760405162461bcd60e51b815260040180806020018281038252602c81526020018061307d602c913960400191505060405180910390fd5b6060835167ffffffffffffffff811180156111b857600080fd5b506040519080825280602002602001820160405280156111e2578160200160208202803683370190505b50905060005b845181101561126c5760008086838151811061120057fe5b60200260200101516001600160a01b03166001600160a01b03168152602001908152602001600020600085838151811061123657fe5b602002602001015181526020019081526020016000205482828151811061125957fe5b60209081029190910101526001016111e8565b509392505050565b61127c6122c9565b6003546001600160a01b039081169116146112de576040805162461bcd60e51b815260206004820181905260248201527f4f776e61626c653a2063616c6c6572206973206e6f7420746865206f776e6572604482015290519081900360640190fd5b6003546040516000916001600160a01b0316907f8be0079c531659141344cd1fd0a4f28419497f9722a3daafe3b4186f6b6457e0908390a36003805473ffffffffffffffffffffffffffffffffffffffff19169055565b6113456113406122c9565b611810565b6113805760405162461bcd60e51b815260040180806020018281038252603081526020018061301d6030913960400191505060405180910390fd5b61138c848484846123ab565b6000838152600860205260409020546113ab908363ffffffff61244b16565b60009384526008602052604090932092909255505050565b6113cb6122c9565b6003546001600160a01b0390811691161461142d576040805162461bcd60e51b815260206004820181905260248201527f4f776e61626c653a2063616c6c6572206973206e6f7420746865206f776e6572604482015290519081900360640190fd5b6000818152600760205260409020805473ffffffffffffffffffffffffffffffffffffffff191633179055807f6bb7ff708619ba0610cba295a58592e0451dee2622938c8755667688daf3529b61148382610e95565b6040805160208082528351818301528351919283929083019185019080838360005b838110156114bd5781810151838201526020016114a5565b50505050905090810190601f1680156114ea5780820380516001836020036101000a031916815260200191505b509250505060405180910390a250565b6115026122c9565b6003546001600160a01b03908116911614611564576040805162461bcd60e51b815260206004820181905260248201527f4f776e61626c653a2063616c6c6572206973206e6f7420746865206f776e6572604482015290519081900360640190fd5b6110f8816124a5565b6003546001600160a01b03165b90565b600082815260046020526040812061159b908363ffffffff6124b816565b9392505050565b600082815260046020526040812061159b908363ffffffff6124c416565b600a805460408051602060026001851615610100026000190190941693909304601f81018490048402820184019092528181529291830182828015610e8d5780601f10610e6257610100808354040283529160200191610e8d565b6116266113406122c9565b6116615760405162461bcd60e51b815260040180806020018281038252603081526020018061301d6030913960400191505060405180910390fd5b61166a81611810565b156116a65760405162461bcd60e51b81526004018080602001828103825260298152602001806130a96029913960400191505060405180910390fd5b6116b1600082611017565b6040516001600160a01b038216907f6ae172837ea30b801fbfcdd4108aa1d5bf8ff775444fd70256b44e6bf3dfc3f690600090a250565b6116f36113406122c9565b61172e5760405162461bcd60e51b815260040180806020018281038252603081526020018061301d6030913960400191505060405180910390fd5b611740600061173b6122c9565b6110fb565b6117486122c9565b6001600160a01b03167fe94479a9f7e1952cc78f2d6baab678adc1b772d936c6583def489e524cb6669260405160405180910390a2565b600081565b3360008181526001602090815260408083206001600160a01b0387168085529083529281902080547fffffffffffffffffffffffffffffffffffffffffffffffffffffffffffffff0016861515908117909155815190815290519293927f17307eab39ab6107e8899845ad3d59bd9653f200f220920489ca2b5937696c31929181900390910190a35050565b60006001600160a01b0382166118575760405162461bcd60e51b8152600401808060200182810382526029815260200180612f8f6029913960400191505060405180910390fd5b610d586000836115a2565b61186a6122c9565b6003546001600160a01b039081169116146118cc576040805162461bcd60e51b815260206004820181905260248201527f4f776e61626c653a2063616c6c6572206973206e6f7420746865206f776e6572604482015290519081900360640190fd5b6118d8848484846124d9565b50505050565b6000818152600460205260408120610d58906126ad565b6007602052600090815260409020546001600160a01b031681565b6005546001600160a01b031681565b6119276122c9565b6003546001600160a01b03908116911614611989576040805162461bcd60e51b815260206004820181905260248201527f4f776e61626c653a2063616c6c6572206973206e6f7420746865206f776e6572604482015290519081900360640190fd5b6005805473ffffffffffffffffffffffffffffffffffffffff19166001600160a01b0392909216919091179055565b6000828152600460205260409020600201546119d6906110356122c9565b6111525760405162461bcd60e51b8152600401808060200182810382526030815260200180612fed6030913960400191505060405180910390fd5b600554604080517fc45527910000000000000000000000000000000000000000000000000000000081526001600160a01b0385811660048301529151600093831692851691839163c455279191602480820192602092909190829003018186803b158015611a7e57600080fd5b505afa158015611a92573d6000803e3d6000fd5b505050506040513d6020811015611aa857600080fd5b50516001600160a01b03161415611ac3576001915050610d58565b611acd84846126b8565b949350505050565b336001600160a01b0386161480611af15750611af18533611a11565b611b2c5760405162461bcd60e51b815260040180806020018281038252602a815260200180612f65602a913960400191505060405180910390fd5b6001600160a01b038416611b715760405162461bcd60e51b815260040180806020018281038252602b815260200180612f14602b913960400191505060405180910390fd5b611b7d858585856126e6565b61101085858585856127ce565b611b926122c9565b6003546001600160a01b03908116911614611bf4576040805162461bcd60e51b815260206004820181905260248201527f4f776e61626c653a2063616c6c6572206973206e6f7420746865206f776e6572604482015290519081900360640190fd5b6001600160a01b038116611c395760405162461bcd60e51b8152600401808060200182810382526026815260200180612f3f6026913960400191505060405180910390fd5b6003546040516001600160a01b038084169216907f8be0079c531659141344cd1fd0a4f28419497f9722a3daafe3b4186f6b6457e090600090a36003805473ffffffffffffffffffffffffffffffffffffffff19166001600160a01b0392909216919091179055565b600061159b836001600160a01b038416612981565b606081611cf8575060408051808201909152600181527f30000000000000000000000000000000000000000000000000000000000000006020820152610e02565b8160005b8115611d1057600101600a82049150611cfc565b60608167ffffffffffffffff81118015611d2957600080fd5b506040519080825280601f01601f191660200182016040528015611d54576020820181803683370190505b50905060001982015b8515611da257600a860660300160f81b82828060019003935081518110611d8057fe5b60200101906001600160f81b031916908160001a905350600a86049550611d5d565b50949350505050565b606061159b83836040518060200160405280600081525060405180602001604052806000815250604051806020016040528060008152506129cb565b8051825114611e275760405162461bcd60e51b8152600401808060200182810382526035815260200180612fb86035913960400191505060405180910390fd5b815160005b81811015611fb157611ea2838281518110611e4357fe5b6020026020010151600080896001600160a01b03166001600160a01b031681526020019081526020016000206000878581518110611e7d57fe5b6020026020010151815260200190815260200160002054612bf090919063ffffffff16565b600080886001600160a01b03166001600160a01b031681526020019081526020016000206000868481518110611ed457fe5b6020026020010151815260200190815260200160002081905550611f5c838281518110611efd57fe5b6020026020010151600080886001600160a01b03166001600160a01b031681526020019081526020016000206000878581518110611f3757fe5b602002602001015181526020019081526020016000205461244b90919063ffffffff16565b600080876001600160a01b03166001600160a01b031681526020019081526020016000206000868481518110611f8e57fe5b602090810291909101810151825281019190915260400160002055600101611e2c565b50836001600160a01b0316856001600160a01b0316336001600160a01b03167f4a39dc06d4c0dbc64b70af90fd698a233a518aa5d07e595d983b8c0526c8f7fb8686604051808060200180602001838103835285818151815260200191508051906020019060200280838360005b8381101561203757818101518382015260200161201f565b50505050905001838103825284818151815260200191508051906020019060200280838360005b8381101561207657818101518382015260200161205e565b5050505090500194505050505060405180910390a45050505050565b6120a4846001600160a01b0316612c32565b15611010576000846001600160a01b031663bc197c8133888787876040518663ffffffff1660e01b815260040180866001600160a01b03166001600160a01b03168152602001856001600160a01b03166001600160a01b03168152602001806020018060200180602001848103845287818151815260200191508051906020019060200280838360005b8381101561214657818101518382015260200161212e565b50505050905001848103835286818151815260200191508051906020019060200280838360005b8381101561218557818101518382015260200161216d565b50505050905001848103825285818151815260200191508051906020019080838360005b838110156121c15781810151838201526020016121a9565b50505050905090810190601f1680156121ee5780820380516001836020036101000a031916815260200191505b5098505050505050505050602060405180830381600087803b15801561221357600080fd5b505af1158015612227573d6000803e3d6000fd5b505050506040513d602081101561223d57600080fd5b505190507fffffffff0000000000000000000000000000000000000000000000000000000081167fbc197c8100000000000000000000000000000000000000000000000000000000146122c15760405162461bcd60e51b815260040180806020018281038252603f815260200180613131603f913960400191505060405180910390fd5b505050505050565b3390565b60008281526004602052604090206122eb908263ffffffff611ca216565b1561107f576122f86122c9565b6001600160a01b0316816001600160a01b0316837f2f8788117e7eff1d82e926ec794901d17c78024a50270940304540a733656f0d60405160405180910390a45050565b600082815260046020526040902061235a908263ffffffff612c3816565b1561107f576123676122c9565b6001600160a01b0316816001600160a01b0316837ff6391f5c32d9c69d2a47ea670b442974b53935d1edc7fd64eb21e047a839171b60405160405180910390a45050565b6001600160a01b0384166000908152602081815260408083208684529091529020546123dd908363ffffffff61244b16565b6001600160a01b038516600081815260208181526040808320888452825280832094909455835187815290810186905283519293919233927fc3d58168c5ae7397731d063d5bbf3d657854427343f4c083240f7aacaa2d0f62928290030190a46118d86000858585856127ce565b60008282018381101561159b576040805162461bcd60e51b815260206004820152601b60248201527f536166654d6174683a206164646974696f6e206f766572666c6f770000000000604482015290519081900360640190fd5b805161107f906002906020840190612e2a565b600061159b8383612c4d565b600061159b836001600160a01b038416612cb1565b81518351146125195760405162461bcd60e51b81526004018080602001828103825260308152602001806131016030913960400191505060405180910390fd5b825160005b818110156125c45761256f84828151811061253557fe5b6020026020010151600080896001600160a01b03166001600160a01b031681526020019081526020016000206000888581518110611f3757fe5b600080886001600160a01b03166001600160a01b0316815260200190815260200160002060008784815181106125a157fe5b60209081029190910181015182528101919091526040016000205560010161251e565b50846001600160a01b031660006001600160a01b0316336001600160a01b03167f4a39dc06d4c0dbc64b70af90fd698a233a518aa5d07e595d983b8c0526c8f7fb8787604051808060200180602001838103835285818151815260200191508051906020019060200280838360005b8381101561264b578181015183820152602001612633565b50505050905001838103825284818151815260200191508051906020019060200280838360005b8381101561268a578181015183820152602001612672565b5050505090500194505050505060405180910390a4611010600086868686612092565b6000610d5882612cc9565b6001600160a01b03918216600090815260016020908152604080832093909416825291909152205460ff1690565b6001600160a01b038416600090815260208181526040808320858452909152902054612718908263ffffffff612bf016565b6001600160a01b0380861660009081526020818152604080832087845282528083209490945591861681528082528281208582529091522054612761908263ffffffff61244b16565b6001600160a01b03808516600081815260208181526040808320888452825291829020949094558051868152938401859052805191939288169233927fc3d58168c5ae7397731d063d5bbf3d657854427343f4c083240f7aacaa2d0f62929181900390910190a450505050565b6127e0846001600160a01b0316612c32565b15611010576000846001600160a01b031663f23a6e6133888787876040518663ffffffff1660e01b815260040180866001600160a01b03166001600160a01b03168152602001856001600160a01b03166001600160a01b0316815260200184815260200183815260200180602001828103825283818151815260200191508051906020019080838360005b8381101561288357818101518382015260200161286b565b50505050905090810190601f1680156128b05780820380516001836020036101000a031916815260200191505b509650505050505050602060405180830381600087803b1580156128d357600080fd5b505af11580156128e7573d6000803e3d6000fd5b505050506040513d60208110156128fd57600080fd5b505190507fffffffff0000000000000000000000000000000000000000000000000000000081167ff23a6e6100000000000000000000000000000000000000000000000000000000146122c15760405162461bcd60e51b815260040180806020018281038252603a815260200180613170603a913960400191505060405180910390fd5b600061298d8383612cb1565b6129c357508154600181810184556000848152602080822090930184905584548482528286019093526040902091909155610d58565b506000610d58565b805182518451865188516060948a948a948a948a948a948a94919092019092019091010167ffffffffffffffff81118015612a0557600080fd5b506040519080825280601f01601f191660200182016040528015612a30576020820181803683370190505b509050806000805b8851811015612a8957888181518110612a4d57fe5b602001015160f81c60f81b838380600101945081518110612a6a57fe5b60200101906001600160f81b031916908160001a905350600101612a38565b5060005b8751811015612ade57878181518110612aa257fe5b602001015160f81c60f81b838380600101945081518110612abf57fe5b60200101906001600160f81b031916908160001a905350600101612a8d565b5060005b8651811015612b3357868181518110612af757fe5b602001015160f81c60f81b838380600101945081518110612b1457fe5b60200101906001600160f81b031916908160001a905350600101612ae2565b5060005b8551811015612b8857858181518110612b4c57fe5b602001015160f81c60f81b838380600101945081518110612b6957fe5b60200101906001600160f81b031916908160001a905350600101612b37565b5060005b8451811015612bdd57848181518110612ba157fe5b602001015160f81c60f81b838380600101945081518110612bbe57fe5b60200101906001600160f81b031916908160001a905350600101612b8c565b50909d9c50505050505050505050505050565b600061159b83836040518060400160405280601e81526020017f536166654d6174683a207375627472616374696f6e206f766572666c6f770000815250612ccd565b3b151590565b600061159b836001600160a01b038416612d64565b81546000908210612c8f5760405162461bcd60e51b8152600401808060200182810382526022815260200180612ec36022913960400191505060405180910390fd5b826000018281548110612c9e57fe5b9060005260206000200154905092915050565b60009081526001919091016020526040902054151590565b5490565b60008184841115612d5c5760405162461bcd60e51b81526004018080602001828103825283818151815260200191508051906020019080838360005b83811015612d21578181015183820152602001612d09565b50505050905090810190601f168015612d4e5780820380516001836020036101000a031916815260200191505b509250505060405180910390fd5b505050900390565b60008181526001830160205260408120548015612e205783546000198083019190810190600090879083908110612d9757fe5b9060005260206000200154905080876000018481548110612db457fe5b600091825260208083209091019290925582815260018981019092526040902090840190558654879080612de457fe5b60019003818190600052602060002001600090559055866001016000878152602001908152602001600020600090556001945050505050610d58565b6000915050610d58565b828054600181600116156101000203166002900490600052602060002090601f016020900481019282601f10612e6b57805160ff1916838001178555612e98565b82800160010185558215612e98579182015b82811115612e98578251825591602001919060010190612e7d565b50612ea4929150612ea8565b5090565b61157a91905b80821115612ea45760008155600101612eae56fe456e756d657261626c655365743a20696e646578206f7574206f6620626f756e6473416363657373436f6e74726f6c3a2073656e646572206d75737420626520616e2061646d696e20746f206772616e744552433131353523736166655472616e7366657246726f6d3a20494e56414c49445f524543495049454e544f776e61626c653a206e6577206f776e657220697320746865207a65726f20616464726573734552433131353523736166655472616e7366657246726f6d3a20494e56414c49445f4f50455241544f524d696e746572526f6c653a2061646472657373207a65726f2063616e6e6f74206265206d696e74657245524331313535235f7361666542617463685472616e7366657246726f6d3a20494e56414c49445f4152524159535f4c454e475448416363657373436f6e74726f6c3a2073656e646572206d75737420626520616e2061646d696e20746f207265766f6b654d696e746572526f6c653a2063616c6c657220646f6573206e6f74206861766520746865204d696e74657220726f6c6545524331313535237361666542617463685472616e7366657246726f6d3a20494e56414c49445f524543495049454e54455243313135352362616c616e63654f6642617463683a20494e56414c49445f41525241595f4c454e4754484d696e746572526f6c653a2061646420616e206163636f756e7420616c7265616479206d696e74657245524331313535237361666542617463685472616e7366657246726f6d3a20494e56414c49445f4f50455241544f52455243313135354d696e744275726e2362617463684d696e743a20494e56414c49445f4152524159535f4c454e47544845524331313535235f63616c6c6f6e45524331313535426174636852656365697665643a20494e56414c49445f4f4e5f524543454956455f4d45535341474545524331313535235f63616c6c6f6e4552433131353552656365697665643a20494e56414c49445f4f4e5f524543454956455f4d455353414745416363657373436f6e74726f6c3a2063616e206f6e6c792072656e6f756e636520726f6c657320666f722073656c66a264697066735822122031028af7877bf48e1d629ceac34a46038a181d1c4b6d6710eb6dc1807b57739064736f6c63430006080033",
  "linkReferences": {},
  "deployedLinkReferences": {}
}