{
  "_format": "hh-sol-artifact-1",
  "contractName": "GameeVouchers",
  "sourceName": "contracts/solc-0.6/token/ERC1155/GameeVouchers.sol",
  "abi": [
    {
      "anonymous": false,
      "inputs": [
        {
          "indexed": true,
          "internalType": "address",
          "name": "_owner",
          "type": "address"
        },
        {
          "indexed": true,
          "internalType": "address",
          "name": "_operator",
          "type": "address"
        },
        {
          "indexed": false,
          "internalType": "bool",
          "name": "_approved",
          "type": "bool"
        }
      ],
      "name": "ApprovalForAll",
      "type": "event"
    },
    {
      "anonymous": false,
      "inputs": [
        {
          "indexed": false,
          "internalType": "string",
          "name": "baseMetadataURI",
          "type": "string"
        }
      ],
      "name": "BaseMetadataURISet",
      "type": "event"
    },
    {
      "anonymous": false,
      "inputs": [
        {
          "indexed": true,
          "internalType": "uint256",
          "name": "collectionId",
          "type": "uint256"
        },
        {
          "indexed": true,
          "internalType": "bool",
          "name": "fungible",
          "type": "bool"
        }
      ],
      "name": "CollectionCreated",
      "type": "event"
    },
    {
      "anonymous": false,
      "inputs": [
        {
          "indexed": true,
          "internalType": "address",
          "name": "account",
          "type": "address"
        }
      ],
      "name": "MinterAdded",
      "type": "event"
    },
    {
      "anonymous": false,
      "inputs": [
        {
          "indexed": true,
          "internalType": "address",
          "name": "account",
          "type": "address"
        }
      ],
      "name": "MinterRemoved",
      "type": "event"
    },
    {
      "anonymous": false,
      "inputs": [
        {
          "indexed": true,
          "internalType": "address",
          "name": "previousOwner",
          "type": "address"
        },
        {
          "indexed": true,
          "internalType": "address",
          "name": "newOwner",
          "type": "address"
        }
      ],
      "name": "OwnershipTransferred",
      "type": "event"
    },
    {
      "anonymous": false,
      "inputs": [
        {
          "indexed": true,
          "internalType": "bytes32",
          "name": "role",
          "type": "bytes32"
        },
        {
          "indexed": true,
          "internalType": "bytes32",
          "name": "previousAdminRole",
          "type": "bytes32"
        },
        {
          "indexed": true,
          "internalType": "bytes32",
          "name": "newAdminRole",
          "type": "bytes32"
        }
      ],
      "name": "RoleAdminChanged",
      "type": "event"
    },
    {
      "anonymous": false,
      "inputs": [
        {
          "indexed": true,
          "internalType": "bytes32",
          "name": "role",
          "type": "bytes32"
        },
        {
          "indexed": true,
          "internalType": "address",
          "name": "account",
          "type": "address"
        },
        {
          "indexed": true,
          "internalType": "address",
          "name": "sender",
          "type": "address"
        }
      ],
      "name": "RoleGranted",
      "type": "event"
    },
    {
      "anonymous": false,
      "inputs": [
        {
          "indexed": true,
          "internalType": "bytes32",
          "name": "role",
          "type": "bytes32"
        },
        {
          "indexed": true,
          "internalType": "address",
          "name": "account",
          "type": "address"
        },
        {
          "indexed": true,
          "internalType": "address",
          "name": "sender",
          "type": "address"
        }
      ],
      "name": "RoleRevoked",
      "type": "event"
    },
    {
      "anonymous": false,
      "inputs": [
        {
          "indexed": true,
          "internalType": "address",
          "name": "_operator",
          "type": "address"
        },
        {
          "indexed": true,
          "internalType": "address",
          "name": "_from",
          "type": "address"
        },
        {
          "indexed": true,
          "internalType": "address",
          "name": "_to",
          "type": "address"
        },
        {
          "indexed": false,
          "internalType": "uint256[]",
          "name": "_ids",
          "type": "uint256[]"
        },
        {
          "indexed": false,
          "internalType": "uint256[]",
          "name": "_values",
          "type": "uint256[]"
        }
      ],
      "name": "TransferBatch",
      "type": "event"
    },
    {
      "anonymous": false,
      "inputs": [
        {
          "indexed": true,
          "internalType": "address",
          "name": "_operator",
          "type": "address"
        },
        {
          "indexed": true,
          "internalType": "address",
          "name": "_from",
          "type": "address"
        },
        {
          "indexed": true,
          "internalType": "address",
          "name": "_to",
          "type": "address"
        },
        {
          "indexed": false,
          "internalType": "uint256",
          "name": "_id",
          "type": "uint256"
        },
        {
          "indexed": false,
          "internalType": "uint256",
          "name": "_value",
          "type": "uint256"
        }
      ],
      "name": "TransferSingle",
      "type": "event"
    },
    {
      "anonymous": false,
      "inputs": [
        {
          "indexed": false,
          "internalType": "string",
          "name": "_value",
          "type": "string"
        },
        {
          "indexed": true,
          "internalType": "uint256",
          "name": "_id",
          "type": "uint256"
        }
      ],
      "name": "URI",
      "type": "event"
    },
    {
      "inputs": [],
      "name": "DEFAULT_ADMIN_ROLE",
      "outputs": [
        {
          "internalType": "bytes32",
          "name": "",
          "type": "bytes32"
        }
      ],
      "stateMutability": "view",
      "type": "function"
    },
    {
      "inputs": [
        {
          "internalType": "address",
          "name": "account",
          "type": "address"
        }
      ],
      "name": "addMinter",
      "outputs": [],
      "stateMutability": "nonpayable",
      "type": "function"
    },
    {
      "inputs": [
        {
          "internalType": "address",
          "name": "owner",
          "type": "address"
        },
        {
          "internalType": "uint256",
          "name": "id",
          "type": "uint256"
        }
      ],
      "name": "balanceOf",
      "outputs": [
        {
          "internalType": "uint256",
          "name": "",
          "type": "uint256"
        }
      ],
      "stateMutability": "view",
      "type": "function"
    },
    {
      "inputs": [
        {
          "internalType": "address[]",
          "name": "owners",
          "type": "address[]"
        },
        {
          "internalType": "uint256[]",
          "name": "ids",
          "type": "uint256[]"
        }
      ],
      "name": "balanceOfBatch",
      "outputs": [
        {
          "internalType": "uint256[]",
          "name": "",
          "type": "uint256[]"
        }
      ],
      "stateMutability": "view",
      "type": "function"
    },
    {
      "inputs": [],
      "name": "baseMetadataURI",
      "outputs": [
        {
          "internalType": "string",
          "name": "",
          "type": "string"
        }
      ],
      "stateMutability": "view",
      "type": "function"
    },
    {
      "inputs": [
        {
          "internalType": "address",
          "name": "from",
          "type": "address"
        },
        {
          "internalType": "uint256[]",
          "name": "ids",
          "type": "uint256[]"
        },
        {
          "internalType": "uint256[]",
          "name": "values",
          "type": "uint256[]"
        }
      ],
      "name": "batchBurnFrom",
      "outputs": [],
      "stateMutability": "nonpayable",
      "type": "function"
    },
    {
      "inputs": [
        {
          "internalType": "address",
          "name": "to",
          "type": "address"
        },
        {
          "internalType": "uint256[]",
          "name": "ids",
          "type": "uint256[]"
        },
        {
          "internalType": "uint256[]",
          "name": "values",
          "type": "uint256[]"
        }
      ],
      "name": "batchMint",
      "outputs": [],
      "stateMutability": "nonpayable",
      "type": "function"
    },
    {
      "inputs": [
        {
          "internalType": "address",
          "name": "from",
          "type": "address"
        },
        {
          "internalType": "uint256",
          "name": "id",
          "type": "uint256"
        },
        {
          "internalType": "uint256",
          "name": "value",
          "type": "uint256"
        }
      ],
      "name": "burnFrom",
      "outputs": [],
      "stateMutability": "nonpayable",
      "type": "function"
    },
    {
      "inputs": [
        {
          "internalType": "uint256",
          "name": "nftId",
          "type": "uint256"
        }
      ],
      "name": "collectionOf",
      "outputs": [
        {
          "internalType": "uint256",
          "name": "",
          "type": "uint256"
        }
      ],
      "stateMutability": "pure",
      "type": "function"
    },
    {
      "inputs": [
        {
          "internalType": "uint256",
          "name": "collectionId",
          "type": "uint256"
        }
      ],
      "name": "createCollection",
      "outputs": [],
      "stateMutability": "nonpayable",
      "type": "function"
    },
    {
      "inputs": [
        {
          "internalType": "uint256",
          "name": "",
          "type": "uint256"
        }
      ],
      "name": "creator",
      "outputs": [
        {
          "internalType": "address",
          "name": "",
          "type": "address"
        }
      ],
      "stateMutability": "view",
      "type": "function"
    },
    {
      "inputs": [
        {
          "internalType": "bytes32",
          "name": "role",
          "type": "bytes32"
        }
      ],
      "name": "getRoleAdmin",
      "outputs": [
        {
          "internalType": "bytes32",
          "name": "",
          "type": "bytes32"
        }
      ],
      "stateMutability": "view",
      "type": "function"
    },
    {
      "inputs": [
        {
          "internalType": "bytes32",
          "name": "role",
          "type": "bytes32"
        },
        {
          "internalType": "uint256",
          "name": "index",
          "type": "uint256"
        }
      ],
      "name": "getRoleMember",
      "outputs": [
        {
          "internalType": "address",
          "name": "",
          "type": "address"
        }
      ],
      "stateMutability": "view",
      "type": "function"
    },
    {
      "inputs": [
        {
          "internalType": "bytes32",
          "name": "role",
          "type": "bytes32"
        }
      ],
      "name": "getRoleMemberCount",
      "outputs": [
        {
          "internalType": "uint256",
          "name": "",
          "type": "uint256"
        }
      ],
      "stateMutability": "view",
      "type": "function"
    },
    {
      "inputs": [
        {
          "internalType": "bytes32",
          "name": "role",
          "type": "bytes32"
        },
        {
          "internalType": "address",
          "name": "account",
          "type": "address"
        }
      ],
      "name": "grantRole",
      "outputs": [],
      "stateMutability": "nonpayable",
      "type": "function"
    },
    {
      "inputs": [
        {
          "internalType": "bytes32",
          "name": "role",
          "type": "bytes32"
        },
        {
          "internalType": "address",
          "name": "account",
          "type": "address"
        }
      ],
      "name": "hasRole",
      "outputs": [
        {
          "internalType": "bool",
          "name": "",
          "type": "bool"
        }
      ],
      "stateMutability": "view",
      "type": "function"
    },
    {
      "inputs": [
        {
          "internalType": "address",
          "name": "tokenOwner",
          "type": "address"
        },
        {
          "internalType": "address",
          "name": "operator",
          "type": "address"
        }
      ],
      "name": "isApprovedForAll",
      "outputs": [
        {
          "internalType": "bool",
          "name": "",
          "type": "bool"
        }
      ],
      "stateMutability": "view",
      "type": "function"
    },
    {
      "inputs": [
        {
          "internalType": "uint256",
          "name": "id",
          "type": "uint256"
        }
      ],
      "name": "isFungible",
      "outputs": [
        {
          "internalType": "bool",
          "name": "",
          "type": "bool"
        }
      ],
      "stateMutability": "pure",
      "type": "function"
    },
    {
      "inputs": [
        {
          "internalType": "address",
          "name": "account",
          "type": "address"
        }
      ],
      "name": "isMinter",
      "outputs": [
        {
          "internalType": "bool",
          "name": "",
          "type": "bool"
        }
      ],
      "stateMutability": "view",
      "type": "function"
    },
    {
      "inputs": [
        {
          "internalType": "uint256",
          "name": "id",
          "type": "uint256"
        }
      ],
      "name": "isNFT",
      "outputs": [
        {
          "internalType": "bool",
          "name": "",
          "type": "bool"
        }
      ],
      "stateMutability": "pure",
      "type": "function"
    },
    {
      "inputs": [],
      "name": "name",
      "outputs": [
        {
          "internalType": "string",
          "name": "",
          "type": "string"
        }
      ],
      "stateMutability": "view",
      "type": "function"
    },
    {
      "inputs": [],
      "name": "owner",
      "outputs": [
        {
          "internalType": "address",
          "name": "",
          "type": "address"
        }
      ],
      "stateMutability": "view",
      "type": "function"
    },
    {
      "inputs": [
        {
          "internalType": "uint256",
          "name": "nftId",
          "type": "uint256"
        }
      ],
      "name": "ownerOf",
      "outputs": [
        {
          "internalType": "address",
          "name": "",
          "type": "address"
        }
      ],
      "stateMutability": "view",
      "type": "function"
    },
    {
      "inputs": [],
      "name": "renounceMinter",
      "outputs": [],
      "stateMutability": "nonpayable",
      "type": "function"
    },
    {
      "inputs": [],
      "name": "renounceOwnership",
      "outputs": [],
      "stateMutability": "nonpayable",
      "type": "function"
    },
    {
      "inputs": [
        {
          "internalType": "bytes32",
          "name": "role",
          "type": "bytes32"
        },
        {
          "internalType": "address",
          "name": "account",
          "type": "address"
        }
      ],
      "name": "renounceRole",
      "outputs": [],
      "stateMutability": "nonpayable",
      "type": "function"
    },
    {
      "inputs": [
        {
          "internalType": "bytes32",
          "name": "role",
          "type": "bytes32"
        },
        {
          "internalType": "address",
          "name": "account",
          "type": "address"
        }
      ],
      "name": "revokeRole",
      "outputs": [],
      "stateMutability": "nonpayable",
      "type": "function"
    },
    {
      "inputs": [
        {
          "internalType": "address",
          "name": "to",
          "type": "address"
        },
        {
          "internalType": "uint256[]",
          "name": "ids",
          "type": "uint256[]"
        },
        {
          "internalType": "uint256[]",
          "name": "values",
          "type": "uint256[]"
        },
        {
          "internalType": "bytes",
          "name": "data",
          "type": "bytes"
        }
      ],
      "name": "safeBatchMint",
      "outputs": [],
      "stateMutability": "nonpayable",
      "type": "function"
    },
    {
      "inputs": [
        {
          "internalType": "address",
          "name": "from",
          "type": "address"
        },
        {
          "internalType": "address",
          "name": "to",
          "type": "address"
        },
        {
          "internalType": "uint256[]",
          "name": "ids",
          "type": "uint256[]"
        },
        {
          "internalType": "uint256[]",
          "name": "values",
          "type": "uint256[]"
        },
        {
          "internalType": "bytes",
          "name": "data",
          "type": "bytes"
        }
      ],
      "name": "safeBatchTransferFrom",
      "outputs": [],
      "stateMutability": "nonpayable",
      "type": "function"
    },
    {
      "inputs": [
        {
          "internalType": "address",
          "name": "from",
          "type": "address"
        },
        {
          "internalType": "address",
          "name": "to",
          "type": "address"
        },
        {
          "internalType": "uint256",
          "name": "id",
          "type": "uint256"
        },
        {
          "internalType": "uint256",
          "name": "value",
          "type": "uint256"
        },
        {
          "internalType": "bytes",
          "name": "data",
          "type": "bytes"
        }
      ],
      "name": "safeTransferFrom",
      "outputs": [],
      "stateMutability": "nonpayable",
      "type": "function"
    },
    {
      "inputs": [
        {
          "internalType": "address",
          "name": "from",
          "type": "address"
        },
        {
          "internalType": "address",
          "name": "to",
          "type": "address"
        },
        {
          "internalType": "uint256[]",
          "name": "nftIds",
          "type": "uint256[]"
        },
        {
          "internalType": "bytes",
          "name": "data",
          "type": "bytes"
        }
      ],
      "name": "sameNFTCollectionSafeBatchTransferFrom",
      "outputs": [],
      "stateMutability": "nonpayable",
      "type": "function"
    },
    {
      "inputs": [
        {
          "internalType": "address",
          "name": "operator",
          "type": "address"
        },
        {
          "internalType": "bool",
          "name": "approved",
          "type": "bool"
        }
      ],
      "name": "setApprovalForAll",
      "outputs": [],
      "stateMutability": "nonpayable",
      "type": "function"
    },
    {
      "inputs": [
        {
          "internalType": "string",
          "name": "baseMetadataURI_",
          "type": "string"
        }
      ],
      "name": "setBaseMetadataURI",
      "outputs": [],
      "stateMutability": "nonpayable",
      "type": "function"
    },
    {
      "inputs": [
        {
          "internalType": "bytes4",
          "name": "interfaceId",
          "type": "bytes4"
        }
      ],
      "name": "supportsInterface",
      "outputs": [
        {
          "internalType": "bool",
          "name": "",
          "type": "bool"
        }
      ],
      "stateMutability": "view",
      "type": "function"
    },
    {
      "inputs": [],
      "name": "symbol",
      "outputs": [
        {
          "internalType": "string",
          "name": "",
          "type": "string"
        }
      ],
      "stateMutability": "view",
      "type": "function"
    },
    {
      "inputs": [
        {
          "internalType": "uint256",
          "name": "id",
          "type": "uint256"
        }
      ],
      "name": "totalSupply",
      "outputs": [
        {
          "internalType": "uint256",
          "name": "",
          "type": "uint256"
        }
      ],
      "stateMutability": "view",
      "type": "function"
    },
    {
      "inputs": [
        {
          "internalType": "address",
          "name": "newOwner",
          "type": "address"
        }
      ],
      "name": "transferOwnership",
      "outputs": [],
      "stateMutability": "nonpayable",
      "type": "function"
    },
    {
      "inputs": [
        {
          "internalType": "uint256",
          "name": "id",
          "type": "uint256"
        }
      ],
      "name": "uri",
      "outputs": [
        {
          "internalType": "string",
          "name": "",
          "type": "string"
        }
      ],
      "stateMutability": "view",
      "type": "function"
    }
  ],
  "bytecode": "0x60806040523480156200001157600080fd5b506200002d6301ffc9a760e01b6001600160e01b036200015716565b62000048636cdb3d1360e11b6001600160e01b036200015716565b620000636303a24d0760e21b6001600160e01b036200015716565b6200007e63b44bec7f60e01b6001600160e01b036200015716565b6000620000936001600160e01b03620001dc16565b600680546001600160a01b0319166001600160a01b038316908117909155604051919250906000907f8be0079c531659141344cd1fd0a4f28419497f9722a3daafe3b4186f6b6457e0908290a350620001096000620000fa6001600160e01b03620001dc16565b6001600160e01b03620001e016565b6200011c6001600160e01b03620001dc16565b6001600160a01b03167f6ae172837ea30b801fbfcdd4108aa1d5bf8ff775444fd70256b44e6bf3dfc3f660405160405180910390a262000316565b6001600160e01b03198082161415620001b7576040805162461bcd60e51b815260206004820152601c60248201527f4552433136353a20696e76616c696420696e7465726661636520696400000000604482015290519081900360640190fd5b6001600160e01b0319166000908152602081905260409020805460ff19166001179055565b3390565b620001f582826001600160e01b03620001f916565b5050565b60008281526008602090815260409091206200022091839062001f116200027d821b17901c565b15620001f557620002396001600160e01b03620001dc16565b6001600160a01b0316816001600160a01b0316837f2f8788117e7eff1d82e926ec794901d17c78024a50270940304540a733656f0d60405160405180910390a45050565b60006200029d836001600160a01b0384166001600160e01b03620002a616565b90505b92915050565b6000620002bd83836001600160e01b03620002fe16565b620002f557508154600181810184556000848152602080822090930184905584548482528286019093526040902091909155620002a0565b506000620002a0565b60009081526001919091016020526040902054151590565b61410580620003266000396000f3fe608060405234801561001057600080fd5b50600436106102915760003560e01c80638da5cb5b11610160578063aa271e1a116100d8578063d0011d9d1161008c578063e985e9c511610071578063e985e9c514610e2c578063f242432a14610e5a578063f2fde38b14610f2557610291565b8063d0011d9d14610de3578063d547741f14610e0057610291565b8063bd85b039116100bd578063bd85b03914610d8c578063c7778baa14610da9578063ca15c87314610dc657610291565b8063aa271e1a14610d49578063adebf6f214610d6f57610291565b806397634f9f1161012f57806398650275116101145780639865027514610d0b578063a217fddf14610d13578063a22cb46514610d1b57610291565b806397634f9f14610cc8578063983b2d5614610ce557610291565b80638da5cb5b14610c715780639010d07c14610c7957806391d1485414610c9c57806395d89b411461030f57610291565b80632f2ff15d1161020e5780635b2bd79e116101c2578063715018a6116101a7578063715018a614610b275780637e518ec814610b2f5780638053493414610b9f57610291565b80635b2bd79e14610b025780636352211e14610b0a57610291565b80634e1273f4116101f35780634e1273f41461080f578063510b515814610986578063524a4913146109bf57610291565b80632f2ff15d146107b757806336568abe146107e357610291565b80630d6a5bbb11610265578063124d91e51161024a578063124d91e5146105a1578063248a9ca3146105d35780632eb2c2d6146105f057610291565b80630d6a5bbb146104605780630e89341c1461058457610291565b8062fdd58e1461029657806301ffc9a7146102d457806306fdde031461030f5780630ca834801461038c575b600080fd5b6102c2600480360360408110156102ac57600080fd5b506001600160a01b038135169060200135610f4b565b60408051918252519081900360200190f35b6102fb600480360360208110156102ea57600080fd5b50356001600160e01b031916611013565b604080519115158252519081900360200190f35b610317611036565b6040805160208082528351818301528351919283929083019185019080838360005b83811015610351578181015183820152602001610339565b50505050905090810190601f16801561037e5780820380516001836020036101000a031916815260200191505b509250505060405180910390f35b61045e600480360360608110156103a257600080fd5b6001600160a01b0382351691908101906040810160208201356401000000008111156103cd57600080fd5b8201836020820111156103df57600080fd5b8035906020019184602083028401116401000000008311171561040157600080fd5b91939092909160208101903564010000000081111561041f57600080fd5b82018360208201111561043157600080fd5b8035906020019184602083028401116401000000008311171561045357600080fd5b50909250905061106f565b005b61045e6004803603608081101561047657600080fd5b6001600160a01b0382351691908101906040810160208201356401000000008111156104a157600080fd5b8201836020820111156104b357600080fd5b803590602001918460208302840111640100000000831117156104d557600080fd5b9193909290916020810190356401000000008111156104f357600080fd5b82018360208201111561050557600080fd5b8035906020019184602083028401116401000000008311171561052757600080fd5b91939092909160208101903564010000000081111561054557600080fd5b82018360208201111561055757600080fd5b8035906020019184600183028401116401000000008311171561057957600080fd5b50909250905061113e565b6103176004803603602081101561059a57600080fd5b5035611232565b61045e600480360360608110156105b757600080fd5b506001600160a01b03813516906020810135906040013561123d565b6102c2600480360360208110156105e957600080fd5b503561124f565b61045e600480360360a081101561060657600080fd5b6001600160a01b03823581169260208101359091169181019060608101604082013564010000000081111561063a57600080fd5b82018360208201111561064c57600080fd5b8035906020019184602083028401116401000000008311171561066e57600080fd5b91908080602002602001604051908101604052809392919081815260200183836020028082843760009201919091525092959493602081019350359150506401000000008111156106be57600080fd5b8201836020820111156106d057600080fd5b803590602001918460208302840111640100000000831117156106f257600080fd5b919080806020026020016040519081016040528093929190818152602001838360200280828437600092019190915250929594936020810193503591505064010000000081111561074257600080fd5b82018360208201111561075457600080fd5b8035906020019184600183028401116401000000008311171561077657600080fd5b91908080601f016020809104026020016040519081016040528093929190818152602001838380828437600092019190915250929550611264945050505050565b61045e600480360360408110156107cd57600080fd5b50803590602001356001600160a01b0316611271565b61045e600480360360408110156107f957600080fd5b50803590602001356001600160a01b03166112dd565b6109366004803603604081101561082557600080fd5b81019060208101813564010000000081111561084057600080fd5b82018360208201111561085257600080fd5b8035906020019184602083028401116401000000008311171561087457600080fd5b91908080602002602001604051908101604052809392919081815260200183836020028082843760009201919091525092959493602081019350359150506401000000008111156108c457600080fd5b8201836020820111156108d657600080fd5b803590602001918460208302840111640100000000831117156108f857600080fd5b91908080602002602001604051908101604052809392919081815260200183836020028082843760009201919091525092955061133e945050505050565b60408051602080825283518183015283519192839290830191858101910280838360005b8381101561097257818101518382015260200161095a565b505050509050019250505060405180910390f35b6109a36004803603602081101561099c57600080fd5b503561155e565b604080516001600160a01b039092168252519081900360200190f35b61045e600480360360808110156109d557600080fd5b6001600160a01b038235811692602081013590911691810190606081016040820135640100000000811115610a0957600080fd5b820183602082011115610a1b57600080fd5b80359060200191846020830284011164010000000083111715610a3d57600080fd5b9190808060200260200160405190810160405280939291908181526020018383602002808284376000920191909152509295949360208101935035915050640100000000811115610a8d57600080fd5b820183602082011115610a9f57600080fd5b80359060200191846001830284011164010000000083111715610ac157600080fd5b91908080601f016020809104026020016040519081016040528093929190818152602001838380828437600092019190915250929550611579945050505050565b61031761158b565b6109a360048036036020811015610b2057600080fd5b5035611619565b61045e611683565b61045e60048036036020811015610b4557600080fd5b810190602081018135640100000000811115610b6057600080fd5b820183602082011115610b7257600080fd5b80359060200191846001830284011164010000000083111715610b9457600080fd5b509092509050611744565b61045e60048036036060811015610bb557600080fd5b6001600160a01b038235169190810190604081016020820135640100000000811115610be057600080fd5b820183602082011115610bf257600080fd5b80359060200191846020830284011164010000000083111715610c1457600080fd5b919390929091602081019035640100000000811115610c3257600080fd5b820183602082011115610c4457600080fd5b80359060200191846020830284011164010000000083111715610c6657600080fd5b50909250905061181f565b6109a361188d565b6109a360048036036040811015610c8f57600080fd5b508035906020013561189d565b6102fb60048036036040811015610cb257600080fd5b50803590602001356001600160a01b03166118c2565b6102fb60048036036020811015610cde57600080fd5b50356118e0565b61045e60048036036020811015610cfb57600080fd5b50356001600160a01b0316611916565b61045e6119e3565b6102c2611a7a565b61045e60048036036040811015610d3157600080fd5b506001600160a01b0381351690602001351515611a7f565b6102fb60048036036020811015610d5f57600080fd5b50356001600160a01b0316611b60565b6102fb60048036036020811015610d8557600080fd5b5035611bb2565b6102c260048036036020811015610da257600080fd5b5035611bbc565b6102c260048036036020811015610dbf57600080fd5b5035611c12565b6102c260048036036020811015610ddc57600080fd5b5035611c7c565b61045e60048036036020811015610df957600080fd5b5035611c93565b61045e60048036036040811015610e1657600080fd5b50803590602001356001600160a01b0316611d63565b6102fb60048036036040811015610e4257600080fd5b506001600160a01b0381358116916020013516611dbc565b61045e600480360360a0811015610e7057600080fd5b6001600160a01b03823581169260208101359091169160408201359160608101359181019060a081016080820135640100000000811115610eb057600080fd5b820183602082011115610ec257600080fd5b80359060200191846001830284011164010000000083111715610ee457600080fd5b91908080601f016020809104026020016040519081016040528093929190818152602001838380828437600092019190915250929550611dea945050505050565b61045e60048036036020811015610f3b57600080fd5b50356001600160a01b0316611df9565b60006001600160a01b038316610fa8576040805162461bcd60e51b815260206004820152601760248201527f496e76656e746f72793a207a65726f2061646472657373000000000000000000604482015290519081900360640190fd5b610fb1826118e0565b15610fe8576000828152600460205260409020546001600160a01b03841614610fdb576000610fde565b60015b60ff16905061100d565b5060008181526002602090815260408083206001600160a01b03861684529091529020545b92915050565b6001600160e01b0319811660009081526020819052604090205460ff165b919050565b6040518060400160405280600d81526020017f47616d6565566f7563686572730000000000000000000000000000000000000081525081565b61107f61107a611f26565b611b60565b6110ba5760405162461bcd60e51b81526004018080602001828103825260308152602001806140486030913960400191505060405180910390fd5b61113785858580806020026020016040519081016040528093929190818152602001838360200280828437600092019190915250506040805160208089028281018201909352888252909350889250879182918501908490808284376000920182905250604080516020810190915281815293509150611f2a9050565b5050505050565b61114961107a611f26565b6111845760405162461bcd60e51b81526004018080602001828103825260308152602001806140486030913960400191505060405180910390fd5b6112298787878080602002602001604051908101604052809392919081815260200183836020028082843760009201919091525050604080516020808b0282810182019093528a82529093508a92508991829185019084908082843760009201919091525050604080516020601f8a01819004810282018101909252888152925088915087908190840183828082843760009201919091525060019250611f2a915050565b50505050505050565b606061100d82612112565b61124a838383600061211d565b505050565b60009081526008602052604090206002015490565b6111378585858585612489565b6000828152600860205260409020600201546112949061128f611f26565b6118c2565b6112cf5760405162461bcd60e51b815260040180806020018281038252602f815260200180613f9a602f913960400191505060405180910390fd5b6112d9828261271d565b5050565b6112e5611f26565b6001600160a01b0316816001600160a01b0316146113345760405162461bcd60e51b815260040180806020018281038252602f8152602001806140a1602f913960400191505060405180910390fd5b6112d9828261278c565b60608151835114611396576040805162461bcd60e51b815260206004820152601e60248201527f496e76656e746f72793a20696e636f6e73697374656e74206172726179730000604482015290519081900360640190fd5b6060835167ffffffffffffffff811180156113b057600080fd5b506040519080825280602002602001820160405280156113da578160200160208202803683370190505b50905060005b84518110156115565760006001600160a01b031685828151811061140057fe5b60200260200101516001600160a01b03161415611464576040805162461bcd60e51b815260206004820152601760248201527f496e76656e746f72793a207a65726f2061646472657373000000000000000000604482015290519081900360640190fd5b600084828151811061147257fe5b60200260200101519050611485816118e0565b156114ea5785828151811061149657fe5b60200260200101516001600160a01b03166004600083815260200190815260200160002054146114c75760006114ca565b60015b60ff168383815181106114d957fe5b60200260200101818152505061154d565b60026000828152602001908152602001600020600087848151811061150b57fe5b60200260200101516001600160a01b03166001600160a01b031681526020019081526020016000205483838151811061154057fe5b6020026020010181815250505b506001016113e0565b509392505050565b6005602052600090815260409020546001600160a01b031681565b611585848484846127fb565b50505050565b6007805460408051602060026001851615610100026000190190941693909304601f810184900484028201840190925281815292918301828280156116115780601f106115e657610100808354040283529160200191611611565b820191906000526020600020905b8154815290600101906020018083116115f457829003601f168201915b505050505081565b6000818152600460205260408120546001600160a01b03811661100d576040805162461bcd60e51b815260206004820152601b60248201527f496e76656e746f72793a206e6f6e2d6578697374696e67204e46540000000000604482015290519081900360640190fd5b61168b611f26565b6006546001600160a01b039081169116146116ed576040805162461bcd60e51b815260206004820181905260248201527f4f776e61626c653a2063616c6c6572206973206e6f7420746865206f776e6572604482015290519081900360640190fd5b6006546040516000916001600160a01b0316907f8be0079c531659141344cd1fd0a4f28419497f9722a3daafe3b4186f6b6457e0908390a36006805473ffffffffffffffffffffffffffffffffffffffff19169055565b61174c611f26565b6006546001600160a01b039081169116146117ae576040805162461bcd60e51b815260206004820181905260248201527f4f776e61626c653a2063616c6c6572206973206e6f7420746865206f776e6572604482015290519081900360640190fd5b6117ba60078383613edf565b507f04b1dc5c136a3ce9fded8db0ce3d3366c58764ec3a8e4c2b9e52e4ddfe5ebbf7828260405180806020018281038252848482818152602001925080828437600083820152604051601f909101601f19169092018290039550909350505050a15050565b6111378585858080602002602001604051908101604052809392919081815260200183836020028082843760009201919091525050604080516020808902828101820190935288825290935088925087918291850190849080828437600092019190915250612bee92505050565b6006546001600160a01b03165b90565b60008281526008602052604081206118bb908363ffffffff612e1716565b9392505050565b60008281526008602052604081206118bb908363ffffffff612e2316565b6000600160ff1b82161580159061100d5750507bffffffffffffffffffffffffffffffffffffffffffffffffffffffff16151590565b61192161107a611f26565b61195c5760405162461bcd60e51b81526004018080602001828103825260308152602001806140486030913960400191505060405180910390fd5b61196581611b60565b156119a15760405162461bcd60e51b81526004018080602001828103825260298152602001806140786029913960400191505060405180910390fd5b6119ac600082611271565b6040516001600160a01b038216907f6ae172837ea30b801fbfcdd4108aa1d5bf8ff775444fd70256b44e6bf3dfc3f690600090a250565b6119ee61107a611f26565b611a295760405162461bcd60e51b81526004018080602001828103825260308152602001806140486030913960400191505060405180910390fd5b611a3b6000611a36611f26565b6112dd565b611a43611f26565b6001600160a01b03167fe94479a9f7e1952cc78f2d6baab678adc1b772d936c6583def489e524cb6669260405160405180910390a2565b600081565b6000611a89611f26565b9050806001600160a01b0316836001600160a01b03161415611af2576040805162461bcd60e51b815260206004820152601860248201527f496e76656e746f72793a2073656c662d617070726f76616c0000000000000000604482015290519081900360640190fd5b6001600160a01b03818116600081815260016020908152604080832094881680845294825291829020805460ff1916871515908117909155825190815291517f17307eab39ab6107e8899845ad3d59bd9653f200f220920489ca2b5937696c319281900390910190a3505050565b60006001600160a01b038216611ba75760405162461bcd60e51b8152600401808060200182810382526029815260200180613fef6029913960400191505060405180910390fd5b61100d6000836118c2565b600160ff1b161590565b6000611bc7826118e0565b15611bfd576000828152600460205260409020546001600160a01b031615611bf0576001611bf3565b60005b60ff169050611031565b50600081815260036020526040902054611031565b6000611c1d826118e0565b611c6e576040805162461bcd60e51b815260206004820152601560248201527f496e76656e746f72793a206e6f7420616e204e46540000000000000000000000604482015290519081900360640190fd5b506001600160e01b03191690565b600081815260086020526040812061100d90612e38565b611c9b611f26565b6006546001600160a01b03908116911614611cfd576040805162461bcd60e51b815260206004820181905260248201527f4f776e61626c653a2063616c6c6572206973206e6f7420746865206f776e6572604482015290519081900360640190fd5b611d0681611bb2565b611d57576040805162461bcd60e51b815260206004820152601d60248201527f47616d6565566f7563686572733a206f6e6c792066756e6769626c6573000000604482015290519081900360640190fd5b611d6081612e43565b50565b600082815260086020526040902060020154611d819061128f611f26565b6113345760405162461bcd60e51b81526004018080602001828103825260308152602001806140186030913960400191505060405180910390fd5b6001600160a01b03918216600090815260016020908152604080832093909416825291909152205460ff1690565b61113785858585856000612f84565b611e01611f26565b6006546001600160a01b03908116911614611e63576040805162461bcd60e51b815260206004820181905260248201527f4f776e61626c653a2063616c6c6572206973206e6f7420746865206f776e6572604482015290519081900360640190fd5b6001600160a01b038116611ea85760405162461bcd60e51b8152600401808060200182810382526026815260200180613fc96026913960400191505060405180910390fd5b6006546040516001600160a01b038084169216907f8be0079c531659141344cd1fd0a4f28419497f9722a3daafe3b4186f6b6457e090600090a36006805473ffffffffffffffffffffffffffffffffffffffff19166001600160a01b0392909216919091179055565b60006118bb836001600160a01b038416613319565b3390565b835183518114611f81576040805162461bcd60e51b815260206004820152601e60248201527f496e76656e746f72793a20696e636f6e73697374656e74206172726179730000604482015290519081900360640190fd5b6001600160a01b038616611fdc576040805162461bcd60e51b815260206004820152601b60248201527f496e76656e746f72793a207472616e7366657220746f207a65726f0000000000604482015290519081900360640190fd5b600160005b828110156120255761201d88888381518110611ff957fe5b602002602001015188848151811061200d57fe5b6020026020010151888887613363565b600101611fe1565b506001600160a01b038716600061203a611f26565b6001600160a01b03167f4a39dc06d4c0dbc64b70af90fd698a233a518aa5d07e595d983b8c0526c8f7fb8989604051808060200180602001838103835285818151815260200191508051906020019060200280838360005b838110156120aa578181015183820152602001612092565b50505050905001838103825284818151815260200191508051906020019060200280838360005b838110156120e95781810151838201526020016120d1565b5050505090500194505050505060405180910390a48215611229576112296000888888886133cb565b606061100d82613603565b6000816121cb5761212c611f26565b90506000816001600160a01b0316866001600160a01b0316148061217557506001600160a01b0380871660009081526001602090815260408083209386168352929052205460ff165b9050806121c9576040805162461bcd60e51b815260206004820152601e60248201527f496e76656e746f72793a206e6f6e2d617070726f7665642073656e6465720000604482015290519081900360640190fd5b505b60006121d685611bb2565b1561228b578361222d576040805162461bcd60e51b815260206004820152601560248201527f496e76656e746f72793a207a65726f2076616c75650000000000000000000000604482015290519081900360640190fd5b5060008481526002602090815260408083206001600160a01b03891684529091529020548490612263908563ffffffff6136d616565b60008281526002602090815260408083206001600160a01b038b168452909152902055612408565b7bffffffffffffffffffffffffffffffffffffffffffffffffffffffff8516156123bb5783600114612304576040805162461bcd60e51b815260206004820152601a60248201527f496e76656e746f72793a2077726f6e67204e46542076616c7565000000000000604482015290519081900360640190fd5b6000858152600460205260409020546001600160a01b0387161461236f576040805162461bcd60e51b815260206004820152601860248201527f496e76656e746f72793a206e6f6e2d6f776e6564204e46540000000000000000604482015290519081900360640190fd5b506000848152600460209081526040808320600160ff1b90556001600160e01b03198716808452600283528184206001600160a01b038a16855290925290912080548590039055612408565b6040805162461bcd60e51b815260206004820152601960248201527f496e76656e746f72793a206e6f74206120746f6b656e20696400000000000000604482015290519081900360640190fd5b600081815260036020526040902080548590039055826124815760006001600160a01b0316866001600160a01b0316836001600160a01b03167fc3d58168c5ae7397731d063d5bbf3d657854427343f4c083240f7aacaa2d0f628888604051808381526020018281526020019250505060405180910390a45b505050505050565b6001600160a01b0384166124e4576040805162461bcd60e51b815260206004820152601b60248201527f496e76656e746f72793a207472616e7366657220746f207a65726f0000000000604482015290519081900360640190fd5b82518251811461253b576040805162461bcd60e51b815260206004820152601e60248201527f496e76656e746f72793a20696e636f6e73697374656e74206172726179730000604482015290519081900360640190fd5b6000612545611f26565b90506000816001600160a01b0316886001600160a01b0316148061258e57506001600160a01b0380891660009081526001602090815260408083209386168352929052205460ff165b9050806125e2576040805162461bcd60e51b815260206004820152601e60248201527f496e76656e746f72793a206e6f6e2d617070726f7665642073656e6465720000604482015290519081900360640190fd5b600160005b8481101561262b576126238a8a8a848151811061260057fe5b60200260200101518a858151811061261457fe5b60200260200101518a87612f84565b6001016125e7565b50876001600160a01b0316896001600160a01b0316846001600160a01b03167f4a39dc06d4c0dbc64b70af90fd698a233a518aa5d07e595d983b8c0526c8f7fb8a8a604051808060200180602001838103835285818151815260200191508051906020019060200280838360005b838110156126b1578181015183820152602001612699565b50505050905001838103825284818151815260200191508051906020019060200280838360005b838110156126f05781810151838201526020016126d8565b5050505090500194505050505060405180910390a461271289898989896133cb565b505050505050505050565b600082815260086020526040902061273b908263ffffffff611f1116565b156112d957612748611f26565b6001600160a01b0316816001600160a01b0316837f2f8788117e7eff1d82e926ec794901d17c78024a50270940304540a733656f0d60405160405180910390a45050565b60008281526008602052604090206127aa908263ffffffff61371816565b156112d9576127b7611f26565b6001600160a01b0316816001600160a01b0316837ff6391f5c32d9c69d2a47ea670b442974b53935d1edc7fd64eb21e047a839171b60405160405180910390a45050565b6001600160a01b038316612856576040805162461bcd60e51b815260206004820152601b60248201527f496e76656e746f72793a207472616e7366657220746f207a65726f0000000000604482015290519081900360640190fd5b815160608167ffffffffffffffff8111801561287157600080fd5b5060405190808252806020026020018201604052801561289b578160200160208202803683370190505b50905060006128a8611f26565b90506000816001600160a01b0316886001600160a01b031614806128f157506001600160a01b0380891660009081526001602090815260408083209386168352929052205460ff165b905080612945576040805162461bcd60e51b815260206004820152601e60248201527f496e76656e746f72793a206e6f6e2d617070726f7665642073656e6465720000604482015290519081900360640190fd5b6000805b85811015612ae257600088828151811061295f57fe5b60200260200101519050612972816118e0565b6129c3576040805162461bcd60e51b815260206004820152601560248201527f496e76656e746f72793a206e6f7420616e204e46540000000000000000000000604482015290519081900360640190fd5b6000818152600460205260409020546001600160a01b038c1614612a2e576040805162461bcd60e51b815260206004820152601860248201527f496e76656e746f72793a206e6f6e2d6f776e6564204e46540000000000000000604482015290519081900360640190fd5b60008181526004602052604090206001600160a01b038b1690558551600190879084908110612a5957fe5b602090810291909101015281612a7b576001600160e01b031981169250612ad9565b6001600160e01b031981168314612ad9576040805162461bcd60e51b815260206004820152601e60248201527f496e76656e746f72793a206e6f742073616d6520636f6c6c656374696f6e0000604482015290519081900360640190fd5b50600101612949565b5060008181526002602090815260408083206001600160a01b038d811680865291845282852080548b900390558c811680865283862080548c01905583518481528d51948101949094528c5190959294918916937f4a39dc06d4c0dbc64b70af90fd698a233a518aa5d07e595d983b8c0526c8f7fb938e938c938392838301926060850192888201929102908190849084905b83811015612b8d578181015183820152602001612b75565b50505050905001838103825284818151815260200191508051906020019060200280838360005b83811015612bcc578181015183820152602001612bb4565b5050505090500194505050505060405180910390a4612712838989878a6133cb565b815181518114612c45576040805162461bcd60e51b815260206004820152601e60248201527f496e76656e746f72793a20696e636f6e73697374656e74206172726179730000604482015290519081900360640190fd5b6000612c4f611f26565b90506000816001600160a01b0316866001600160a01b03161480612c9857506001600160a01b0380871660009081526001602090815260408083209386168352929052205460ff165b905080612cec576040805162461bcd60e51b815260206004820152601e60248201527f496e76656e746f72793a206e6f6e2d617070726f7665642073656e6465720000604482015290519081900360640190fd5b600160005b84811015612d3357612d2b88888381518110612d0957fe5b6020026020010151888481518110612d1d57fe5b60200260200101518561211d565b600101612cf1565b5060006001600160a01b0316876001600160a01b0316846001600160a01b03167f4a39dc06d4c0dbc64b70af90fd698a233a518aa5d07e595d983b8c0526c8f7fb8989604051808060200180602001838103835285818151815260200191508051906020019060200280838360005b83811015612dba578181015183820152602001612da2565b50505050905001838103825284818151815260200191508051906020019060200280838360005b83811015612df9578181015183820152602001612de1565b5050505090500194505050505060405180910390a450505050505050565b60006118bb838361372d565b60006118bb836001600160a01b038416613791565b600061100d826137a9565b612e4c816118e0565b15612e9e576040805162461bcd60e51b815260206004820152601b60248201527f496e76656e746f72793a206e6f74206120636f6c6c656374696f6e0000000000604482015290519081900360640190fd5b6000818152600560205260409020546001600160a01b031615612f08576040805162461bcd60e51b815260206004820152601e60248201527f496e76656e746f72793a206578697374696e6720636f6c6c656374696f6e0000604482015290519081900360640190fd5b612f10611f26565b6000828152600560205260409020805473ffffffffffffffffffffffffffffffffffffffff19166001600160a01b0392909216919091179055612f5281611bb2565b1515817f4ebf8ad0df535ba5e487bc9cb27fe44120ca81c3a95d3eba79c0bd1df2ab2d5d60405160405180910390a350565b60008161308d576001600160a01b038616612fe6576040805162461bcd60e51b815260206004820152601b60248201527f496e76656e746f72793a207472616e7366657220746f207a65726f0000000000604482015290519081900360640190fd5b612fee611f26565b90506000816001600160a01b0316886001600160a01b0316148061303757506001600160a01b0380891660009081526001602090815260408083209386168352929052205460ff165b90508061308b576040805162461bcd60e51b815260206004820152601e60248201527f496e76656e746f72793a206e6f6e2d617070726f7665642073656e6465720000604482015290519081900360640190fd5b505b600061309886611bb2565b1561314d57846130ef576040805162461bcd60e51b815260206004820152601560248201527f496e76656e746f72793a207a65726f2076616c75650000000000000000000000604482015290519081900360640190fd5b5060008581526002602090815260408083206001600160a01b038b1684529091529020548590613125908663ffffffff6136d616565b60008281526002602090815260408083206001600160a01b038d168452909152902055613278565b7bffffffffffffffffffffffffffffffffffffffffffffffffffffffff8616156123bb57846001146131c6576040805162461bcd60e51b815260206004820152601a60248201527f496e76656e746f72793a2077726f6e67204e46542076616c7565000000000000604482015290519081900360640190fd5b6000868152600460205260409020546001600160a01b03891614613231576040805162461bcd60e51b815260206004820152601860248201527f496e76656e746f72793a206e6f6e2d6f776e6564204e46540000000000000000604482015290519081900360640190fd5b5060008581526004602090815260408083206001600160a01b03808b169091556001600160e01b0319891680855260028452828520918c1685529252909120805486900390555b60008181526002602090815260408083206001600160a01b038b16845290915290208054860190558261330f57866001600160a01b0316886001600160a01b0316836001600160a01b03167fc3d58168c5ae7397731d063d5bbf3d657854427343f4c083240f7aacaa2d0f628989604051808381526020018281526020019250505060405180910390a461330f88888888886137ad565b5050505050505050565b60006133258383613791565b61335b5750815460018181018455600084815260208082209093018490558454848252828601909352604090209190915561100d565b50600061100d565b61336c85611bb2565b6133bd576040805162461bcd60e51b815260206004820152601d60248201527f47616d6565566f7563686572733a206f6e6c792066756e6769626c6573000000604482015290519081900360640190fd5b612481868686868686613969565b6133dd846001600160a01b0316613c13565b6133e657611137565b6000846001600160a01b031663bc197c816133ff611f26565b888787876040518663ffffffff1660e01b815260040180866001600160a01b03166001600160a01b03168152602001856001600160a01b03166001600160a01b03168152602001806020018060200180602001848103845287818151815260200191508051906020019060200280838360005b8381101561348a578181015183820152602001613472565b50505050905001848103835286818151815260200191508051906020019060200280838360005b838110156134c95781810151838201526020016134b1565b50505050905001848103825285818151815260200191508051906020019080838360005b838110156135055781810151838201526020016134ed565b50505050905090810190601f1680156135325780820380516001836020036101000a031916815260200191505b5098505050505050505050602060405180830381600087803b15801561355757600080fd5b505af115801561356b573d6000803e3d6000fd5b505050506040513d602081101561358157600080fd5b505190506001600160e01b031981167fbc197c810000000000000000000000000000000000000000000000000000000014612481576040805162461bcd60e51b815260206004820152601b60248201527f496e76656e746f72793a207472616e7366657220726566757365640000000000604482015290519081900360640190fd5b6060600761361083613c19565b604051602001808380546001816001161561010002031660029004801561366e5780601f1061364c57610100808354040283529182019161366e565b820191906000526020600020905b81548152906001019060200180831161365a575b5050825160208401908083835b6020831061369a5780518252601f19909201916020918201910161367b565b6001836020036101000a038019825116818451168082178552505050505050905001925050506040516020818303038152906040529050919050565b60006118bb83836040518060400160405280601e81526020017f536166654d6174683a207375627472616374696f6e206f766572666c6f770000815250613d28565b60006118bb836001600160a01b038416613dbf565b8154600090821061376f5760405162461bcd60e51b8152600401808060200182810382526022815260200180613f786022913960400191505060405180910390fd5b82600001828154811061377e57fe5b9060005260206000200154905092915050565b60009081526001919091016020526040902054151590565b5490565b6137bf846001600160a01b0316613c13565b6137c857611137565b6000846001600160a01b031663f23a6e616137e1611f26565b888787876040518663ffffffff1660e01b815260040180866001600160a01b03166001600160a01b03168152602001856001600160a01b03166001600160a01b0316815260200184815260200183815260200180602001828103825283818151815260200191508051906020019080838360005b8381101561386d578181015183820152602001613855565b50505050905090810190601f16801561389a5780820380516001836020036101000a031916815260200191505b509650505050505050602060405180830381600087803b1580156138bd57600080fd5b505af11580156138d1573d6000803e3d6000fd5b505050506040513d60208110156138e757600080fd5b505190506001600160e01b031981167ff23a6e610000000000000000000000000000000000000000000000000000000014612481576040805162461bcd60e51b815260206004820152601b60248201527f496e76656e746f72793a207472616e7366657220726566757365640000000000604482015290519081900360640190fd5b806139c9576001600160a01b0386166139c9576040805162461bcd60e51b815260206004820152601b60248201527f496e76656e746f72793a207472616e7366657220746f207a65726f0000000000604482015290519081900360640190fd5b60006139d486611bb2565b15613a615784613a2b576040805162461bcd60e51b815260206004820152601560248201527f496e76656e746f72793a207a65726f2076616c75650000000000000000000000604482015290519081900360640190fd5b506000858152600360205260409020548590613a4d908663ffffffff613e8516565b600082815260036020526040902055613b76565b7bffffffffffffffffffffffffffffffffffffffffffffffffffffffff8616156123bb5784600114613ada576040805162461bcd60e51b815260206004820152601a60248201527f496e76656e746f72793a2077726f6e67204e46542076616c7565000000000000604482015290519081900360640190fd5b60008681526004602052604090205415613b3b576040805162461bcd60e51b815260206004820152601d60248201527f496e76656e746f72793a206578697374696e672f6275726e74204e4654000000604482015290519081900360640190fd5b5060008581526004602090815260408083206001600160a01b038a1690556001600160e01b0319881680845260039092529091208054860190555b60008181526002602090815260408083206001600160a01b038b168452909152902080548601905581611229576001600160a01b0387166000613bb7611f26565b6001600160a01b03167fc3d58168c5ae7397731d063d5bbf3d657854427343f4c083240f7aacaa2d0f628989604051808381526020018281526020019250505060405180910390a48215611229576112296000888888886137ad565b3b151590565b606081613c5a575060408051808201909152600181527f30000000000000000000000000000000000000000000000000000000000000006020820152611031565b8160005b8115613c7257600101600a82049150613c5e565b60608167ffffffffffffffff81118015613c8b57600080fd5b506040519080825280601f01601f191660200182016040528015613cb6576020820181803683370190505b50859350905060001982015b8315613d1f57600a840660300160f81b82828060019003935081518110613ce557fe5b60200101907effffffffffffffffffffffffffffffffffffffffffffffffffffffffffffff1916908160001a905350600a84049350613cc2565b50949350505050565b60008184841115613db75760405162461bcd60e51b81526004018080602001828103825283818151815260200191508051906020019080838360005b83811015613d7c578181015183820152602001613d64565b50505050905090810190601f168015613da95780820380516001836020036101000a031916815260200191505b509250505060405180910390fd5b505050900390565b60008181526001830160205260408120548015613e7b5783546000198083019190810190600090879083908110613df257fe5b9060005260206000200154905080876000018481548110613e0f57fe5b600091825260208083209091019290925582815260018981019092526040902090840190558654879080613e3f57fe5b6001900381819060005260206000200160009055905586600101600087815260200190815260200160002060009055600194505050505061100d565b600091505061100d565b6000828201838110156118bb576040805162461bcd60e51b815260206004820152601b60248201527f536166654d6174683a206164646974696f6e206f766572666c6f770000000000604482015290519081900360640190fd5b828054600181600116156101000203166002900490600052602060002090601f016020900481019282601f10613f205782800160ff19823516178555613f4d565b82800160010185558215613f4d579182015b82811115613f4d578235825591602001919060010190613f32565b50613f59929150613f5d565b5090565b61189a91905b80821115613f595760008155600101613f6356fe456e756d657261626c655365743a20696e646578206f7574206f6620626f756e6473416363657373436f6e74726f6c3a2073656e646572206d75737420626520616e2061646d696e20746f206772616e744f776e61626c653a206e6577206f776e657220697320746865207a65726f20616464726573734d696e746572526f6c653a2061646472657373207a65726f2063616e6e6f74206265206d696e746572416363657373436f6e74726f6c3a2073656e646572206d75737420626520616e2061646d696e20746f207265766f6b654d696e746572526f6c653a2063616c6c657220646f6573206e6f74206861766520746865204d696e74657220726f6c654d696e746572526f6c653a2061646420616e206163636f756e7420616c7265616479206d696e746572416363657373436f6e74726f6c3a2063616e206f6e6c792072656e6f756e636520726f6c657320666f722073656c66a2646970667358221220573ed541be898ee861f8e8eb19237b6eaadf8da335b0ae696ed1008d879aadb264736f6c63430006080033",
  "linkReferences": {},
  "deployedLinkReferences": {}
}