{
  "_format": "hh-sol-artifact-1",
  "contractName": "GameeVouchers",
  "sourceName": "contracts/solc-0.6/token/ERC1155/GameeVouchers.sol",
  "abi": [
    {
      "anonymous": false,
      "inputs": [
        {
          "indexed": true,
          "internalType": "address",
          "name": "_owner",
          "type": "address"
        },
        {
          "indexed": true,
          "internalType": "address",
          "name": "_operator",
          "type": "address"
        },
        {
          "indexed": false,
          "internalType": "bool",
          "name": "_approved",
          "type": "bool"
        }
      ],
      "name": "ApprovalForAll",
      "type": "event"
    },
    {
      "anonymous": false,
      "inputs": [
        {
          "indexed": false,
          "internalType": "string",
          "name": "baseMetadataURI",
          "type": "string"
        }
      ],
      "name": "BaseMetadataURISet",
      "type": "event"
    },
    {
      "anonymous": false,
      "inputs": [
        {
          "indexed": true,
          "internalType": "uint256",
          "name": "collectionId",
          "type": "uint256"
        },
        {
          "indexed": true,
          "internalType": "bool",
          "name": "fungible",
          "type": "bool"
        }
      ],
      "name": "CollectionCreated",
      "type": "event"
    },
    {
      "anonymous": false,
      "inputs": [
        {
          "indexed": true,
          "internalType": "address",
          "name": "account",
          "type": "address"
        }
      ],
      "name": "MinterAdded",
      "type": "event"
    },
    {
      "anonymous": false,
      "inputs": [
        {
          "indexed": true,
          "internalType": "address",
          "name": "account",
          "type": "address"
        }
      ],
      "name": "MinterRemoved",
      "type": "event"
    },
    {
      "anonymous": false,
      "inputs": [
        {
          "indexed": true,
          "internalType": "address",
          "name": "previousOwner",
          "type": "address"
        },
        {
          "indexed": true,
          "internalType": "address",
          "name": "newOwner",
          "type": "address"
        }
      ],
      "name": "OwnershipTransferred",
      "type": "event"
    },
    {
      "anonymous": false,
      "inputs": [
        {
          "indexed": true,
          "internalType": "bytes32",
          "name": "role",
          "type": "bytes32"
        },
        {
          "indexed": true,
          "internalType": "bytes32",
          "name": "previousAdminRole",
          "type": "bytes32"
        },
        {
          "indexed": true,
          "internalType": "bytes32",
          "name": "newAdminRole",
          "type": "bytes32"
        }
      ],
      "name": "RoleAdminChanged",
      "type": "event"
    },
    {
      "anonymous": false,
      "inputs": [
        {
          "indexed": true,
          "internalType": "bytes32",
          "name": "role",
          "type": "bytes32"
        },
        {
          "indexed": true,
          "internalType": "address",
          "name": "account",
          "type": "address"
        },
        {
          "indexed": true,
          "internalType": "address",
          "name": "sender",
          "type": "address"
        }
      ],
      "name": "RoleGranted",
      "type": "event"
    },
    {
      "anonymous": false,
      "inputs": [
        {
          "indexed": true,
          "internalType": "bytes32",
          "name": "role",
          "type": "bytes32"
        },
        {
          "indexed": true,
          "internalType": "address",
          "name": "account",
          "type": "address"
        },
        {
          "indexed": true,
          "internalType": "address",
          "name": "sender",
          "type": "address"
        }
      ],
      "name": "RoleRevoked",
      "type": "event"
    },
    {
      "anonymous": false,
      "inputs": [
        {
          "indexed": true,
          "internalType": "address",
          "name": "_operator",
          "type": "address"
        },
        {
          "indexed": true,
          "internalType": "address",
          "name": "_from",
          "type": "address"
        },
        {
          "indexed": true,
          "internalType": "address",
          "name": "_to",
          "type": "address"
        },
        {
          "indexed": false,
          "internalType": "uint256[]",
          "name": "_ids",
          "type": "uint256[]"
        },
        {
          "indexed": false,
          "internalType": "uint256[]",
          "name": "_values",
          "type": "uint256[]"
        }
      ],
      "name": "TransferBatch",
      "type": "event"
    },
    {
      "anonymous": false,
      "inputs": [
        {
          "indexed": true,
          "internalType": "address",
          "name": "_operator",
          "type": "address"
        },
        {
          "indexed": true,
          "internalType": "address",
          "name": "_from",
          "type": "address"
        },
        {
          "indexed": true,
          "internalType": "address",
          "name": "_to",
          "type": "address"
        },
        {
          "indexed": false,
          "internalType": "uint256",
          "name": "_id",
          "type": "uint256"
        },
        {
          "indexed": false,
          "internalType": "uint256",
          "name": "_value",
          "type": "uint256"
        }
      ],
      "name": "TransferSingle",
      "type": "event"
    },
    {
      "anonymous": false,
      "inputs": [
        {
          "indexed": false,
          "internalType": "string",
          "name": "_value",
          "type": "string"
        },
        {
          "indexed": true,
          "internalType": "uint256",
          "name": "_id",
          "type": "uint256"
        }
      ],
      "name": "URI",
      "type": "event"
    },
    {
      "inputs": [],
      "name": "DEFAULT_ADMIN_ROLE",
      "outputs": [
        {
          "internalType": "bytes32",
          "name": "",
          "type": "bytes32"
        }
      ],
      "stateMutability": "view",
      "type": "function"
    },
    {
      "inputs": [
        {
          "internalType": "address",
          "name": "account",
          "type": "address"
        }
      ],
      "name": "addMinter",
      "outputs": [],
      "stateMutability": "nonpayable",
      "type": "function"
    },
    {
      "inputs": [
        {
          "internalType": "address",
          "name": "owner",
          "type": "address"
        },
        {
          "internalType": "uint256",
          "name": "id",
          "type": "uint256"
        }
      ],
      "name": "balanceOf",
      "outputs": [
        {
          "internalType": "uint256",
          "name": "",
          "type": "uint256"
        }
      ],
      "stateMutability": "view",
      "type": "function"
    },
    {
      "inputs": [
        {
          "internalType": "address[]",
          "name": "owners",
          "type": "address[]"
        },
        {
          "internalType": "uint256[]",
          "name": "ids",
          "type": "uint256[]"
        }
      ],
      "name": "balanceOfBatch",
      "outputs": [
        {
          "internalType": "uint256[]",
          "name": "",
          "type": "uint256[]"
        }
      ],
      "stateMutability": "view",
      "type": "function"
    },
    {
      "inputs": [],
      "name": "baseMetadataURI",
      "outputs": [
        {
          "internalType": "string",
          "name": "",
          "type": "string"
        }
      ],
      "stateMutability": "view",
      "type": "function"
    },
    {
      "inputs": [
        {
          "internalType": "address",
          "name": "from",
          "type": "address"
        },
        {
          "internalType": "uint256[]",
          "name": "ids",
          "type": "uint256[]"
        },
        {
          "internalType": "uint256[]",
          "name": "values",
          "type": "uint256[]"
        }
      ],
      "name": "batchBurnFrom",
      "outputs": [],
      "stateMutability": "nonpayable",
      "type": "function"
    },
    {
      "inputs": [
        {
          "internalType": "address",
          "name": "to",
          "type": "address"
        },
        {
          "internalType": "uint256[]",
          "name": "ids",
          "type": "uint256[]"
        },
        {
          "internalType": "uint256[]",
          "name": "values",
          "type": "uint256[]"
        }
      ],
      "name": "batchMint",
      "outputs": [],
      "stateMutability": "nonpayable",
      "type": "function"
    },
    {
      "inputs": [
        {
          "internalType": "address",
          "name": "from",
          "type": "address"
        },
        {
          "internalType": "uint256",
          "name": "id",
          "type": "uint256"
        },
        {
          "internalType": "uint256",
          "name": "value",
          "type": "uint256"
        }
      ],
      "name": "burnFrom",
      "outputs": [],
      "stateMutability": "nonpayable",
      "type": "function"
    },
    {
      "inputs": [
        {
          "internalType": "uint256",
          "name": "nftId",
          "type": "uint256"
        }
      ],
      "name": "collectionOf",
      "outputs": [
        {
          "internalType": "uint256",
          "name": "",
          "type": "uint256"
        }
      ],
      "stateMutability": "pure",
      "type": "function"
    },
    {
      "inputs": [
        {
          "internalType": "uint256",
          "name": "collectionId",
          "type": "uint256"
        }
      ],
      "name": "createCollection",
      "outputs": [],
      "stateMutability": "nonpayable",
      "type": "function"
    },
    {
      "inputs": [
        {
          "internalType": "uint256",
          "name": "",
          "type": "uint256"
        }
      ],
      "name": "creator",
      "outputs": [
        {
          "internalType": "address",
          "name": "",
          "type": "address"
        }
      ],
      "stateMutability": "view",
      "type": "function"
    },
    {
      "inputs": [
        {
          "internalType": "bytes32",
          "name": "role",
          "type": "bytes32"
        }
      ],
      "name": "getRoleAdmin",
      "outputs": [
        {
          "internalType": "bytes32",
          "name": "",
          "type": "bytes32"
        }
      ],
      "stateMutability": "view",
      "type": "function"
    },
    {
      "inputs": [
        {
          "internalType": "bytes32",
          "name": "role",
          "type": "bytes32"
        },
        {
          "internalType": "uint256",
          "name": "index",
          "type": "uint256"
        }
      ],
      "name": "getRoleMember",
      "outputs": [
        {
          "internalType": "address",
          "name": "",
          "type": "address"
        }
      ],
      "stateMutability": "view",
      "type": "function"
    },
    {
      "inputs": [
        {
          "internalType": "bytes32",
          "name": "role",
          "type": "bytes32"
        }
      ],
      "name": "getRoleMemberCount",
      "outputs": [
        {
          "internalType": "uint256",
          "name": "",
          "type": "uint256"
        }
      ],
      "stateMutability": "view",
      "type": "function"
    },
    {
      "inputs": [
        {
          "internalType": "bytes32",
          "name": "role",
          "type": "bytes32"
        },
        {
          "internalType": "address",
          "name": "account",
          "type": "address"
        }
      ],
      "name": "grantRole",
      "outputs": [],
      "stateMutability": "nonpayable",
      "type": "function"
    },
    {
      "inputs": [
        {
          "internalType": "bytes32",
          "name": "role",
          "type": "bytes32"
        },
        {
          "internalType": "address",
          "name": "account",
          "type": "address"
        }
      ],
      "name": "hasRole",
      "outputs": [
        {
          "internalType": "bool",
          "name": "",
          "type": "bool"
        }
      ],
      "stateMutability": "view",
      "type": "function"
    },
    {
      "inputs": [
        {
          "internalType": "address",
          "name": "tokenOwner",
          "type": "address"
        },
        {
          "internalType": "address",
          "name": "operator",
          "type": "address"
        }
      ],
      "name": "isApprovedForAll",
      "outputs": [
        {
          "internalType": "bool",
          "name": "",
          "type": "bool"
        }
      ],
      "stateMutability": "view",
      "type": "function"
    },
    {
      "inputs": [
        {
          "internalType": "uint256",
          "name": "id",
          "type": "uint256"
        }
      ],
      "name": "isFungible",
      "outputs": [
        {
          "internalType": "bool",
          "name": "",
          "type": "bool"
        }
      ],
      "stateMutability": "pure",
      "type": "function"
    },
    {
      "inputs": [
        {
          "internalType": "address",
          "name": "account",
          "type": "address"
        }
      ],
      "name": "isMinter",
      "outputs": [
        {
          "internalType": "bool",
          "name": "",
          "type": "bool"
        }
      ],
      "stateMutability": "view",
      "type": "function"
    },
    {
      "inputs": [
        {
          "internalType": "uint256",
          "name": "id",
          "type": "uint256"
        }
      ],
      "name": "isNFT",
      "outputs": [
        {
          "internalType": "bool",
          "name": "",
          "type": "bool"
        }
      ],
      "stateMutability": "pure",
      "type": "function"
    },
    {
      "inputs": [
        {
          "internalType": "uint256",
          "name": "id",
          "type": "uint256"
        }
      ],
      "name": "isNFTCollection",
      "outputs": [
        {
          "internalType": "bool",
          "name": "",
          "type": "bool"
        }
      ],
      "stateMutability": "pure",
      "type": "function"
    },
    {
      "inputs": [],
      "name": "name",
      "outputs": [
        {
          "internalType": "string",
          "name": "",
          "type": "string"
        }
      ],
      "stateMutability": "view",
      "type": "function"
    },
    {
      "inputs": [],
      "name": "owner",
      "outputs": [
        {
          "internalType": "address",
          "name": "",
          "type": "address"
        }
      ],
      "stateMutability": "view",
      "type": "function"
    },
    {
      "inputs": [
        {
          "internalType": "uint256",
          "name": "nftId",
          "type": "uint256"
        }
      ],
      "name": "ownerOf",
      "outputs": [
        {
          "internalType": "address",
          "name": "",
          "type": "address"
        }
      ],
      "stateMutability": "view",
      "type": "function"
    },
    {
      "inputs": [],
      "name": "renounceMinter",
      "outputs": [],
      "stateMutability": "nonpayable",
      "type": "function"
    },
    {
      "inputs": [],
      "name": "renounceOwnership",
      "outputs": [],
      "stateMutability": "nonpayable",
      "type": "function"
    },
    {
      "inputs": [
        {
          "internalType": "bytes32",
          "name": "role",
          "type": "bytes32"
        },
        {
          "internalType": "address",
          "name": "account",
          "type": "address"
        }
      ],
      "name": "renounceRole",
      "outputs": [],
      "stateMutability": "nonpayable",
      "type": "function"
    },
    {
      "inputs": [
        {
          "internalType": "bytes32",
          "name": "role",
          "type": "bytes32"
        },
        {
          "internalType": "address",
          "name": "account",
          "type": "address"
        }
      ],
      "name": "revokeRole",
      "outputs": [],
      "stateMutability": "nonpayable",
      "type": "function"
    },
    {
      "inputs": [
        {
          "internalType": "address",
          "name": "to",
          "type": "address"
        },
        {
          "internalType": "uint256[]",
          "name": "ids",
          "type": "uint256[]"
        },
        {
          "internalType": "uint256[]",
          "name": "values",
          "type": "uint256[]"
        },
        {
          "internalType": "bytes",
          "name": "data",
          "type": "bytes"
        }
      ],
      "name": "safeBatchMint",
      "outputs": [],
      "stateMutability": "nonpayable",
      "type": "function"
    },
    {
      "inputs": [
        {
          "internalType": "address",
          "name": "from",
          "type": "address"
        },
        {
          "internalType": "address",
          "name": "to",
          "type": "address"
        },
        {
          "internalType": "uint256[]",
          "name": "ids",
          "type": "uint256[]"
        },
        {
          "internalType": "uint256[]",
          "name": "values",
          "type": "uint256[]"
        },
        {
          "internalType": "bytes",
          "name": "data",
          "type": "bytes"
        }
      ],
      "name": "safeBatchTransferFrom",
      "outputs": [],
      "stateMutability": "nonpayable",
      "type": "function"
    },
    {
      "inputs": [
        {
          "internalType": "address",
          "name": "from",
          "type": "address"
        },
        {
          "internalType": "address",
          "name": "to",
          "type": "address"
        },
        {
          "internalType": "uint256",
          "name": "id",
          "type": "uint256"
        },
        {
          "internalType": "uint256",
          "name": "value",
          "type": "uint256"
        },
        {
          "internalType": "bytes",
          "name": "data",
          "type": "bytes"
        }
      ],
      "name": "safeTransferFrom",
      "outputs": [],
      "stateMutability": "nonpayable",
      "type": "function"
    },
    {
      "inputs": [
        {
          "internalType": "address",
          "name": "from",
          "type": "address"
        },
        {
          "internalType": "address",
          "name": "to",
          "type": "address"
        },
        {
          "internalType": "uint256[]",
          "name": "nftIds",
          "type": "uint256[]"
        },
        {
          "internalType": "bytes",
          "name": "data",
          "type": "bytes"
        }
      ],
      "name": "sameNFTCollectionSafeBatchTransferFrom",
      "outputs": [],
      "stateMutability": "nonpayable",
      "type": "function"
    },
    {
      "inputs": [
        {
          "internalType": "address",
          "name": "operator",
          "type": "address"
        },
        {
          "internalType": "bool",
          "name": "approved",
          "type": "bool"
        }
      ],
      "name": "setApprovalForAll",
      "outputs": [],
      "stateMutability": "nonpayable",
      "type": "function"
    },
    {
      "inputs": [
        {
          "internalType": "string",
          "name": "baseMetadataURI_",
          "type": "string"
        }
      ],
      "name": "setBaseMetadataURI",
      "outputs": [],
      "stateMutability": "nonpayable",
      "type": "function"
    },
    {
      "inputs": [
        {
          "internalType": "bytes4",
          "name": "interfaceId",
          "type": "bytes4"
        }
      ],
      "name": "supportsInterface",
      "outputs": [
        {
          "internalType": "bool",
          "name": "",
          "type": "bool"
        }
      ],
      "stateMutability": "view",
      "type": "function"
    },
    {
      "inputs": [],
      "name": "symbol",
      "outputs": [
        {
          "internalType": "string",
          "name": "",
          "type": "string"
        }
      ],
      "stateMutability": "view",
      "type": "function"
    },
    {
      "inputs": [
        {
          "internalType": "uint256",
          "name": "id",
          "type": "uint256"
        }
      ],
      "name": "totalSupply",
      "outputs": [
        {
          "internalType": "uint256",
          "name": "",
          "type": "uint256"
        }
      ],
      "stateMutability": "view",
      "type": "function"
    },
    {
      "inputs": [
        {
          "internalType": "address",
          "name": "newOwner",
          "type": "address"
        }
      ],
      "name": "transferOwnership",
      "outputs": [],
      "stateMutability": "nonpayable",
      "type": "function"
    },
    {
      "inputs": [
        {
          "internalType": "uint256",
          "name": "id",
          "type": "uint256"
        }
      ],
      "name": "uri",
      "outputs": [
        {
          "internalType": "string",
          "name": "",
          "type": "string"
        }
      ],
      "stateMutability": "view",
      "type": "function"
    }
  ],
  "bytecode": "0x60806040523480156200001157600080fd5b506200002d6301ffc9a760e01b6001600160e01b036200015716565b62000048636cdb3d1360e11b6001600160e01b036200015716565b620000636303a24d0760e21b6001600160e01b036200015716565b6200007e63b44bec7f60e01b6001600160e01b036200015716565b6000620000936001600160e01b03620001dc16565b600680546001600160a01b0319166001600160a01b038316908117909155604051919250906000907f8be0079c531659141344cd1fd0a4f28419497f9722a3daafe3b4186f6b6457e0908290a350620001096000620000fa6001600160e01b03620001dc16565b6001600160e01b03620001e016565b6200011c6001600160e01b03620001dc16565b6001600160a01b03167f6ae172837ea30b801fbfcdd4108aa1d5bf8ff775444fd70256b44e6bf3dfc3f660405160405180910390a262000316565b6001600160e01b03198082161415620001b7576040805162461bcd60e51b815260206004820152601c60248201527f4552433136353a20696e76616c696420696e7465726661636520696400000000604482015290519081900360640190fd5b6001600160e01b0319166000908152602081905260409020805460ff19166001179055565b3390565b620001f582826001600160e01b03620001f916565b5050565b60008281526008602090815260409091206200022091839062001f876200027d821b17901c565b15620001f557620002396001600160e01b03620001dc16565b6001600160a01b0316816001600160a01b0316837f2f8788117e7eff1d82e926ec794901d17c78024a50270940304540a733656f0d60405160405180910390a45050565b60006200029d836001600160a01b0384166001600160e01b03620002a616565b90505b92915050565b6000620002bd83836001600160e01b03620002fe16565b620002f557508154600181810184556000848152602080822090930184905584548482528286019093526040902091909155620002a0565b506000620002a0565b60009081526001919091016020526040902054151590565b6142b480620003266000396000f3fe608060405234801561001057600080fd5b50600436106102ac5760003560e01c8063805349341161017b578063aa271e1a116100d8578063d0011d9d1161008c578063e985e9c511610071578063e985e9c514610e64578063f242432a14610e92578063f2fde38b14610f5d576102ac565b8063d0011d9d14610e1b578063d547741f14610e38576102ac565b8063bd85b039116100bd578063bd85b03914610dc4578063c7778baa14610de1578063ca15c87314610dfe576102ac565b8063aa271e1a14610d81578063adebf6f214610da7576102ac565b806397634f9f1161012f57806398650275116101145780639865027514610d43578063a217fddf14610d4b578063a22cb46514610d53576102ac565b806397634f9f14610d00578063983b2d5614610d1d576102ac565b80639010d07c116101605780639010d07c14610cb157806391d1485414610cd457806395d89b4114610347576102ac565b80638053493414610bd75780638da5cb5b14610ca9576102ac565b80632eb2c2d611610229578063524a4913116101dd5780636352211e116101c25780636352211e14610b42578063715018a614610b5f5780637e518ec814610b67576102ac565b8063524a4913146109f75780635b2bd79e14610b3a576102ac565b806336568abe1161020e57806336568abe1461081b5780634e1273f414610847578063510b5158146109be576102ac565b80632eb2c2d6146106285780632f2ff15d146107ef576102ac565b80630ca83480116102805780630e89341c116102655780630e89341c146105bc578063124d91e5146105d9578063248a9ca31461060b576102ac565b80630ca83480146103c45780630d6a5bbb14610498576102ac565b8062fdd58e146102b157806301b955f9146102ef57806301ffc9a71461032057806306fdde0314610347575b600080fd5b6102dd600480360360408110156102c757600080fd5b506001600160a01b038135169060200135610f83565b60408051918252519081900360200190f35b61030c6004803603602081101561030557600080fd5b503561104e565b604080519115158252519081900360200190f35b61030c6004803603602081101561033657600080fd5b50356001600160e01b031916611089565b61034f6110a8565b6040805160208082528351818301528351919283929083019185019080838360005b83811015610389578181015183820152602001610371565b50505050905090810190601f1680156103b65780820380516001836020036101000a031916815260200191505b509250505060405180910390f35b610496600480360360608110156103da57600080fd5b6001600160a01b03823516919081019060408101602082013564010000000081111561040557600080fd5b82018360208201111561041757600080fd5b8035906020019184602083028401116401000000008311171561043957600080fd5b91939092909160208101903564010000000081111561045757600080fd5b82018360208201111561046957600080fd5b8035906020019184602083028401116401000000008311171561048b57600080fd5b5090925090506110e1565b005b610496600480360360808110156104ae57600080fd5b6001600160a01b0382351691908101906040810160208201356401000000008111156104d957600080fd5b8201836020820111156104eb57600080fd5b8035906020019184602083028401116401000000008311171561050d57600080fd5b91939092909160208101903564010000000081111561052b57600080fd5b82018360208201111561053d57600080fd5b8035906020019184602083028401116401000000008311171561055f57600080fd5b91939092909160208101903564010000000081111561057d57600080fd5b82018360208201111561058f57600080fd5b803590602001918460018302840111640100000000831117156105b157600080fd5b5090925090506111b0565b61034f600480360360208110156105d257600080fd5b50356112a4565b610496600480360360608110156105ef57600080fd5b506001600160a01b0381351690602081013590604001356112af565b6102dd6004803603602081101561062157600080fd5b50356112c1565b610496600480360360a081101561063e57600080fd5b6001600160a01b03823581169260208101359091169181019060608101604082013564010000000081111561067257600080fd5b82018360208201111561068457600080fd5b803590602001918460208302840111640100000000831117156106a657600080fd5b91908080602002602001604051908101604052809392919081815260200183836020028082843760009201919091525092959493602081019350359150506401000000008111156106f657600080fd5b82018360208201111561070857600080fd5b8035906020019184602083028401116401000000008311171561072a57600080fd5b919080806020026020016040519081016040528093929190818152602001838360200280828437600092019190915250929594936020810193503591505064010000000081111561077a57600080fd5b82018360208201111561078c57600080fd5b803590602001918460018302840111640100000000831117156107ae57600080fd5b91908080601f0160208091040260200160405190810160405280939291908181526020018383808284376000920191909152509295506112d6945050505050565b6104966004803603604081101561080557600080fd5b50803590602001356001600160a01b03166112e3565b6104966004803603604081101561083157600080fd5b50803590602001356001600160a01b031661134f565b61096e6004803603604081101561085d57600080fd5b81019060208101813564010000000081111561087857600080fd5b82018360208201111561088a57600080fd5b803590602001918460208302840111640100000000831117156108ac57600080fd5b91908080602002602001604051908101604052809392919081815260200183836020028082843760009201919091525092959493602081019350359150506401000000008111156108fc57600080fd5b82018360208201111561090e57600080fd5b8035906020019184602083028401116401000000008311171561093057600080fd5b9190808060200260200160405190810160405280939291908181526020018383602002808284376000920191909152509295506113b0945050505050565b60408051602080825283518183015283519192839290830191858101910280838360005b838110156109aa578181015183820152602001610992565b505050509050019250505060405180910390f35b6109db600480360360208110156109d457600080fd5b50356115d4565b604080516001600160a01b039092168252519081900360200190f35b61049660048036036080811015610a0d57600080fd5b6001600160a01b038235811692602081013590911691810190606081016040820135640100000000811115610a4157600080fd5b820183602082011115610a5357600080fd5b80359060200191846020830284011164010000000083111715610a7557600080fd5b9190808060200260200160405190810160405280939291908181526020018383602002808284376000920191909152509295949360208101935035915050640100000000811115610ac557600080fd5b820183602082011115610ad757600080fd5b80359060200191846001830284011164010000000083111715610af957600080fd5b91908080601f0160208091040260200160405190810160405280939291908181526020018383808284376000920191909152509295506115ef945050505050565b61034f611601565b6109db60048036036020811015610b5857600080fd5b503561168f565b6104966116f9565b61049660048036036020811015610b7d57600080fd5b810190602081018135640100000000811115610b9857600080fd5b820183602082011115610baa57600080fd5b80359060200191846001830284011164010000000083111715610bcc57600080fd5b5090925090506117ba565b61049660048036036060811015610bed57600080fd5b6001600160a01b038235169190810190604081016020820135640100000000811115610c1857600080fd5b820183602082011115610c2a57600080fd5b80359060200191846020830284011164010000000083111715610c4c57600080fd5b919390929091602081019035640100000000811115610c6a57600080fd5b820183602082011115610c7c57600080fd5b80359060200191846020830284011164010000000083111715610c9e57600080fd5b509092509050611895565b6109db611903565b6109db60048036036040811015610cc757600080fd5b5080359060200135611913565b61030c60048036036040811015610cea57600080fd5b50803590602001356001600160a01b0316611938565b61030c60048036036020811015610d1657600080fd5b5035611956565b61049660048036036020811015610d3357600080fd5b50356001600160a01b031661198c565b610496611a59565b6102dd611af0565b61049660048036036040811015610d6957600080fd5b506001600160a01b0381351690602001351515611af5565b61030c60048036036020811015610d9757600080fd5b50356001600160a01b0316611bd6565b61030c60048036036020811015610dbd57600080fd5b5035611c28565b6102dd60048036036020811015610dda57600080fd5b5035611c32565b6102dd60048036036020811015610df757600080fd5b5035611c88565b6102dd60048036036020811015610e1457600080fd5b5035611cf2565b61049660048036036020811015610e3157600080fd5b5035611d09565b61049660048036036040811015610e4e57600080fd5b50803590602001356001600160a01b0316611dd9565b61030c60048036036040811015610e7a57600080fd5b506001600160a01b0381358116916020013516611e32565b610496600480360360a0811015610ea857600080fd5b6001600160a01b03823581169260208101359091169160408201359160608101359181019060a081016080820135640100000000811115610ee857600080fd5b820183602082011115610efa57600080fd5b80359060200191846001830284011164010000000083111715610f1c57600080fd5b91908080601f016020809104026020016040519081016040528093929190818152602001838380828437600092019190915250929550611e60945050505050565b61049660048036036020811015610f7357600080fd5b50356001600160a01b0316611e6f565b60006001600160a01b038316610fe0576040805162461bcd60e51b815260206004820152601760248201527f496e76656e746f72793a207a65726f2061646472657373000000000000000000604482015290519081900360640190fd5b610fe982611956565b15611023576000828152600460205260409020546001600160a01b03848116911614611016576000611019565b60015b60ff169050611048565b5060008181526002602090815260408083206001600160a01b03861684529091529020545b92915050565b6000600160ff1b82161580159061108157507bffffffffffffffffffffffffffffffffffffffffffffffffffffffff8216155b90505b919050565b6001600160e01b03191660009081526020819052604090205460ff1690565b6040518060400160405280600d81526020017f47616d6565566f7563686572730000000000000000000000000000000000000081525081565b6110f16110ec611f9c565b611bd6565b61112c5760405162461bcd60e51b81526004018080602001828103825260308152602001806141d46030913960400191505060405180910390fd5b6111a985858580806020026020016040519081016040528093929190818152602001838360200280828437600092019190915250506040805160208089028281018201909352888252909350889250879182918501908490808284376000920182905250604080516020810190915281815293509150611fa09050565b5050505050565b6111bb6110ec611f9c565b6111f65760405162461bcd60e51b81526004018080602001828103825260308152602001806141d46030913960400191505060405180910390fd5b61129b8787878080602002602001604051908101604052809392919081815260200183836020028082843760009201919091525050604080516020808b0282810182019093528a82529093508a92508991829185019084908082843760009201919091525050604080516020601f8a01819004810282018101909252888152925088915087908190840183828082843760009201919091525060019250611fa0915050565b50505050505050565b606061108182612188565b6112bc8383836000612193565b505050565b60009081526008602052604090206002015490565b6111a9858585858561251e565b60008281526008602052604090206002015461130690611301611f9c565b611938565b6113415760405162461bcd60e51b815260040180806020018281038252602f815260200180614126602f913960400191505060405180910390fd5b61134b82826127b2565b5050565b611357611f9c565b6001600160a01b0316816001600160a01b0316146113a65760405162461bcd60e51b815260040180806020018281038252602f815260200180614250602f913960400191505060405180910390fd5b61134b8282612821565b60608151835114611408576040805162461bcd60e51b815260206004820152601e60248201527f496e76656e746f72793a20696e636f6e73697374656e74206172726179730000604482015290519081900360640190fd5b6060835167ffffffffffffffff8111801561142257600080fd5b5060405190808252806020026020018201604052801561144c578160200160208202803683370190505b50905060005b84518110156115cc5760006001600160a01b031685828151811061147257fe5b60200260200101516001600160a01b031614156114d6576040805162461bcd60e51b815260206004820152601760248201527f496e76656e746f72793a207a65726f2061646472657373000000000000000000604482015290519081900360640190fd5b60008482815181106114e457fe5b602002602001015190506114f781611956565b156115605785828151811061150857fe5b602090810291909101810151600083815260049092526040909120546001600160a01b0390811691161461153d576000611540565b60015b60ff1683838151811061154f57fe5b6020026020010181815250506115c3565b60026000828152602001908152602001600020600087848151811061158157fe5b60200260200101516001600160a01b03166001600160a01b03168152602001908152602001600020548383815181106115b657fe5b6020026020010181815250505b50600101611452565b509392505050565b6005602052600090815260409020546001600160a01b031681565b6115fb84848484612890565b50505050565b6007805460408051602060026001851615610100026000190190941693909304601f810184900484028201840190925281815292918301828280156116875780601f1061165c57610100808354040283529160200191611687565b820191906000526020600020905b81548152906001019060200180831161166a57829003601f168201915b505050505081565b6000818152600460205260408120546001600160a01b031680611081576040805162461bcd60e51b815260206004820152601b60248201527f496e76656e746f72793a206e6f6e2d6578697374696e67204e46540000000000604482015290519081900360640190fd5b611701611f9c565b6006546001600160a01b03908116911614611763576040805162461bcd60e51b815260206004820181905260248201527f4f776e61626c653a2063616c6c6572206973206e6f7420746865206f776e6572604482015290519081900360640190fd5b6006546040516000916001600160a01b0316907f8be0079c531659141344cd1fd0a4f28419497f9722a3daafe3b4186f6b6457e0908390a36006805473ffffffffffffffffffffffffffffffffffffffff19169055565b6117c2611f9c565b6006546001600160a01b03908116911614611824576040805162461bcd60e51b815260206004820181905260248201527f4f776e61626c653a2063616c6c6572206973206e6f7420746865206f776e6572604482015290519081900360640190fd5b6118306007838361406b565b507f04b1dc5c136a3ce9fded8db0ce3d3366c58764ec3a8e4c2b9e52e4ddfe5ebbf7828260405180806020018281038252848482818152602001925080828437600083820152604051601f909101601f19169092018290039550909350505050a15050565b6111a98585858080602002602001604051908101604052809392919081815260200183836020028082843760009201919091525050604080516020808902828101820190935288825290935088925087918291850190849080828437600092019190915250612c8a92505050565b6006546001600160a01b03165b90565b6000828152600860205260408120611931908363ffffffff612eb816565b9392505050565b6000828152600860205260408120611931908363ffffffff612ec416565b6000600160ff1b8216158015906110815750507bffffffffffffffffffffffffffffffffffffffffffffffffffffffff16151590565b6119976110ec611f9c565b6119d25760405162461bcd60e51b81526004018080602001828103825260308152602001806141d46030913960400191505060405180910390fd5b6119db81611bd6565b15611a175760405162461bcd60e51b81526004018080602001828103825260298152602001806142276029913960400191505060405180910390fd5b611a226000826112e3565b6040516001600160a01b038216907f6ae172837ea30b801fbfcdd4108aa1d5bf8ff775444fd70256b44e6bf3dfc3f690600090a250565b611a646110ec611f9c565b611a9f5760405162461bcd60e51b81526004018080602001828103825260308152602001806141d46030913960400191505060405180910390fd5b611ab16000611aac611f9c565b61134f565b611ab9611f9c565b6001600160a01b03167fe94479a9f7e1952cc78f2d6baab678adc1b772d936c6583def489e524cb6669260405160405180910390a2565b600081565b6000611aff611f9c565b9050806001600160a01b0316836001600160a01b03161415611b68576040805162461bcd60e51b815260206004820152601d60248201527f496e76656e746f72793a20617070726f76616c20746f2073656e646572000000604482015290519081900360640190fd5b6001600160a01b03818116600081815260016020908152604080832094881680845294825291829020805460ff1916871515908117909155825190815291517f17307eab39ab6107e8899845ad3d59bd9653f200f220920489ca2b5937696c319281900390910190a3505050565b60006001600160a01b038216611c1d5760405162461bcd60e51b815260040180806020018281038252602981526020018061417b6029913960400191505060405180910390fd5b611081600083611938565b600160ff1b161590565b6000611c3d82611956565b15611c73576000828152600460205260409020546001600160a01b031615611c66576001611c69565b60005b60ff169050611084565b50600081815260036020526040902054611084565b6000611c9382611956565b611ce4576040805162461bcd60e51b815260206004820152601560248201527f496e76656e746f72793a206e6f7420616e204e46540000000000000000000000604482015290519081900360640190fd5b506001600160e01b03191690565b600081815260086020526040812061108190612ed9565b611d11611f9c565b6006546001600160a01b03908116911614611d73576040805162461bcd60e51b815260206004820181905260248201527f4f776e61626c653a2063616c6c6572206973206e6f7420746865206f776e6572604482015290519081900360640190fd5b611d7c81611c28565b611dcd576040805162461bcd60e51b815260206004820152601d60248201527f47616d6565566f7563686572733a206f6e6c792066756e6769626c6573000000604482015290519081900360640190fd5b611dd681612ee4565b50565b600082815260086020526040902060020154611df790611301611f9c565b6113a65760405162461bcd60e51b81526004018080602001828103825260308152602001806141a46030913960400191505060405180910390fd5b6001600160a01b03918216600090815260016020908152604080832093909416825291909152205460ff1690565b6111a9858585858560006130c4565b611e77611f9c565b6006546001600160a01b03908116911614611ed9576040805162461bcd60e51b815260206004820181905260248201527f4f776e61626c653a2063616c6c6572206973206e6f7420746865206f776e6572604482015290519081900360640190fd5b6001600160a01b038116611f1e5760405162461bcd60e51b81526004018080602001828103825260268152602001806141556026913960400191505060405180910390fd5b6006546040516001600160a01b038084169216907f8be0079c531659141344cd1fd0a4f28419497f9722a3daafe3b4186f6b6457e090600090a36006805473ffffffffffffffffffffffffffffffffffffffff19166001600160a01b0392909216919091179055565b6000611931836001600160a01b03841661347a565b3390565b835183518114611ff7576040805162461bcd60e51b815260206004820152601e60248201527f496e76656e746f72793a20696e636f6e73697374656e74206172726179730000604482015290519081900360640190fd5b6001600160a01b038616612052576040805162461bcd60e51b815260206004820152601760248201527f496e76656e746f72793a207a65726f2061646472657373000000000000000000604482015290519081900360640190fd5b600160005b8281101561209b576120938888838151811061206f57fe5b602002602001015188848151811061208357fe5b60200260200101518888876134c4565b600101612057565b506001600160a01b03871660006120b0611f9c565b6001600160a01b03167f4a39dc06d4c0dbc64b70af90fd698a233a518aa5d07e595d983b8c0526c8f7fb8989604051808060200180602001838103835285818151815260200191508051906020019060200280838360005b83811015612120578181015183820152602001612108565b50505050905001838103825284818151815260200191508051906020019060200280838360005b8381101561215f578181015183820152602001612147565b5050505090500194505050505060405180910390a4821561129b5761129b600088888888613534565b60606110818261376c565b60008082612242576121a3611f9c565b90506000816001600160a01b0316876001600160a01b031614806121ec57506001600160a01b0380881660009081526001602090815260408083209386168352929052205460ff165b905080612240576040805162461bcd60e51b815260206004820152601e60248201527f496e76656e746f72793a206e6f6e2d617070726f7665642073656e6465720000604482015290519081900360640190fd5b505b600061224d86611c28565b1561230257846122a4576040805162461bcd60e51b815260206004820152601560248201527f496e76656e746f72793a207a65726f2076616c75650000000000000000000000604482015290519081900360640190fd5b5060008581526002602090815260408083206001600160a01b038a16845290915290205485906122da908663ffffffff61383f16565b60008281526002602090815260408083206001600160a01b038c16845290915290205561249e565b7bffffffffffffffffffffffffffffffffffffffffffffffffffffffff861615612451578460011461237b576040805162461bcd60e51b815260206004820152601a60248201527f496e76656e746f72793a2077726f6e67204e46542076616c7565000000000000604482015290519081900360640190fd5b6000868152600460205260409020546001600160a01b038881169116146123e9576040805162461bcd60e51b815260206004820152601860248201527f496e76656e746f72793a206e6f6e2d6f776e6564204e46540000000000000000604482015290519081900360640190fd5b506000858152600460209081526040808320805473ffffffffffffffffffffffffffffffffffffffff19166001600160a01b03878116919091179091556001600160e01b0319891680855260028452828520918b16855292529091208054869003905561249e565b6040805162461bcd60e51b815260206004820152601b60248201527f496e76656e746f72793a2077726f6e67206964656e7469666965720000000000604482015290519081900360640190fd5b6000818152600360205260409020805486900390558361129b57826001600160a01b0316876001600160a01b0316836001600160a01b03167fc3d58168c5ae7397731d063d5bbf3d657854427343f4c083240f7aacaa2d0f628989604051808381526020018281526020019250505060405180910390a450505050505050565b6001600160a01b038416612579576040805162461bcd60e51b815260206004820152601760248201527f496e76656e746f72793a207a65726f2061646472657373000000000000000000604482015290519081900360640190fd5b8251825181146125d0576040805162461bcd60e51b815260206004820152601e60248201527f496e76656e746f72793a20696e636f6e73697374656e74206172726179730000604482015290519081900360640190fd5b60006125da611f9c565b90506000816001600160a01b0316886001600160a01b0316148061262357506001600160a01b0380891660009081526001602090815260408083209386168352929052205460ff165b905080612677576040805162461bcd60e51b815260206004820152601e60248201527f496e76656e746f72793a206e6f6e2d617070726f7665642073656e6465720000604482015290519081900360640190fd5b600160005b848110156126c0576126b88a8a8a848151811061269557fe5b60200260200101518a85815181106126a957fe5b60200260200101518a876130c4565b60010161267c565b50876001600160a01b0316896001600160a01b0316846001600160a01b03167f4a39dc06d4c0dbc64b70af90fd698a233a518aa5d07e595d983b8c0526c8f7fb8a8a604051808060200180602001838103835285818151815260200191508051906020019060200280838360005b8381101561274657818101518382015260200161272e565b50505050905001838103825284818151815260200191508051906020019060200280838360005b8381101561278557818101518382015260200161276d565b5050505090500194505050505060405180910390a46127a78989898989613534565b505050505050505050565b60008281526008602052604090206127d0908263ffffffff611f8716565b1561134b576127dd611f9c565b6001600160a01b0316816001600160a01b0316837f2f8788117e7eff1d82e926ec794901d17c78024a50270940304540a733656f0d60405160405180910390a45050565b600082815260086020526040902061283f908263ffffffff61388116565b1561134b5761284c611f9c565b6001600160a01b0316816001600160a01b0316837ff6391f5c32d9c69d2a47ea670b442974b53935d1edc7fd64eb21e047a839171b60405160405180910390a45050565b6001600160a01b0383166128eb576040805162461bcd60e51b815260206004820152601760248201527f496e76656e746f72793a207a65726f2061646472657373000000000000000000604482015290519081900360640190fd5b815160608167ffffffffffffffff8111801561290657600080fd5b50604051908082528060200260200182016040528015612930578160200160208202803683370190505b509050600061293d611f9c565b90506000816001600160a01b0316886001600160a01b0316148061298657506001600160a01b0380891660009081526001602090815260408083209386168352929052205460ff165b9050806129da576040805162461bcd60e51b815260206004820152601e60248201527f496e76656e746f72793a206e6f6e2d617070726f7665642073656e6465720000604482015290519081900360640190fd5b6000805b85811015612b7e5760008882815181106129f457fe5b60200260200101519050612a0781611956565b612a58576040805162461bcd60e51b815260206004820152601560248201527f496e76656e746f72793a206e6f7420616e204e46540000000000000000000000604482015290519081900360640190fd5b6000818152600460205260409020546001600160a01b038c8116911614612ac6576040805162461bcd60e51b815260206004820152601860248201527f496e76656e746f72793a204e4654206e6f74206f776e65640000000000000000604482015290519081900360640190fd5b6000818152600460205260409020805473ffffffffffffffffffffffffffffffffffffffff19166001600160a01b038c161790558551600190879084908110612b0b57fe5b602090810291909101015281612b2d576001600160e01b031981169250612b75565b6001600160e01b031981168314612b755760405162461bcd60e51b81526004018080602001828103825260238152602001806142046023913960400191505060405180910390fd5b506001016129de565b5060008181526002602090815260408083206001600160a01b038d811680865291845282852080548b900390558c811680865283862080548c01905583518481528d51948101949094528c5190959294918916937f4a39dc06d4c0dbc64b70af90fd698a233a518aa5d07e595d983b8c0526c8f7fb938e938c938392838301926060850192888201929102908190849084905b83811015612c29578181015183820152602001612c11565b50505050905001838103825284818151815260200191508051906020019060200280838360005b83811015612c68578181015183820152602001612c50565b5050505090500194505050505060405180910390a46127a7838989878a613534565b815181518114612ce1576040805162461bcd60e51b815260206004820152601e60248201527f496e76656e746f72793a20696e636f6e73697374656e74206172726179730000604482015290519081900360640190fd5b6000612ceb611f9c565b90506000816001600160a01b0316866001600160a01b03161480612d3457506001600160a01b0380871660009081526001602090815260408083209386168352929052205460ff165b905080612d88576040805162461bcd60e51b815260206004820152601e60248201527f496e76656e746f72793a206e6f6e2d617070726f7665642073656e6465720000604482015290519081900360640190fd5b600160005b84811015612dcf57612dc788888381518110612da557fe5b6020026020010151888481518110612db957fe5b602002602001015185612193565b600101612d8d565b506000809050806001600160a01b0316886001600160a01b0316856001600160a01b03167f4a39dc06d4c0dbc64b70af90fd698a233a518aa5d07e595d983b8c0526c8f7fb8a8a604051808060200180602001838103835285818151815260200191508051906020019060200280838360005b83811015612e5a578181015183820152602001612e42565b50505050905001838103825284818151815260200191508051906020019060200280838360005b83811015612e99578181015183820152602001612e81565b5050505090500194505050505060405180910390a45050505050505050565b60006119318383613896565b6000611931836001600160a01b0384166138fa565b600061108182613912565b612eed81611956565b15612f3f576040805162461bcd60e51b815260206004820152601b60248201527f496e76656e746f72793a206e6f74206120636f6c6c656374696f6e0000000000604482015290519081900360640190fd5b6000818152600560205260409020546001600160a01b031615612fa9576040805162461bcd60e51b815260206004820152601e60248201527f496e76656e746f72793a206578697374696e6720636f6c6c656374696f6e0000604482015290519081900360640190fd5b612fb1611f9c565b6000828152600560205260409020805473ffffffffffffffffffffffffffffffffffffffff19166001600160a01b0392909216919091179055612ff381611c28565b1515817f4ebf8ad0df535ba5e487bc9cb27fe44120ca81c3a95d3eba79c0bd1df2ab2d5d60405160405180910390a3807f6bb7ff708619ba0610cba295a58592e0451dee2622938c8755667688daf3529b61304d83612188565b6040805160208082528351818301528351919283929083019185019080838360005b8381101561308757818101518382015260200161306f565b50505050905090810190601f1680156130b45780820380516001836020036101000a031916815260200191505b509250505060405180910390a250565b6000816131cd576001600160a01b038616613126576040805162461bcd60e51b815260206004820152601760248201527f496e76656e746f72793a207a65726f2061646472657373000000000000000000604482015290519081900360640190fd5b61312e611f9c565b90506000816001600160a01b0316886001600160a01b0316148061317757506001600160a01b0380891660009081526001602090815260408083209386168352929052205460ff165b9050806131cb576040805162461bcd60e51b815260206004820152601e60248201527f496e76656e746f72793a206e6f6e2d617070726f7665642073656e6465720000604482015290519081900360640190fd5b505b60006131d886611c28565b1561328d578461322f576040805162461bcd60e51b815260206004820152601560248201527f496e76656e746f72793a207a65726f2076616c75650000000000000000000000604482015290519081900360640190fd5b5060008581526002602090815260408083206001600160a01b038b1684529091529020548590613265908663ffffffff61383f16565b60008281526002602090815260408083206001600160a01b038d1684529091529020556133d8565b7bffffffffffffffffffffffffffffffffffffffffffffffffffffffff8616156124515784600114613306576040805162461bcd60e51b815260206004820152601a60248201527f496e76656e746f72793a2077726f6e67204e46542076616c7565000000000000604482015290519081900360640190fd5b6000868152600460205260409020546001600160a01b03898116911614613374576040805162461bcd60e51b815260206004820152601860248201527f496e76656e746f72793a206e6f6e2d6f776e6564204e46540000000000000000604482015290519081900360640190fd5b506000858152600460209081526040808320805473ffffffffffffffffffffffffffffffffffffffff19166001600160a01b038b8116919091179091556001600160e01b0319891680855260028452828520918c1685529252909120805486900390555b60008181526002602090815260408083206001600160a01b038b168452909152902080548601905582613470576134128888888888613916565b866001600160a01b0316886001600160a01b0316836001600160a01b03167fc3d58168c5ae7397731d063d5bbf3d657854427343f4c083240f7aacaa2d0f628989604051808381526020018281526020019250505060405180910390a45b5050505050505050565b600061348683836138fa565b6134bc57508154600181810184556000848152602080822090930184905584548482528286019093526040902091909155611048565b506000611048565b6134cd85611c28565b61351e576040805162461bcd60e51b815260206004820152601d60248201527f47616d6565566f7563686572733a206f6e6c792066756e6769626c6573000000604482015290519081900360640190fd5b61352c868686868686613ad2565b505050505050565b613546846001600160a01b0316613d9f565b61354f576111a9565b6000846001600160a01b031663bc197c81613568611f9c565b888787876040518663ffffffff1660e01b815260040180866001600160a01b03166001600160a01b03168152602001856001600160a01b03166001600160a01b03168152602001806020018060200180602001848103845287818151815260200191508051906020019060200280838360005b838110156135f35781810151838201526020016135db565b50505050905001848103835286818151815260200191508051906020019060200280838360005b8381101561363257818101518382015260200161361a565b50505050905001848103825285818151815260200191508051906020019080838360005b8381101561366e578181015183820152602001613656565b50505050905090810190601f16801561369b5780820380516001836020036101000a031916815260200191505b5098505050505050505050602060405180830381600087803b1580156136c057600080fd5b505af11580156136d4573d6000803e3d6000fd5b505050506040513d60208110156136ea57600080fd5b505190506001600160e01b031981167fbc197c81000000000000000000000000000000000000000000000000000000001461352c576040805162461bcd60e51b815260206004820152601b60248201527f496e76656e746f72793a207472616e7366657220726566757365640000000000604482015290519081900360640190fd5b6060600761377983613da5565b60405160200180838054600181600116156101000203166002900480156137d75780601f106137b55761010080835404028352918201916137d7565b820191906000526020600020905b8154815290600101906020018083116137c3575b5050825160208401908083835b602083106138035780518252601f1990920191602091820191016137e4565b6001836020036101000a038019825116818451168082178552505050505050905001925050506040516020818303038152906040529050919050565b600061193183836040518060400160405280601e81526020017f536166654d6174683a207375627472616374696f6e206f766572666c6f770000815250613eb4565b6000611931836001600160a01b038416613f4b565b815460009082106138d85760405162461bcd60e51b81526004018080602001828103825260228152602001806141046022913960400191505060405180910390fd5b8260000182815481106138e757fe5b9060005260206000200154905092915050565b60009081526001919091016020526040902054151590565b5490565b613928846001600160a01b0316613d9f565b613931576111a9565b6000846001600160a01b031663f23a6e6161394a611f9c565b888787876040518663ffffffff1660e01b815260040180866001600160a01b03166001600160a01b03168152602001856001600160a01b03166001600160a01b0316815260200184815260200183815260200180602001828103825283818151815260200191508051906020019080838360005b838110156139d65781810151838201526020016139be565b50505050905090810190601f168015613a035780820380516001836020036101000a031916815260200191505b509650505050505050602060405180830381600087803b158015613a2657600080fd5b505af1158015613a3a573d6000803e3d6000fd5b505050506040513d6020811015613a5057600080fd5b505190506001600160e01b031981167ff23a6e61000000000000000000000000000000000000000000000000000000001461352c576040805162461bcd60e51b815260206004820152601b60248201527f496e76656e746f72793a207472616e7366657220726566757365640000000000604482015290519081900360640190fd5b80613b32576001600160a01b038616613b32576040805162461bcd60e51b815260206004820152601760248201527f496e76656e746f72793a207a65726f2061646472657373000000000000000000604482015290519081900360640190fd5b6000613b3d86611c28565b15613bca5784613b94576040805162461bcd60e51b815260206004820152601560248201527f496e76656e746f72793a207a65726f2076616c75650000000000000000000000604482015290519081900360640190fd5b506000858152600360205260409020548590613bb6908663ffffffff61401116565b600082815260036020526040902055613d02565b7bffffffffffffffffffffffffffffffffffffffffffffffffffffffff8616156124515784600114613c43576040805162461bcd60e51b815260206004820152601a60248201527f496e76656e746f72793a2077726f6e67204e46542076616c7565000000000000604482015290519081900360640190fd5b6000868152600460205260409020546001600160a01b031615613cad576040805162461bcd60e51b815260206004820152601d60248201527f496e76656e746f72793a204e465420616c726561647920657869737473000000604482015290519081900360640190fd5b506000858152600460209081526040808320805473ffffffffffffffffffffffffffffffffffffffff19166001600160a01b038b161790556001600160e01b0319881680845260039092529091208054860190555b60008181526002602090815260408083206001600160a01b038b16845290915290208054860190558161129b576001600160a01b0387166000613d43611f9c565b6001600160a01b03167fc3d58168c5ae7397731d063d5bbf3d657854427343f4c083240f7aacaa2d0f628989604051808381526020018281526020019250505060405180910390a4821561129b5761129b600088888888613916565b3b151590565b606081613de6575060408051808201909152600181527f30000000000000000000000000000000000000000000000000000000000000006020820152611084565b8160005b8115613dfe57600101600a82049150613dea565b60608167ffffffffffffffff81118015613e1757600080fd5b506040519080825280601f01601f191660200182016040528015613e42576020820181803683370190505b50859350905060001982015b8315613eab57600a840660300160f81b82828060019003935081518110613e7157fe5b60200101907effffffffffffffffffffffffffffffffffffffffffffffffffffffffffffff1916908160001a905350600a84049350613e4e565b50949350505050565b60008184841115613f435760405162461bcd60e51b81526004018080602001828103825283818151815260200191508051906020019080838360005b83811015613f08578181015183820152602001613ef0565b50505050905090810190601f168015613f355780820380516001836020036101000a031916815260200191505b509250505060405180910390fd5b505050900390565b600081815260018301602052604081205480156140075783546000198083019190810190600090879083908110613f7e57fe5b9060005260206000200154905080876000018481548110613f9b57fe5b600091825260208083209091019290925582815260018981019092526040902090840190558654879080613fcb57fe5b60019003818190600052602060002001600090559055866001016000878152602001908152602001600020600090556001945050505050611048565b6000915050611048565b600082820183811015611931576040805162461bcd60e51b815260206004820152601b60248201527f536166654d6174683a206164646974696f6e206f766572666c6f770000000000604482015290519081900360640190fd5b828054600181600116156101000203166002900490600052602060002090601f016020900481019282601f106140ac5782800160ff198235161785556140d9565b828001600101855582156140d9579182015b828111156140d95782358255916020019190600101906140be565b506140e59291506140e9565b5090565b61191091905b808211156140e557600081556001016140ef56fe456e756d657261626c655365743a20696e646578206f7574206f6620626f756e6473416363657373436f6e74726f6c3a2073656e646572206d75737420626520616e2061646d696e20746f206772616e744f776e61626c653a206e6577206f776e657220697320746865207a65726f20616464726573734d696e746572526f6c653a2061646472657373207a65726f2063616e6e6f74206265206d696e746572416363657373436f6e74726f6c3a2073656e646572206d75737420626520616e2061646d696e20746f207265766f6b654d696e746572526f6c653a2063616c6c657220646f6573206e6f74206861766520746865204d696e74657220726f6c65496e76656e746f72793a20696e636f6e73697374656e7420636f6c6c656374696f6e734d696e746572526f6c653a2061646420616e206163636f756e7420616c7265616479206d696e746572416363657373436f6e74726f6c3a2063616e206f6e6c792072656e6f756e636520726f6c657320666f722073656c66a26469706673582212209eb3aaf89bf579486a3d06d19be1ae43db677af017a16515ddb170718575a86764736f6c63430006080033",
  "linkReferences": {},
  "deployedLinkReferences": {}
}